{
  "_format": "hh-sol-artifact-1",
  "contractName": "Game",
  "sourceName": "contracts/Game.sol",
  "abi": [
    {
      "inputs": [],
      "stateMutability": "nonpayable",
      "type": "constructor"
    },
    {
      "inputs": [
        {
          "internalType": "address",
          "name": "owner",
          "type": "address"
        }
      ],
      "name": "OwnableInvalidOwner",
      "type": "error"
    },
    {
      "inputs": [
        {
          "internalType": "address",
          "name": "account",
          "type": "address"
        }
      ],
      "name": "OwnableUnauthorizedAccount",
      "type": "error"
    },
    {
      "anonymous": false,
      "inputs": [
        {
          "indexed": true,
          "internalType": "address",
          "name": "nftContract",
          "type": "address"
        },
        {
          "indexed": false,
          "internalType": "bool",
          "name": "isAllowed",
          "type": "bool"
        }
      ],
      "name": "AllowedNFTContract",
      "type": "event"
    },
    {
      "anonymous": false,
      "inputs": [
        {
          "indexed": false,
          "internalType": "int256",
          "name": "dotdelta",
          "type": "int256"
        },
        {
          "indexed": true,
          "internalType": "uint256",
          "name": "playerid",
          "type": "uint256"
        }
      ],
      "name": "DotChanged",
      "type": "event"
    },
    {
      "anonymous": false,
      "inputs": [
        {
          "indexed": false,
          "internalType": "uint256",
          "name": "dot",
          "type": "uint256"
        },
        {
          "indexed": false,
          "internalType": "uint256",
          "name": "level",
          "type": "uint256"
        }
      ],
      "name": "DotLocked",
      "type": "event"
    },
    {
      "anonymous": false,
      "inputs": [
        {
          "indexed": false,
          "internalType": "uint256",
          "name": "ending",
          "type": "uint256"
        }
      ],
      "name": "GameEnded",
      "type": "event"
    },
    {
      "anonymous": false,
      "inputs": [
        {
          "indexed": true,
          "internalType": "address",
          "name": "nftContract",
          "type": "address"
        },
        {
          "indexed": true,
          "internalType": "uint256",
          "name": "tokenId",
          "type": "uint256"
        },
        {
          "indexed": true,
          "internalType": "address",
          "name": "owner",
          "type": "address"
        },
        {
          "indexed": false,
          "internalType": "uint256",
          "name": "playerid",
          "type": "uint256"
        }
      ],
      "name": "NFTRegistered",
      "type": "event"
    },
    {
      "anonymous": false,
      "inputs": [
        {
          "indexed": true,
          "internalType": "address",
          "name": "previousOwner",
          "type": "address"
        },
        {
          "indexed": true,
          "internalType": "address",
          "name": "newOwner",
          "type": "address"
        }
      ],
      "name": "OwnershipTransferred",
      "type": "event"
    },
    {
      "anonymous": false,
      "inputs": [
        {
          "indexed": false,
          "internalType": "uint256",
          "name": "attackerplayerid",
          "type": "uint256"
        },
        {
          "indexed": false,
          "internalType": "uint256",
          "name": "victimplayerid",
          "type": "uint256"
        },
        {
          "indexed": false,
          "internalType": "uint256",
          "name": "dotdelta",
          "type": "uint256"
        }
      ],
      "name": "PlayerAttacked",
      "type": "event"
    },
    {
      "anonymous": false,
      "inputs": [
        {
          "indexed": false,
          "internalType": "uint256",
          "name": "maze",
          "type": "uint256"
        },
        {
          "indexed": false,
          "internalType": "uint256",
          "name": "x",
          "type": "uint256"
        },
        {
          "indexed": false,
          "internalType": "uint256",
          "name": "y",
          "type": "uint256"
        },
        {
          "indexed": false,
          "internalType": "uint256",
          "name": "playerid",
          "type": "uint256"
        }
      ],
      "name": "PlayerMoved",
      "type": "event"
    },
    {
      "anonymous": false,
      "inputs": [
        {
          "indexed": false,
          "internalType": "uint256",
          "name": "attackerplayerid",
          "type": "uint256"
        },
        {
          "indexed": false,
          "internalType": "uint256",
          "name": "victimplayerid",
          "type": "uint256"
        }
      ],
      "name": "PlayerRobbed",
      "type": "event"
    },
    {
      "anonymous": false,
      "inputs": [
        {
          "indexed": false,
          "internalType": "enum PlayerStatus",
          "name": "status",
          "type": "uint8"
        },
        {
          "indexed": false,
          "internalType": "uint256",
          "name": "playerid",
          "type": "uint256"
        }
      ],
      "name": "PlayerStatusChanged",
      "type": "event"
    },
    {
      "inputs": [
        {
          "internalType": "uint256",
          "name": "",
          "type": "uint256"
        }
      ],
      "name": "DAILY_MOVES_FOR_LEVELS",
      "outputs": [
        {
          "internalType": "uint256",
          "name": "",
          "type": "uint256"
        }
      ],
      "stateMutability": "view",
      "type": "function"
    },
    {
      "inputs": [
        {
          "internalType": "uint256",
          "name": "",
          "type": "uint256"
        }
      ],
      "name": "DOTS_REQUIRED_FOR_LEVELS",
      "outputs": [
        {
          "internalType": "uint256",
          "name": "",
          "type": "uint256"
        }
      ],
      "stateMutability": "view",
      "type": "function"
    },
    {
      "inputs": [],
      "name": "GAME_ENDED",
      "outputs": [
        {
          "internalType": "enum Ending",
          "name": "",
          "type": "uint8"
        }
      ],
      "stateMutability": "view",
      "type": "function"
    },
    {
      "inputs": [
        {
          "internalType": "uint256",
          "name": "playerid",
          "type": "uint256"
        },
        {
          "internalType": "uint256",
          "name": "shieldsecond",
          "type": "uint256"
        }
      ],
      "name": "_addShieldTime",
      "outputs": [],
      "stateMutability": "nonpayable",
      "type": "function"
    },
    {
      "inputs": [
        {
          "internalType": "uint256",
          "name": "playerid",
          "type": "uint256"
        }
      ],
      "name": "_getPlayerIdAddress",
      "outputs": [
        {
          "internalType": "address",
          "name": "",
          "type": "address"
        }
      ],
      "stateMutability": "view",
      "type": "function"
    },
    {
      "inputs": [
        {
          "internalType": "address",
          "name": "",
          "type": "address"
        }
      ],
      "name": "allowedNFTContracts",
      "outputs": [
        {
          "internalType": "bool",
          "name": "",
          "type": "bool"
        }
      ],
      "stateMutability": "view",
      "type": "function"
    },
    {
      "inputs": [
        {
          "internalType": "address",
          "name": "",
          "type": "address"
        }
      ],
      "name": "allowedOperators",
      "outputs": [
        {
          "internalType": "bool",
          "name": "",
          "type": "bool"
        }
      ],
      "stateMutability": "view",
      "type": "function"
    },
    {
      "inputs": [
        {
          "internalType": "uint256",
          "name": "playerid",
          "type": "uint256"
        },
        {
          "internalType": "uint256",
          "name": "shieldhours",
          "type": "uint256"
        }
      ],
      "name": "buyShield",
      "outputs": [],
      "stateMutability": "payable",
      "type": "function"
    },
    {
      "inputs": [
        {
          "internalType": "address",
          "name": "nftContract",
          "type": "address"
        },
        {
          "internalType": "uint256",
          "name": "tokenId",
          "type": "uint256"
        }
      ],
      "name": "checkPlayerId",
      "outputs": [
        {
          "internalType": "uint256",
          "name": "",
          "type": "uint256"
        }
      ],
      "stateMutability": "view",
      "type": "function"
    },
    {
      "inputs": [],
      "name": "eliminationModeOn",
      "outputs": [
        {
          "internalType": "bool",
          "name": "",
          "type": "bool"
        }
      ],
      "stateMutability": "view",
      "type": "function"
    },
    {
      "inputs": [
        {
          "internalType": "address",
          "name": "nftContract",
          "type": "address"
        },
        {
          "internalType": "uint256",
          "name": "tokenId",
          "type": "uint256"
        },
        {
          "internalType": "uint8",
          "name": "maze",
          "type": "uint8"
        },
        {
          "internalType": "uint8",
          "name": "x",
          "type": "uint8"
        },
        {
          "internalType": "uint8",
          "name": "y",
          "type": "uint8"
        }
      ],
      "name": "enterGame",
      "outputs": [],
      "stateMutability": "nonpayable",
      "type": "function"
    },
    {
      "inputs": [
        {
          "internalType": "uint256",
          "name": "playerid",
          "type": "uint256"
        },
        {
          "internalType": "uint256",
          "name": "destination_playerid",
          "type": "uint256"
        }
      ],
      "name": "forfeit",
      "outputs": [],
      "stateMutability": "nonpayable",
      "type": "function"
    },
    {
      "inputs": [
        {
          "internalType": "enum Game.ConfigKey",
          "name": "key",
          "type": "uint8"
        }
      ],
      "name": "getConfigUint",
      "outputs": [
        {
          "internalType": "uint256",
          "name": "",
          "type": "uint256"
        }
      ],
      "stateMutability": "view",
      "type": "function"
    },
    {
      "inputs": [],
      "name": "level3DotsLocked",
      "outputs": [
        {
          "internalType": "uint256",
          "name": "",
          "type": "uint256"
        }
      ],
      "stateMutability": "view",
      "type": "function"
    },
    {
      "inputs": [],
      "name": "level4DotsLocked",
      "outputs": [
        {
          "internalType": "uint256",
          "name": "",
          "type": "uint256"
        }
      ],
      "stateMutability": "view",
      "type": "function"
    },
    {
      "inputs": [
        {
          "internalType": "uint256",
          "name": "playerid",
          "type": "uint256"
        }
      ],
      "name": "lockIn",
      "outputs": [],
      "stateMutability": "nonpayable",
      "type": "function"
    },
    {
      "inputs": [],
      "name": "mazeContract",
      "outputs": [
        {
          "internalType": "contract Maze",
          "name": "",
          "type": "address"
        }
      ],
      "stateMutability": "view",
      "type": "function"
    },
    {
      "inputs": [
        {
          "internalType": "uint256",
          "name": "playerid",
          "type": "uint256"
        },
        {
          "internalType": "uint8",
          "name": "maze",
          "type": "uint8"
        },
        {
          "internalType": "uint8",
          "name": "x",
          "type": "uint8"
        },
        {
          "internalType": "uint8",
          "name": "y",
          "type": "uint8"
        }
      ],
      "name": "movePlayerTo",
      "outputs": [],
      "stateMutability": "payable",
      "type": "function"
    },
    {
      "inputs": [],
      "name": "next_player_id",
      "outputs": [
        {
          "internalType": "uint256",
          "name": "",
          "type": "uint256"
        }
      ],
      "stateMutability": "view",
      "type": "function"
    },
    {
      "inputs": [
        {
          "internalType": "address",
          "name": "",
          "type": "address"
        },
        {
          "internalType": "uint256",
          "name": "",
          "type": "uint256"
        }
      ],
      "name": "nft_to_playerid",
      "outputs": [
        {
          "internalType": "uint256",
          "name": "",
          "type": "uint256"
        }
      ],
      "stateMutability": "view",
      "type": "function"
    },
    {
      "inputs": [],
      "name": "owner",
      "outputs": [
        {
          "internalType": "address",
          "name": "",
          "type": "address"
        }
      ],
      "stateMutability": "view",
      "type": "function"
    },
    {
      "inputs": [
        {
          "internalType": "uint256",
          "name": "playerid",
          "type": "uint256"
        },
        {
          "internalType": "address",
          "name": "addr",
          "type": "address"
        }
      ],
      "name": "ownsNft",
      "outputs": [
        {
          "internalType": "bool",
          "name": "",
          "type": "bool"
        }
      ],
      "stateMutability": "view",
      "type": "function"
    },
    {
      "inputs": [
        {
          "internalType": "uint256",
          "name": "playerid",
          "type": "uint256"
        }
      ],
      "name": "playerActive",
      "outputs": [
        {
          "internalType": "bool",
          "name": "",
          "type": "bool"
        }
      ],
      "stateMutability": "view",
      "type": "function"
    },
    {
      "inputs": [
        {
          "internalType": "uint256",
          "name": "",
          "type": "uint256"
        }
      ],
      "name": "players",
      "outputs": [
        {
          "components": [
            {
              "internalType": "uint8",
              "name": "x",
              "type": "uint8"
            },
            {
              "internalType": "uint8",
              "name": "y",
              "type": "uint8"
            },
            {
              "internalType": "uint8",
              "name": "maze",
              "type": "uint8"
            }
          ],
          "internalType": "struct PlayerPosition",
          "name": "playerposition",
          "type": "tuple"
        },
        {
          "internalType": "uint256",
          "name": "dots",
          "type": "uint256"
        },
        {
          "internalType": "uint256",
          "name": "level",
          "type": "uint256"
        },
        {
          "internalType": "uint256",
          "name": "nextMoveTime",
          "type": "uint256"
        },
        {
          "internalType": "uint256",
          "name": "nextSwitchMazeTime",
          "type": "uint256"
        },
        {
          "internalType": "uint256",
          "name": "shieldExpireTime",
          "type": "uint256"
        },
        {
          "internalType": "uint256",
          "name": "protectionExpireTime",
          "type": "uint256"
        },
        {
          "internalType": "uint256",
          "name": "vulnerableTime",
          "type": "uint256"
        },
        {
          "internalType": "address",
          "name": "nftContract",
          "type": "address"
        },
        {
          "internalType": "uint256",
          "name": "tokenId",
          "type": "uint256"
        },
        {
          "components": [
            {
              "internalType": "uint256",
              "name": "day",
              "type": "uint256"
            },
            {
              "internalType": "uint256",
              "name": "move",
              "type": "uint256"
            }
          ],
          "internalType": "struct DailyMove",
          "name": "moveInfo",
          "type": "tuple"
        },
        {
          "internalType": "enum PlayerStatus",
          "name": "status",
          "type": "uint8"
        }
      ],
      "stateMutability": "view",
      "type": "function"
    },
    {
      "inputs": [],
      "name": "renounceOwnership",
      "outputs": [],
      "stateMutability": "nonpayable",
      "type": "function"
    },
    {
      "inputs": [],
      "name": "rewardContract",
      "outputs": [
        {
          "internalType": "contract Reward",
          "name": "",
          "type": "address"
        }
      ],
      "stateMutability": "view",
      "type": "function"
    },
    {
      "inputs": [
        {
          "internalType": "uint256",
          "name": "attacker_playerid",
          "type": "uint256"
        },
        {
          "internalType": "uint256",
          "name": "victim_playerid",
          "type": "uint256"
        }
      ],
      "name": "rob",
      "outputs": [],
      "stateMutability": "nonpayable",
      "type": "function"
    },
    {
      "inputs": [
        {
          "internalType": "address",
          "name": "nftContract",
          "type": "address"
        },
        {
          "internalType": "bool",
          "name": "isAllowed",
          "type": "bool"
        }
      ],
      "name": "setAllowedNFTContract",
      "outputs": [],
      "stateMutability": "nonpayable",
      "type": "function"
    },
    {
      "inputs": [
        {
          "internalType": "enum Game.ConfigKey",
          "name": "key",
          "type": "uint8"
        },
        {
          "internalType": "uint256",
          "name": "value",
          "type": "uint256"
        }
      ],
      "name": "setConfigUint",
      "outputs": [],
      "stateMutability": "nonpayable",
      "type": "function"
    },
    {
      "inputs": [
        {
          "internalType": "uint256",
          "name": "level",
          "type": "uint256"
        },
        {
          "internalType": "uint256",
          "name": "value",
          "type": "uint256"
        }
      ],
      "name": "setDailyMovesForLevel",
      "outputs": [],
      "stateMutability": "nonpayable",
      "type": "function"
    },
    {
      "inputs": [
        {
          "internalType": "uint256",
          "name": "level",
          "type": "uint256"
        },
        {
          "internalType": "uint256",
          "name": "value",
          "type": "uint256"
        }
      ],
      "name": "setDotsRequiredForLevel",
      "outputs": [],
      "stateMutability": "nonpayable",
      "type": "function"
    },
    {
      "inputs": [
        {
          "internalType": "address",
          "name": "_contract",
          "type": "address"
        }
      ],
      "name": "setMazeContract",
      "outputs": [],
      "stateMutability": "nonpayable",
      "type": "function"
    },
    {
      "inputs": [
        {
          "internalType": "address",
          "name": "_operator",
          "type": "address"
        },
        {
          "internalType": "bool",
          "name": "allowed",
          "type": "bool"
        }
      ],
      "name": "setOperator",
      "outputs": [],
      "stateMutability": "nonpayable",
      "type": "function"
    },
    {
      "inputs": [
        {
          "internalType": "address",
          "name": "_contract",
          "type": "address"
        }
      ],
      "name": "setRewardContract",
      "outputs": [],
      "stateMutability": "nonpayable",
      "type": "function"
    },
    {
      "inputs": [],
      "name": "toggleGame",
      "outputs": [],
      "stateMutability": "nonpayable",
      "type": "function"
    },
    {
      "inputs": [
        {
          "internalType": "address",
          "name": "newOwner",
          "type": "address"
        }
      ],
      "name": "transferOwnership",
      "outputs": [],
      "stateMutability": "nonpayable",
      "type": "function"
    },
    {
      "inputs": [],
      "name": "withdraw",
      "outputs": [],
      "stateMutability": "nonpayable",
      "type": "function"
    }
  ],
  "bytecode": "0x608060405260016006556000600a60006101000a81548160ff0219169083600481111561002f5761002e610614565b5b02179055506040518060c00160405280600061ffff168152602001600061ffff168152602001601561ffff168152602001605a61ffff16815260200160bd61ffff16815260200161076361ffff16815250600c906006610090929190610552565b506040518060c00160405280600060ff168152602001600a60ff168152602001600f60ff168152602001601460ff168152602001601960ff168152602001601e60ff16815250600d9060066100e69291906105a5565b506000600e60006101000a81548160ff02191690831515021790555034801561010e57600080fd5b5033600073ffffffffffffffffffffffffffffffffffffffff168173ffffffffffffffffffffffffffffffffffffffff16036101825760006040517f1e4fbdf70000000000000000000000000000000000000000000000000000000081526004016101799190610684565b60405180910390fd5b6101918161048e60201b60201c565b50603c600b600080600b8111156101ab576101aa610614565b5b600b8111156101bd576101bc610614565b5b815260200190815260200160002081905550600a600b60006001600b8111156101e9576101e8610614565b5b600b8111156101fb576101fa610614565b5b81526020019081526020016000208190555061a8c0600b60006002600b81111561022857610227610614565b5b600b81111561023a57610239610614565b5b81526020019081526020016000208190555062015180600b60006003600b81111561026857610267610614565b5b600b81111561027a57610279610614565b5b8152602001908152602001600020819055506203f480600b60006004600b8111156102a8576102a7610614565b5b600b8111156102ba576102b9610614565b5b81526020019081526020016000208190555066038d7ea4c68000600b60006005600b8111156102ec576102eb610614565b5b600b8111156102fe576102fd610614565b5b815260200190815260200160002081905550652d79883d2000600b60006006600b81111561032f5761032e610614565b5b600b81111561034157610340610614565b5b8152602001908152602001600020819055506003600b60006007600b81111561036d5761036c610614565b5b600b81111561037f5761037e610614565b5b8152602001908152602001600020819055506003600b60006008600b8111156103ab576103aa610614565b5b600b8111156103bd576103bc610614565b5b815260200190815260200160002081905550600a600b60006009600b8111156103e9576103e8610614565b5b600b8111156103fb576103fa610614565b5b815260200190815260200160002081905550600a600b6000600a600b81111561042757610426610614565b5b600b81111561043957610438610614565b5b815260200190815260200160002081905550610258600b6000600b8081111561046557610464610614565b5b600b81111561047757610476610614565b5b81526020019081526020016000208190555061069f565b60008060009054906101000a900473ffffffffffffffffffffffffffffffffffffffff169050816000806101000a81548173ffffffffffffffffffffffffffffffffffffffff021916908373ffffffffffffffffffffffffffffffffffffffff1602179055508173ffffffffffffffffffffffffffffffffffffffff168173ffffffffffffffffffffffffffffffffffffffff167f8be0079c531659141344cd1fd0a4f28419497f9722a3daafe3b4186f6b6457e060405160405180910390a35050565b828054828255906000526020600020908101928215610594579160200282015b82811115610593578251829061ffff16905591602001919060010190610572565b5b5090506105a191906105f7565b5090565b8280548282559060005260206000209081019282156105e6579160200282015b828111156105e5578251829060ff169055916020019190600101906105c5565b5b5090506105f391906105f7565b5090565b5b808211156106105760008160009055506001016105f8565b5090565b7f4e487b7100000000000000000000000000000000000000000000000000000000600052602160045260246000fd5b600073ffffffffffffffffffffffffffffffffffffffff82169050919050565b600061066e82610643565b9050919050565b61067e81610663565b82525050565b60006020820190506106996000830184610675565b92915050565b615dad806106ae6000396000f3fe60806040526004361061021a5760003560e01c80638da5cb5b11610123578063cb392393116100ab578063deef2a0e1161006f578063deef2a0e146107cd578063f10dcc6b1461080a578063f2fde38b14610826578063f44ca0911461084f578063f71d96cb1461086b5761021a565b8063cb392393146106d6578063ce01f1a4146106ff578063cec3344a1461072a578063cf5a0d4614610767578063d8691bff146107905761021a565b80639fed85ef116100f25780639fed85ef146105df578063a3e2030514610608578063a6674f8814610631578063bba01e491461066e578063c0f6ae97146106995761021a565b80638da5cb5b14610521578063949506f91461054c5780639c96fb20146105775780639fd6865e146105a25761021a565b80636579ee29116101a65780637159292c116101755780637159292c1461042a57806378dccede146104675780637b33d0de146104a45780637fd60e42146104e157806380df50a8146104f85761021a565b80636579ee29146103945780636ea69d62146103bd57806370d3133e146103e8578063715018a6146104135761021a565b806329ad77f9116101ed57806329ad77f9146102d95780633a1cafa8146103025780633ccfd60b1461032b57806351508f0a14610342578063558a72971461036b5761021a565b8063020e33961461021f5780630d601427146102485780631c9a88231461027157806327d3732a1461029c575b600080fd5b34801561022b57600080fd5b50610246600480360381019061024191906145d2565b6108b3565b005b34801561025457600080fd5b5061026f600480360381019061026a91906145d2565b61129a565b005b34801561027d57600080fd5b506102866114cb565b6040516102939190614621565b60405180910390f35b3480156102a857600080fd5b506102c360048036038101906102be919061463c565b6114d1565b6040516102d09190614621565b60405180910390f35b3480156102e557600080fd5b5061030060048036038101906102fb9190614700565b6114f5565b005b34801561030e57600080fd5b506103296004803603810190610324919061477b565b611c21565b005b34801561033757600080fd5b50610340611c6d565b005b34801561034e57600080fd5b506103696004803603810190610364919061477b565b611cbe565b005b34801561037757600080fd5b50610392600480360381019061038d91906147e0565b611d0a565b005b3480156103a057600080fd5b506103bb60048036038101906103b6919061463c565b611d6d565b005b3480156103c957600080fd5b506103d2612193565b6040516103df919061487f565b60405180910390f35b3480156103f457600080fd5b506103fd6121b9565b60405161040a91906148a9565b60405180910390f35b34801561041f57600080fd5b506104286121cc565b005b34801561043657600080fd5b50610451600480360381019061044c91906148c4565b6121e0565b60405161045e91906148a9565b60405180910390f35b34801561047357600080fd5b5061048e60048036038101906104899190614904565b6122de565b60405161049b9190614621565b60405180910390f35b3480156104b057600080fd5b506104cb60048036038101906104c6919061463c565b612339565b6040516104d89190614953565b60405180910390f35b3480156104ed57600080fd5b506104f6612413565b005b34801561050457600080fd5b5061051f600480360381019061051a91906147e0565b6124ef565b005b34801561052d57600080fd5b506105366125a0565b6040516105439190614953565b60405180910390f35b34801561055857600080fd5b506105616125c9565b60405161056e919061498f565b60405180910390f35b34801561058357600080fd5b5061058c6125ef565b6040516105999190614a21565b60405180910390f35b3480156105ae57600080fd5b506105c960048036038101906105c4919061463c565b612602565b6040516105d69190614621565b60405180910390f35b3480156105eb57600080fd5b5061060660048036038101906106019190614a61565b612626565b005b34801561061457600080fd5b5061062f600480360381019061062a91906145d2565b61272f565b005b34801561063d57600080fd5b506106586004803603810190610653919061477b565b61275e565b60405161066591906148a9565b60405180910390f35b34801561067a57600080fd5b5061068361277e565b6040516106909190614621565b60405180910390f35b3480156106a557600080fd5b506106c060048036038101906106bb919061477b565b612784565b6040516106cd91906148a9565b60405180910390f35b3480156106e257600080fd5b506106fd60048036038101906106f891906145d2565b6127a4565b005b34801561070b57600080fd5b506107146127d3565b6040516107219190614621565b60405180910390f35b34801561073657600080fd5b50610751600480360381019061074c9190614904565b6127d9565b60405161075e9190614621565b60405180910390f35b34801561077357600080fd5b5061078e600480360381019061078991906145d2565b6127fe565b005b34801561079c57600080fd5b506107b760048036038101906107b2919061463c565b612b35565b6040516107c491906148a9565b60405180910390f35b3480156107d957600080fd5b506107f460048036038101906107ef9190614aa1565b612b89565b6040516108019190614621565b60405180910390f35b610824600480360381019061081f91906145d2565b612bca565b005b34801561083257600080fd5b5061084d6004803603810190610848919061477b565b612c7e565b005b61086960048036038101906108649190614ace565b612d04565b005b34801561087757600080fd5b50610892600480360381019061088d919061463c565b6135c6565b6040516108aa9c9b9a99989796959493929190614c0c565b60405180910390f35b600060048111156108c7576108c66149aa565b5b600a60009054906101000a900460ff1660048111156108e9576108e86149aa565b5b14610929576040517f08c379a000000000000000000000000000000000000000000000000000000000815260040161092090614d25565b60405180910390fd5b61093382336121e0565b61093c57600080fd5b6000600760008481526020019081526020016000209050600060076000848152602001908152602001600020905060008160000160000160009054906101000a900460ff16905060008260000160000160019054906101000a900460ff16905060008360000160000160029054906101000a900460ff16905060008560000160000160009054906101000a900460ff16905060008660000160000160019054906101000a900460ff16905060008660000160000160029054906101000a900460ff169050600487600101541015610a1257600080fd5b600460009054906101000a900473ffffffffffffffffffffffffffffffffffffffff1673ffffffffffffffffffffffffffffffffffffffff16637fef46f58787876040518463ffffffff1660e01b8152600401610a7193929190614d54565b602060405180830381865afa158015610a8e573d6000803e3d6000fd5b505050506040513d601f19601f82011682018060405250810190610ab29190614da0565b610af1576040517f08c379a0000000000000000000000000000000000000000000000000000000008152600401610ae890614e19565b60405180910390fd5b8060ff168460ff16148015610b0e5750610b0d868685856136d2565b5b610b4d576040517f08c379a0000000000000000000000000000000000000000000000000000000008152600401610b4490614e19565b60405180910390fd5b866005015442118015610b635750866006015442115b80610b715750866007015442105b610bb0576040517f08c379a0000000000000000000000000000000000000000000000000000000008152600401610ba790614e85565b60405180910390fd5b600b60006002600b811115610bc857610bc76149aa565b5b600b811115610bda57610bd96149aa565b5b81526020019081526020016000205442610bf49190614ed4565b8760060181905550600060646063600b60006009600b811115610c1a57610c196149aa565b5b600b811115610c2c57610c2b6149aa565b5b8152602001908152602001600020548a60010154610c4a9190614f08565b610c549190614ed4565b610c5e9190614f79565b90506000600460009054906101000a900473ffffffffffffffffffffffffffffffffffffffff1673ffffffffffffffffffffffffffffffffffffffff1663d2e80879878a60018b610caf9190614faa565b6040518463ffffffff1660e01b8152600401610ccd93929190614d54565b602060405180830381865afa158015610cea573d6000803e3d6000fd5b505050506040513d601f19601f82011682018060405250810190610d0e9190614ff4565b1115610ddd57610d278a82610d229061502b565b6136f0565b610ddc600460009054906101000a900473ffffffffffffffffffffffffffffffffffffffff1673ffffffffffffffffffffffffffffffffffffffff1663d2e80879878a60018b610d779190614faa565b6040518463ffffffff1660e01b8152600401610d9593929190614d54565b602060405180830381865afa158015610db2573d6000803e3d6000fd5b505050506040513d601f19601f82011682018060405250810190610dd69190614ff4565b826136f0565b5b6000600460009054906101000a900473ffffffffffffffffffffffffffffffffffffffff1673ffffffffffffffffffffffffffffffffffffffff1663d2e80879878a60018b610e2c9190615073565b6040518463ffffffff1660e01b8152600401610e4a93929190614d54565b602060405180830381865afa158015610e67573d6000803e3d6000fd5b505050506040513d601f19601f82011682018060405250810190610e8b9190614ff4565b1115610f5a57610ea48a82610e9f9061502b565b6136f0565b610f59600460009054906101000a900473ffffffffffffffffffffffffffffffffffffffff1673ffffffffffffffffffffffffffffffffffffffff1663d2e80879878a60018b610ef49190615073565b6040518463ffffffff1660e01b8152600401610f1293929190614d54565b602060405180830381865afa158015610f2f573d6000803e3d6000fd5b505050506040513d601f19601f82011682018060405250810190610f539190614ff4565b826136f0565b5b6000600460009054906101000a900473ffffffffffffffffffffffffffffffffffffffff1673ffffffffffffffffffffffffffffffffffffffff1663d2e808798760018b610fa89190614faa565b8a6040518463ffffffff1660e01b8152600401610fc793929190614d54565b602060405180830381865afa158015610fe4573d6000803e3d6000fd5b505050506040513d601f19601f820116820180604052508101906110089190614ff4565b11156110d7576110218a8261101c9061502b565b6136f0565b6110d6600460009054906101000a900473ffffffffffffffffffffffffffffffffffffffff1673ffffffffffffffffffffffffffffffffffffffff1663d2e808798760018b6110709190614faa565b8a6040518463ffffffff1660e01b815260040161108f93929190614d54565b602060405180830381865afa1580156110ac573d6000803e3d6000fd5b505050506040513d601f19601f820116820180604052508101906110d09190614ff4565b826136f0565b5b6000600460009054906101000a900473ffffffffffffffffffffffffffffffffffffffff1673ffffffffffffffffffffffffffffffffffffffff1663d2e808798760018b6111259190615073565b8a6040518463ffffffff1660e01b815260040161114493929190614d54565b602060405180830381865afa158015611161573d6000803e3d6000fd5b505050506040513d601f19601f820116820180604052508101906111859190614ff4565b11156112545761119e8a826111999061502b565b6136f0565b611253600460009054906101000a900473ffffffffffffffffffffffffffffffffffffffff1673ffffffffffffffffffffffffffffffffffffffff1663d2e808798760018b6111ed9190615073565b8a6040518463ffffffff1660e01b815260040161120c93929190614d54565b602060405180830381865afa158015611229573d6000803e3d6000fd5b505050506040513d601f19601f8201168201806040525081019061124d9190614ff4565b826136f0565b5b7f039acdbcd12dc628ff78fef26945113fc3d9ca7dcca364e7d7807178768266ad8b8b6040516112859291906150a8565b60405180910390a15050505050505050505050565b6112a482336121e0565b6112ad57600080fd5b600060048111156112c1576112c06149aa565b5b600a60009054906101000a900460ff1660048111156112e3576112e26149aa565b5b14611323576040517f08c379a000000000000000000000000000000000000000000000000000000000815260040161131a9061511d565b60405180910390fd5b80820361132f57600080fd5b60016004811115611343576113426149aa565b5b60076000848152602001908152602001600020600c0160009054906101000a900460ff166004811115611379576113786149aa565b5b1480156113cd575060016004811115611395576113946149aa565b5b60076000838152602001908152602001600020600c0160009054906101000a900460ff1660048111156113cb576113ca6149aa565b5b145b61140c576040517f08c379a000000000000000000000000000000000000000000000000000000000815260040161140390615189565b60405180910390fd5b600060076000848152602001908152602001600020600101549050600360076000858152602001908152602001600020600c0160006101000a81548160ff02191690836004811115611461576114606149aa565b5b021790555061147983826114749061502b565b6136f0565b61148382826136f0565b61148c83613851565b7f225f3b692ac11cdafcafb064a6e0d96cb25948e1d431d5f5e2dfd3dea63896066003846040516114be9291906151a9565b60405180910390a1505050565b60085481565b600c81815481106114e157600080fd5b906000526020600020016000915090505481565b60008590506000600481111561150e5761150d6149aa565b5b600a60009054906101000a900460ff1660048111156115305761152f6149aa565b5b14801561154a5750600e60009054906101000a900460ff16155b611589576040517f08c379a000000000000000000000000000000000000000000000000000000000815260040161158090614e19565b60405180910390fd5b600160008773ffffffffffffffffffffffffffffffffffffffff1673ffffffffffffffffffffffffffffffffffffffff16815260200190815260200160002060009054906101000a900460ff16611615576040517f08c379a000000000000000000000000000000000000000000000000000000000815260040161160c9061521e565b60405180910390fd5b3373ffffffffffffffffffffffffffffffffffffffff168173ffffffffffffffffffffffffffffffffffffffff16636352211e876040518263ffffffff1660e01b81526004016116659190614621565b602060405180830381865afa158015611682573d6000803e3d6000fd5b505050506040513d601f19601f820116820180604052508101906116a69190615253565b73ffffffffffffffffffffffffffffffffffffffff16146116fc576040517f08c379a00000000000000000000000000000000000000000000000000000000081526004016116f3906152cc565b60405180910390fd5b6000600560008873ffffffffffffffffffffffffffffffffffffffff1673ffffffffffffffffffffffffffffffffffffffff1681526020019081526020016000206000878152602001908152602001600020541461178f576040517f08c379a000000000000000000000000000000000000000000000000000000000815260040161178690615338565b60405180910390fd5b6000600460009054906101000a900473ffffffffffffffffffffffffffffffffffffffff1673ffffffffffffffffffffffffffffffffffffffff1663d2e808798686866040518463ffffffff1660e01b81526004016117f093929190614d54565b602060405180830381865afa15801561180d573d6000803e3d6000fd5b505050506040513d601f19601f820116820180604052508101906118319190614ff4565b1461183b57600080fd5b600654600560008873ffffffffffffffffffffffffffffffffffffffff1673ffffffffffffffffffffffffffffffffffffffff16815260200190815260200160002060008781526020019081526020016000208190555060405180610180016040528060405180606001604052808660ff1681526020018560ff1681526020018760ff1681525081526020016000815260200160018152602001600b600080600b8111156118ec576118eb6149aa565b5b600b8111156118fe576118fd6149aa565b5b815260200190815260200160002054426119189190614ed4565b8152602001600b60006004600b811115611935576119346149aa565b5b600b811115611947576119466149aa565b5b815260200190815260200160002054426119619190614ed4565b81526020016000815260200160008152602001600081526020018773ffffffffffffffffffffffffffffffffffffffff16815260200186815260200160405180604001604052806000815260200160008152508152602001600160048111156119cd576119cc6149aa565b5b81525060076000600654815260200190815260200160002060008201518160000160008201518160000160006101000a81548160ff021916908360ff16021790555060208201518160000160016101000a81548160ff021916908360ff16021790555060408201518160000160026101000a81548160ff021916908360ff16021790555050506020820151816001015560408201518160020155606082015181600301556080820151816004015560a0820151816005015560c0820151816006015560e082015181600701556101008201518160080160006101000a81548173ffffffffffffffffffffffffffffffffffffffff021916908373ffffffffffffffffffffffffffffffffffffffff160217905550610120820151816009015561014082015181600a016000820151816000015560208201518160010155505061016082015181600c0160006101000a81548160ff02191690836004811115611b3857611b376149aa565b5b02179055509050503373ffffffffffffffffffffffffffffffffffffffff16858773ffffffffffffffffffffffffffffffffffffffff167fa9894c605a4e71658774ce8b7875aec503c277b93e274f8788c1fce5f896bc74600654604051611ba09190614621565b60405180910390a47f225f3b692ac11cdafcafb064a6e0d96cb25948e1d431d5f5e2dfd3dea63896066001600654604051611bdc9291906151a9565b60405180910390a1611bf48484846006546001613a34565b611bff600654613c3b565b600160066000828254611c129190614ed4565b92505081905550505050505050565b611c29613d7b565b80600460006101000a81548173ffffffffffffffffffffffffffffffffffffffff021916908373ffffffffffffffffffffffffffffffffffffffff16021790555050565b611c75613d7b565b3373ffffffffffffffffffffffffffffffffffffffff166108fc479081150290604051600060405180830381858888f19350505050158015611cbb573d6000803e3d6000fd5b50565b611cc6613d7b565b80600360006101000a81548173ffffffffffffffffffffffffffffffffffffffff021916908373ffffffffffffffffffffffffffffffffffffffff16021790555050565b611d12613d7b565b80600260008473ffffffffffffffffffffffffffffffffffffffff1673ffffffffffffffffffffffffffffffffffffffff16815260200190815260200160002060006101000a81548160ff0219169083151502179055505050565b611d7781336121e0565b611d8057600080fd5b60006004811115611d9457611d936149aa565b5b600a60009054906101000a900460ff166004811115611db657611db56149aa565b5b14611dc057600080fd5b60016004811115611dd457611dd36149aa565b5b60076000838152602001908152602001600020600c0160009054906101000a900460ff166004811115611e0a57611e096149aa565b5b14611e4a576040517f08c379a0000000000000000000000000000000000000000000000000000000008152600401611e41906153a4565b60405180910390fd5b600b60006007600b811115611e6257611e616149aa565b5b600b811115611e7457611e736149aa565b5b81526020019081526020016000205460076000838152602001908152602001600020600201541015611edb576040517f08c379a0000000000000000000000000000000000000000000000000000000008152600401611ed290615410565b60405180910390fd5b600260076000838152602001908152602001600020600c0160006101000a81548160ff02191690836004811115611f1557611f146149aa565b5b021790555060006007600083815260200190815260200160002060010154905060006007600084815260200190815260200160002060020154905060038103612050578160086000828254611f6a9190614ed4565b92505081905550600360009054906101000a900473ffffffffffffffffffffffffffffffffffffffff1673ffffffffffffffffffffffffffffffffffffffff1663c6fca20b600360076000878152602001908152602001600020600901546007600088815260200190815260200160002060080160009054906101000a900473ffffffffffffffffffffffffffffffffffffffff166040518463ffffffff1660e01b815260040161201d9392919061546b565b600060405180830381600087803b15801561203757600080fd5b505af115801561204b573d6000803e3d6000fd5b505050505b6004810361210a57816009600082825461206a9190614ed4565b92505081905550600360009054906101000a900473ffffffffffffffffffffffffffffffffffffffff1673ffffffffffffffffffffffffffffffffffffffff16636f9fd2fc6120b885612339565b60046040518363ffffffff1660e01b81526004016120d79291906154dd565b600060405180830381600087803b1580156120f157600080fd5b505af1158015612105573d6000803e3d6000fd5b505050505b7f225f3b692ac11cdafcafb064a6e0d96cb25948e1d431d5f5e2dfd3dea638960660028460405161213c9291906151a9565b60405180910390a17f96471c5c697a4607b045eea2a27fa36868cf52b83096e1d665e58535386dfc7f82826040516121759291906150a8565b60405180910390a161218683613851565b61218e613e02565b505050565b600360009054906101000a900473ffffffffffffffffffffffffffffffffffffffff1681565b600e60009054906101000a900460ff1681565b6121d4613d7b565b6121de6000613f82565b565b60008173ffffffffffffffffffffffffffffffffffffffff166007600085815260200190815260200160002060080160009054906101000a900473ffffffffffffffffffffffffffffffffffffffff1673ffffffffffffffffffffffffffffffffffffffff16636352211e60076000878152602001908152602001600020600901546040518263ffffffff1660e01b815260040161227e9190614621565b602060405180830381865afa15801561229b573d6000803e3d6000fd5b505050506040513d601f19601f820116820180604052508101906122bf9190615253565b73ffffffffffffffffffffffffffffffffffffffff1614905092915050565b6000600560008473ffffffffffffffffffffffffffffffffffffffff1673ffffffffffffffffffffffffffffffffffffffff168152602001908152602001600020600083815260200190815260200160002054905092915050565b6000806007600084815260200190815260200160002060080160009054906101000a900473ffffffffffffffffffffffffffffffffffffffff1690506000600760008581526020019081526020016000206009015490508173ffffffffffffffffffffffffffffffffffffffff16636352211e826040518263ffffffff1660e01b81526004016123c99190614621565b602060405180830381865afa1580156123e6573d6000803e3d6000fd5b505050506040513d601f19601f8201168201806040525081019061240a9190615253565b92505050919050565b61241b613d7b565b6000600481111561242f5761242e6149aa565b5b600a60009054906101000a900460ff166004811115612451576124506149aa565b5b03612486576004600a60006101000a81548160ff0219169083600481111561247c5761247b6149aa565b5b02179055506124ed565b600480811115612499576124986149aa565b5b600a60009054906101000a900460ff1660048111156124bb576124ba6149aa565b5b036124ec576000600a60006101000a81548160ff021916908360048111156124e6576124e56149aa565b5b02179055505b5b565b6124f7613d7b565b80600160008473ffffffffffffffffffffffffffffffffffffffff1673ffffffffffffffffffffffffffffffffffffffff16815260200190815260200160002060006101000a81548160ff0219169083151502179055508173ffffffffffffffffffffffffffffffffffffffff167fab7ee07d6fcd55d3521af17f0fc9a09487385d36c421d23bdd1eac42e532043c8260405161259491906148a9565b60405180910390a25050565b60008060009054906101000a900473ffffffffffffffffffffffffffffffffffffffff16905090565b600460009054906101000a900473ffffffffffffffffffffffffffffffffffffffff1681565b600a60009054906101000a900460ff1681565b600d818154811061261257600080fd5b906000526020600020016000915090505481565b600260003373ffffffffffffffffffffffffffffffffffffffff1673ffffffffffffffffffffffffffffffffffffffff16815260200190815260200160002060009054906101000a900460ff16806126b057506126816125a0565b73ffffffffffffffffffffffffffffffffffffffff163373ffffffffffffffffffffffffffffffffffffffff16145b6126ef576040517f08c379a00000000000000000000000000000000000000000000000000000000081526004016126e690615552565b60405180910390fd5b80600b600084600b811115612707576127066149aa565b5b600b811115612719576127186149aa565b5b8152602001908152602001600020819055505050565b612737613d7b565b80600c838154811061274c5761274b615572565b5b90600052602060002001819055505050565b60026020528060005260406000206000915054906101000a900460ff1681565b60065481565b60016020528060005260406000206000915054906101000a900460ff1681565b6127ac613d7b565b80600d83815481106127c1576127c0615572565b5b90600052602060002001819055505050565b60095481565b6005602052816000526040600020602052806000526040600020600091509150505481565b600260003373ffffffffffffffffffffffffffffffffffffffff1673ffffffffffffffffffffffffffffffffffffffff16815260200190815260200160002060009054906101000a900460ff168061288857506128596125a0565b73ffffffffffffffffffffffffffffffffffffffff163373ffffffffffffffffffffffffffffffffffffffff16145b6128c7576040517f08c379a00000000000000000000000000000000000000000000000000000000081526004016128be90615552565b60405180910390fd5b600060048111156128db576128da6149aa565b5b600a60009054906101000a900460ff1660048111156128fd576128fc6149aa565b5b1461293d576040517f08c379a000000000000000000000000000000000000000000000000000000000815260040161293490614d25565b60405180910390fd5b600b60006003600b811115612955576129546149aa565b5b600b811115612967576129666149aa565b5b815260200190815260200160002054426129819190614ed4565b8160076000858152602001908152602001600020600501546129a39190614ed4565b11156129e4576040517f08c379a00000000000000000000000000000000000000000000000000000000081526004016129db90615613565b60405180910390fd5b600b60006003600b8111156129fc576129fb6149aa565b5b600b811115612a0e57612a0d6149aa565b5b815260200190815260200160002054811115612a5f576040517f08c379a0000000000000000000000000000000000000000000000000000000008152600401612a5690614e19565b60405180910390fd5b600b60006008600b811115612a7757612a766149aa565b5b600b811115612a8957612a886149aa565b5b81526020019081526020016000205460076000848152602001908152602001600020600201541015612aba57600080fd5b4260076000848152602001908152602001600020600501541115612b0a5780600760008481526020019081526020016000206005016000828254612afe9190614ed4565b92505081905550612b31565b8042612b169190614ed4565b60076000848152602001908152602001600020600501819055505b5050565b600060016004811115612b4b57612b4a6149aa565b5b60076000848152602001908152602001600020600c0160009054906101000a900460ff166004811115612b8157612b806149aa565b5b149050919050565b6000600b600083600b811115612ba257612ba16149aa565b5b600b811115612bb457612bb36149aa565b5b8152602001908152602001600020549050919050565b80600b60006006600b811115612be357612be26149aa565b5b600b811115612bf557612bf46149aa565b5b815260200190815260200160002054612c0e9190614f08565b341015612c50576040517f08c379a0000000000000000000000000000000000000000000000000000000008152600401612c479061567f565b60405180910390fd5b612c5a82336121e0565b612c6357600080fd5b612c7a82610e1083612c759190614f08565b6127fe565b5050565b612c86613d7b565b600073ffffffffffffffffffffffffffffffffffffffff168173ffffffffffffffffffffffffffffffffffffffff1603612cf85760006040517f1e4fbdf7000000000000000000000000000000000000000000000000000000008152600401612cef9190614953565b60405180910390fd5b612d0181613f82565b50565b60006004811115612d1857612d176149aa565b5b600a60009054906101000a900460ff166004811115612d3a57612d396149aa565b5b14612d7a576040517f08c379a0000000000000000000000000000000000000000000000000000000008152600401612d7190614d25565b60405180910390fd5b42600760008681526020019081526020016000206003015410612dd2576040517f08c379a0000000000000000000000000000000000000000000000000000000008152600401612dc9906156eb565b60405180910390fd5b612ddc84336121e0565b612de557600080fd5b60006007600086815260200190815260200160002060000160000160009054906101000a900460ff16905060006007600087815260200190815260200160002060000160000160019054906101000a900460ff1690508460ff166007600088815260200190815260200160002060000160000160029054906101000a900460ff1660ff16146130b9576000600460009054906101000a900473ffffffffffffffffffffffffffffffffffffffff1673ffffffffffffffffffffffffffffffffffffffff1663d2e808798787876040518463ffffffff1660e01b8152600401612ecf93929190614d54565b602060405180830381865afa158015612eec573d6000803e3d6000fd5b505050506040513d601f19601f82011682018060405250810190612f109190614ff4565b14612f50576040517f08c379a0000000000000000000000000000000000000000000000000000000008152600401612f4790615757565b60405180910390fd5b6007600087815260200190815260200160002060040154421180612fac5750600b60006005600b811115612f8757612f866149aa565b5b600b811115612f9957612f986149aa565b5b8152602001908152602001600020543410155b612feb576040517f08c379a0000000000000000000000000000000000000000000000000000000008152600401612fe2906157c3565b60405180910390fd5b600b600080600b811115613002576130016149aa565b5b600b811115613014576130136149aa565b5b8152602001908152602001600020544261302e9190614ed4565b6007600088815260200190815260200160002060030181905550600b60006004600b8111156130605761305f6149aa565b5b600b811115613072576130716149aa565b5b8152602001908152602001600020544261308c9190614ed4565b60076000888152602001908152602001600020600401819055506130b4858585896001613a34565b61353c565b6000600460009054906101000a900473ffffffffffffffffffffffffffffffffffffffff1673ffffffffffffffffffffffffffffffffffffffff1663d2e808798787876040518463ffffffff1660e01b815260040161311a93929190614d54565b602060405180830381865afa158015613137573d6000803e3d6000fd5b505050506040513d601f19601f8201168201806040525081019061315b9190614ff4565b036131735761316e858585896000613a34565b6134dd565b6000600460009054906101000a900473ffffffffffffffffffffffffffffffffffffffff1673ffffffffffffffffffffffffffffffffffffffff1663d2e808798787876040518463ffffffff1660e01b81526004016131d493929190614d54565b602060405180830381865afa1580156131f1573d6000803e3d6000fd5b505050506040513d601f19601f820116820180604052508101906132159190614ff4565b9050600060646063600b60006009600b811115613235576132346149aa565b5b600b811115613247576132466149aa565b5b81526020019081526020016000205460076000868152602001908152602001600020600101546132779190614f08565b6132819190614ed4565b61328b9190614f79565b90506007600083815260200190815260200160002060020154600760008a81526020019081526020016000206002015410156132fc576040517f08c379a00000000000000000000000000000000000000000000000000000000081526004016132f39061582f565b60405180910390fd5b60076000838152602001908152602001600020600501544211806133355750600760008381526020019081526020016000206007015442105b613374576040517f08c379a000000000000000000000000000000000000000000000000000000000815260040161336b9061589b565b60405180910390fd5b60076000838152602001908152602001600020600601544211806133ad5750600760008381526020019081526020016000206007015442105b6133ec576040517f08c379a00000000000000000000000000000000000000000000000000000000081526004016133e390615907565b60405180910390fd5b600b60006002600b811115613404576134036149aa565b5b600b811115613416576134156149aa565b5b815260200190815260200160002054426134309190614ed4565b60076000848152602001908152602001600020600601819055506000600760008481526020019081526020016000206007018190555061347088826136f0565b613483828261347e9061502b565b6136f0565b6134918787878b6000613a34565b61349f878585856001613a34565b7f8e94011834e20398e9c758cc1be311eab76fd80b1e439bd2c59fc4ed3195a8b08883836040516134d293929190615927565b60405180910390a150505b600b60006001600b8111156134f5576134f46149aa565b5b600b811115613507576135066149aa565b5b815260200190815260200160002054426135219190614ed4565b60076000888152602001908152602001600020600301819055505b600b6000600b80811115613553576135526149aa565b5b600b811115613565576135646149aa565b5b8152602001908152602001600020544261357f9190614ed4565b6007600088815260200190815260200160002060070181905550600060076000888152602001908152602001600020600601819055506135be86613c3b565b505050505050565b6007602052806000526040600020600091509050806000016040518060600160405290816000820160009054906101000a900460ff1660ff1660ff1681526020016000820160019054906101000a900460ff1660ff1660ff1681526020016000820160029054906101000a900460ff1660ff1660ff1681525050908060010154908060020154908060030154908060040154908060050154908060060154908060070154908060080160009054906101000a900473ffffffffffffffffffffffffffffffffffffffff169080600901549080600a01604051806040016040529081600082015481526020016001820154815250509080600c0160009054906101000a900460ff1690508c565b600060016136e286868686614046565b60ff16149050949350505050565b6000600760008481526020019081526020016000206001015490506000821215806137245750816137209061502b565b8110155b613763576040517f08c379a000000000000000000000000000000000000000000000000000000000815260040161375a906159aa565b60405180910390fd5b60008213158061379e5750807fffffffffffffffffffffffffffffffffffffffffffffffffffffffffffffffff61379a91906159ca565b8211155b6137dd576040517f08c379a00000000000000000000000000000000000000000000000000000000081526004016137d490615a4a565b60405180910390fd5b81816137e99190615a6a565b600760008581526020019081526020016000206001018190555061380c836140bd565b613814614401565b827f3c4a2e2bac8926425dd3e4e1487869f1a441950df5336e151eada44d5550a11e836040516138449190615abd565b60405180910390a2505050565b600460009054906101000a900473ffffffffffffffffffffffffffffffffffffffff1673ffffffffffffffffffffffffffffffffffffffff16633b3188d56007600084815260200190815260200160002060000160000160029054906101000a900460ff166007600085815260200190815260200160002060000160000160009054906101000a900460ff166007600086815260200190815260200160002060000160000160019054906101000a900460ff1660006040518563ffffffff1660e01b81526004016139259493929190615b13565b600060405180830381600087803b15801561393f57600080fd5b505af1158015613953573d6000803e3d6000fd5b50505050600060ff9050806007600084815260200190815260200160002060000160000160006101000a81548160ff021916908360ff160217905550806007600084815260200190815260200160002060000160000160016101000a81548160ff021916908360ff160217905550806007600084815260200190815260200160002060000160000160026101000a81548160ff021916908360ff1602179055507f6eaf6cd27015002a7e738b270d088d51e2be41e4a8729c7276157c1801c3d03f81828385604051613a289493929190615b89565b60405180910390a15050565b6000600460009054906101000a900473ffffffffffffffffffffffffffffffffffffffff1673ffffffffffffffffffffffffffffffffffffffff1663cffd91268787876007600089815260200190815260200160002060000160000160029054906101000a900460ff16600760008a815260200190815260200160002060000160000160009054906101000a900460ff16600760008b815260200190815260200160002060000160000160019054906101000a900460ff168a8a6040518963ffffffff1660e01b8152600401613b11989796959493929190615bce565b6020604051808303816000875af1158015613b30573d6000803e3d6000fd5b505050506040513d601f19601f82011682018060405250810190613b549190614ff4565b9050846007600085815260200190815260200160002060000160000160006101000a81548160ff021916908360ff160217905550836007600085815260200190815260200160002060000160000160016101000a81548160ff021916908360ff160217905550856007600085815260200190815260200160002060000160000160026101000a81548160ff021916908360ff160217905550613bf683826136f0565b7f6eaf6cd27015002a7e738b270d088d51e2be41e4a8729c7276157c1801c3d03f86868686604051613c2b9493929190615b89565b60405180910390a1505050505050565b60006201518042613c4c9190614f79565b905060076000838152602001908152602001600020600a01600001548103613d39576000600d600760008581526020019081526020016000206002015481548110613c9a57613c99615572565b5b906000526020600020015490508060076000858152602001908152602001600020600a016001015410613d02576040517f08c379a0000000000000000000000000000000000000000000000000000000008152600401613cf990615410565b60405180910390fd5b600160076000858152602001908152602001600020600a016001016000828254613d2c9190614ed4565b9250508190555050613d77565b8060076000848152602001908152602001600020600a0160000181905550600160076000848152602001908152602001600020600a01600101819055505b5050565b613d8361458f565b73ffffffffffffffffffffffffffffffffffffffff16613da16125a0565b73ffffffffffffffffffffffffffffffffffffffff1614613e0057613dc461458f565b6040517f118cdaa7000000000000000000000000000000000000000000000000000000008152600401613df79190614953565b60405180910390fd5b565b60006002600460009054906101000a900473ffffffffffffffffffffffffffffffffffffffff1673ffffffffffffffffffffffffffffffffffffffff1663b298d9116040518163ffffffff1660e01b8152600401602060405180830381865afa158015613e73573d6000803e3d6000fd5b505050506040513d601f19601f82011682018060405250810190613e979190614ff4565b613ea19190614f79565b9050806008541115613f11576001600a60006101000a81548160ff02191690836004811115613ed357613ed26149aa565b5b02179055507fce24807f7e4b60b4e641462f13029fa5e5f79075bbc3f8e5cd43ecd19661d7606001604051613f089190615c87565b60405180910390a15b806009541115613f7f576002600a60006101000a81548160ff02191690836004811115613f4157613f406149aa565b5b02179055507fce24807f7e4b60b4e641462f13029fa5e5f79075bbc3f8e5cd43ecd19661d7606002604051613f769190615cdd565b60405180910390a15b50565b60008060009054906101000a900473ffffffffffffffffffffffffffffffffffffffff169050816000806101000a81548173ffffffffffffffffffffffffffffffffffffffff021916908373ffffffffffffffffffffffffffffffffffffffff1602179055508173ffffffffffffffffffffffffffffffffffffffff168173ffffffffffffffffffffffffffffffffffffffff167f8be0079c531659141344cd1fd0a4f28419497f9722a3daafe3b4186f6b6457e060405160405180910390a35050565b6000808360ff168660ff16116140675785846140629190614faa565b614074565b83866140739190614faa565b5b905060008360ff168660ff16116140965785846140919190614faa565b6140a3565b83866140a29190614faa565b5b905080826140b19190615073565b92505050949350505050565b600060076000838152602001908152602001600020600101549050600c6005815481106140ed576140ec615572565b5b9060005260206000200154811061421a57600560076000848152602001908152602001600020600201819055506003600a60006101000a81548160ff021916908360048111156141405761413f6149aa565b5b0217905550600360009054906101000a900473ffffffffffffffffffffffffffffffffffffffff1673ffffffffffffffffffffffffffffffffffffffff16636f9fd2fc61418c84612339565b60056040518363ffffffff1660e01b81526004016141ab929190615d33565b600060405180830381600087803b1580156141c557600080fd5b505af11580156141d9573d6000803e3d6000fd5b505050507fce24807f7e4b60b4e641462f13029fa5e5f79075bbc3f8e5cd43ecd19661d760600360405161420d9190615d5c565b60405180910390a161430f565b600c60048154811061422f5761422e615572565b5b90600052602060002001548110614261576004600760008481526020019081526020016000206002018190555061430e565b600c60038154811061427657614275615572565b5b906000526020600020015481106142a8576003600760008481526020019081526020016000206002018190555061430d565b600c6002815481106142bd576142bc615572565b5b906000526020600020015481106142ef576002600760008481526020019081526020016000206002018190555061430c565b600160076000848152602001908152602001600020600201819055505b5b5b5b600e60009054906101000a900460ff16801561432b5750600081145b801561437e575060016004811115614346576143456149aa565b5b60076000848152602001908152602001600020600c0160009054906101000a900460ff16600481111561437c5761437b6149aa565b5b145b156143fd57600460076000848152602001908152602001600020600c0160006101000a81548160ff021916908360048111156143bd576143bc6149aa565b5b02179055507f225f3b692ac11cdafcafb064a6e0d96cb25948e1d431d5f5e2dfd3dea63896066004836040516143f49291906151a9565b60405180910390a15b5050565b600460009054906101000a900473ffffffffffffffffffffffffffffffffffffffff1673ffffffffffffffffffffffffffffffffffffffff1663b298d91177ffffffffffffffffffffffffffffffffffffffffffffffff16600460009054906101000a900473ffffffffffffffffffffffffffffffffffffffff1673ffffffffffffffffffffffffffffffffffffffff16638fd7b38477ffffffffffffffffffffffffffffffffffffffffffffffff169273ffffffffffffffffffffffffffffffffffffffff169073ffffffffffffffffffffffffffffffffffffffff16149163ffffffff169063ffffffff1614161561458d576001600e60006101000a81548160ff0219169083151502179055506064600b60006009600b81111561452a576145296149aa565b5b600b81111561453c5761453b6149aa565b5b8152602001908152602001600020819055506019600b6000600a600b811115614568576145676149aa565b5b600b81111561457a576145796149aa565b5b8152602001908152602001600020819055505b565b600033905090565b600080fd5b6000819050919050565b6145af8161459c565b81146145ba57600080fd5b50565b6000813590506145cc816145a6565b92915050565b600080604083850312156145e9576145e8614597565b5b60006145f7858286016145bd565b9250506020614608858286016145bd565b9150509250929050565b61461b8161459c565b82525050565b60006020820190506146366000830184614612565b92915050565b60006020828403121561465257614651614597565b5b6000614660848285016145bd565b91505092915050565b600073ffffffffffffffffffffffffffffffffffffffff82169050919050565b600061469482614669565b9050919050565b6146a481614689565b81146146af57600080fd5b50565b6000813590506146c18161469b565b92915050565b600060ff82169050919050565b6146dd816146c7565b81146146e857600080fd5b50565b6000813590506146fa816146d4565b92915050565b600080600080600060a0868803121561471c5761471b614597565b5b600061472a888289016146b2565b955050602061473b888289016145bd565b945050604061474c888289016146eb565b935050606061475d888289016146eb565b925050608061476e888289016146eb565b9150509295509295909350565b60006020828403121561479157614790614597565b5b600061479f848285016146b2565b91505092915050565b60008115159050919050565b6147bd816147a8565b81146147c857600080fd5b50565b6000813590506147da816147b4565b92915050565b600080604083850312156147f7576147f6614597565b5b6000614805858286016146b2565b9250506020614816858286016147cb565b9150509250929050565b6000819050919050565b600061484561484061483b84614669565b614820565b614669565b9050919050565b60006148578261482a565b9050919050565b60006148698261484c565b9050919050565b6148798161485e565b82525050565b60006020820190506148946000830184614870565b92915050565b6148a3816147a8565b82525050565b60006020820190506148be600083018461489a565b92915050565b600080604083850312156148db576148da614597565b5b60006148e9858286016145bd565b92505060206148fa858286016146b2565b9150509250929050565b6000806040838503121561491b5761491a614597565b5b6000614929858286016146b2565b925050602061493a858286016145bd565b9150509250929050565b61494d81614689565b82525050565b60006020820190506149686000830184614944565b92915050565b60006149798261484c565b9050919050565b6149898161496e565b82525050565b60006020820190506149a46000830184614980565b92915050565b7f4e487b7100000000000000000000000000000000000000000000000000000000600052602160045260246000fd5b600581106149ea576149e96149aa565b5b50565b60008190506149fb826149d9565b919050565b6000614a0b826149ed565b9050919050565b614a1b81614a00565b82525050565b6000602082019050614a366000830184614a12565b92915050565b600c8110614a4957600080fd5b50565b600081359050614a5b81614a3c565b92915050565b60008060408385031215614a7857614a77614597565b5b6000614a8685828601614a4c565b9250506020614a97858286016145bd565b9150509250929050565b600060208284031215614ab757614ab6614597565b5b6000614ac584828501614a4c565b91505092915050565b60008060008060808587031215614ae857614ae7614597565b5b6000614af6878288016145bd565b9450506020614b07878288016146eb565b9350506040614b18878288016146eb565b9250506060614b29878288016146eb565b91505092959194509250565b614b3e816146c7565b82525050565b606082016000820151614b5a6000850182614b35565b506020820151614b6d6020850182614b35565b506040820151614b806040850182614b35565b50505050565b614b8f8161459c565b82525050565b604082016000820151614bab6000850182614b86565b506020820151614bbe6020850182614b86565b50505050565b60058110614bd557614bd46149aa565b5b50565b6000819050614be682614bc4565b919050565b6000614bf682614bd8565b9050919050565b614c0681614beb565b82525050565b60006101e082019050614c22600083018f614b44565b614c2f606083018e614612565b614c3c608083018d614612565b614c4960a083018c614612565b614c5660c083018b614612565b614c6360e083018a614612565b614c71610100830189614612565b614c7f610120830188614612565b614c8d610140830187614944565b614c9b610160830186614612565b614ca9610180830185614b95565b614cb76101c0830184614bfd565b9d9c50505050505050505050505050565b600082825260208201905092915050565b7f47616d6520456e64656400000000000000000000000000000000000000000000600082015250565b6000614d0f600a83614cc8565b9150614d1a82614cd9565b602082019050919050565b60006020820190508181036000830152614d3e81614d02565b9050919050565b614d4e816146c7565b82525050565b6000606082019050614d696000830186614d45565b614d766020830185614d45565b614d836040830184614d45565b949350505050565b600081519050614d9a816147b4565b92915050565b600060208284031215614db657614db5614597565b5b6000614dc484828501614d8b565b91505092915050565b7f4e6f000000000000000000000000000000000000000000000000000000000000600082015250565b6000614e03600283614cc8565b9150614e0e82614dcd565b602082019050919050565b60006020820190508181036000830152614e3281614df6565b9050919050565b7f43616e27742041747461636b0000000000000000000000000000000000000000600082015250565b6000614e6f600c83614cc8565b9150614e7a82614e39565b602082019050919050565b60006020820190508181036000830152614e9e81614e62565b9050919050565b7f4e487b7100000000000000000000000000000000000000000000000000000000600052601160045260246000fd5b6000614edf8261459c565b9150614eea8361459c565b9250828201905080821115614f0257614f01614ea5565b5b92915050565b6000614f138261459c565b9150614f1e8361459c565b9250828202614f2c8161459c565b91508282048414831517614f4357614f42614ea5565b5b5092915050565b7f4e487b7100000000000000000000000000000000000000000000000000000000600052601260045260246000fd5b6000614f848261459c565b9150614f8f8361459c565b925082614f9f57614f9e614f4a565b5b828204905092915050565b6000614fb5826146c7565b9150614fc0836146c7565b9250828203905060ff811115614fd957614fd8614ea5565b5b92915050565b600081519050614fee816145a6565b92915050565b60006020828403121561500a57615009614597565b5b600061501884828501614fdf565b91505092915050565b6000819050919050565b600061503682615021565b91507f8000000000000000000000000000000000000000000000000000000000000000820361506857615067614ea5565b5b816000039050919050565b600061507e826146c7565b9150615089836146c7565b9250828201905060ff8111156150a2576150a1614ea5565b5b92915050565b60006040820190506150bd6000830185614612565b6150ca6020830184614612565b9392505050565b7f496e616374697665000000000000000000000000000000000000000000000000600082015250565b6000615107600883614cc8565b9150615112826150d1565b602082019050919050565b60006020820190508181036000830152615136816150fa565b9050919050565b7f4e41000000000000000000000000000000000000000000000000000000000000600082015250565b6000615173600283614cc8565b915061517e8261513d565b602082019050919050565b600060208201905081810360008301526151a281615166565b9050919050565b60006040820190506151be6000830185614bfd565b6151cb6020830184614612565b9392505050565b7f4e6f7420496e7669746564000000000000000000000000000000000000000000600082015250565b6000615208600b83614cc8565b9150615213826151d2565b602082019050919050565b60006020820190508181036000830152615237816151fb565b9050919050565b60008151905061524d8161469b565b92915050565b60006020828403121561526957615268614597565b5b60006152778482850161523e565b91505092915050565b7f4e6f74204f776e65720000000000000000000000000000000000000000000000600082015250565b60006152b6600983614cc8565b91506152c182615280565b602082019050919050565b600060208201905081810360008301526152e5816152a9565b9050919050565b7f5265676973746572656400000000000000000000000000000000000000000000600082015250565b6000615322600a83614cc8565b915061532d826152ec565b602082019050919050565b6000602082019050818103600083015261535181615315565b9050919050565b7f4e31000000000000000000000000000000000000000000000000000000000000600082015250565b600061538e600283614cc8565b915061539982615358565b602082019050919050565b600060208201905081810360008301526153bd81615381565b9050919050565b7f4d31000000000000000000000000000000000000000000000000000000000000600082015250565b60006153fa600283614cc8565b9150615405826153c4565b602082019050919050565b60006020820190508181036000830152615429816153ed565b9050919050565b6000819050919050565b600061545561545061544b84615430565b614820565b61459c565b9050919050565b6154658161543a565b82525050565b6000606082019050615480600083018661545c565b61548d6020830185614612565b61549a6040830184614944565b949350505050565b6000819050919050565b60006154c76154c26154bd846154a2565b614820565b61459c565b9050919050565b6154d7816154ac565b82525050565b60006040820190506154f26000830185614944565b6154ff60208301846154ce565b9392505050565b7f4e6f7420616c6c6f776564000000000000000000000000000000000000000000600082015250565b600061553c600b83614cc8565b915061554782615506565b602082019050919050565b6000602082019050818103600083015261556b8161552f565b9050919050565b7f4e487b7100000000000000000000000000000000000000000000000000000000600052603260045260246000fd5b7f596f752063616e206f6e6c7920626520736869656c64656420666f722061206d60008201527f617820706572696f64206f662074696d65000000000000000000000000000000602082015250565b60006155fd603183614cc8565b9150615608826155a1565b604082019050919050565b6000602082019050818103600083015261562c816155f0565b9050919050565b7f4e6f7420656e6f75676820455448000000000000000000000000000000000000600082015250565b6000615669600e83614cc8565b915061567482615633565b602082019050919050565b600060208201905081810360008301526156988161565c565b9050919050565b7f5761697400000000000000000000000000000000000000000000000000000000600082015250565b60006156d5600483614cc8565b91506156e08261569f565b602082019050919050565b60006020820190508181036000830152615704816156c8565b9050919050565b7f4f63637570696564000000000000000000000000000000000000000000000000600082015250565b6000615741600883614cc8565b915061574c8261570b565b602082019050919050565b6000602082019050818103600083015261577081615734565b9050919050565b7f50656e616c747900000000000000000000000000000000000000000000000000600082015250565b60006157ad600783614cc8565b91506157b882615777565b602082019050919050565b600060208201905081810360008301526157dc816157a0565b9050919050565b7f4869676865722072616e6b656400000000000000000000000000000000000000600082015250565b6000615819600d83614cc8565b9150615824826157e3565b602082019050919050565b600060208201905081810360008301526158488161580c565b9050919050565b7f536869656c646564000000000000000000000000000000000000000000000000600082015250565b6000615885600883614cc8565b91506158908261584f565b602082019050919050565b600060208201905081810360008301526158b481615878565b9050919050565b7f50726f7465637465640000000000000000000000000000000000000000000000600082015250565b60006158f1600983614cc8565b91506158fc826158bb565b602082019050919050565b60006020820190508181036000830152615920816158e4565b9050919050565b600060608201905061593c6000830186614612565b6159496020830185614612565b6159566040830184614612565b949350505050565b7f4f31000000000000000000000000000000000000000000000000000000000000600082015250565b6000615994600283614cc8565b915061599f8261595e565b602082019050919050565b600060208201905081810360008301526159c381615987565b9050919050565b60006159d58261459c565b91506159e08361459c565b92508282039050818111156159f8576159f7614ea5565b5b92915050565b7f4f32000000000000000000000000000000000000000000000000000000000000600082015250565b6000615a34600283614cc8565b9150615a3f826159fe565b602082019050919050565b60006020820190508181036000830152615a6381615a27565b9050919050565b6000615a7582615021565b9150615a8083615021565b925082820190508281121560008312168382126000841215161715615aa857615aa7614ea5565b5b92915050565b615ab781615021565b82525050565b6000602082019050615ad26000830184615aae565b92915050565b6000819050919050565b6000615afd615af8615af384615ad8565b614820565b61459c565b9050919050565b615b0d81615ae2565b82525050565b6000608082019050615b286000830187614d45565b615b356020830186614d45565b615b426040830185614d45565b615b4f6060830184615b04565b95945050505050565b6000615b73615b6e615b69846146c7565b614820565b61459c565b9050919050565b615b8381615b58565b82525050565b6000608082019050615b9e6000830187615b7a565b615bab6020830186615b7a565b615bb86040830185615b7a565b615bc56060830184614612565b95945050505050565b600061010082019050615be4600083018b614d45565b615bf1602083018a614d45565b615bfe6040830189614d45565b615c0b6060830188614d45565b615c186080830187614d45565b615c2560a0830186614d45565b615c3260c0830185614612565b615c3f60e083018461489a565b9998505050505050505050565b6000819050919050565b6000615c71615c6c615c6784615c4c565b614820565b61459c565b9050919050565b615c8181615c56565b82525050565b6000602082019050615c9c6000830184615c78565b92915050565b6000819050919050565b6000615cc7615cc2615cbd84615ca2565b614820565b61459c565b9050919050565b615cd781615cac565b82525050565b6000602082019050615cf26000830184615cce565b92915050565b6000819050919050565b6000615d1d615d18615d1384615cf8565b614820565b61459c565b9050919050565b615d2d81615d02565b82525050565b6000604082019050615d486000830185614944565b615d556020830184615d24565b9392505050565b6000602082019050615d71600083018461545c565b9291505056fea2646970667358221220fcbab6dbf7ac9080089ab57b43fedeb7d10cee593fb31b00671c6e0aabf32fab64736f6c634300081b0033",
  "linkReferences": {},
  "deployedLinkReferences": {}
}