{
  "_format": "hh-sol-artifact-1",
  "contractName": "ZeroSumPac",
  "sourceName": "contracts/ZeroSumPac.sol",
  "abi": [
    {
      "inputs": [],
      "stateMutability": "nonpayable",
      "type": "constructor"
    },
    {
      "inputs": [],
      "name": "ERC721EnumerableForbiddenBatchMint",
      "type": "error"
    },
    {
      "inputs": [
        {
          "internalType": "address",
          "name": "sender",
          "type": "address"
        },
        {
          "internalType": "uint256",
          "name": "tokenId",
          "type": "uint256"
        },
        {
          "internalType": "address",
          "name": "owner",
          "type": "address"
        }
      ],
      "name": "ERC721IncorrectOwner",
      "type": "error"
    },
    {
      "inputs": [
        {
          "internalType": "address",
          "name": "operator",
          "type": "address"
        },
        {
          "internalType": "uint256",
          "name": "tokenId",
          "type": "uint256"
        }
      ],
      "name": "ERC721InsufficientApproval",
      "type": "error"
    },
    {
      "inputs": [
        {
          "internalType": "address",
          "name": "approver",
          "type": "address"
        }
      ],
      "name": "ERC721InvalidApprover",
      "type": "error"
    },
    {
      "inputs": [
        {
          "internalType": "address",
          "name": "operator",
          "type": "address"
        }
      ],
      "name": "ERC721InvalidOperator",
      "type": "error"
    },
    {
      "inputs": [
        {
          "internalType": "address",
          "name": "owner",
          "type": "address"
        }
      ],
      "name": "ERC721InvalidOwner",
      "type": "error"
    },
    {
      "inputs": [
        {
          "internalType": "address",
          "name": "receiver",
          "type": "address"
        }
      ],
      "name": "ERC721InvalidReceiver",
      "type": "error"
    },
    {
      "inputs": [
        {
          "internalType": "address",
          "name": "sender",
          "type": "address"
        }
      ],
      "name": "ERC721InvalidSender",
      "type": "error"
    },
    {
      "inputs": [
        {
          "internalType": "uint256",
          "name": "tokenId",
          "type": "uint256"
        }
      ],
      "name": "ERC721NonexistentToken",
      "type": "error"
    },
    {
      "inputs": [
        {
          "internalType": "address",
          "name": "owner",
          "type": "address"
        },
        {
          "internalType": "uint256",
          "name": "index",
          "type": "uint256"
        }
      ],
      "name": "ERC721OutOfBoundsIndex",
      "type": "error"
    },
    {
      "inputs": [
        {
          "internalType": "address",
          "name": "owner",
          "type": "address"
        }
      ],
      "name": "OwnableInvalidOwner",
      "type": "error"
    },
    {
      "inputs": [
        {
          "internalType": "address",
          "name": "account",
          "type": "address"
        }
      ],
      "name": "OwnableUnauthorizedAccount",
      "type": "error"
    },
    {
      "anonymous": false,
      "inputs": [
        {
          "indexed": true,
          "internalType": "address",
          "name": "owner",
          "type": "address"
        },
        {
          "indexed": true,
          "internalType": "address",
          "name": "approved",
          "type": "address"
        },
        {
          "indexed": true,
          "internalType": "uint256",
          "name": "tokenId",
          "type": "uint256"
        }
      ],
      "name": "Approval",
      "type": "event"
    },
    {
      "anonymous": false,
      "inputs": [
        {
          "indexed": true,
          "internalType": "address",
          "name": "owner",
          "type": "address"
        },
        {
          "indexed": true,
          "internalType": "address",
          "name": "operator",
          "type": "address"
        },
        {
          "indexed": false,
          "internalType": "bool",
          "name": "approved",
          "type": "bool"
        }
      ],
      "name": "ApprovalForAll",
      "type": "event"
    },
    {
      "anonymous": false,
      "inputs": [
        {
          "indexed": true,
          "internalType": "address",
          "name": "previousOwner",
          "type": "address"
        },
        {
          "indexed": true,
          "internalType": "address",
          "name": "newOwner",
          "type": "address"
        }
      ],
      "name": "OwnershipTransferred",
      "type": "event"
    },
    {
      "anonymous": false,
      "inputs": [
        {
          "indexed": true,
          "internalType": "address",
          "name": "from",
          "type": "address"
        },
        {
          "indexed": true,
          "internalType": "address",
          "name": "to",
          "type": "address"
        },
        {
          "indexed": true,
          "internalType": "uint256",
          "name": "tokenId",
          "type": "uint256"
        }
      ],
      "name": "Transfer",
      "type": "event"
    },
    {
      "inputs": [],
      "name": "_baseTokenURI",
      "outputs": [
        {
          "internalType": "string",
          "name": "",
          "type": "string"
        }
      ],
      "stateMutability": "view",
      "type": "function"
    },
    {
      "inputs": [
        {
          "internalType": "uint256",
          "name": "amount",
          "type": "uint256"
        }
      ],
      "name": "adjustMaxPublic",
      "outputs": [],
      "stateMutability": "nonpayable",
      "type": "function"
    },
    {
      "inputs": [
        {
          "internalType": "uint256",
          "name": "price",
          "type": "uint256"
        }
      ],
      "name": "adjustMintPrice",
      "outputs": [],
      "stateMutability": "nonpayable",
      "type": "function"
    },
    {
      "inputs": [
        {
          "internalType": "uint256",
          "name": "price",
          "type": "uint256"
        }
      ],
      "name": "adjustWhitelistPrice",
      "outputs": [],
      "stateMutability": "nonpayable",
      "type": "function"
    },
    {
      "inputs": [
        {
          "internalType": "address",
          "name": "",
          "type": "address"
        }
      ],
      "name": "allowedOperators",
      "outputs": [
        {
          "internalType": "bool",
          "name": "",
          "type": "bool"
        }
      ],
      "stateMutability": "view",
      "type": "function"
    },
    {
      "inputs": [
        {
          "internalType": "address",
          "name": "to",
          "type": "address"
        },
        {
          "internalType": "uint256",
          "name": "tokenId",
          "type": "uint256"
        }
      ],
      "name": "approve",
      "outputs": [],
      "stateMutability": "nonpayable",
      "type": "function"
    },
    {
      "inputs": [
        {
          "internalType": "address",
          "name": "",
          "type": "address"
        }
      ],
      "name": "approvedMintContracts",
      "outputs": [
        {
          "internalType": "bool",
          "name": "",
          "type": "bool"
        }
      ],
      "stateMutability": "view",
      "type": "function"
    },
    {
      "inputs": [
        {
          "internalType": "address",
          "name": "owner",
          "type": "address"
        }
      ],
      "name": "balanceOf",
      "outputs": [
        {
          "internalType": "uint256",
          "name": "",
          "type": "uint256"
        }
      ],
      "stateMutability": "view",
      "type": "function"
    },
    {
      "inputs": [
        {
          "internalType": "uint256",
          "name": "tokenId",
          "type": "uint256"
        }
      ],
      "name": "getApproved",
      "outputs": [
        {
          "internalType": "address",
          "name": "",
          "type": "address"
        }
      ],
      "stateMutability": "view",
      "type": "function"
    },
    {
      "inputs": [
        {
          "internalType": "address",
          "name": "owner",
          "type": "address"
        },
        {
          "internalType": "address",
          "name": "operator",
          "type": "address"
        }
      ],
      "name": "isApprovedForAll",
      "outputs": [
        {
          "internalType": "bool",
          "name": "",
          "type": "bool"
        }
      ],
      "stateMutability": "view",
      "type": "function"
    },
    {
      "inputs": [],
      "name": "maxPublicPerTransaction",
      "outputs": [
        {
          "internalType": "uint256",
          "name": "",
          "type": "uint256"
        }
      ],
      "stateMutability": "view",
      "type": "function"
    },
    {
      "inputs": [],
      "name": "maxSupply",
      "outputs": [
        {
          "internalType": "uint256",
          "name": "",
          "type": "uint256"
        }
      ],
      "stateMutability": "view",
      "type": "function"
    },
    {
      "inputs": [],
      "name": "mazeContract",
      "outputs": [
        {
          "internalType": "contract Maze",
          "name": "",
          "type": "address"
        }
      ],
      "stateMutability": "view",
      "type": "function"
    },
    {
      "inputs": [
        {
          "internalType": "address",
          "name": "to",
          "type": "address"
        },
        {
          "internalType": "uint256",
          "name": "amount",
          "type": "uint256"
        }
      ],
      "name": "mintFromApprovedContract",
      "outputs": [],
      "stateMutability": "nonpayable",
      "type": "function"
    },
    {
      "inputs": [],
      "name": "mintPrice",
      "outputs": [
        {
          "internalType": "uint256",
          "name": "",
          "type": "uint256"
        }
      ],
      "stateMutability": "view",
      "type": "function"
    },
    {
      "inputs": [],
      "name": "mintWindows",
      "outputs": [
        {
          "internalType": "uint256",
          "name": "whitelistStartTime",
          "type": "uint256"
        },
        {
          "internalType": "uint256",
          "name": "whitelistEndTime",
          "type": "uint256"
        },
        {
          "internalType": "uint256",
          "name": "publicMintStartTime",
          "type": "uint256"
        },
        {
          "internalType": "uint256",
          "name": "publicMintEndTime",
          "type": "uint256"
        }
      ],
      "stateMutability": "view",
      "type": "function"
    },
    {
      "inputs": [],
      "name": "name",
      "outputs": [
        {
          "internalType": "string",
          "name": "",
          "type": "string"
        }
      ],
      "stateMutability": "view",
      "type": "function"
    },
    {
      "inputs": [],
      "name": "nextTokenId",
      "outputs": [
        {
          "internalType": "uint256",
          "name": "",
          "type": "uint256"
        }
      ],
      "stateMutability": "view",
      "type": "function"
    },
    {
      "inputs": [],
      "name": "owner",
      "outputs": [
        {
          "internalType": "address",
          "name": "",
          "type": "address"
        }
      ],
      "stateMutability": "view",
      "type": "function"
    },
    {
      "inputs": [
        {
          "internalType": "address",
          "name": "to",
          "type": "address"
        },
        {
          "internalType": "uint256",
          "name": "amount",
          "type": "uint256"
        }
      ],
      "name": "ownerMint",
      "outputs": [],
      "stateMutability": "nonpayable",
      "type": "function"
    },
    {
      "inputs": [
        {
          "internalType": "uint256",
          "name": "tokenId",
          "type": "uint256"
        }
      ],
      "name": "ownerOf",
      "outputs": [
        {
          "internalType": "address",
          "name": "",
          "type": "address"
        }
      ],
      "stateMutability": "view",
      "type": "function"
    },
    {
      "inputs": [
        {
          "internalType": "uint256",
          "name": "amount",
          "type": "uint256"
        }
      ],
      "name": "publicMint",
      "outputs": [],
      "stateMutability": "payable",
      "type": "function"
    },
    {
      "inputs": [],
      "name": "renounceOwnership",
      "outputs": [],
      "stateMutability": "nonpayable",
      "type": "function"
    },
    {
      "inputs": [],
      "name": "rewardContract",
      "outputs": [
        {
          "internalType": "contract Reward",
          "name": "",
          "type": "address"
        }
      ],
      "stateMutability": "view",
      "type": "function"
    },
    {
      "inputs": [],
      "name": "rewardPercentage",
      "outputs": [
        {
          "internalType": "uint256",
          "name": "",
          "type": "uint256"
        }
      ],
      "stateMutability": "view",
      "type": "function"
    },
    {
      "inputs": [
        {
          "internalType": "address",
          "name": "from",
          "type": "address"
        },
        {
          "internalType": "address",
          "name": "to",
          "type": "address"
        },
        {
          "internalType": "uint256",
          "name": "tokenId",
          "type": "uint256"
        }
      ],
      "name": "safeTransferFrom",
      "outputs": [],
      "stateMutability": "nonpayable",
      "type": "function"
    },
    {
      "inputs": [
        {
          "internalType": "address",
          "name": "from",
          "type": "address"
        },
        {
          "internalType": "address",
          "name": "to",
          "type": "address"
        },
        {
          "internalType": "uint256",
          "name": "tokenId",
          "type": "uint256"
        },
        {
          "internalType": "bytes",
          "name": "data",
          "type": "bytes"
        }
      ],
      "name": "safeTransferFrom",
      "outputs": [],
      "stateMutability": "nonpayable",
      "type": "function"
    },
    {
      "inputs": [
        {
          "internalType": "address",
          "name": "operator",
          "type": "address"
        },
        {
          "internalType": "bool",
          "name": "approved",
          "type": "bool"
        }
      ],
      "name": "setApprovalForAll",
      "outputs": [],
      "stateMutability": "nonpayable",
      "type": "function"
    },
    {
      "inputs": [
        {
          "internalType": "address",
          "name": "_contract",
          "type": "address"
        },
        {
          "internalType": "bool",
          "name": "allows",
          "type": "bool"
        }
      ],
      "name": "setApprovedMinter",
      "outputs": [],
      "stateMutability": "nonpayable",
      "type": "function"
    },
    {
      "inputs": [
        {
          "internalType": "string",
          "name": "baseURI",
          "type": "string"
        }
      ],
      "name": "setBaseURI",
      "outputs": [],
      "stateMutability": "nonpayable",
      "type": "function"
    },
    {
      "inputs": [
        {
          "internalType": "address",
          "name": "_contract",
          "type": "address"
        }
      ],
      "name": "setMazeContract",
      "outputs": [],
      "stateMutability": "nonpayable",
      "type": "function"
    },
    {
      "inputs": [
        {
          "internalType": "uint256",
          "name": "_whitelistStartTime",
          "type": "uint256"
        },
        {
          "internalType": "uint256",
          "name": "_whitelistEndTime",
          "type": "uint256"
        },
        {
          "internalType": "uint256",
          "name": "_publicMintStartTime",
          "type": "uint256"
        },
        {
          "internalType": "uint256",
          "name": "_publicMintEndTime",
          "type": "uint256"
        }
      ],
      "name": "setMintWindows",
      "outputs": [],
      "stateMutability": "nonpayable",
      "type": "function"
    },
    {
      "inputs": [
        {
          "internalType": "address",
          "name": "_operator",
          "type": "address"
        },
        {
          "internalType": "bool",
          "name": "allowed",
          "type": "bool"
        }
      ],
      "name": "setOperator",
      "outputs": [],
      "stateMutability": "nonpayable",
      "type": "function"
    },
    {
      "inputs": [
        {
          "internalType": "address",
          "name": "_contract",
          "type": "address"
        }
      ],
      "name": "setRewardContract",
      "outputs": [],
      "stateMutability": "nonpayable",
      "type": "function"
    },
    {
      "inputs": [
        {
          "internalType": "uint256",
          "name": "_rewardPercentage",
          "type": "uint256"
        }
      ],
      "name": "setRewardPercentage",
      "outputs": [],
      "stateMutability": "nonpayable",
      "type": "function"
    },
    {
      "inputs": [
        {
          "internalType": "uint256",
          "name": "tokenId",
          "type": "uint256"
        },
        {
          "internalType": "bool",
          "name": "isSpecial",
          "type": "bool"
        }
      ],
      "name": "setSpecial",
      "outputs": [],
      "stateMutability": "nonpayable",
      "type": "function"
    },
    {
      "inputs": [
        {
          "internalType": "bytes32",
          "name": "_merkleRoot",
          "type": "bytes32"
        }
      ],
      "name": "setWhitelistMerkleRoot",
      "outputs": [],
      "stateMutability": "nonpayable",
      "type": "function"
    },
    {
      "inputs": [
        {
          "internalType": "uint256",
          "name": "",
          "type": "uint256"
        }
      ],
      "name": "specialTrait",
      "outputs": [
        {
          "internalType": "bool",
          "name": "",
          "type": "bool"
        }
      ],
      "stateMutability": "view",
      "type": "function"
    },
    {
      "inputs": [
        {
          "internalType": "bytes4",
          "name": "interfaceId",
          "type": "bytes4"
        }
      ],
      "name": "supportsInterface",
      "outputs": [
        {
          "internalType": "bool",
          "name": "",
          "type": "bool"
        }
      ],
      "stateMutability": "view",
      "type": "function"
    },
    {
      "inputs": [],
      "name": "symbol",
      "outputs": [
        {
          "internalType": "string",
          "name": "",
          "type": "string"
        }
      ],
      "stateMutability": "view",
      "type": "function"
    },
    {
      "inputs": [
        {
          "internalType": "uint256",
          "name": "index",
          "type": "uint256"
        }
      ],
      "name": "tokenByIndex",
      "outputs": [
        {
          "internalType": "uint256",
          "name": "",
          "type": "uint256"
        }
      ],
      "stateMutability": "view",
      "type": "function"
    },
    {
      "inputs": [
        {
          "internalType": "address",
          "name": "owner",
          "type": "address"
        },
        {
          "internalType": "uint256",
          "name": "index",
          "type": "uint256"
        }
      ],
      "name": "tokenOfOwnerByIndex",
      "outputs": [
        {
          "internalType": "uint256",
          "name": "",
          "type": "uint256"
        }
      ],
      "stateMutability": "view",
      "type": "function"
    },
    {
      "inputs": [
        {
          "internalType": "uint256",
          "name": "tokenId",
          "type": "uint256"
        }
      ],
      "name": "tokenURI",
      "outputs": [
        {
          "internalType": "string",
          "name": "",
          "type": "string"
        }
      ],
      "stateMutability": "view",
      "type": "function"
    },
    {
      "inputs": [],
      "name": "totalSupply",
      "outputs": [
        {
          "internalType": "uint256",
          "name": "",
          "type": "uint256"
        }
      ],
      "stateMutability": "view",
      "type": "function"
    },
    {
      "inputs": [
        {
          "internalType": "address",
          "name": "from",
          "type": "address"
        },
        {
          "internalType": "address",
          "name": "to",
          "type": "address"
        },
        {
          "internalType": "uint256",
          "name": "tokenId",
          "type": "uint256"
        }
      ],
      "name": "transferFrom",
      "outputs": [],
      "stateMutability": "nonpayable",
      "type": "function"
    },
    {
      "inputs": [
        {
          "internalType": "address",
          "name": "newOwner",
          "type": "address"
        }
      ],
      "name": "transferOwnership",
      "outputs": [],
      "stateMutability": "nonpayable",
      "type": "function"
    },
    {
      "inputs": [],
      "name": "whitelistMerkleRoot",
      "outputs": [
        {
          "internalType": "bytes32",
          "name": "",
          "type": "bytes32"
        }
      ],
      "stateMutability": "view",
      "type": "function"
    },
    {
      "inputs": [
        {
          "internalType": "uint256",
          "name": "amount",
          "type": "uint256"
        },
        {
          "internalType": "uint256",
          "name": "maxAllowed",
          "type": "uint256"
        },
        {
          "internalType": "bytes32[]",
          "name": "merkleProof",
          "type": "bytes32[]"
        }
      ],
      "name": "whitelistMint",
      "outputs": [],
      "stateMutability": "payable",
      "type": "function"
    },
    {
      "inputs": [
        {
          "internalType": "address",
          "name": "",
          "type": "address"
        }
      ],
      "name": "whitelistMinted",
      "outputs": [
        {
          "internalType": "uint256",
          "name": "",
          "type": "uint256"
        }
      ],
      "stateMutability": "view",
      "type": "function"
    },
    {
      "inputs": [],
      "name": "whitelistPrice",
      "outputs": [
        {
          "internalType": "uint256",
          "name": "",
          "type": "uint256"
        }
      ],
      "stateMutability": "view",
      "type": "function"
    },
    {
      "inputs": [],
      "name": "withdraw",
      "outputs": [],
      "stateMutability": "nonpayable",
      "type": "function"
    }
  ],
  "bytecode": "0x608060405261022b600d5566354a6ba7a18000600e5566354a6ba7a18000600f556004601055600a60115534801561003657600080fd5b50336040518060400160405280600381526020017f5a535000000000000000000000000000000000000000000000000000000000008152506040518060400160405280600381526020017f5a5350000000000000000000000000000000000000000000000000000000000081525081600090816100b39190610463565b5080600190816100c39190610463565b505050600073ffffffffffffffffffffffffffffffffffffffff168173ffffffffffffffffffffffffffffffffffffffff16036101385760006040517f1e4fbdf700000000000000000000000000000000000000000000000000000000815260040161012f9190610576565b60405180910390fd5b6101478161014d60201b60201c565b50610591565b6000600a60009054906101000a900473ffffffffffffffffffffffffffffffffffffffff16905081600a60006101000a81548173ffffffffffffffffffffffffffffffffffffffff021916908373ffffffffffffffffffffffffffffffffffffffff1602179055508173ffffffffffffffffffffffffffffffffffffffff168173ffffffffffffffffffffffffffffffffffffffff167f8be0079c531659141344cd1fd0a4f28419497f9722a3daafe3b4186f6b6457e060405160405180910390a35050565b600081519050919050565b7f4e487b7100000000000000000000000000000000000000000000000000000000600052604160045260246000fd5b7f4e487b7100000000000000000000000000000000000000000000000000000000600052602260045260246000fd5b6000600282049050600182168061029457607f821691505b6020821081036102a7576102a661024d565b5b50919050565b60008190508160005260206000209050919050565b60006020601f8301049050919050565b600082821b905092915050565b60006008830261030f7fffffffffffffffffffffffffffffffffffffffffffffffffffffffffffffffff826102d2565b61031986836102d2565b95508019841693508086168417925050509392505050565b6000819050919050565b6000819050919050565b600061036061035b61035684610331565b61033b565b610331565b9050919050565b6000819050919050565b61037a83610345565b61038e61038682610367565b8484546102df565b825550505050565b600090565b6103a3610396565b6103ae818484610371565b505050565b5b818110156103d2576103c760008261039b565b6001810190506103b4565b5050565b601f821115610417576103e8816102ad565b6103f1846102c2565b81016020851015610400578190505b61041461040c856102c2565b8301826103b3565b50505b505050565b600082821c905092915050565b600061043a6000198460080261041c565b1980831691505092915050565b60006104538383610429565b9150826002028217905092915050565b61046c82610213565b67ffffffffffffffff8111156104855761048461021e565b5b61048f825461027c565b61049a8282856103d6565b600060209050601f8311600181146104cd57600084156104bb578287015190505b6104c58582610447565b86555061052d565b601f1984166104db866102ad565b60005b82811015610503578489015182556001820191506020850194506020810190506104de565b86831015610520578489015161051c601f891682610429565b8355505b6001600288020188555050505b505050505050565b600073ffffffffffffffffffffffffffffffffffffffff82169050919050565b600061056082610535565b9050919050565b61057081610555565b82525050565b600060208201905061058b6000830184610567565b92915050565b6149b1806105a06000396000f3fe6080604052600436106102e45760003560e01c8063658fbaee11610190578063aa98e0c6116100dc578063cfc86f7b11610095578063e985e9c51161006f578063e985e9c514610b28578063eb2cdcf514610b65578063f2fde38b14610b93578063fc1a1c3614610bbc576102e4565b8063cfc86f7b14610aa9578063d5abeb0114610ad4578063d62a2d2614610aff576102e4565b8063aa98e0c6146109aa578063b88d4fde146109d5578063bd32fb66146109fe578063c4be5b5914610a27578063c80416d214610a43578063c87b56dd14610a6c576102e4565b80638da5cb5b1161014957806398a8cffe1161012357806398a8cffe146108de5780639acffa121461091b578063a22cb46514610944578063a6674f881461096d576102e4565b80638da5cb5b1461085d578063949506f91461088857806395d89b41146108b3576102e4565b8063658fbaee1461075f5780636817c76c146107885780636ea69d62146107b357806370a08231146107de578063715018a61461081b57806375794a3c14610832576102e4565b80633123ca971161024f5780634ca3ca2c1161020857806352d472eb116101e257806352d472eb146106a5578063558a7297146106d057806355f804b3146106f95780636352211e14610722576102e4565b80634ca3ca2c146106145780634f6ccce71461063f57806351508f0a1461067c576102e4565b80633123ca971461051c5780633a1cafa8146105595780633ccfd60b1461058257806342842e0e14610599578063460b289c146105c2578063484b973c146105eb576102e4565b806318160ddd116102a157806318160ddd1461040957806321a9088d1461043457806323b872dd1461047157806329ec16dd1461049a5780632db11544146104c35780632f745c59146104df576102e4565b806301ffc9a7146102e957806306fdde031461032657806307a0c83314610351578063081812fc1461037a578063095ea7b3146103b757806309653674146103e0575b600080fd5b3480156102f557600080fd5b50610310600480360381019061030b91906133b3565b610be7565b60405161031d91906133fb565b60405180910390f35b34801561033257600080fd5b5061033b610c61565b60405161034891906134a6565b60405180910390f35b34801561035d57600080fd5b506103786004803603810190610373919061355c565b610cf3565b005b34801561038657600080fd5b506103a1600480360381019061039c919061359c565b610de0565b6040516103ae91906135d8565b60405180910390f35b3480156103c357600080fd5b506103de60048036038101906103d9919061355c565b610dfc565b005b3480156103ec57600080fd5b506104076004803603810190610402919061359c565b610e12565b005b34801561041557600080fd5b5061041e610e60565b60405161042b9190613602565b60405180910390f35b34801561044057600080fd5b5061045b6004803603810190610456919061359c565b610e6d565b60405161046891906133fb565b60405180910390f35b34801561047d57600080fd5b506104986004803603810190610493919061361d565b610e8d565b005b3480156104a657600080fd5b506104c160048036038101906104bc919061369c565b610f8f565b005b6104dd60048036038101906104d8919061359c565b610ff2565b005b3480156104eb57600080fd5b506105066004803603810190610501919061355c565b611148565b6040516105139190613602565b60405180910390f35b34801561052857600080fd5b50610543600480360381019061053e91906136dc565b6111f1565b60405161055091906133fb565b60405180910390f35b34801561056557600080fd5b50610580600480360381019061057b91906136dc565b611211565b005b34801561058e57600080fd5b5061059761125d565b005b3480156105a557600080fd5b506105c060048036038101906105bb919061361d565b6112ae565b005b3480156105ce57600080fd5b506105e960048036038101906105e4919061359c565b6112ce565b005b3480156105f757600080fd5b50610612600480360381019061060d919061355c565b6112e0565b005b34801561062057600080fd5b50610629611349565b6040516106369190613602565b60405180910390f35b34801561064b57600080fd5b506106666004803603810190610661919061359c565b61134f565b6040516106739190613602565b60405180910390f35b34801561068857600080fd5b506106a3600480360381019061069e91906136dc565b6113c5565b005b3480156106b157600080fd5b506106ba611411565b6040516106c79190613602565b60405180910390f35b3480156106dc57600080fd5b506106f760048036038101906106f2919061369c565b611417565b005b34801561070557600080fd5b50610720600480360381019061071b919061383e565b61147a565b005b34801561072e57600080fd5b506107496004803603810190610744919061359c565b611495565b60405161075691906135d8565b60405180910390f35b34801561076b57600080fd5b506107866004803603810190610781919061359c565b6114a7565b005b34801561079457600080fd5b5061079d6114b9565b6040516107aa9190613602565b60405180910390f35b3480156107bf57600080fd5b506107c86114bf565b6040516107d591906138e6565b60405180910390f35b3480156107ea57600080fd5b50610805600480360381019061080091906136dc565b6114e5565b6040516108129190613602565b60405180910390f35b34801561082757600080fd5b5061083061159f565b005b34801561083e57600080fd5b506108476115b3565b6040516108549190613602565b60405180910390f35b34801561086957600080fd5b506108726115b9565b60405161087f91906135d8565b60405180910390f35b34801561089457600080fd5b5061089d6115e3565b6040516108aa9190613922565b60405180910390f35b3480156108bf57600080fd5b506108c8611609565b6040516108d591906134a6565b60405180910390f35b3480156108ea57600080fd5b50610905600480360381019061090091906136dc565b61169b565b6040516109129190613602565b60405180910390f35b34801561092757600080fd5b50610942600480360381019061093d919061393d565b6116b3565b005b34801561095057600080fd5b5061096b6004803603810190610966919061369c565b6117ab565b005b34801561097957600080fd5b50610994600480360381019061098f91906136dc565b6117c1565b6040516109a191906133fb565b60405180910390f35b3480156109b657600080fd5b506109bf6117e1565b6040516109cc9190613996565b60405180910390f35b3480156109e157600080fd5b506109fc60048036038101906109f79190613a52565b6117e7565b005b348015610a0a57600080fd5b50610a256004803603810190610a209190613b01565b61180c565b005b610a416004803603810190610a3c9190613b8e565b61181e565b005b348015610a4f57600080fd5b50610a6a6004803603810190610a659190613c02565b611ad1565b005b348015610a7857600080fd5b50610a936004803603810190610a8e919061359c565b611b2d565b604051610aa091906134a6565b60405180910390f35b348015610ab557600080fd5b50610abe611c03565b604051610acb91906134a6565b60405180910390f35b348015610ae057600080fd5b50610ae9611c91565b604051610af69190613602565b60405180910390f35b348015610b0b57600080fd5b50610b266004803603810190610b21919061359c565b611c97565b005b348015610b3457600080fd5b50610b4f6004803603810190610b4a9190613c69565b611ca9565b604051610b5c91906133fb565b60405180910390f35b348015610b7157600080fd5b50610b7a611d3d565b604051610b8a9493929190613ca9565b60405180910390f35b348015610b9f57600080fd5b50610bba6004803603810190610bb591906136dc565b611d5b565b005b348015610bc857600080fd5b50610bd1611de1565b604051610bde9190613602565b60405180910390f35b60007f780e9d63000000000000000000000000000000000000000000000000000000007bffffffffffffffffffffffffffffffffffffffffffffffffffffffff1916827bffffffffffffffffffffffffffffffffffffffffffffffffffffffff19161480610c5a5750610c5982611de7565b5b9050919050565b606060008054610c7090613d1d565b80601f0160208091040260200160405190810160405280929190818152602001828054610c9c90613d1d565b8015610ce95780601f10610cbe57610100808354040283529160200191610ce9565b820191906000526020600020905b815481529060010190602001808311610ccc57829003601f168201915b5050505050905090565b80600d5481600b54610d059190613d7d565b10610d45576040517f08c379a0000000000000000000000000000000000000000000000000000000008152600401610d3c90613dfd565b60405180910390fd5b600c60003373ffffffffffffffffffffffffffffffffffffffff1673ffffffffffffffffffffffffffffffffffffffff16815260200190815260200160002060009054906101000a900460ff16610dd1576040517f08c379a0000000000000000000000000000000000000000000000000000000008152600401610dc890613e69565b60405180910390fd5b610ddb8383611ec9565b505050565b6000610deb82611f99565b50610df582612021565b9050919050565b610e0e8282610e0961205e565b612066565b5050565b6064811115610e56576040517f08c379a0000000000000000000000000000000000000000000000000000000008152600401610e4d90613ed5565b60405180910390fd5b8060118190555050565b6000600880549050905090565b60186020528060005260406000206000915054906101000a900460ff1681565b600073ffffffffffffffffffffffffffffffffffffffff168273ffffffffffffffffffffffffffffffffffffffff1603610eff5760006040517f64a0ae92000000000000000000000000000000000000000000000000000000008152600401610ef691906135d8565b60405180910390fd5b6000610f138383610f0e61205e565b612078565b90508373ffffffffffffffffffffffffffffffffffffffff168173ffffffffffffffffffffffffffffffffffffffff1614610f89578382826040517f64283d7b000000000000000000000000000000000000000000000000000000008152600401610f8093929190613ef5565b60405180910390fd5b50505050565b610f97612195565b80600c60008473ffffffffffffffffffffffffffffffffffffffff1673ffffffffffffffffffffffffffffffffffffffff16815260200190815260200160002060006101000a81548160ff0219169083151502179055505050565b80600d5481600b546110049190613d7d565b10611044576040517f08c379a000000000000000000000000000000000000000000000000000000000815260040161103b90613dfd565b60405180910390fd5b600f5482346110539190613f2c565b1015611094576040517f08c379a000000000000000000000000000000000000000000000000000000000815260040161108b90613fba565b60405180910390fd5b60105482106110d8576040517f08c379a00000000000000000000000000000000000000000000000000000000081526004016110cf90614026565b60405180910390fd5b60126002015442101580156110f257506012600301544211155b611131576040517f08c379a000000000000000000000000000000000000000000000000000000000815260040161112890614092565b60405180910390fd5b61113a3461221c565b6111443383611ec9565b5050565b6000611153836114e5565b82106111985782826040517fa57d13dc00000000000000000000000000000000000000000000000000000000815260040161118f9291906140b2565b60405180910390fd5b600660008473ffffffffffffffffffffffffffffffffffffffff1673ffffffffffffffffffffffffffffffffffffffff168152602001908152602001600020600083815260200190815260200160002054905092915050565b600c6020528060005260406000206000915054906101000a900460ff1681565b611219612195565b80601a60006101000a81548173ffffffffffffffffffffffffffffffffffffffff021916908373ffffffffffffffffffffffffffffffffffffffff16021790555050565b611265612195565b3373ffffffffffffffffffffffffffffffffffffffff166108fc479081150290604051600060405180830381858888f193505050501580156112ab573d6000803e3d6000fd5b50565b6112c9838383604051806020016040528060008152506117e7565b505050565b6112d6612195565b80600f8190555050565b6112e8612195565b80600d5481600b546112fa9190613d7d565b1061133a576040517f08c379a000000000000000000000000000000000000000000000000000000000815260040161133190613dfd565b60405180910390fd5b6113448383611ec9565b505050565b60105481565b6000611359610e60565b821061139f576000826040517fa57d13dc0000000000000000000000000000000000000000000000000000000081526004016113969291906140b2565b60405180910390fd5b600882815481106113b3576113b26140db565b5b90600052602060002001549050919050565b6113cd612195565b80601b60006101000a81548173ffffffffffffffffffffffffffffffffffffffff021916908373ffffffffffffffffffffffffffffffffffffffff16021790555050565b60115481565b61141f612195565b80601c60008473ffffffffffffffffffffffffffffffffffffffff1673ffffffffffffffffffffffffffffffffffffffff16815260200190815260200160002060006101000a81548160ff0219169083151502179055505050565b611482612195565b806019908161149191906142ac565b5050565b60006114a082611f99565b9050919050565b6114af612195565b80600e8190555050565b600f5481565b601b60009054906101000a900473ffffffffffffffffffffffffffffffffffffffff1681565b60008073ffffffffffffffffffffffffffffffffffffffff168273ffffffffffffffffffffffffffffffffffffffff16036115585760006040517f89c62b6400000000000000000000000000000000000000000000000000000000815260040161154f91906135d8565b60405180910390fd5b600360008373ffffffffffffffffffffffffffffffffffffffff1673ffffffffffffffffffffffffffffffffffffffff168152602001908152602001600020549050919050565b6115a7612195565b6115b160006122c1565b565b600b5481565b6000600a60009054906101000a900473ffffffffffffffffffffffffffffffffffffffff16905090565b601a60009054906101000a900473ffffffffffffffffffffffffffffffffffffffff1681565b60606001805461161890613d1d565b80601f016020809104026020016040519081016040528092919081815260200182805461164490613d1d565b80156116915780601f1061166657610100808354040283529160200191611691565b820191906000526020600020905b81548152906001019060200180831161167457829003601f168201915b5050505050905090565b60166020528060005260406000206000915090505481565b601c60003373ffffffffffffffffffffffffffffffffffffffff1673ffffffffffffffffffffffffffffffffffffffff16815260200190815260200160002060009054906101000a900460ff168061173d575061170e6115b9565b73ffffffffffffffffffffffffffffffffffffffff163373ffffffffffffffffffffffffffffffffffffffff16145b61177c576040517f08c379a0000000000000000000000000000000000000000000000000000000008152600401611773906143ca565b60405180910390fd5b806018600084815260200190815260200160002060006101000a81548160ff0219169083151502179055505050565b6117bd6117b661205e565b8383612387565b5050565b601c6020528060005260406000206000915054906101000a900460ff1681565b60175481565b6117f2848484610e8d565b6118066117fd61205e565b858585856124f6565b50505050565b611814612195565b8060178190555050565b83600d5481600b546118309190613d7d565b10611870576040517f08c379a000000000000000000000000000000000000000000000000000000000815260040161186790613dfd565b60405180910390fd5b601260000154421015801561188a57506012600101544211155b6118c9576040517f08c379a00000000000000000000000000000000000000000000000000000000081526004016118c090614436565b60405180910390fd5b600e5485346118d89190613f2c565b1015611919576040517f08c379a000000000000000000000000000000000000000000000000000000000815260040161191090613fba565b60405180910390fd5b8385601660003373ffffffffffffffffffffffffffffffffffffffff1673ffffffffffffffffffffffffffffffffffffffff168152602001908152602001600020546119659190613d7d565b11156119a6576040517f08c379a000000000000000000000000000000000000000000000000000000000815260040161199d906144a2565b60405180910390fd5b600033856040516020016119bb92919061452b565b604051602081830303815290604052805190602001209050611a21848480806020026020016040519081016040528093929190818152602001838360200280828437600081840152601f19601f82011690508083019250505050505050601754836126a7565b611a60576040517f08c379a0000000000000000000000000000000000000000000000000000000008152600401611a57906145a3565b60405180910390fd5b611a693461221c565b85601660003373ffffffffffffffffffffffffffffffffffffffff1673ffffffffffffffffffffffffffffffffffffffff1681526020019081526020016000206000828254611ab89190613d7d565b92505081905550611ac93387611ec9565b505050505050565b611ad9612195565b60405180608001604052808581526020018481526020018381526020018281525060126000820151816000015560208201518160010155604082015181600201556060820151816003015590505050505050565b6060611b37610e60565b8210611b78576040517f08c379a0000000000000000000000000000000000000000000000000000000008152600401611b6f9061460f565b60405180910390fd5b6018600083815260200190815260200160002060009054906101000a900460ff1615611bd0576019611ba9836126be565b604051602001611bba92919061473a565b6040516020818303038152906040529050611bfe565b6019611bdb836126be565b604051602001611bec929190614769565b60405160208183030381529060405290505b919050565b60198054611c1090613d1d565b80601f0160208091040260200160405190810160405280929190818152602001828054611c3c90613d1d565b8015611c895780601f10611c5e57610100808354040283529160200191611c89565b820191906000526020600020905b815481529060010190602001808311611c6c57829003601f168201915b505050505081565b600d5481565b611c9f612195565b8060108190555050565b6000600560008473ffffffffffffffffffffffffffffffffffffffff1673ffffffffffffffffffffffffffffffffffffffff16815260200190815260200160002060008373ffffffffffffffffffffffffffffffffffffffff1673ffffffffffffffffffffffffffffffffffffffff16815260200190815260200160002060009054906101000a900460ff16905092915050565b60128060000154908060010154908060020154908060030154905084565b611d63612195565b600073ffffffffffffffffffffffffffffffffffffffff168173ffffffffffffffffffffffffffffffffffffffff1603611dd55760006040517f1e4fbdf7000000000000000000000000000000000000000000000000000000008152600401611dcc91906135d8565b60405180910390fd5b611dde816122c1565b50565b600e5481565b60007f80ac58cd000000000000000000000000000000000000000000000000000000007bffffffffffffffffffffffffffffffffffffffffffffffffffffffff1916827bffffffffffffffffffffffffffffffffffffffffffffffffffffffff19161480611eb257507f5b5e139f000000000000000000000000000000000000000000000000000000007bffffffffffffffffffffffffffffffffffffffffffffffffffffffff1916827bffffffffffffffffffffffffffffffffffffffffffffffffffffffff1916145b80611ec25750611ec18261278c565b5b9050919050565b60005b81811015611f0557611ee083600b546127f6565b600b6000815480929190611ef39061478d565b91905055508080600101915050611ecc565b50601a60009054906101000a900473ffffffffffffffffffffffffffffffffffffffff1673ffffffffffffffffffffffffffffffffffffffff1663c43f27be600b546040518263ffffffff1660e01b8152600401611f639190613602565b600060405180830381600087803b158015611f7d57600080fd5b505af1158015611f91573d6000803e3d6000fd5b505050505050565b600080611fa583612814565b9050600073ffffffffffffffffffffffffffffffffffffffff168173ffffffffffffffffffffffffffffffffffffffff160361201857826040517f7e27328900000000000000000000000000000000000000000000000000000000815260040161200f9190613602565b60405180910390fd5b80915050919050565b60006004600083815260200190815260200160002060009054906101000a900473ffffffffffffffffffffffffffffffffffffffff169050919050565b600033905090565b6120738383836001612851565b505050565b600080612086858585612a16565b9050600073ffffffffffffffffffffffffffffffffffffffff168173ffffffffffffffffffffffffffffffffffffffff16036120ca576120c584612c30565b612109565b8473ffffffffffffffffffffffffffffffffffffffff168173ffffffffffffffffffffffffffffffffffffffff1614612108576121078185612c79565b5b5b600073ffffffffffffffffffffffffffffffffffffffff168573ffffffffffffffffffffffffffffffffffffffff160361214b5761214684612d64565b61218a565b8473ffffffffffffffffffffffffffffffffffffffff168173ffffffffffffffffffffffffffffffffffffffff1614612189576121888585612e35565b5b5b809150509392505050565b61219d61205e565b73ffffffffffffffffffffffffffffffffffffffff166121bb6115b9565b73ffffffffffffffffffffffffffffffffffffffff161461221a576121de61205e565b6040517f118cdaa700000000000000000000000000000000000000000000000000000000815260040161221191906135d8565b60405180910390fd5b565b600060646011548361222e9190613f2c565b6122389190614804565b9050601b60009054906101000a900473ffffffffffffffffffffffffffffffffffffffff1673ffffffffffffffffffffffffffffffffffffffff16635ec2dc8d826040518263ffffffff1660e01b81526004016000604051808303818588803b1580156122a457600080fd5b505af11580156122b8573d6000803e3d6000fd5b50505050505050565b6000600a60009054906101000a900473ffffffffffffffffffffffffffffffffffffffff16905081600a60006101000a81548173ffffffffffffffffffffffffffffffffffffffff021916908373ffffffffffffffffffffffffffffffffffffffff1602179055508173ffffffffffffffffffffffffffffffffffffffff168173ffffffffffffffffffffffffffffffffffffffff167f8be0079c531659141344cd1fd0a4f28419497f9722a3daafe3b4186f6b6457e060405160405180910390a35050565b600073ffffffffffffffffffffffffffffffffffffffff168273ffffffffffffffffffffffffffffffffffffffff16036123f857816040517f5b08ba180000000000000000000000000000000000000000000000000000000081526004016123ef91906135d8565b60405180910390fd5b80600560008573ffffffffffffffffffffffffffffffffffffffff1673ffffffffffffffffffffffffffffffffffffffff16815260200190815260200160002060008473ffffffffffffffffffffffffffffffffffffffff1673ffffffffffffffffffffffffffffffffffffffff16815260200190815260200160002060006101000a81548160ff0219169083151502179055508173ffffffffffffffffffffffffffffffffffffffff168373ffffffffffffffffffffffffffffffffffffffff167f17307eab39ab6107e8899845ad3d59bd9653f200f220920489ca2b5937696c31836040516124e991906133fb565b60405180910390a3505050565b60008373ffffffffffffffffffffffffffffffffffffffff163b11156126a0578273ffffffffffffffffffffffffffffffffffffffff1663150b7a02868685856040518563ffffffff1660e01b8152600401612555949392919061488a565b6020604051808303816000875af192505050801561259157506040513d601f19601f8201168201806040525081019061258e91906148eb565b60015b612615573d80600081146125c1576040519150601f19603f3d011682016040523d82523d6000602084013e6125c6565b606091505b50600081510361260d57836040517f64a0ae9200000000000000000000000000000000000000000000000000000000815260040161260491906135d8565b60405180910390fd5b805181602001fd5b63150b7a0260e01b7bffffffffffffffffffffffffffffffffffffffffffffffffffffffff1916817bffffffffffffffffffffffffffffffffffffffffffffffffffffffff19161461269e57836040517f64a0ae9200000000000000000000000000000000000000000000000000000000815260040161269591906135d8565b60405180910390fd5b505b5050505050565b6000826126b48584612ec0565b1490509392505050565b6060600060016126cd84612f10565b01905060008167ffffffffffffffff8111156126ec576126eb613713565b5b6040519080825280601f01601f19166020018201604052801561271e5781602001600182028036833780820191505090505b509050600082602001820190505b600115612781578080600190039150507f3031323334353637383961626364656600000000000000000000000000000000600a86061a8153600a8581612775576127746147d5565b5b0494506000850361272c575b819350505050919050565b60007f01ffc9a7000000000000000000000000000000000000000000000000000000007bffffffffffffffffffffffffffffffffffffffffffffffffffffffff1916827bffffffffffffffffffffffffffffffffffffffffffffffffffffffff1916149050919050565b612810828260405180602001604052806000815250613063565b5050565b60006002600083815260200190815260200160002060009054906101000a900473ffffffffffffffffffffffffffffffffffffffff169050919050565b808061288a5750600073ffffffffffffffffffffffffffffffffffffffff168273ffffffffffffffffffffffffffffffffffffffff1614155b156129be57600061289a84611f99565b9050600073ffffffffffffffffffffffffffffffffffffffff168373ffffffffffffffffffffffffffffffffffffffff161415801561290557508273ffffffffffffffffffffffffffffffffffffffff168173ffffffffffffffffffffffffffffffffffffffff1614155b801561291857506129168184611ca9565b155b1561295a57826040517fa9fbf51f00000000000000000000000000000000000000000000000000000000815260040161295191906135d8565b60405180910390fd5b81156129bc57838573ffffffffffffffffffffffffffffffffffffffff168273ffffffffffffffffffffffffffffffffffffffff167f8c5be1e5ebec7d5bd14f71427d1e84f3dd0314c0f7b2291e5b200ac8c7c3b92560405160405180910390a45b505b836004600085815260200190815260200160002060006101000a81548173ffffffffffffffffffffffffffffffffffffffff021916908373ffffffffffffffffffffffffffffffffffffffff16021790555050505050565b600080612a2284612814565b9050600073ffffffffffffffffffffffffffffffffffffffff168373ffffffffffffffffffffffffffffffffffffffff1614612a6457612a63818486613087565b5b600073ffffffffffffffffffffffffffffffffffffffff168173ffffffffffffffffffffffffffffffffffffffff1614612af557612aa6600085600080612851565b6001600360008373ffffffffffffffffffffffffffffffffffffffff1673ffffffffffffffffffffffffffffffffffffffff168152602001908152602001600020600082825403925050819055505b600073ffffffffffffffffffffffffffffffffffffffff168573ffffffffffffffffffffffffffffffffffffffff1614612b78576001600360008773ffffffffffffffffffffffffffffffffffffffff1673ffffffffffffffffffffffffffffffffffffffff168152602001908152602001600020600082825401925050819055505b846002600086815260200190815260200160002060006101000a81548173ffffffffffffffffffffffffffffffffffffffff021916908373ffffffffffffffffffffffffffffffffffffffff160217905550838573ffffffffffffffffffffffffffffffffffffffff168273ffffffffffffffffffffffffffffffffffffffff167fddf252ad1be2c89b69c2b068fc378daa952ba7f163c4a11628f55a4df523b3ef60405160405180910390a4809150509392505050565b6008805490506009600083815260200190815260200160002081905550600881908060018154018082558091505060019003906000526020600020016000909190919091505550565b6000612c84836114e5565b90506000600760008481526020019081526020016000205490506000600660008673ffffffffffffffffffffffffffffffffffffffff1673ffffffffffffffffffffffffffffffffffffffff1681526020019081526020016000209050828214612d305760008160008581526020019081526020016000205490508082600085815260200190815260200160002081905550826007600083815260200190815260200160002081905550505b6007600085815260200190815260200160002060009055806000848152602001908152602001600020600090555050505050565b60006001600880549050612d789190614918565b9050600060096000848152602001908152602001600020549050600060088381548110612da857612da76140db565b5b906000526020600020015490508060088381548110612dca57612dc96140db565b5b906000526020600020018190555081600960008381526020019081526020016000208190555060096000858152602001908152602001600020600090556008805480612e1957612e1861494c565b5b6001900381819060005260206000200160009055905550505050565b60006001612e42846114e5565b612e4c9190614918565b905081600660008573ffffffffffffffffffffffffffffffffffffffff1673ffffffffffffffffffffffffffffffffffffffff168152602001908152602001600020600083815260200190815260200160002081905550806007600084815260200190815260200160002081905550505050565b60008082905060005b8451811015612f0557612ef682868381518110612ee957612ee86140db565b5b602002602001015161314b565b91508080600101915050612ec9565b508091505092915050565b600080600090507a184f03e93ff9f4daa797ed6e38ed64bf6a1f0100000000000000008310612f6e577a184f03e93ff9f4daa797ed6e38ed64bf6a1f0100000000000000008381612f6457612f636147d5565b5b0492506040810190505b6d04ee2d6d415b85acef81000000008310612fab576d04ee2d6d415b85acef81000000008381612fa157612fa06147d5565b5b0492506020810190505b662386f26fc100008310612fda57662386f26fc100008381612fd057612fcf6147d5565b5b0492506010810190505b6305f5e1008310613003576305f5e1008381612ff957612ff86147d5565b5b0492506008810190505b612710831061302857612710838161301e5761301d6147d5565b5b0492506004810190505b6064831061304b5760648381613041576130406147d5565b5b0492506002810190505b600a831061305a576001810190505b80915050919050565b61306d8383613176565b61308261307861205e565b60008585856124f6565b505050565b61309283838361326f565b61314657600073ffffffffffffffffffffffffffffffffffffffff168373ffffffffffffffffffffffffffffffffffffffff160361310757806040517f7e2732890000000000000000000000000000000000000000000000000000000081526004016130fe9190613602565b60405180910390fd5b81816040517f177e802f00000000000000000000000000000000000000000000000000000000815260040161313d9291906140b2565b60405180910390fd5b505050565b60008183106131635761315e8284613330565b61316e565b61316d8383613330565b5b905092915050565b600073ffffffffffffffffffffffffffffffffffffffff168273ffffffffffffffffffffffffffffffffffffffff16036131e85760006040517f64a0ae920000000000000000000000000000000000000000000000000000000081526004016131df91906135d8565b60405180910390fd5b60006131f683836000612078565b9050600073ffffffffffffffffffffffffffffffffffffffff168173ffffffffffffffffffffffffffffffffffffffff161461326a5760006040517f73c6ac6e00000000000000000000000000000000000000000000000000000000815260040161326191906135d8565b60405180910390fd5b505050565b60008073ffffffffffffffffffffffffffffffffffffffff168373ffffffffffffffffffffffffffffffffffffffff161415801561332757508273ffffffffffffffffffffffffffffffffffffffff168473ffffffffffffffffffffffffffffffffffffffff1614806132e857506132e78484611ca9565b5b8061332657508273ffffffffffffffffffffffffffffffffffffffff1661330e83612021565b73ffffffffffffffffffffffffffffffffffffffff16145b5b90509392505050565b600082600052816020526040600020905092915050565b6000604051905090565b600080fd5b600080fd5b60007fffffffff0000000000000000000000000000000000000000000000000000000082169050919050565b6133908161335b565b811461339b57600080fd5b50565b6000813590506133ad81613387565b92915050565b6000602082840312156133c9576133c8613351565b5b60006133d78482850161339e565b91505092915050565b60008115159050919050565b6133f5816133e0565b82525050565b600060208201905061341060008301846133ec565b92915050565b600081519050919050565b600082825260208201905092915050565b60005b83811015613450578082015181840152602081019050613435565b60008484015250505050565b6000601f19601f8301169050919050565b600061347882613416565b6134828185613421565b9350613492818560208601613432565b61349b8161345c565b840191505092915050565b600060208201905081810360008301526134c0818461346d565b905092915050565b600073ffffffffffffffffffffffffffffffffffffffff82169050919050565b60006134f3826134c8565b9050919050565b613503816134e8565b811461350e57600080fd5b50565b600081359050613520816134fa565b92915050565b6000819050919050565b61353981613526565b811461354457600080fd5b50565b60008135905061355681613530565b92915050565b6000806040838503121561357357613572613351565b5b600061358185828601613511565b925050602061359285828601613547565b9150509250929050565b6000602082840312156135b2576135b1613351565b5b60006135c084828501613547565b91505092915050565b6135d2816134e8565b82525050565b60006020820190506135ed60008301846135c9565b92915050565b6135fc81613526565b82525050565b600060208201905061361760008301846135f3565b92915050565b60008060006060848603121561363657613635613351565b5b600061364486828701613511565b935050602061365586828701613511565b925050604061366686828701613547565b9150509250925092565b613679816133e0565b811461368457600080fd5b50565b60008135905061369681613670565b92915050565b600080604083850312156136b3576136b2613351565b5b60006136c185828601613511565b92505060206136d285828601613687565b9150509250929050565b6000602082840312156136f2576136f1613351565b5b600061370084828501613511565b91505092915050565b600080fd5b600080fd5b7f4e487b7100000000000000000000000000000000000000000000000000000000600052604160045260246000fd5b61374b8261345c565b810181811067ffffffffffffffff8211171561376a57613769613713565b5b80604052505050565b600061377d613347565b90506137898282613742565b919050565b600067ffffffffffffffff8211156137a9576137a8613713565b5b6137b28261345c565b9050602081019050919050565b82818337600083830152505050565b60006137e16137dc8461378e565b613773565b9050828152602081018484840111156137fd576137fc61370e565b5b6138088482856137bf565b509392505050565b600082601f83011261382557613824613709565b5b81356138358482602086016137ce565b91505092915050565b60006020828403121561385457613853613351565b5b600082013567ffffffffffffffff81111561387257613871613356565b5b61387e84828501613810565b91505092915050565b6000819050919050565b60006138ac6138a76138a2846134c8565b613887565b6134c8565b9050919050565b60006138be82613891565b9050919050565b60006138d0826138b3565b9050919050565b6138e0816138c5565b82525050565b60006020820190506138fb60008301846138d7565b92915050565b600061390c826138b3565b9050919050565b61391c81613901565b82525050565b60006020820190506139376000830184613913565b92915050565b6000806040838503121561395457613953613351565b5b600061396285828601613547565b925050602061397385828601613687565b9150509250929050565b6000819050919050565b6139908161397d565b82525050565b60006020820190506139ab6000830184613987565b92915050565b600067ffffffffffffffff8211156139cc576139cb613713565b5b6139d58261345c565b9050602081019050919050565b60006139f56139f0846139b1565b613773565b905082815260208101848484011115613a1157613a1061370e565b5b613a1c8482856137bf565b509392505050565b600082601f830112613a3957613a38613709565b5b8135613a498482602086016139e2565b91505092915050565b60008060008060808587031215613a6c57613a6b613351565b5b6000613a7a87828801613511565b9450506020613a8b87828801613511565b9350506040613a9c87828801613547565b925050606085013567ffffffffffffffff811115613abd57613abc613356565b5b613ac987828801613a24565b91505092959194509250565b613ade8161397d565b8114613ae957600080fd5b50565b600081359050613afb81613ad5565b92915050565b600060208284031215613b1757613b16613351565b5b6000613b2584828501613aec565b91505092915050565b600080fd5b600080fd5b60008083601f840112613b4e57613b4d613709565b5b8235905067ffffffffffffffff811115613b6b57613b6a613b2e565b5b602083019150836020820283011115613b8757613b86613b33565b5b9250929050565b60008060008060608587031215613ba857613ba7613351565b5b6000613bb687828801613547565b9450506020613bc787828801613547565b935050604085013567ffffffffffffffff811115613be857613be7613356565b5b613bf487828801613b38565b925092505092959194509250565b60008060008060808587031215613c1c57613c1b613351565b5b6000613c2a87828801613547565b9450506020613c3b87828801613547565b9350506040613c4c87828801613547565b9250506060613c5d87828801613547565b91505092959194509250565b60008060408385031215613c8057613c7f613351565b5b6000613c8e85828601613511565b9250506020613c9f85828601613511565b9150509250929050565b6000608082019050613cbe60008301876135f3565b613ccb60208301866135f3565b613cd860408301856135f3565b613ce560608301846135f3565b95945050505050565b7f4e487b7100000000000000000000000000000000000000000000000000000000600052602260045260246000fd5b60006002820490506001821680613d3557607f821691505b602082108103613d4857613d47613cee565b5b50919050565b7f4e487b7100000000000000000000000000000000000000000000000000000000600052601160045260246000fd5b6000613d8882613526565b9150613d9383613526565b9250828201905080821115613dab57613daa613d4e565b5b92915050565b7f4f7574206f662053746f636b0000000000000000000000000000000000000000600082015250565b6000613de7600c83613421565b9150613df282613db1565b602082019050919050565b60006020820190508181036000830152613e1681613dda565b9050919050565b7f4e6f7420616e20617070726f766564206d696e74657200000000000000000000600082015250565b6000613e53601683613421565b9150613e5e82613e1d565b602082019050919050565b60006020820190508181036000830152613e8281613e46565b9050919050565b7f50657263656e746167652063616e6e6f74206578636565642031303000000000600082015250565b6000613ebf601c83613421565b9150613eca82613e89565b602082019050919050565b60006020820190508181036000830152613eee81613eb2565b9050919050565b6000606082019050613f0a60008301866135c9565b613f1760208301856135f3565b613f2460408301846135c9565b949350505050565b6000613f3782613526565b9150613f4283613526565b9250828202613f5081613526565b91508282048414831517613f6757613f66613d4e565b5b5092915050565b7f496e73756666696369656e742046756e64000000000000000000000000000000600082015250565b6000613fa4601183613421565b9150613faf82613f6e565b602082019050919050565b60006020820190508181036000830152613fd381613f97565b9050919050565b7f4d696e7420746f6f206d616e7900000000000000000000000000000000000000600082015250565b6000614010600d83613421565b915061401b82613fda565b602082019050919050565b6000602082019050818103600083015261403f81614003565b9050919050565b7f5075626c6963206d696e74206e6f742061637469766500000000000000000000600082015250565b600061407c601683613421565b915061408782614046565b602082019050919050565b600060208201905081810360008301526140ab8161406f565b9050919050565b60006040820190506140c760008301856135c9565b6140d460208301846135f3565b9392505050565b7f4e487b7100000000000000000000000000000000000000000000000000000000600052603260045260246000fd5b60008190508160005260206000209050919050565b60006020601f8301049050919050565b600082821b905092915050565b60006008830261416c7fffffffffffffffffffffffffffffffffffffffffffffffffffffffffffffffff8261412f565b614176868361412f565b95508019841693508086168417925050509392505050565b60006141a96141a461419f84613526565b613887565b613526565b9050919050565b6000819050919050565b6141c38361418e565b6141d76141cf826141b0565b84845461413c565b825550505050565b600090565b6141ec6141df565b6141f78184846141ba565b505050565b5b8181101561421b576142106000826141e4565b6001810190506141fd565b5050565b601f821115614260576142318161410a565b61423a8461411f565b81016020851015614249578190505b61425d6142558561411f565b8301826141fc565b50505b505050565b600082821c905092915050565b600061428360001984600802614265565b1980831691505092915050565b600061429c8383614272565b9150826002028217905092915050565b6142b582613416565b67ffffffffffffffff8111156142ce576142cd613713565b5b6142d88254613d1d565b6142e382828561421f565b600060209050601f8311600181146143165760008415614304578287015190505b61430e8582614290565b865550614376565b601f1984166143248661410a565b60005b8281101561434c57848901518255600182019150602085019450602081019050614327565b868310156143695784890151614365601f891682614272565b8355505b6001600288020188555050505b505050505050565b7f4e6f7420616c6c6f776564000000000000000000000000000000000000000000600082015250565b60006143b4600b83613421565b91506143bf8261437e565b602082019050919050565b600060208201905081810360008301526143e3816143a7565b9050919050565b7f57686974656c697374206d696e74206e6f742061637469766500000000000000600082015250565b6000614420601983613421565b915061442b826143ea565b602082019050919050565b6000602082019050818103600083015261444f81614413565b9050919050565b7f457863656564732077686974656c69737420616c6c6f77616e63650000000000600082015250565b600061448c601b83613421565b915061449782614456565b602082019050919050565b600060208201905081810360008301526144bb8161447f565b9050919050565b60008160601b9050919050565b60006144da826144c2565b9050919050565b60006144ec826144cf565b9050919050565b6145046144ff826134e8565b6144e1565b82525050565b6000819050919050565b61452561452082613526565b61450a565b82525050565b600061453782856144f3565b6014820191506145478284614514565b6020820191508190509392505050565b7f496e76616c6964204d65726b6c652070726f6f66000000000000000000000000600082015250565b600061458d601483613421565b915061459882614557565b602082019050919050565b600060208201905081810360008301526145bc81614580565b9050919050565b7f746f6b656e20646f6573206e6f74206578697374000000000000000000000000600082015250565b60006145f9601483613421565b9150614604826145c3565b602082019050919050565b60006020820190508181036000830152614628816145ec565b9050919050565b600081905092915050565b6000815461464781613d1d565b614651818661462f565b9450600182166000811461466c5760018114614681576146b4565b60ff19831686528115158202860193506146b4565b61468a8561410a565b60005b838110156146ac5781548189015260018201915060208101905061468d565b838801955050505b50505092915050565b60006146c882613416565b6146d2818561462f565b93506146e2818560208601613432565b80840191505092915050565b7f2d7370656369616c000000000000000000000000000000000000000000000000600082015250565b600061472460088361462f565b915061472f826146ee565b600882019050919050565b6000614746828561463a565b915061475282846146bd565b915061475d82614717565b91508190509392505050565b6000614775828561463a565b915061478182846146bd565b91508190509392505050565b600061479882613526565b91507fffffffffffffffffffffffffffffffffffffffffffffffffffffffffffffffff82036147ca576147c9613d4e565b5b600182019050919050565b7f4e487b7100000000000000000000000000000000000000000000000000000000600052601260045260246000fd5b600061480f82613526565b915061481a83613526565b92508261482a576148296147d5565b5b828204905092915050565b600081519050919050565b600082825260208201905092915050565b600061485c82614835565b6148668185614840565b9350614876818560208601613432565b61487f8161345c565b840191505092915050565b600060808201905061489f60008301876135c9565b6148ac60208301866135c9565b6148b960408301856135f3565b81810360608301526148cb8184614851565b905095945050505050565b6000815190506148e581613387565b92915050565b60006020828403121561490157614900613351565b5b600061490f848285016148d6565b91505092915050565b600061492382613526565b915061492e83613526565b925082820390508181111561494657614945613d4e565b5b92915050565b7f4e487b7100000000000000000000000000000000000000000000000000000000600052603160045260246000fdfea26469706673582212203e5190e934e3a06196e712580dc60025ba53416f8ce76da8b91f0b48325978d064736f6c634300081b0033",
  "linkReferences": {},
  "deployedLinkReferences": {}
}