{
  "_format": "hh-sol-artifact-1",
  "contractName": "Maze",
  "sourceName": "contracts/Maze.sol",
  "abi": [
    {
      "inputs": [],
      "stateMutability": "nonpayable",
      "type": "constructor"
    },
    {
      "inputs": [
        {
          "internalType": "address",
          "name": "owner",
          "type": "address"
        }
      ],
      "name": "OwnableInvalidOwner",
      "type": "error"
    },
    {
      "inputs": [
        {
          "internalType": "address",
          "name": "account",
          "type": "address"
        }
      ],
      "name": "OwnableUnauthorizedAccount",
      "type": "error"
    },
    {
      "anonymous": false,
      "inputs": [
        {
          "indexed": false,
          "internalType": "uint8",
          "name": "maze",
          "type": "uint8"
        },
        {
          "indexed": false,
          "internalType": "bool",
          "name": "unlocked",
          "type": "bool"
        }
      ],
      "name": "MazeStatusChanged",
      "type": "event"
    },
    {
      "anonymous": false,
      "inputs": [
        {
          "indexed": true,
          "internalType": "address",
          "name": "previousOwner",
          "type": "address"
        },
        {
          "indexed": true,
          "internalType": "address",
          "name": "newOwner",
          "type": "address"
        }
      ],
      "name": "OwnershipTransferred",
      "type": "event"
    },
    {
      "inputs": [],
      "name": "GRID_SIZE",
      "outputs": [
        {
          "internalType": "uint8",
          "name": "",
          "type": "uint8"
        }
      ],
      "stateMutability": "view",
      "type": "function"
    },
    {
      "inputs": [
        {
          "internalType": "uint256",
          "name": "",
          "type": "uint256"
        }
      ],
      "name": "MAZE_UNLOCK_DOTS_REQUIRED",
      "outputs": [
        {
          "internalType": "uint256",
          "name": "",
          "type": "uint256"
        }
      ],
      "stateMutability": "view",
      "type": "function"
    },
    {
      "inputs": [],
      "name": "TOTAL_MAZES",
      "outputs": [
        {
          "internalType": "uint8",
          "name": "",
          "type": "uint8"
        }
      ],
      "stateMutability": "view",
      "type": "function"
    },
    {
      "inputs": [
        {
          "internalType": "uint256",
          "name": "playerid",
          "type": "uint256"
        }
      ],
      "name": "_getMaxStride",
      "outputs": [
        {
          "internalType": "uint8",
          "name": "",
          "type": "uint8"
        }
      ],
      "stateMutability": "view",
      "type": "function"
    },
    {
      "inputs": [
        {
          "internalType": "uint8",
          "name": "maze",
          "type": "uint8"
        },
        {
          "internalType": "uint256",
          "name": "playerid",
          "type": "uint256"
        }
      ],
      "name": "_isMazeUnlocked",
      "outputs": [
        {
          "internalType": "bool",
          "name": "",
          "type": "bool"
        }
      ],
      "stateMutability": "view",
      "type": "function"
    },
    {
      "inputs": [
        {
          "internalType": "uint8",
          "name": "x_victim",
          "type": "uint8"
        },
        {
          "internalType": "uint8",
          "name": "y_victim",
          "type": "uint8"
        },
        {
          "internalType": "uint8",
          "name": "maze_victim",
          "type": "uint8"
        }
      ],
      "name": "_isSurrounded",
      "outputs": [
        {
          "internalType": "bool",
          "name": "",
          "type": "bool"
        }
      ],
      "stateMutability": "view",
      "type": "function"
    },
    {
      "inputs": [
        {
          "internalType": "uint8",
          "name": "maze",
          "type": "uint8"
        },
        {
          "internalType": "uint8",
          "name": "x",
          "type": "uint8"
        },
        {
          "internalType": "uint8",
          "name": "y",
          "type": "uint8"
        },
        {
          "internalType": "uint8",
          "name": "oldmaze",
          "type": "uint8"
        },
        {
          "internalType": "uint8",
          "name": "oldx",
          "type": "uint8"
        },
        {
          "internalType": "uint8",
          "name": "oldy",
          "type": "uint8"
        },
        {
          "internalType": "uint256",
          "name": "playerid",
          "type": "uint256"
        },
        {
          "internalType": "bool",
          "name": "ignorestride",
          "type": "bool"
        }
      ],
      "name": "_movePlayerInMaze",
      "outputs": [
        {
          "internalType": "uint256",
          "name": "",
          "type": "uint256"
        }
      ],
      "stateMutability": "nonpayable",
      "type": "function"
    },
    {
      "inputs": [
        {
          "internalType": "uint8",
          "name": "mazeId",
          "type": "uint8"
        }
      ],
      "name": "_setObstaclesForMaze",
      "outputs": [],
      "stateMutability": "nonpayable",
      "type": "function"
    },
    {
      "inputs": [
        {
          "internalType": "address",
          "name": "",
          "type": "address"
        }
      ],
      "name": "allowedOperators",
      "outputs": [
        {
          "internalType": "bool",
          "name": "",
          "type": "bool"
        }
      ],
      "stateMutability": "view",
      "type": "function"
    },
    {
      "inputs": [],
      "name": "gameEquipContract",
      "outputs": [
        {
          "internalType": "contract GameEquip",
          "name": "",
          "type": "address"
        }
      ],
      "stateMutability": "view",
      "type": "function"
    },
    {
      "inputs": [
        {
          "internalType": "uint8",
          "name": "",
          "type": "uint8"
        },
        {
          "internalType": "uint8",
          "name": "",
          "type": "uint8"
        },
        {
          "internalType": "uint8",
          "name": "",
          "type": "uint8"
        }
      ],
      "name": "hasplayer",
      "outputs": [
        {
          "internalType": "uint256",
          "name": "",
          "type": "uint256"
        }
      ],
      "stateMutability": "view",
      "type": "function"
    },
    {
      "inputs": [
        {
          "internalType": "uint8",
          "name": "",
          "type": "uint8"
        }
      ],
      "name": "maze_dots_consumed",
      "outputs": [
        {
          "internalType": "uint256",
          "name": "",
          "type": "uint256"
        }
      ],
      "stateMutability": "view",
      "type": "function"
    },
    {
      "inputs": [
        {
          "internalType": "uint8",
          "name": "",
          "type": "uint8"
        }
      ],
      "name": "maze_unlocked",
      "outputs": [
        {
          "internalType": "bool",
          "name": "",
          "type": "bool"
        }
      ],
      "stateMutability": "view",
      "type": "function"
    },
    {
      "inputs": [
        {
          "internalType": "uint8",
          "name": "",
          "type": "uint8"
        },
        {
          "internalType": "uint8",
          "name": "",
          "type": "uint8"
        },
        {
          "internalType": "uint8",
          "name": "",
          "type": "uint8"
        }
      ],
      "name": "mazes",
      "outputs": [
        {
          "internalType": "enum Maze.CellState",
          "name": "",
          "type": "uint8"
        }
      ],
      "stateMutability": "view",
      "type": "function"
    },
    {
      "inputs": [],
      "name": "owner",
      "outputs": [
        {
          "internalType": "address",
          "name": "",
          "type": "address"
        }
      ],
      "stateMutability": "view",
      "type": "function"
    },
    {
      "inputs": [],
      "name": "renounceOwnership",
      "outputs": [],
      "stateMutability": "nonpayable",
      "type": "function"
    },
    {
      "inputs": [
        {
          "internalType": "address",
          "name": "_contractAddress",
          "type": "address"
        }
      ],
      "name": "setGameEquipContract",
      "outputs": [],
      "stateMutability": "nonpayable",
      "type": "function"
    },
    {
      "inputs": [
        {
          "internalType": "uint256",
          "name": "level",
          "type": "uint256"
        },
        {
          "internalType": "uint256",
          "name": "value",
          "type": "uint256"
        }
      ],
      "name": "setMazeUnlockDotsRequired",
      "outputs": [],
      "stateMutability": "nonpayable",
      "type": "function"
    },
    {
      "inputs": [
        {
          "internalType": "address",
          "name": "_operator",
          "type": "address"
        },
        {
          "internalType": "bool",
          "name": "allowed",
          "type": "bool"
        }
      ],
      "name": "setOperator",
      "outputs": [],
      "stateMutability": "nonpayable",
      "type": "function"
    },
    {
      "inputs": [],
      "name": "total_dots_consumed",
      "outputs": [
        {
          "internalType": "uint256",
          "name": "",
          "type": "uint256"
        }
      ],
      "stateMutability": "view",
      "type": "function"
    },
    {
      "inputs": [
        {
          "internalType": "address",
          "name": "newOwner",
          "type": "address"
        }
      ],
      "name": "transferOwnership",
      "outputs": [],
      "stateMutability": "nonpayable",
      "type": "function"
    },
    {
      "inputs": [
        {
          "internalType": "uint8",
          "name": "maze",
          "type": "uint8"
        },
        {
          "internalType": "bool",
          "name": "unlocked",
          "type": "bool"
        }
      ],
      "name": "unlockMaze",
      "outputs": [],
      "stateMutability": "nonpayable",
      "type": "function"
    }
  ],
  "bytecode": "0x60806040526000600555604051806101200160405280600061ffff168152602001600061ffff168152602001600061ffff168152602001600061ffff168152602001600061ffff168152602001600461ffff16815260200161157c61ffff16815260200161196461ffff168152602001611d4c61ffff168152506007906009610089929190610950565b5034801561009657600080fd5b5033600073ffffffffffffffffffffffffffffffffffffffff168173ffffffffffffffffffffffffffffffffffffffff160361010a5760006040517f1e4fbdf70000000000000000000000000000000000000000000000000000000081526004016101019190610a01565b60405180910390fd5b6101198161014e60201b60201c565b5060005b600a60ff168160ff1610156101485761013b8161021260201b60201c565b808060010191505061011d565b50610b99565b60008060009054906101000a900473ffffffffffffffffffffffffffffffffffffffff169050816000806101000a81548173ffffffffffffffffffffffffffffffffffffffff021916908373ffffffffffffffffffffffffffffffffffffffff1602179055508173ffffffffffffffffffffffffffffffffffffffff168173ffffffffffffffffffffffffffffffffffffffff167f8be0079c531659141344cd1fd0a4f28419497f9722a3daafe3b4186f6b6457e060405160405180910390a35050565b600660003373ffffffffffffffffffffffffffffffffffffffff1673ffffffffffffffffffffffffffffffffffffffff16815260200190815260200160002060009054906101000a900460ff16806102a2575061027361092760201b60201c565b73ffffffffffffffffffffffffffffffffffffffff163373ffffffffffffffffffffffffffffffffffffffff16145b6102e1576040517f08c379a00000000000000000000000000000000000000000000000000000000081526004016102d890610a79565b60405180910390fd5b60006003826102f09190610ad5565b60ff1603610406576000600a90505b60168160ff161015610404576002600160008460ff1660ff16815260200190815260200160002060008360ff1660ff16815260200190815260200160002060008360ff1660ff16815260200190815260200160002060006101000a81548160ff0219169083600281111561037657610375610b06565b5b02179055506002600160008460ff1660ff168152602001908152602001600020600083601f6103a59190610b64565b60ff1660ff16815260200190815260200160002060008360ff1660ff16815260200190815260200160002060006101000a81548160ff021916908360028111156103f2576103f1610b06565b5b021790555080806001019150506102ff565b505b60016003826104159190610ad5565b60ff160361087b576000600c90505b60148160ff161015610519576002600160008460ff1660ff1681526020019081526020016000206000600a60ff16815260200190815260200160002060008360ff1660ff16815260200190815260200160002060006101000a81548160ff0219169083600281111561049957610498610b06565b5b02179055506002600160008460ff1660ff1681526020019081526020016000206000601560ff16815260200190815260200160002060008360ff1660ff16815260200190815260200160002060006101000a81548160ff0219169083600281111561050757610506610b06565b5b02179055508080600101915050610424565b506002600160008360ff1660ff1681526020019081526020016000206000600b60ff1681526020019081526020016000206000600c60ff16815260200190815260200160002060006101000a81548160ff0219169083600281111561058157610580610b06565b5b02179055506002600160008360ff1660ff1681526020019081526020016000206000600c60ff1681526020019081526020016000206000600c60ff16815260200190815260200160002060006101000a81548160ff021916908360028111156105ed576105ec610b06565b5b02179055506002600160008360ff1660ff1681526020019081526020016000206000601360ff1681526020019081526020016000206000600c60ff16815260200190815260200160002060006101000a81548160ff0219169083600281111561065957610658610b06565b5b02179055506002600160008360ff1660ff1681526020019081526020016000206000601460ff1681526020019081526020016000206000600c60ff16815260200190815260200160002060006101000a81548160ff021916908360028111156106c5576106c4610b06565b5b02179055506002600160008360ff1660ff1681526020019081526020016000206000600b60ff1681526020019081526020016000206000601360ff16815260200190815260200160002060006101000a81548160ff0219169083600281111561073157610730610b06565b5b02179055506002600160008360ff1660ff1681526020019081526020016000206000600c60ff1681526020019081526020016000206000601360ff16815260200190815260200160002060006101000a81548160ff0219169083600281111561079d5761079c610b06565b5b02179055506002600160008360ff1660ff1681526020019081526020016000206000601360ff1681526020019081526020016000206000601360ff16815260200190815260200160002060006101000a81548160ff0219169083600281111561080957610808610b06565b5b02179055506002600160008360ff1660ff1681526020019081526020016000206000601460ff1681526020019081526020016000206000601360ff16815260200190815260200160002060006101000a81548160ff0219169083600281111561087557610874610b06565b5b02179055505b600260038261088a9190610ad5565b60ff1603610924576000600490505b601c8160ff161015610922576002600160008460ff1660ff16815260200190815260200160002060008360ff1660ff16815260200190815260200160002060008360ff1660ff16815260200190815260200160002060006101000a81548160ff021916908360028111156109105761090f610b06565b5b02179055508080600101915050610899565b505b50565b60008060009054906101000a900473ffffffffffffffffffffffffffffffffffffffff16905090565b828054828255906000526020600020908101928215610992579160200282015b82811115610991578251829061ffff16905591602001919060010190610970565b5b50905061099f91906109a3565b5090565b5b808211156109bc5760008160009055506001016109a4565b5090565b600073ffffffffffffffffffffffffffffffffffffffff82169050919050565b60006109eb826109c0565b9050919050565b6109fb816109e0565b82525050565b6000602082019050610a1660008301846109f2565b92915050565b600082825260208201905092915050565b7f4e6f7420616c6c6f776564000000000000000000000000000000000000000000600082015250565b6000610a63600b83610a1c565b9150610a6e82610a2d565b602082019050919050565b60006020820190508181036000830152610a9281610a56565b9050919050565b600060ff82169050919050565b7f4e487b7100000000000000000000000000000000000000000000000000000000600052601260045260246000fd5b6000610ae082610a99565b9150610aeb83610a99565b925082610afb57610afa610aa6565b5b828206905092915050565b7f4e487b7100000000000000000000000000000000000000000000000000000000600052602160045260246000fd5b7f4e487b7100000000000000000000000000000000000000000000000000000000600052601160045260246000fd5b6000610b6f82610a99565b9150610b7a83610a99565b9250828203905060ff811115610b9357610b92610b35565b5b92915050565b6126a780610ba86000396000f3fe608060405234801561001057600080fd5b50600436106101425760003560e01c80638fd7b384116100b8578063d2e808791161007c578063d2e808791461038b578063d71007eb146103bb578063e0b5efed146103d7578063ee342b3c146103f3578063f2c7218e14610423578063f2fde38b1461045357610142565b80638fd7b384146102ad578063a6674f88146102cb578063b44f7809146102fb578063badeb8711461032b578063cffd91261461035b57610142565b80636a2124ae1161010a5780636a2124ae146101fb578063715018a614610219578063776e12b7146102235780637fc4eda8146102415780637fef46f51461025f5780638da5cb5b1461028f57610142565b80631031a5e81461014757806331e86c511461016357806333480c8e14610193578063392cec20146101af578063558a7297146101df575b600080fd5b610161600480360381019061015c9190611d13565b61046f565b005b61017d60048036038101906101789190611d53565b6105a6565b60405161018a9190611e1d565b60405180910390f35b6101ad60048036038101906101a89190611e96565b6105e2565b005b6101c960048036038101906101c49190611ef9565b61062e565b6040516101d69190611f35565b60405180910390f35b6101f960048036038101906101f49190611f50565b610652565b005b6102036106b5565b6040516102109190611fef565b60405180910390f35b6102216106db565b005b61022b6106ef565b6040516102389190612019565b60405180910390f35b6102496106f4565b6040516102569190612019565b60405180910390f35b61027960048036038101906102749190611d53565b6106f9565b6040516102869190612043565b60405180910390f35b610297610b1c565b6040516102a4919061206d565b60405180910390f35b6102b5610b45565b6040516102c29190611f35565b60405180910390f35b6102e560048036038101906102e09190611e96565b610b4b565b6040516102f29190612043565b60405180910390f35b61031560048036038101906103109190611ef9565b610b6b565b6040516103229190612019565b60405180910390f35b61034560048036038101906103409190612088565b610c21565b6040516103529190612043565b60405180910390f35b610375600480360381019061037091906120b5565b610c41565b6040516103829190611f35565b60405180910390f35b6103a560048036038101906103a09190611d53565b6111d6565b6040516103b29190611f35565b60405180910390f35b6103d560048036038101906103d09190612088565b611208565b005b6103f160048036038101906103ec919061216b565b611917565b005b61040d600480360381019061040891906121ab565b611946565b60405161041a9190612043565b60405180910390f35b61043d60048036038101906104389190612088565b611a35565b60405161044a9190611f35565b60405180910390f35b61046d60048036038101906104689190611e96565b611a4d565b005b600660003373ffffffffffffffffffffffffffffffffffffffff1673ffffffffffffffffffffffffffffffffffffffff16815260200190815260200160002060009054906101000a900460ff16806104f957506104ca610b1c565b73ffffffffffffffffffffffffffffffffffffffff163373ffffffffffffffffffffffffffffffffffffffff16145b610538576040517f08c379a000000000000000000000000000000000000000000000000000000000815260040161052f90612248565b60405180910390fd5b80600360008460ff1660ff16815260200190815260200160002060006101000a81548160ff0219169083151502179055507fb3e5933b0271934a09ff33b8f2b18a5d1a4dba80332f7d160830649c9d731274828260405161059a929190612268565b60405180910390a15050565b6001602052826000526040600020602052816000526040600020602052806000526040600020600092509250509054906101000a900460ff1681565b6105ea611ad3565b80600860006101000a81548173ffffffffffffffffffffffffffffffffffffffff021916908373ffffffffffffffffffffffffffffffffffffffff16021790555050565b6007818154811061063e57600080fd5b906000526020600020016000915090505481565b61065a611ad3565b80600660008473ffffffffffffffffffffffffffffffffffffffff1673ffffffffffffffffffffffffffffffffffffffff16815260200190815260200160002060006101000a81548160ff0219169083151502179055505050565b600860009054906101000a900473ffffffffffffffffffffffffffffffffffffffff1681565b6106e3611ad3565b6106ed6000611b5a565b565b600a81565b602081565b60008060008460ff16148061076157506000600260008560ff1660ff16815260200190815260200160002060008760ff1660ff168152602001908152602001600020600060018761074a91906122c0565b60ff1660ff16815260200190815260200160002054115b806107ef575060028081111561077a57610779611da6565b5b600160008560ff1660ff16815260200190815260200160002060008760ff1660ff16815260200190815260200160002060006001876107b991906122c0565b60ff1660ff16815260200190815260200160002060009054906101000a900460ff1660028111156107ed576107ec611da6565b5b145b905060006001602061080191906122c0565b60ff168560ff16148061086757506000600260008660ff1660ff16815260200190815260200160002060008860ff1660ff168152602001908152602001600020600060018861085091906122f5565b60ff1660ff16815260200190815260200160002054115b806108f557506002808111156108805761087f611da6565b5b600160008660ff1660ff16815260200190815260200160002060008860ff1660ff16815260200190815260200160002060006001886108bf91906122f5565b60ff1660ff16815260200190815260200160002060009054906101000a900460ff1660028111156108f3576108f2611da6565b5b145b90506000808760ff16148061095d57506000600260008760ff1660ff168152602001908152602001600020600060018a61092f91906122c0565b60ff1660ff16815260200190815260200160002060008860ff1660ff16815260200190815260200160002054115b806109eb575060028081111561097657610975611da6565b5b600160008760ff1660ff168152602001908152602001600020600060018a61099e91906122c0565b60ff1660ff16815260200190815260200160002060008860ff1660ff16815260200190815260200160002060009054906101000a900460ff1660028111156109e9576109e8611da6565b5b145b90506000600160206109fd91906122c0565b60ff168860ff161480610a6357506000600260008860ff1660ff168152602001908152602001600020600060018b610a3591906122f5565b60ff1660ff16815260200190815260200160002060008960ff1660ff16815260200190815260200160002054115b80610af15750600280811115610a7c57610a7b611da6565b5b600160008860ff1660ff168152602001908152602001600020600060018b610aa491906122f5565b60ff1660ff16815260200190815260200160002060008960ff1660ff16815260200190815260200160002060009054906101000a900460ff166002811115610aef57610aee611da6565b5b145b9050838015610afd5750825b8015610b065750815b8015610b0f5750805b9450505050509392505050565b60008060009054906101000a900473ffffffffffffffffffffffffffffffffffffffff16905090565b60055481565b60066020528060005260406000206000915054906101000a900460ff1681565b6000600860009054906101000a900473ffffffffffffffffffffffffffffffffffffffff1673ffffffffffffffffffffffffffffffffffffffff16635127d5c8836040518263ffffffff1660e01b8152600401610bc89190611f35565b602060405180830381865afa158015610be5573d6000803e3d6000fd5b505050506040513d601f19601f82011682018060405250810190610c09919061233f565b15610c175760029050610c1c565b600190505b919050565b60036020528060005260406000206000915054906101000a900460ff1681565b6000600660003373ffffffffffffffffffffffffffffffffffffffff1673ffffffffffffffffffffffffffffffffffffffff16815260200190815260200160002060009054906101000a900460ff1680610ccd5750610c9e610b1c565b73ffffffffffffffffffffffffffffffffffffffff163373ffffffffffffffffffffffffffffffffffffffff16145b610d0c576040517f08c379a0000000000000000000000000000000000000000000000000000000008152600401610d0390612248565b60405180910390fd5b600280811115610d1f57610d1e611da6565b5b600160008b60ff1660ff16815260200190815260200160002060008a60ff1660ff16815260200190815260200160002060008960ff1660ff16815260200190815260200160002060009054906101000a900460ff166002811115610d8657610d85611da6565b5b03610dc6576040517f08c379a0000000000000000000000000000000000000000000000000000000008152600401610dbd906123b8565b60405180910390fd5b60008860ff1610158015610de05750602060ff168860ff16105b8015610df0575060008760ff1610155b8015610e025750602060ff168760ff16105b610e41576040517f08c379a0000000000000000000000000000000000000000000000000000000008152600401610e3890612424565b60405180910390fd5b600a60ff168960ff1610610e8a576040517f08c379a0000000000000000000000000000000000000000000000000000000008152600401610e8190612490565b60405180910390fd5b610e948984611946565b610ed3576040517f08c379a0000000000000000000000000000000000000000000000000000000008152600401610eca906124fc565b60405180910390fd5b8180610f125750610ee383610b6b565b60ff16610ef289898888611c1e565b60ff1611158015610f1157506000610f0c89898888611c1e565b60ff16115b5b610f51576040517f08c379a0000000000000000000000000000000000000000000000000000000008152600401610f489061258e565b60405180910390fd5b6000600260008860ff1660ff16815260200190815260200160002060008760ff1660ff16815260200190815260200160002060008660ff1660ff1681526020019081526020016000208190555082600260008b60ff1660ff16815260200190815260200160002060008a60ff1660ff16815260200190815260200160002060008960ff1660ff1681526020019081526020016000208190555060006002811115610ffe57610ffd611da6565b5b600160008b60ff1660ff16815260200190815260200160002060008a60ff1660ff16815260200190815260200160002060008960ff1660ff16815260200190815260200160002060009054906101000a900460ff16600281111561106557611064611da6565b5b036111c55760018060008b60ff1660ff16815260200190815260200160002060008a60ff1660ff16815260200190815260200160002060008960ff1660ff16815260200190815260200160002060006101000a81548160ff021916908360028111156110d4576110d3611da6565b5b02179055506001600460008b60ff1660ff168152602001908152602001600020600082825461110391906125ae565b9250508190555060016005600082825461111d91906125ae565b925050819055506000600590505b6001600a61113991906122c0565b60ff168160ff1610156111bb57600360008b60ff1660ff16815260200190815260200160002060009054906101000a900460ff1615801561119d575060078160ff168154811061118c5761118b6125e2565b5b906000526020600020015460055410155b156111ae576111ad81600161046f565b5b808060010191505061112b565b50600190506111ca565b600090505b98975050505050505050565b600260205282600052604060002060205281600052604060002060205280600052604060002060009250925050505481565b600660003373ffffffffffffffffffffffffffffffffffffffff1673ffffffffffffffffffffffffffffffffffffffff16815260200190815260200160002060009054906101000a900460ff16806112925750611263610b1c565b73ffffffffffffffffffffffffffffffffffffffff163373ffffffffffffffffffffffffffffffffffffffff16145b6112d1576040517f08c379a00000000000000000000000000000000000000000000000000000000081526004016112c890612248565b60405180910390fd5b60006003826112e09190612640565b60ff16036113f6576000600a90505b60168160ff1610156113f4576002600160008460ff1660ff16815260200190815260200160002060008360ff1660ff16815260200190815260200160002060008360ff1660ff16815260200190815260200160002060006101000a81548160ff0219169083600281111561136657611365611da6565b5b02179055506002600160008460ff1660ff168152602001908152602001600020600083601f61139591906122c0565b60ff1660ff16815260200190815260200160002060008360ff1660ff16815260200190815260200160002060006101000a81548160ff021916908360028111156113e2576113e1611da6565b5b021790555080806001019150506112ef565b505b60016003826114059190612640565b60ff160361186b576000600c90505b60148160ff161015611509576002600160008460ff1660ff1681526020019081526020016000206000600a60ff16815260200190815260200160002060008360ff1660ff16815260200190815260200160002060006101000a81548160ff0219169083600281111561148957611488611da6565b5b02179055506002600160008460ff1660ff1681526020019081526020016000206000601560ff16815260200190815260200160002060008360ff1660ff16815260200190815260200160002060006101000a81548160ff021916908360028111156114f7576114f6611da6565b5b02179055508080600101915050611414565b506002600160008360ff1660ff1681526020019081526020016000206000600b60ff1681526020019081526020016000206000600c60ff16815260200190815260200160002060006101000a81548160ff0219169083600281111561157157611570611da6565b5b02179055506002600160008360ff1660ff1681526020019081526020016000206000600c60ff1681526020019081526020016000206000600c60ff16815260200190815260200160002060006101000a81548160ff021916908360028111156115dd576115dc611da6565b5b02179055506002600160008360ff1660ff1681526020019081526020016000206000601360ff1681526020019081526020016000206000600c60ff16815260200190815260200160002060006101000a81548160ff0219169083600281111561164957611648611da6565b5b02179055506002600160008360ff1660ff1681526020019081526020016000206000601460ff1681526020019081526020016000206000600c60ff16815260200190815260200160002060006101000a81548160ff021916908360028111156116b5576116b4611da6565b5b02179055506002600160008360ff1660ff1681526020019081526020016000206000600b60ff1681526020019081526020016000206000601360ff16815260200190815260200160002060006101000a81548160ff0219169083600281111561172157611720611da6565b5b02179055506002600160008360ff1660ff1681526020019081526020016000206000600c60ff1681526020019081526020016000206000601360ff16815260200190815260200160002060006101000a81548160ff0219169083600281111561178d5761178c611da6565b5b02179055506002600160008360ff1660ff1681526020019081526020016000206000601360ff1681526020019081526020016000206000601360ff16815260200190815260200160002060006101000a81548160ff021916908360028111156117f9576117f8611da6565b5b02179055506002600160008360ff1660ff1681526020019081526020016000206000601460ff1681526020019081526020016000206000601360ff16815260200190815260200160002060006101000a81548160ff0219169083600281111561186557611864611da6565b5b02179055505b600260038261187a9190612640565b60ff1603611914576000600490505b601c8160ff161015611912576002600160008460ff1660ff16815260200190815260200160002060008360ff1660ff16815260200190815260200160002060008360ff1660ff16815260200190815260200160002060006101000a81548160ff02191690836002811115611900576118ff611da6565b5b02179055508080600101915050611889565b505b50565b61191f611ad3565b8060078381548110611934576119336125e2565b5b90600052602060002001819055505050565b60006001600a61195691906122c0565b60ff168360ff1603611a0557600860009054906101000a900473ffffffffffffffffffffffffffffffffffffffff1673ffffffffffffffffffffffffffffffffffffffff1663244aae7a836040518263ffffffff1660e01b81526004016119bd9190611f35565b602060405180830381865afa1580156119da573d6000803e3d6000fd5b505050506040513d601f19601f820116820180604052508101906119fe919061233f565b9050611a2f565b600360008460ff1660ff16815260200190815260200160002060009054906101000a900460ff1690505b92915050565b60046020528060005260406000206000915090505481565b611a55611ad3565b600073ffffffffffffffffffffffffffffffffffffffff168173ffffffffffffffffffffffffffffffffffffffff1603611ac75760006040517f1e4fbdf7000000000000000000000000000000000000000000000000000000008152600401611abe919061206d565b60405180910390fd5b611ad081611b5a565b50565b611adb611c95565b73ffffffffffffffffffffffffffffffffffffffff16611af9610b1c565b73ffffffffffffffffffffffffffffffffffffffff1614611b5857611b1c611c95565b6040517f118cdaa7000000000000000000000000000000000000000000000000000000008152600401611b4f919061206d565b60405180910390fd5b565b60008060009054906101000a900473ffffffffffffffffffffffffffffffffffffffff169050816000806101000a81548173ffffffffffffffffffffffffffffffffffffffff021916908373ffffffffffffffffffffffffffffffffffffffff1602179055508173ffffffffffffffffffffffffffffffffffffffff168173ffffffffffffffffffffffffffffffffffffffff167f8be0079c531659141344cd1fd0a4f28419497f9722a3daafe3b4186f6b6457e060405160405180910390a35050565b6000808360ff168660ff1611611c3f578584611c3a91906122c0565b611c4c565b8386611c4b91906122c0565b5b905060008360ff168660ff1611611c6e578584611c6991906122c0565b611c7b565b8386611c7a91906122c0565b5b90508082611c8991906122f5565b92505050949350505050565b600033905090565b600080fd5b600060ff82169050919050565b611cb881611ca2565b8114611cc357600080fd5b50565b600081359050611cd581611caf565b92915050565b60008115159050919050565b611cf081611cdb565b8114611cfb57600080fd5b50565b600081359050611d0d81611ce7565b92915050565b60008060408385031215611d2a57611d29611c9d565b5b6000611d3885828601611cc6565b9250506020611d4985828601611cfe565b9150509250929050565b600080600060608486031215611d6c57611d6b611c9d565b5b6000611d7a86828701611cc6565b9350506020611d8b86828701611cc6565b9250506040611d9c86828701611cc6565b9150509250925092565b7f4e487b7100000000000000000000000000000000000000000000000000000000600052602160045260246000fd5b60038110611de657611de5611da6565b5b50565b6000819050611df782611dd5565b919050565b6000611e0782611de9565b9050919050565b611e1781611dfc565b82525050565b6000602082019050611e326000830184611e0e565b92915050565b600073ffffffffffffffffffffffffffffffffffffffff82169050919050565b6000611e6382611e38565b9050919050565b611e7381611e58565b8114611e7e57600080fd5b50565b600081359050611e9081611e6a565b92915050565b600060208284031215611eac57611eab611c9d565b5b6000611eba84828501611e81565b91505092915050565b6000819050919050565b611ed681611ec3565b8114611ee157600080fd5b50565b600081359050611ef381611ecd565b92915050565b600060208284031215611f0f57611f0e611c9d565b5b6000611f1d84828501611ee4565b91505092915050565b611f2f81611ec3565b82525050565b6000602082019050611f4a6000830184611f26565b92915050565b60008060408385031215611f6757611f66611c9d565b5b6000611f7585828601611e81565b9250506020611f8685828601611cfe565b9150509250929050565b6000819050919050565b6000611fb5611fb0611fab84611e38565b611f90565b611e38565b9050919050565b6000611fc782611f9a565b9050919050565b6000611fd982611fbc565b9050919050565b611fe981611fce565b82525050565b60006020820190506120046000830184611fe0565b92915050565b61201381611ca2565b82525050565b600060208201905061202e600083018461200a565b92915050565b61203d81611cdb565b82525050565b60006020820190506120586000830184612034565b92915050565b61206781611e58565b82525050565b6000602082019050612082600083018461205e565b92915050565b60006020828403121561209e5761209d611c9d565b5b60006120ac84828501611cc6565b91505092915050565b600080600080600080600080610100898b0312156120d6576120d5611c9d565b5b60006120e48b828c01611cc6565b98505060206120f58b828c01611cc6565b97505060406121068b828c01611cc6565b96505060606121178b828c01611cc6565b95505060806121288b828c01611cc6565b94505060a06121398b828c01611cc6565b93505060c061214a8b828c01611ee4565b92505060e061215b8b828c01611cfe565b9150509295985092959890939650565b6000806040838503121561218257612181611c9d565b5b600061219085828601611ee4565b92505060206121a185828601611ee4565b9150509250929050565b600080604083850312156121c2576121c1611c9d565b5b60006121d085828601611cc6565b92505060206121e185828601611ee4565b9150509250929050565b600082825260208201905092915050565b7f4e6f7420616c6c6f776564000000000000000000000000000000000000000000600082015250565b6000612232600b836121eb565b915061223d826121fc565b602082019050919050565b6000602082019050818103600083015261226181612225565b9050919050565b600060408201905061227d600083018561200a565b61228a6020830184612034565b9392505050565b7f4e487b7100000000000000000000000000000000000000000000000000000000600052601160045260246000fd5b60006122cb82611ca2565b91506122d683611ca2565b9250828203905060ff8111156122ef576122ee612291565b5b92915050565b600061230082611ca2565b915061230b83611ca2565b9250828201905060ff81111561232457612323612291565b5b92915050565b60008151905061233981611ce7565b92915050565b60006020828403121561235557612354611c9d565b5b60006123638482850161232a565b91505092915050565b7f4f62737461636c65000000000000000000000000000000000000000000000000600082015250565b60006123a26008836121eb565b91506123ad8261236c565b602082019050919050565b600060208201905081810360008301526123d181612395565b9050919050565b7f426f756e64617279000000000000000000000000000000000000000000000000600082015250565b600061240e6008836121eb565b9150612419826123d8565b602082019050919050565b6000602082019050818103600083015261243d81612401565b9050919050565b7f696e76616c6964206d617a650000000000000000000000000000000000000000600082015250565b600061247a600c836121eb565b915061248582612444565b602082019050919050565b600060208201905081810360008301526124a98161246d565b9050919050565b7f6d617a65206e6f7420756e6c6f636b6564000000000000000000000000000000600082015250565b60006124e66011836121eb565b91506124f1826124b0565b602082019050919050565b60006020820190508181036000830152612515816124d9565b9050919050565b7f64697374616e6365206973207a65726f206f722067726561746572207468616e60008201527f206d617820737472696465000000000000000000000000000000000000000000602082015250565b6000612578602b836121eb565b91506125838261251c565b604082019050919050565b600060208201905081810360008301526125a78161256b565b9050919050565b60006125b982611ec3565b91506125c483611ec3565b92508282019050808211156125dc576125db612291565b5b92915050565b7f4e487b7100000000000000000000000000000000000000000000000000000000600052603260045260246000fd5b7f4e487b7100000000000000000000000000000000000000000000000000000000600052601260045260246000fd5b600061264b82611ca2565b915061265683611ca2565b92508261266657612665612611565b5b82820690509291505056fea264697066735822122094a05f41fb11efea7d8b7f2735e3fea02e5a637108f3d8380b34fab7a3a3423964736f6c634300081b0033",
  "linkReferences": {},
  "deployedLinkReferences": {}
}