{
  "_format": "hh-sol-artifact-1",
  "contractName": "GameEquip",
  "sourceName": "contracts/GameEquip.sol",
  "abi": [
    {
      "inputs": [],
      "stateMutability": "nonpayable",
      "type": "constructor"
    },
    {
      "inputs": [
        {
          "internalType": "address",
          "name": "owner",
          "type": "address"
        }
      ],
      "name": "OwnableInvalidOwner",
      "type": "error"
    },
    {
      "inputs": [
        {
          "internalType": "address",
          "name": "account",
          "type": "address"
        }
      ],
      "name": "OwnableUnauthorizedAccount",
      "type": "error"
    },
    {
      "anonymous": false,
      "inputs": [
        {
          "indexed": true,
          "internalType": "address",
          "name": "previousOwner",
          "type": "address"
        },
        {
          "indexed": true,
          "internalType": "address",
          "name": "newOwner",
          "type": "address"
        }
      ],
      "name": "OwnershipTransferred",
      "type": "event"
    },
    {
      "inputs": [
        {
          "internalType": "address",
          "name": "",
          "type": "address"
        }
      ],
      "name": "allowedOperators",
      "outputs": [
        {
          "internalType": "bool",
          "name": "",
          "type": "bool"
        }
      ],
      "stateMutability": "view",
      "type": "function"
    },
    {
      "inputs": [
        {
          "internalType": "string",
          "name": "a",
          "type": "string"
        },
        {
          "internalType": "string",
          "name": "b",
          "type": "string"
        }
      ],
      "name": "compareStrings",
      "outputs": [
        {
          "internalType": "bool",
          "name": "",
          "type": "bool"
        }
      ],
      "stateMutability": "pure",
      "type": "function"
    },
    {
      "inputs": [
        {
          "internalType": "uint256",
          "name": "playerid",
          "type": "uint256"
        },
        {
          "internalType": "uint256",
          "name": "eyesTokenId",
          "type": "uint256"
        }
      ],
      "name": "equipEyes",
      "outputs": [],
      "stateMutability": "nonpayable",
      "type": "function"
    },
    {
      "inputs": [
        {
          "internalType": "uint256",
          "name": "playerid",
          "type": "uint256"
        },
        {
          "internalType": "uint256",
          "name": "keysTokenId",
          "type": "uint256"
        }
      ],
      "name": "equipKeys",
      "outputs": [],
      "stateMutability": "nonpayable",
      "type": "function"
    },
    {
      "inputs": [
        {
          "internalType": "uint256",
          "name": "",
          "type": "uint256"
        }
      ],
      "name": "eyesInfo",
      "outputs": [
        {
          "internalType": "uint256",
          "name": "playerId",
          "type": "uint256"
        },
        {
          "internalType": "bool",
          "name": "isEquipped",
          "type": "bool"
        },
        {
          "internalType": "uint256",
          "name": "equipTime",
          "type": "uint256"
        }
      ],
      "stateMutability": "view",
      "type": "function"
    },
    {
      "inputs": [],
      "name": "eyesToken",
      "outputs": [
        {
          "internalType": "contract IERC721",
          "name": "",
          "type": "address"
        }
      ],
      "stateMutability": "view",
      "type": "function"
    },
    {
      "inputs": [],
      "name": "gameContract",
      "outputs": [
        {
          "internalType": "contract Game",
          "name": "",
          "type": "address"
        }
      ],
      "stateMutability": "view",
      "type": "function"
    },
    {
      "inputs": [],
      "name": "keysToken",
      "outputs": [
        {
          "internalType": "contract IERC721",
          "name": "",
          "type": "address"
        }
      ],
      "stateMutability": "view",
      "type": "function"
    },
    {
      "inputs": [
        {
          "internalType": "uint256",
          "name": "",
          "type": "uint256"
        }
      ],
      "name": "keysUsed",
      "outputs": [
        {
          "internalType": "bool",
          "name": "",
          "type": "bool"
        }
      ],
      "stateMutability": "view",
      "type": "function"
    },
    {
      "inputs": [
        {
          "internalType": "address",
          "name": "operator",
          "type": "address"
        },
        {
          "internalType": "address",
          "name": "from",
          "type": "address"
        },
        {
          "internalType": "uint256[]",
          "name": "ids",
          "type": "uint256[]"
        },
        {
          "internalType": "uint256[]",
          "name": "values",
          "type": "uint256[]"
        },
        {
          "internalType": "bytes",
          "name": "data",
          "type": "bytes"
        }
      ],
      "name": "onERC1155BatchReceived",
      "outputs": [
        {
          "internalType": "bytes4",
          "name": "",
          "type": "bytes4"
        }
      ],
      "stateMutability": "nonpayable",
      "type": "function"
    },
    {
      "inputs": [
        {
          "internalType": "address",
          "name": "operator",
          "type": "address"
        },
        {
          "internalType": "address",
          "name": "from",
          "type": "address"
        },
        {
          "internalType": "uint256",
          "name": "id",
          "type": "uint256"
        },
        {
          "internalType": "uint256",
          "name": "value",
          "type": "uint256"
        },
        {
          "internalType": "bytes",
          "name": "data",
          "type": "bytes"
        }
      ],
      "name": "onERC1155Received",
      "outputs": [
        {
          "internalType": "bytes4",
          "name": "",
          "type": "bytes4"
        }
      ],
      "stateMutability": "nonpayable",
      "type": "function"
    },
    {
      "inputs": [],
      "name": "otomDatabase",
      "outputs": [
        {
          "internalType": "contract IOtomsDatabase",
          "name": "",
          "type": "address"
        }
      ],
      "stateMutability": "view",
      "type": "function"
    },
    {
      "inputs": [],
      "name": "otomToken",
      "outputs": [
        {
          "internalType": "contract IERC1155",
          "name": "",
          "type": "address"
        }
      ],
      "stateMutability": "view",
      "type": "function"
    },
    {
      "inputs": [],
      "name": "owner",
      "outputs": [
        {
          "internalType": "address",
          "name": "",
          "type": "address"
        }
      ],
      "stateMutability": "view",
      "type": "function"
    },
    {
      "inputs": [
        {
          "internalType": "uint256",
          "name": "",
          "type": "uint256"
        }
      ],
      "name": "playerEquippedEyes",
      "outputs": [
        {
          "internalType": "bool",
          "name": "",
          "type": "bool"
        }
      ],
      "stateMutability": "view",
      "type": "function"
    },
    {
      "inputs": [
        {
          "internalType": "uint256",
          "name": "",
          "type": "uint256"
        }
      ],
      "name": "playerEquippedKeys",
      "outputs": [
        {
          "internalType": "bool",
          "name": "",
          "type": "bool"
        }
      ],
      "stateMutability": "view",
      "type": "function"
    },
    {
      "inputs": [
        {
          "internalType": "uint256",
          "name": "tokenId",
          "type": "uint256"
        }
      ],
      "name": "readShieldAmount",
      "outputs": [
        {
          "internalType": "uint256",
          "name": "",
          "type": "uint256"
        }
      ],
      "stateMutability": "view",
      "type": "function"
    },
    {
      "inputs": [],
      "name": "renounceOwnership",
      "outputs": [],
      "stateMutability": "nonpayable",
      "type": "function"
    },
    {
      "inputs": [
        {
          "internalType": "address",
          "name": "_contractaddr",
          "type": "address"
        }
      ],
      "name": "setEyesToken",
      "outputs": [],
      "stateMutability": "nonpayable",
      "type": "function"
    },
    {
      "inputs": [
        {
          "internalType": "address",
          "name": "_contractaddr",
          "type": "address"
        }
      ],
      "name": "setGameContract",
      "outputs": [],
      "stateMutability": "nonpayable",
      "type": "function"
    },
    {
      "inputs": [
        {
          "internalType": "address",
          "name": "_contractaddr",
          "type": "address"
        }
      ],
      "name": "setKeysToken",
      "outputs": [],
      "stateMutability": "nonpayable",
      "type": "function"
    },
    {
      "inputs": [
        {
          "internalType": "address",
          "name": "_operator",
          "type": "address"
        },
        {
          "internalType": "bool",
          "name": "allowed",
          "type": "bool"
        }
      ],
      "name": "setOperator",
      "outputs": [],
      "stateMutability": "nonpayable",
      "type": "function"
    },
    {
      "inputs": [
        {
          "internalType": "address",
          "name": "_contractaddr",
          "type": "address"
        }
      ],
      "name": "setOtomDatabase",
      "outputs": [],
      "stateMutability": "nonpayable",
      "type": "function"
    },
    {
      "inputs": [
        {
          "internalType": "address",
          "name": "_contractaddr",
          "type": "address"
        }
      ],
      "name": "setOtomToken",
      "outputs": [],
      "stateMutability": "nonpayable",
      "type": "function"
    },
    {
      "inputs": [
        {
          "internalType": "uint256",
          "name": "tokenId",
          "type": "uint256"
        },
        {
          "internalType": "uint256",
          "name": "playerid",
          "type": "uint256"
        }
      ],
      "name": "shield",
      "outputs": [
        {
          "internalType": "uint256",
          "name": "",
          "type": "uint256"
        }
      ],
      "stateMutability": "nonpayable",
      "type": "function"
    },
    {
      "inputs": [
        {
          "internalType": "bytes4",
          "name": "interfaceId",
          "type": "bytes4"
        }
      ],
      "name": "supportsInterface",
      "outputs": [
        {
          "internalType": "bool",
          "name": "",
          "type": "bool"
        }
      ],
      "stateMutability": "view",
      "type": "function"
    },
    {
      "inputs": [
        {
          "internalType": "address",
          "name": "to",
          "type": "address"
        },
        {
          "internalType": "uint256",
          "name": "tokenId",
          "type": "uint256"
        },
        {
          "internalType": "uint256",
          "name": "amount",
          "type": "uint256"
        }
      ],
      "name": "transferOutOTOM",
      "outputs": [],
      "stateMutability": "nonpayable",
      "type": "function"
    },
    {
      "inputs": [
        {
          "internalType": "address",
          "name": "newOwner",
          "type": "address"
        }
      ],
      "name": "transferOwnership",
      "outputs": [],
      "stateMutability": "nonpayable",
      "type": "function"
    },
    {
      "inputs": [
        {
          "internalType": "uint256",
          "name": "eyesTokenId",
          "type": "uint256"
        }
      ],
      "name": "unequipEyes",
      "outputs": [],
      "stateMutability": "nonpayable",
      "type": "function"
    }
  ],
  "bytecode": "0x608060405234801561001057600080fd5b5033600073ffffffffffffffffffffffffffffffffffffffff168173ffffffffffffffffffffffffffffffffffffffff16036100845760006040517f1e4fbdf700000000000000000000000000000000000000000000000000000000815260040161007b9190610347565b60405180910390fd5b6100938161024260201b60201c565b50732f9810789aebbb6cdc6c0332948ff3b6d11121e3600360006101000a81548173ffffffffffffffffffffffffffffffffffffffff021916908373ffffffffffffffffffffffffffffffffffffffff16021790555073953761a771d6ad9f888e41b3e7c9338a32b1a346600260006101000a81548173ffffffffffffffffffffffffffffffffffffffff021916908373ffffffffffffffffffffffffffffffffffffffff16021790555073f3851e1b7824bd920350e6fe9b890bb76d01c9f7600460006101000a81548173ffffffffffffffffffffffffffffffffffffffff021916908373ffffffffffffffffffffffffffffffffffffffff16021790555073aa394da7d62e502a7e3da7e11d21a74c277143d5600460006101000a81548173ffffffffffffffffffffffffffffffffffffffff021916908373ffffffffffffffffffffffffffffffffffffffff1602179055507301eb5cf188ba7d075fdf7edf2bb8426b17ca3320600560006101000a81548173ffffffffffffffffffffffffffffffffffffffff021916908373ffffffffffffffffffffffffffffffffffffffff160217905550610362565b60008060009054906101000a900473ffffffffffffffffffffffffffffffffffffffff169050816000806101000a81548173ffffffffffffffffffffffffffffffffffffffff021916908373ffffffffffffffffffffffffffffffffffffffff1602179055508173ffffffffffffffffffffffffffffffffffffffff168173ffffffffffffffffffffffffffffffffffffffff167f8be0079c531659141344cd1fd0a4f28419497f9722a3daafe3b4186f6b6457e060405160405180910390a35050565b600073ffffffffffffffffffffffffffffffffffffffff82169050919050565b600061033182610306565b9050919050565b61034181610326565b82525050565b600060208201905061035c6000830184610338565b92915050565b613308806103716000396000f3fe608060405234801561001057600080fd5b50600436106101cf5760003560e01c80638b58164f11610104578063bed34bba116100a2578063d681d3b911610071578063d681d3b91461053e578063e4ee53df14610570578063f23a6e611461058c578063f2fde38b146105bc576101cf565b8063bed34bba146104a4578063c7be3923146104d4578063d3f0bb2b146104f0578063d3f3300914610520576101cf565b8063924eab3a116100de578063924eab3a146103f85780639e14442514610414578063a6674f8814610444578063bc197c8114610474576101cf565b80638b58164f146103a25780638da5cb5b146103be57806390e8582c146103dc576101cf565b80635127d5c8116101715780635acbf92d1161014b5780635acbf92d146103425780635cd17d9a1461035e578063715018a61461037c5780637f714dc614610386576101cf565b80635127d5c8146102da57806353dd09e51461030a578063558a729714610326576101cf565b8063244aae7a116101ad578063244aae7a146102525780633bb031fb14610282578063405ebd4d146102a057806348e5dc15146102bc576101cf565b8063013a9a68146101d457806301ffc9a7146101f2578063136cf2a014610222575b600080fd5b6101dc6105d8565b6040516101e991906119c6565b60405180910390f35b61020c60048036038101906102079190611a4d565b6105fe565b6040516102199190611a95565b60405180910390f35b61023c60048036038101906102379190611ae6565b610668565b6040516102499190611b35565b60405180910390f35b61026c60048036038101906102679190611b50565b610a8a565b6040516102799190611a95565b60405180910390f35b61028a610aaa565b6040516102979190611b9e565b60405180910390f35b6102ba60048036038101906102b59190611bf7565b610ad0565b005b6102c4610b1c565b6040516102d19190611c45565b60405180910390f35b6102f460048036038101906102ef9190611b50565b610b42565b6040516103019190611a95565b60405180910390f35b610324600480360381019061031f9190611bf7565b610b62565b005b610340600480360381019061033b9190611c8c565b610bae565b005b61035c60048036038101906103579190611ae6565b610c11565b005b610366610e38565b6040516103739190611c45565b60405180910390f35b610384610e5e565b005b6103a0600480360381019061039b9190611b50565b610e72565b005b6103bc60048036038101906103b79190611bf7565b611071565b005b6103c66110bd565b6040516103d39190611cdb565b60405180910390f35b6103f660048036038101906103f19190611cf6565b6110e6565b005b610412600480360381019061040d9190611bf7565b611265565b005b61042e60048036038101906104299190611b50565b6112b1565b60405161043b9190611b35565b60405180910390f35b61045e60048036038101906104599190611bf7565b61139b565b60405161046b9190611a95565b60405180910390f35b61048e60048036038101906104899190611e04565b6113bb565b60405161049b9190611eef565b60405180910390f35b6104be60048036038101906104b9919061204b565b6113d3565b6040516104cb9190611a95565b60405180910390f35b6104ee60048036038101906104e99190611ae6565b61142c565b005b61050a60048036038101906105059190611b50565b61168f565b6040516105179190611a95565b60405180910390f35b6105286116af565b60405161053591906120e4565b60405180910390f35b61055860048036038101906105539190611b50565b6116d5565b604051610567939291906120ff565b60405180910390f35b61058a60048036038101906105859190611bf7565b61170c565b005b6105a660048036038101906105a19190612136565b611758565b6040516105b39190611eef565b60405180910390f35b6105d660048036038101906105d19190611bf7565b61176e565b005b600360009054906101000a900473ffffffffffffffffffffffffffffffffffffffff1681565b60007f4e2312e0000000000000000000000000000000000000000000000000000000007bffffffffffffffffffffffffffffffffffffffffffffffffffffffff1916827bffffffffffffffffffffffffffffffffffffffffffffffffffffffff1916149050919050565b60006001600360009054906101000a900473ffffffffffffffffffffffffffffffffffffffff1673ffffffffffffffffffffffffffffffffffffffff1662fdd58e33866040518363ffffffff1660e01b81526004016106c89291906121d0565b602060405180830381865afa1580156106e5573d6000803e3d6000fd5b505050506040513d601f19601f82011682018060405250810190610709919061220e565b101561074a576040517f08c379a0000000000000000000000000000000000000000000000000000000008152600401610741906122be565b60405180910390fd5b600360009054906101000a900473ffffffffffffffffffffffffffffffffffffffff1673ffffffffffffffffffffffffffffffffffffffff1663e985e9c533306040518363ffffffff1660e01b81526004016107a79291906122de565b602060405180830381865afa1580156107c4573d6000803e3d6000fd5b505050506040513d601f19601f820116820180604052508101906107e8919061231c565b610827576040517f08c379a000000000000000000000000000000000000000000000000000000000815260040161081e906123bb565b60405180910390fd5b61090e600260009054906101000a900473ffffffffffffffffffffffffffffffffffffffff1673ffffffffffffffffffffffffffffffffffffffff16637809a045856040518263ffffffff1660e01b81526004016108859190611b35565b600060405180830381865afa1580156108a2573d6000803e3d6000fd5b505050506040513d6000823e3d601f19601f820116820180604052508101906108cb9190612c13565b60a00151602001516040518060400160405280600981526020017f73696e676c65746f6e00000000000000000000000000000000000000000000008152506113d3565b1561094e576040517f08c379a000000000000000000000000000000000000000000000000000000000815260040161094590612ca8565b60405180910390fd5b600360009054906101000a900473ffffffffffffffffffffffffffffffffffffffff1673ffffffffffffffffffffffffffffffffffffffff1663f242432a33308660016040518563ffffffff1660e01b81526004016109b09493929190612d3a565b600060405180830381600087803b1580156109ca57600080fd5b505af11580156109de573d6000803e3d6000fd5b50505050600660009054906101000a900473ffffffffffffffffffffffffffffffffffffffff1673ffffffffffffffffffffffffffffffffffffffff1663cf5a0d4683610a2a866112b1565b6040518363ffffffff1660e01b8152600401610a47929190612d92565b600060405180830381600087803b158015610a6157600080fd5b505af1158015610a75573d6000803e3d6000fd5b50505050610a82836112b1565b905092915050565b60096020528060005260406000206000915054906101000a900460ff1681565b600260009054906101000a900473ffffffffffffffffffffffffffffffffffffffff1681565b610ad86117f4565b80600660006101000a81548173ffffffffffffffffffffffffffffffffffffffff021916908373ffffffffffffffffffffffffffffffffffffffff16021790555050565b600460009054906101000a900473ffffffffffffffffffffffffffffffffffffffff1681565b60076020528060005260406000206000915054906101000a900460ff1681565b610b6a6117f4565b80600360006101000a81548173ffffffffffffffffffffffffffffffffffffffff021916908373ffffffffffffffffffffffffffffffffffffffff16021790555050565b610bb66117f4565b80600160008473ffffffffffffffffffffffffffffffffffffffff1673ffffffffffffffffffffffffffffffffffffffff16815260200190815260200160002060006101000a81548160ff0219169083151502179055505050565b3373ffffffffffffffffffffffffffffffffffffffff16600560009054906101000a900473ffffffffffffffffffffffffffffffffffffffff1673ffffffffffffffffffffffffffffffffffffffff16636352211e836040518263ffffffff1660e01b8152600401610c839190611b35565b602060405180830381865afa158015610ca0573d6000803e3d6000fd5b505050506040513d601f19601f82011682018060405250810190610cc49190612dd0565b73ffffffffffffffffffffffffffffffffffffffff1614610d1a576040517f08c379a0000000000000000000000000000000000000000000000000000000008152600401610d1190612e49565b60405180910390fd5b600a600083815260200190815260200160002060009054906101000a900460ff1615610d7b576040517f08c379a0000000000000000000000000000000000000000000000000000000008152600401610d7290612eb5565b60405180910390fd5b6009600083815260200190815260200160002060009054906101000a900460ff1615610ddc576040517f08c379a0000000000000000000000000000000000000000000000000000000008152600401610dd390612f21565b60405180910390fd5b60016009600084815260200190815260200160002060006101000a81548160ff0219169083151502179055506001600a600083815260200190815260200160002060006101000a81548160ff0219169083151502179055505050565b600560009054906101000a900473ffffffffffffffffffffffffffffffffffffffff1681565b610e666117f4565b610e70600061187b565b565b3373ffffffffffffffffffffffffffffffffffffffff16600460009054906101000a900473ffffffffffffffffffffffffffffffffffffffff1673ffffffffffffffffffffffffffffffffffffffff16636352211e836040518263ffffffff1660e01b8152600401610ee49190611b35565b602060405180830381865afa158015610f01573d6000803e3d6000fd5b505050506040513d601f19601f82011682018060405250810190610f259190612dd0565b73ffffffffffffffffffffffffffffffffffffffff1614610f7b576040517f08c379a0000000000000000000000000000000000000000000000000000000008152600401610f7290612e49565b60405180910390fd5b42620151806008600084815260200190815260200160002060020154610fa19190612f70565b10610fe1576040517f08c379a0000000000000000000000000000000000000000000000000000000008152600401610fd890612ff0565b60405180910390fd5b60006008600083815260200190815260200160002060010160006101000a81548160ff0219169083151502179055506000600760006008600085815260200190815260200160002060000154815260200190815260200160002060006101000a81548160ff0219169083151502179055506000600860008381526020019081526020016000206000018190555050565b6110796117f4565b80600260006101000a81548173ffffffffffffffffffffffffffffffffffffffff021916908373ffffffffffffffffffffffffffffffffffffffff16021790555050565b60008060009054906101000a900473ffffffffffffffffffffffffffffffffffffffff16905090565b6110ee6117f4565b80600360009054906101000a900473ffffffffffffffffffffffffffffffffffffffff1673ffffffffffffffffffffffffffffffffffffffff1662fdd58e30856040518363ffffffff1660e01b815260040161114b9291906121d0565b602060405180830381865afa158015611168573d6000803e3d6000fd5b505050506040513d601f19601f8201168201806040525081019061118c919061220e565b10156111cd576040517f08c379a00000000000000000000000000000000000000000000000000000000081526004016111c490613082565b60405180910390fd5b600360009054906101000a900473ffffffffffffffffffffffffffffffffffffffff1673ffffffffffffffffffffffffffffffffffffffff1663f242432a308585856040518563ffffffff1660e01b815260040161122e94939291906130a2565b600060405180830381600087803b15801561124857600080fd5b505af115801561125c573d6000803e3d6000fd5b50505050505050565b61126d6117f4565b80600560006101000a81548173ffffffffffffffffffffffffffffffffffffffff021916908373ffffffffffffffffffffffffffffffffffffffff16021790555050565b600080600260009054906101000a900473ffffffffffffffffffffffffffffffffffffffff1673ffffffffffffffffffffffffffffffffffffffff16637809a045846040518263ffffffff1660e01b815260040161130f9190611b35565b600060405180830381865afa15801561132c573d6000803e3d6000fd5b505050506040513d6000823e3d601f19601f820116820180604052508101906113559190612c13565b90506000670de0b6b3a7640000610e1083610160015184610140015161137b9190612f70565b61138591906130fa565b61138f919061316b565b90508092505050919050565b60016020528060005260406000206000915054906101000a900460ff1681565b600063bc197c8160e01b905098975050505050505050565b6000816040516020016113e691906131e3565b604051602081830303815290604052805190602001208360405160200161140d91906131e3565b6040516020818303038152906040528051906020012014905092915050565b3373ffffffffffffffffffffffffffffffffffffffff16600460009054906101000a900473ffffffffffffffffffffffffffffffffffffffff1673ffffffffffffffffffffffffffffffffffffffff16636352211e836040518263ffffffff1660e01b815260040161149e9190611b35565b602060405180830381865afa1580156114bb573d6000803e3d6000fd5b505050506040513d601f19601f820116820180604052508101906114df9190612dd0565b73ffffffffffffffffffffffffffffffffffffffff1614611535576040517f08c379a000000000000000000000000000000000000000000000000000000000815260040161152c90612e49565b60405180910390fd5b6008600082815260200190815260200160002060010160009054906101000a900460ff1615611599576040517f08c379a000000000000000000000000000000000000000000000000000000000815260040161159090613246565b60405180910390fd5b6007600083815260200190815260200160002060009054906101000a900460ff16156115fa576040517f08c379a00000000000000000000000000000000000000000000000000000000081526004016115f1906132b2565b60405180910390fd5b60016008600083815260200190815260200160002060010160006101000a81548160ff02191690831515021790555042600860008381526020019081526020016000206002018190555081600860008381526020019081526020016000206000018190555060016007600084815260200190815260200160002060006101000a81548160ff0219169083151502179055505050565b600a6020528060005260406000206000915054906101000a900460ff1681565b600660009054906101000a900473ffffffffffffffffffffffffffffffffffffffff1681565b60086020528060005260406000206000915090508060000154908060010160009054906101000a900460ff16908060020154905083565b6117146117f4565b80600460006101000a81548173ffffffffffffffffffffffffffffffffffffffff021916908373ffffffffffffffffffffffffffffffffffffffff16021790555050565b600063f23a6e6160e01b90509695505050505050565b6117766117f4565b600073ffffffffffffffffffffffffffffffffffffffff168173ffffffffffffffffffffffffffffffffffffffff16036117e85760006040517f1e4fbdf70000000000000000000000000000000000000000000000000000000081526004016117df9190611cdb565b60405180910390fd5b6117f18161187b565b50565b6117fc61193f565b73ffffffffffffffffffffffffffffffffffffffff1661181a6110bd565b73ffffffffffffffffffffffffffffffffffffffff16146118795761183d61193f565b6040517f118cdaa70000000000000000000000000000000000000000000000000000000081526004016118709190611cdb565b60405180910390fd5b565b60008060009054906101000a900473ffffffffffffffffffffffffffffffffffffffff169050816000806101000a81548173ffffffffffffffffffffffffffffffffffffffff021916908373ffffffffffffffffffffffffffffffffffffffff1602179055508173ffffffffffffffffffffffffffffffffffffffff168173ffffffffffffffffffffffffffffffffffffffff167f8be0079c531659141344cd1fd0a4f28419497f9722a3daafe3b4186f6b6457e060405160405180910390a35050565b600033905090565b600073ffffffffffffffffffffffffffffffffffffffff82169050919050565b6000819050919050565b600061198c61198761198284611947565b611967565b611947565b9050919050565b600061199e82611971565b9050919050565b60006119b082611993565b9050919050565b6119c0816119a5565b82525050565b60006020820190506119db60008301846119b7565b92915050565b6000604051905090565b600080fd5b600080fd5b60007fffffffff0000000000000000000000000000000000000000000000000000000082169050919050565b611a2a816119f5565b8114611a3557600080fd5b50565b600081359050611a4781611a21565b92915050565b600060208284031215611a6357611a626119eb565b5b6000611a7184828501611a38565b91505092915050565b60008115159050919050565b611a8f81611a7a565b82525050565b6000602082019050611aaa6000830184611a86565b92915050565b6000819050919050565b611ac381611ab0565b8114611ace57600080fd5b50565b600081359050611ae081611aba565b92915050565b60008060408385031215611afd57611afc6119eb565b5b6000611b0b85828601611ad1565b9250506020611b1c85828601611ad1565b9150509250929050565b611b2f81611ab0565b82525050565b6000602082019050611b4a6000830184611b26565b92915050565b600060208284031215611b6657611b656119eb565b5b6000611b7484828501611ad1565b91505092915050565b6000611b8882611993565b9050919050565b611b9881611b7d565b82525050565b6000602082019050611bb36000830184611b8f565b92915050565b6000611bc482611947565b9050919050565b611bd481611bb9565b8114611bdf57600080fd5b50565b600081359050611bf181611bcb565b92915050565b600060208284031215611c0d57611c0c6119eb565b5b6000611c1b84828501611be2565b91505092915050565b6000611c2f82611993565b9050919050565b611c3f81611c24565b82525050565b6000602082019050611c5a6000830184611c36565b92915050565b611c6981611a7a565b8114611c7457600080fd5b50565b600081359050611c8681611c60565b92915050565b60008060408385031215611ca357611ca26119eb565b5b6000611cb185828601611be2565b9250506020611cc285828601611c77565b9150509250929050565b611cd581611bb9565b82525050565b6000602082019050611cf06000830184611ccc565b92915050565b600080600060608486031215611d0f57611d0e6119eb565b5b6000611d1d86828701611be2565b9350506020611d2e86828701611ad1565b9250506040611d3f86828701611ad1565b9150509250925092565b600080fd5b600080fd5b600080fd5b60008083601f840112611d6e57611d6d611d49565b5b8235905067ffffffffffffffff811115611d8b57611d8a611d4e565b5b602083019150836020820283011115611da757611da6611d53565b5b9250929050565b60008083601f840112611dc457611dc3611d49565b5b8235905067ffffffffffffffff811115611de157611de0611d4e565b5b602083019150836001820283011115611dfd57611dfc611d53565b5b9250929050565b60008060008060008060008060a0898b031215611e2457611e236119eb565b5b6000611e328b828c01611be2565b9850506020611e438b828c01611be2565b975050604089013567ffffffffffffffff811115611e6457611e636119f0565b5b611e708b828c01611d58565b9650965050606089013567ffffffffffffffff811115611e9357611e926119f0565b5b611e9f8b828c01611d58565b9450945050608089013567ffffffffffffffff811115611ec257611ec16119f0565b5b611ece8b828c01611dae565b92509250509295985092959890939650565b611ee9816119f5565b82525050565b6000602082019050611f046000830184611ee0565b92915050565b600080fd5b6000601f19601f8301169050919050565b7f4e487b7100000000000000000000000000000000000000000000000000000000600052604160045260246000fd5b611f5882611f0f565b810181811067ffffffffffffffff82111715611f7757611f76611f20565b5b80604052505050565b6000611f8a6119e1565b9050611f968282611f4f565b919050565b600067ffffffffffffffff821115611fb657611fb5611f20565b5b611fbf82611f0f565b9050602081019050919050565b82818337600083830152505050565b6000611fee611fe984611f9b565b611f80565b90508281526020810184848401111561200a57612009611f0a565b5b612015848285611fcc565b509392505050565b600082601f83011261203257612031611d49565b5b8135612042848260208601611fdb565b91505092915050565b60008060408385031215612062576120616119eb565b5b600083013567ffffffffffffffff8111156120805761207f6119f0565b5b61208c8582860161201d565b925050602083013567ffffffffffffffff8111156120ad576120ac6119f0565b5b6120b98582860161201d565b9150509250929050565b60006120ce82611993565b9050919050565b6120de816120c3565b82525050565b60006020820190506120f960008301846120d5565b92915050565b60006060820190506121146000830186611b26565b6121216020830185611a86565b61212e6040830184611b26565b949350505050565b60008060008060008060a08789031215612153576121526119eb565b5b600061216189828a01611be2565b965050602061217289828a01611be2565b955050604061218389828a01611ad1565b945050606061219489828a01611ad1565b935050608087013567ffffffffffffffff8111156121b5576121b46119f0565b5b6121c189828a01611dae565b92509250509295509295509295565b60006040820190506121e56000830185611ccc565b6121f26020830184611b26565b9392505050565b60008151905061220881611aba565b92915050565b600060208284031215612224576122236119eb565b5b6000612232848285016121f9565b91505092915050565b600082825260208201905092915050565b7f596f75206d757374206f776e206174206c65617374206f6e65206f662074686960008201527f732073706563696669656420746f6b656e2e0000000000000000000000000000602082015250565b60006122a860328361223b565b91506122b38261224c565b604082019050919050565b600060208201905081810360008301526122d78161229b565b9050919050565b60006040820190506122f36000830185611ccc565b6123006020830184611ccc565b9392505050565b60008151905061231681611c60565b92915050565b600060208284031215612332576123316119eb565b5b600061234084828501612307565b91505092915050565b7f436f6e7472616374206973206e6f7420617070726f76656420746f207472616e60008201527f7366657220796f757220746f6b656e732e000000000000000000000000000000602082015250565b60006123a560318361223b565b91506123b082612349565b604082019050919050565b600060208201905081810360008301526123d481612398565b9050919050565b600080fd5b600080fd5b60005b838110156124035780820151818401526020810190506123e8565b60008484015250505050565b600061242261241d84611f9b565b611f80565b90508281526020810184848401111561243e5761243d611f0a565b5b6124498482856123e5565b509392505050565b600082601f83011261246657612465611d49565b5b815161247684826020860161240f565b91505092915050565b6000819050919050565b6124928161247f565b811461249d57600080fd5b50565b6000815190506124af81612489565b92915050565b6000604082840312156124cb576124ca6123db565b5b6124d56040611f80565b905060006124e5848285016121f9565b600083015250602082015167ffffffffffffffff811115612509576125086123e0565b5b61251584828501612451565b60208301525092915050565b600067ffffffffffffffff82111561253c5761253b611f20565b5b602082029050602081019050919050565b600067ffffffffffffffff82111561256857612567611f20565b5b602082029050602081019050919050565b600061258c6125878461254d565b611f80565b905080838252602082019050602084028301858111156125af576125ae611d53565b5b835b818110156125d857806125c488826121f9565b8452602084019350506020810190506125b1565b5050509392505050565b600082601f8301126125f7576125f6611d49565b5b8151612607848260208601612579565b91505092915050565b60006101208284031215612627576126266123db565b5b612632610120611f80565b90506000612642848285016124a0565b6000830152506020612656848285016121f9565b602083015250604061266a848285016121f9565b604083015250606061267e848285016121f9565b6060830152506080612692848285016121f9565b60808301525060a082015167ffffffffffffffff8111156126b6576126b56123e0565b5b6126c2848285016125e2565b60a08301525060c082015167ffffffffffffffff8111156126e6576126e56123e0565b5b6126f2848285016125e2565b60c08301525060e082015167ffffffffffffffff811115612716576127156123e0565b5b612722848285016125e2565b60e08301525061010082015167ffffffffffffffff811115612747576127466123e0565b5b612753848285016125e2565b6101008301525092915050565b600060a08284031215612776576127756123db565b5b61278060a0611f80565b90506000612790848285016121f9565b60008301525060206127a4848285016121f9565b60208301525060406127b8848285016121f9565b60408301525060606127cc848285016121f9565b606083015250608082015167ffffffffffffffff8111156127f0576127ef6123e0565b5b6127fc84828501612451565b60808301525092915050565b6000610180828403121561281f5761281e6123db565b5b61282a610180611f80565b9050600061283a848285016121f9565b600083015250602061284e848285016121f9565b6020830152506040612862848285016121f9565b6040830152506060612876848285016121f9565b606083015250608061288a848285016121f9565b60808301525060a061289e84828501612307565b60a08301525060c082015167ffffffffffffffff8111156128c2576128c16123e0565b5b6128ce84828501612451565b60c08301525060e082015167ffffffffffffffff8111156128f2576128f16123e0565b5b6128fe84828501612451565b60e083015250610100612913848285016121f9565b61010083015250610120612929848285016121f9565b6101208301525061014082015167ffffffffffffffff81111561294f5761294e6123e0565b5b61295b84828501612610565b6101408301525061016082015167ffffffffffffffff811115612981576129806123e0565b5b61298d84828501612760565b6101608301525092915050565b60006129ad6129a884612521565b611f80565b905080838252602082019050602084028301858111156129d0576129cf611d53565b5b835b81811015612a1757805167ffffffffffffffff8111156129f5576129f4611d49565b5b808601612a028982612808565b855260208501945050506020810190506129d2565b5050509392505050565b600082601f830112612a3657612a35611d49565b5b8151612a4684826020860161299a565b91505092915050565b60006101a08284031215612a6657612a656123db565b5b612a716101a0611f80565b9050600082015167ffffffffffffffff811115612a9157612a906123e0565b5b612a9d84828501612451565b600083015250602082015167ffffffffffffffff811115612ac157612ac06123e0565b5b612acd84828501612451565b6020830152506040612ae1848285016124a0565b6040830152506060612af5848285016121f9565b6060830152506080612b09848285016121f9565b60808301525060a082015167ffffffffffffffff811115612b2d57612b2c6123e0565b5b612b39848285016124b5565b60a08301525060c082015167ffffffffffffffff811115612b5d57612b5c6123e0565b5b612b6984828501612a21565b60c08301525060e082015167ffffffffffffffff811115612b8d57612b8c6123e0565b5b612b9984828501612a21565b60e083015250610100612bae848285016121f9565b61010083015250610120612bc4848285016121f9565b61012083015250610140612bda848285016121f9565b61014083015250610160612bf0848285016121f9565b61016083015250610180612c06848285016121f9565b6101808301525092915050565b600060208284031215612c2957612c286119eb565b5b600082015167ffffffffffffffff811115612c4757612c466119f0565b5b612c5384828501612a4f565b91505092915050565b7f4d757374206265204d6f6c6563756c6500000000000000000000000000000000600082015250565b6000612c9260108361223b565b9150612c9d82612c5c565b602082019050919050565b60006020820190508181036000830152612cc181612c85565b9050919050565b6000819050919050565b6000612ced612ce8612ce384612cc8565b611967565b611ab0565b9050919050565b612cfd81612cd2565b82525050565b600082825260208201905092915050565b50565b6000612d24600083612d03565b9150612d2f82612d14565b600082019050919050565b600060a082019050612d4f6000830187611ccc565b612d5c6020830186611ccc565b612d696040830185611b26565b612d766060830184612cf4565b8181036080830152612d8781612d17565b905095945050505050565b6000604082019050612da76000830185611b26565b612db46020830184611b26565b9392505050565b600081519050612dca81611bcb565b92915050565b600060208284031215612de657612de56119eb565b5b6000612df484828501612dbb565b91505092915050565b7f4e6f74204f776e65720000000000000000000000000000000000000000000000600082015250565b6000612e3360098361223b565b9150612e3e82612dfd565b602082019050919050565b60006020820190508181036000830152612e6281612e26565b9050919050565b7f4b65797320686173206265656e20757365640000000000000000000000000000600082015250565b6000612e9f60128361223b565b9150612eaa82612e69565b602082019050919050565b60006020820190508181036000830152612ece81612e92565b9050919050565b7f596f7520616c72656164792065717569707065642061206b6579000000000000600082015250565b6000612f0b601a8361223b565b9150612f1682612ed5565b602082019050919050565b60006020820190508181036000830152612f3a81612efe565b9050919050565b7f4e487b7100000000000000000000000000000000000000000000000000000000600052601160045260246000fd5b6000612f7b82611ab0565b9150612f8683611ab0565b9250828201905080821115612f9e57612f9d612f41565b5b92915050565b7f596f75206d757374207761697420612064617900000000000000000000000000600082015250565b6000612fda60138361223b565b9150612fe582612fa4565b602082019050919050565b6000602082019050818103600083015261300981612fcd565b9050919050565b7f496e73756666696369656e7420746f6b656e2062616c616e636520696e20636f60008201527f6e74726163740000000000000000000000000000000000000000000000000000602082015250565b600061306c60268361223b565b915061307782613010565b604082019050919050565b6000602082019050818103600083015261309b8161305f565b9050919050565b600060a0820190506130b76000830187611ccc565b6130c46020830186611ccc565b6130d16040830185611b26565b6130de6060830184611b26565b81810360808301526130ef81612d17565b905095945050505050565b600061310582611ab0565b915061311083611ab0565b925082820261311e81611ab0565b9150828204841483151761313557613134612f41565b5b5092915050565b7f4e487b7100000000000000000000000000000000000000000000000000000000600052601260045260246000fd5b600061317682611ab0565b915061318183611ab0565b9250826131915761319061313c565b5b828204905092915050565b600081519050919050565b600081905092915050565b60006131bd8261319c565b6131c781856131a7565b93506131d78185602086016123e5565b80840191505092915050565b60006131ef82846131b2565b915081905092915050565b7f4579657320686173206265656e20757365640000000000000000000000000000600082015250565b600061323060128361223b565b915061323b826131fa565b602082019050919050565b6000602082019050818103600083015261325f81613223565b9050919050565b7f596f7520616c726561647920657175697070656420616e206579650000000000600082015250565b600061329c601b8361223b565b91506132a782613266565b602082019050919050565b600060208201905081810360008301526132cb8161328f565b905091905056fea2646970667358221220f0d92d46c89111e3414eb070a04407150779e3bf7b07239cb9a66e51e3fb528064736f6c634300081b0033",
  "linkReferences": {},
  "deployedLinkReferences": {}
}