{
  "_format": "hh-sol-artifact-1",
  "contractName": "ZeroSumPac",
  "sourceName": "contracts/ZeroSumPac.sol",
  "abi": [
    {
      "inputs": [],
      "stateMutability": "nonpayable",
      "type": "constructor"
    },
    {
      "inputs": [],
      "name": "ERC721EnumerableForbiddenBatchMint",
      "type": "error"
    },
    {
      "inputs": [
        {
          "internalType": "address",
          "name": "sender",
          "type": "address"
        },
        {
          "internalType": "uint256",
          "name": "tokenId",
          "type": "uint256"
        },
        {
          "internalType": "address",
          "name": "owner",
          "type": "address"
        }
      ],
      "name": "ERC721IncorrectOwner",
      "type": "error"
    },
    {
      "inputs": [
        {
          "internalType": "address",
          "name": "operator",
          "type": "address"
        },
        {
          "internalType": "uint256",
          "name": "tokenId",
          "type": "uint256"
        }
      ],
      "name": "ERC721InsufficientApproval",
      "type": "error"
    },
    {
      "inputs": [
        {
          "internalType": "address",
          "name": "approver",
          "type": "address"
        }
      ],
      "name": "ERC721InvalidApprover",
      "type": "error"
    },
    {
      "inputs": [
        {
          "internalType": "address",
          "name": "operator",
          "type": "address"
        }
      ],
      "name": "ERC721InvalidOperator",
      "type": "error"
    },
    {
      "inputs": [
        {
          "internalType": "address",
          "name": "owner",
          "type": "address"
        }
      ],
      "name": "ERC721InvalidOwner",
      "type": "error"
    },
    {
      "inputs": [
        {
          "internalType": "address",
          "name": "receiver",
          "type": "address"
        }
      ],
      "name": "ERC721InvalidReceiver",
      "type": "error"
    },
    {
      "inputs": [
        {
          "internalType": "address",
          "name": "sender",
          "type": "address"
        }
      ],
      "name": "ERC721InvalidSender",
      "type": "error"
    },
    {
      "inputs": [
        {
          "internalType": "uint256",
          "name": "tokenId",
          "type": "uint256"
        }
      ],
      "name": "ERC721NonexistentToken",
      "type": "error"
    },
    {
      "inputs": [
        {
          "internalType": "address",
          "name": "owner",
          "type": "address"
        },
        {
          "internalType": "uint256",
          "name": "index",
          "type": "uint256"
        }
      ],
      "name": "ERC721OutOfBoundsIndex",
      "type": "error"
    },
    {
      "inputs": [
        {
          "internalType": "address",
          "name": "owner",
          "type": "address"
        }
      ],
      "name": "OwnableInvalidOwner",
      "type": "error"
    },
    {
      "inputs": [
        {
          "internalType": "address",
          "name": "account",
          "type": "address"
        }
      ],
      "name": "OwnableUnauthorizedAccount",
      "type": "error"
    },
    {
      "anonymous": false,
      "inputs": [
        {
          "indexed": true,
          "internalType": "address",
          "name": "owner",
          "type": "address"
        },
        {
          "indexed": true,
          "internalType": "address",
          "name": "approved",
          "type": "address"
        },
        {
          "indexed": true,
          "internalType": "uint256",
          "name": "tokenId",
          "type": "uint256"
        }
      ],
      "name": "Approval",
      "type": "event"
    },
    {
      "anonymous": false,
      "inputs": [
        {
          "indexed": true,
          "internalType": "address",
          "name": "owner",
          "type": "address"
        },
        {
          "indexed": true,
          "internalType": "address",
          "name": "operator",
          "type": "address"
        },
        {
          "indexed": false,
          "internalType": "bool",
          "name": "approved",
          "type": "bool"
        }
      ],
      "name": "ApprovalForAll",
      "type": "event"
    },
    {
      "anonymous": false,
      "inputs": [
        {
          "indexed": true,
          "internalType": "address",
          "name": "previousOwner",
          "type": "address"
        },
        {
          "indexed": true,
          "internalType": "address",
          "name": "newOwner",
          "type": "address"
        }
      ],
      "name": "OwnershipTransferred",
      "type": "event"
    },
    {
      "anonymous": false,
      "inputs": [
        {
          "indexed": true,
          "internalType": "address",
          "name": "from",
          "type": "address"
        },
        {
          "indexed": true,
          "internalType": "address",
          "name": "to",
          "type": "address"
        },
        {
          "indexed": true,
          "internalType": "uint256",
          "name": "tokenId",
          "type": "uint256"
        }
      ],
      "name": "Transfer",
      "type": "event"
    },
    {
      "inputs": [
        {
          "internalType": "address",
          "name": "to",
          "type": "address"
        },
        {
          "internalType": "uint256",
          "name": "tokenId",
          "type": "uint256"
        }
      ],
      "name": "approve",
      "outputs": [],
      "stateMutability": "nonpayable",
      "type": "function"
    },
    {
      "inputs": [
        {
          "internalType": "address",
          "name": "",
          "type": "address"
        }
      ],
      "name": "approvedMintContracts",
      "outputs": [
        {
          "internalType": "bool",
          "name": "",
          "type": "bool"
        }
      ],
      "stateMutability": "view",
      "type": "function"
    },
    {
      "inputs": [
        {
          "internalType": "address",
          "name": "owner",
          "type": "address"
        }
      ],
      "name": "balanceOf",
      "outputs": [
        {
          "internalType": "uint256",
          "name": "",
          "type": "uint256"
        }
      ],
      "stateMutability": "view",
      "type": "function"
    },
    {
      "inputs": [
        {
          "internalType": "uint256",
          "name": "tokenId",
          "type": "uint256"
        }
      ],
      "name": "getApproved",
      "outputs": [
        {
          "internalType": "address",
          "name": "",
          "type": "address"
        }
      ],
      "stateMutability": "view",
      "type": "function"
    },
    {
      "inputs": [
        {
          "internalType": "address",
          "name": "owner",
          "type": "address"
        },
        {
          "internalType": "address",
          "name": "operator",
          "type": "address"
        }
      ],
      "name": "isApprovedForAll",
      "outputs": [
        {
          "internalType": "bool",
          "name": "",
          "type": "bool"
        }
      ],
      "stateMutability": "view",
      "type": "function"
    },
    {
      "inputs": [
        {
          "internalType": "address",
          "name": "to",
          "type": "address"
        },
        {
          "internalType": "uint256",
          "name": "amount",
          "type": "uint256"
        }
      ],
      "name": "mintFromApprovedContract",
      "outputs": [],
      "stateMutability": "nonpayable",
      "type": "function"
    },
    {
      "inputs": [],
      "name": "name",
      "outputs": [
        {
          "internalType": "string",
          "name": "",
          "type": "string"
        }
      ],
      "stateMutability": "view",
      "type": "function"
    },
    {
      "inputs": [],
      "name": "nextTokenId",
      "outputs": [
        {
          "internalType": "uint256",
          "name": "",
          "type": "uint256"
        }
      ],
      "stateMutability": "view",
      "type": "function"
    },
    {
      "inputs": [],
      "name": "owner",
      "outputs": [
        {
          "internalType": "address",
          "name": "",
          "type": "address"
        }
      ],
      "stateMutability": "view",
      "type": "function"
    },
    {
      "inputs": [
        {
          "internalType": "address",
          "name": "to",
          "type": "address"
        },
        {
          "internalType": "uint256",
          "name": "amount",
          "type": "uint256"
        }
      ],
      "name": "ownerMint",
      "outputs": [],
      "stateMutability": "nonpayable",
      "type": "function"
    },
    {
      "inputs": [
        {
          "internalType": "uint256",
          "name": "tokenId",
          "type": "uint256"
        }
      ],
      "name": "ownerOf",
      "outputs": [
        {
          "internalType": "address",
          "name": "",
          "type": "address"
        }
      ],
      "stateMutability": "view",
      "type": "function"
    },
    {
      "inputs": [
        {
          "internalType": "address",
          "name": "to",
          "type": "address"
        },
        {
          "internalType": "uint256",
          "name": "amount",
          "type": "uint256"
        }
      ],
      "name": "publicMint",
      "outputs": [],
      "stateMutability": "payable",
      "type": "function"
    },
    {
      "inputs": [],
      "name": "renounceOwnership",
      "outputs": [],
      "stateMutability": "nonpayable",
      "type": "function"
    },
    {
      "inputs": [
        {
          "internalType": "address",
          "name": "from",
          "type": "address"
        },
        {
          "internalType": "address",
          "name": "to",
          "type": "address"
        },
        {
          "internalType": "uint256",
          "name": "tokenId",
          "type": "uint256"
        }
      ],
      "name": "safeTransferFrom",
      "outputs": [],
      "stateMutability": "nonpayable",
      "type": "function"
    },
    {
      "inputs": [
        {
          "internalType": "address",
          "name": "from",
          "type": "address"
        },
        {
          "internalType": "address",
          "name": "to",
          "type": "address"
        },
        {
          "internalType": "uint256",
          "name": "tokenId",
          "type": "uint256"
        },
        {
          "internalType": "bytes",
          "name": "data",
          "type": "bytes"
        }
      ],
      "name": "safeTransferFrom",
      "outputs": [],
      "stateMutability": "nonpayable",
      "type": "function"
    },
    {
      "inputs": [
        {
          "internalType": "address",
          "name": "operator",
          "type": "address"
        },
        {
          "internalType": "bool",
          "name": "approved",
          "type": "bool"
        }
      ],
      "name": "setApprovalForAll",
      "outputs": [],
      "stateMutability": "nonpayable",
      "type": "function"
    },
    {
      "inputs": [
        {
          "internalType": "address",
          "name": "_contract",
          "type": "address"
        },
        {
          "internalType": "bool",
          "name": "allows",
          "type": "bool"
        }
      ],
      "name": "setApprovedMinter",
      "outputs": [],
      "stateMutability": "nonpayable",
      "type": "function"
    },
    {
      "inputs": [
        {
          "internalType": "bytes4",
          "name": "interfaceId",
          "type": "bytes4"
        }
      ],
      "name": "supportsInterface",
      "outputs": [
        {
          "internalType": "bool",
          "name": "",
          "type": "bool"
        }
      ],
      "stateMutability": "view",
      "type": "function"
    },
    {
      "inputs": [],
      "name": "symbol",
      "outputs": [
        {
          "internalType": "string",
          "name": "",
          "type": "string"
        }
      ],
      "stateMutability": "view",
      "type": "function"
    },
    {
      "inputs": [
        {
          "internalType": "uint256",
          "name": "index",
          "type": "uint256"
        }
      ],
      "name": "tokenByIndex",
      "outputs": [
        {
          "internalType": "uint256",
          "name": "",
          "type": "uint256"
        }
      ],
      "stateMutability": "view",
      "type": "function"
    },
    {
      "inputs": [
        {
          "internalType": "address",
          "name": "owner",
          "type": "address"
        },
        {
          "internalType": "uint256",
          "name": "index",
          "type": "uint256"
        }
      ],
      "name": "tokenOfOwnerByIndex",
      "outputs": [
        {
          "internalType": "uint256",
          "name": "",
          "type": "uint256"
        }
      ],
      "stateMutability": "view",
      "type": "function"
    },
    {
      "inputs": [
        {
          "internalType": "uint256",
          "name": "tokenId",
          "type": "uint256"
        }
      ],
      "name": "tokenURI",
      "outputs": [
        {
          "internalType": "string",
          "name": "",
          "type": "string"
        }
      ],
      "stateMutability": "view",
      "type": "function"
    },
    {
      "inputs": [],
      "name": "totalSupply",
      "outputs": [
        {
          "internalType": "uint256",
          "name": "",
          "type": "uint256"
        }
      ],
      "stateMutability": "view",
      "type": "function"
    },
    {
      "inputs": [
        {
          "internalType": "address",
          "name": "from",
          "type": "address"
        },
        {
          "internalType": "address",
          "name": "to",
          "type": "address"
        },
        {
          "internalType": "uint256",
          "name": "tokenId",
          "type": "uint256"
        }
      ],
      "name": "transferFrom",
      "outputs": [],
      "stateMutability": "nonpayable",
      "type": "function"
    },
    {
      "inputs": [
        {
          "internalType": "address",
          "name": "newOwner",
          "type": "address"
        }
      ],
      "name": "transferOwnership",
      "outputs": [],
      "stateMutability": "nonpayable",
      "type": "function"
    },
    {
      "inputs": [],
      "name": "whitelistMint",
      "outputs": [],
      "stateMutability": "nonpayable",
      "type": "function"
    },
    {
      "inputs": [],
      "name": "withdraw",
      "outputs": [],
      "stateMutability": "nonpayable",
      "type": "function"
    }
  ],
  "bytecode": "0x608060405261029a600d5566354a6ba7a18000600e5534801561002157600080fd5b50336040518060400160405280600381526020017f5a535000000000000000000000000000000000000000000000000000000000008152506040518060400160405280600381526020017f5a53500000000000000000000000000000000000000000000000000000000000815250816000908161009e919061044e565b5080600190816100ae919061044e565b505050600073ffffffffffffffffffffffffffffffffffffffff168173ffffffffffffffffffffffffffffffffffffffff16036101235760006040517f1e4fbdf700000000000000000000000000000000000000000000000000000000815260040161011a9190610561565b60405180910390fd5b6101328161013860201b60201c565b5061057c565b6000600a60009054906101000a900473ffffffffffffffffffffffffffffffffffffffff16905081600a60006101000a81548173ffffffffffffffffffffffffffffffffffffffff021916908373ffffffffffffffffffffffffffffffffffffffff1602179055508173ffffffffffffffffffffffffffffffffffffffff168173ffffffffffffffffffffffffffffffffffffffff167f8be0079c531659141344cd1fd0a4f28419497f9722a3daafe3b4186f6b6457e060405160405180910390a35050565b600081519050919050565b7f4e487b7100000000000000000000000000000000000000000000000000000000600052604160045260246000fd5b7f4e487b7100000000000000000000000000000000000000000000000000000000600052602260045260246000fd5b6000600282049050600182168061027f57607f821691505b60208210810361029257610291610238565b5b50919050565b60008190508160005260206000209050919050565b60006020601f8301049050919050565b600082821b905092915050565b6000600883026102fa7fffffffffffffffffffffffffffffffffffffffffffffffffffffffffffffffff826102bd565b61030486836102bd565b95508019841693508086168417925050509392505050565b6000819050919050565b6000819050919050565b600061034b6103466103418461031c565b610326565b61031c565b9050919050565b6000819050919050565b61036583610330565b61037961037182610352565b8484546102ca565b825550505050565b600090565b61038e610381565b61039981848461035c565b505050565b5b818110156103bd576103b2600082610386565b60018101905061039f565b5050565b601f821115610402576103d381610298565b6103dc846102ad565b810160208510156103eb578190505b6103ff6103f7856102ad565b83018261039e565b50505b505050565b600082821c905092915050565b600061042560001984600802610407565b1980831691505092915050565b600061043e8383610414565b9150826002028217905092915050565b610457826101fe565b67ffffffffffffffff8111156104705761046f610209565b5b61047a8254610267565b6104858282856103c1565b600060209050601f8311600181146104b857600084156104a6578287015190505b6104b08582610432565b865550610518565b601f1984166104c686610298565b60005b828110156104ee578489015182556001820191506020850194506020810190506104c9565b8683101561050b5784890151610507601f891682610414565b8355505b6001600288020188555050505b505050505050565b600073ffffffffffffffffffffffffffffffffffffffff82169050919050565b600061054b82610520565b9050919050565b61055b81610540565b82525050565b60006020820190506105766000830184610552565b92915050565b612eb78061058b6000396000f3fe60806040526004361061019c5760003560e01c80634f6ccce7116100ec57806395d89b411161008a578063c87b56dd11610064578063c87b56dd146105b0578063ce6df2b9146105ed578063e985e9c514610609578063f2fde38b146106465761019c565b806395d89b4114610533578063a22cb4651461055e578063b88d4fde146105875761019c565b8063715018a6116100c6578063715018a6146104af57806375794a3c146104c6578063804f43cd146104f15780638da5cb5b146105085761019c565b80634f6ccce7146103f85780636352211e1461043557806370a08231146104725761019c565b806323b872dd116101595780633123ca97116101335780633123ca97146103525780633ccfd60b1461038f57806342842e0e146103a6578063484b973c146103cf5761019c565b806323b872dd146102c357806329ec16dd146102ec5780632f745c59146103155761019c565b806301ffc9a7146101a157806306fdde03146101de57806307a0c83314610209578063081812fc14610232578063095ea7b31461026f57806318160ddd14610298575b600080fd5b3480156101ad57600080fd5b506101c860048036038101906101c3919061243e565b61066f565b6040516101d59190612486565b60405180910390f35b3480156101ea57600080fd5b506101f36106e9565b6040516102009190612531565b60405180910390f35b34801561021557600080fd5b50610230600480360381019061022b91906125e7565b61077b565b005b34801561023e57600080fd5b5061025960048036038101906102549190612627565b610868565b6040516102669190612663565b60405180910390f35b34801561027b57600080fd5b50610296600480360381019061029191906125e7565b610884565b005b3480156102a457600080fd5b506102ad61089a565b6040516102ba919061268d565b60405180910390f35b3480156102cf57600080fd5b506102ea60048036038101906102e591906126a8565b6108a7565b005b3480156102f857600080fd5b50610313600480360381019061030e9190612727565b6109a9565b005b34801561032157600080fd5b5061033c600480360381019061033791906125e7565b610a0c565b604051610349919061268d565b60405180910390f35b34801561035e57600080fd5b5061037960048036038101906103749190612767565b610ab5565b6040516103869190612486565b60405180910390f35b34801561039b57600080fd5b506103a4610ad5565b005b3480156103b257600080fd5b506103cd60048036038101906103c891906126a8565b610b26565b005b3480156103db57600080fd5b506103f660048036038101906103f191906125e7565b610b46565b005b34801561040457600080fd5b5061041f600480360381019061041a9190612627565b610baf565b60405161042c919061268d565b60405180910390f35b34801561044157600080fd5b5061045c60048036038101906104579190612627565b610c25565b6040516104699190612663565b60405180910390f35b34801561047e57600080fd5b5061049960048036038101906104949190612767565b610c37565b6040516104a6919061268d565b60405180910390f35b3480156104bb57600080fd5b506104c4610cf1565b005b3480156104d257600080fd5b506104db610d05565b6040516104e8919061268d565b60405180910390f35b3480156104fd57600080fd5b50610506610d0b565b005b34801561051457600080fd5b5061051d610d0d565b60405161052a9190612663565b60405180910390f35b34801561053f57600080fd5b50610548610d37565b6040516105559190612531565b60405180910390f35b34801561056a57600080fd5b5061058560048036038101906105809190612727565b610dc9565b005b34801561059357600080fd5b506105ae60048036038101906105a991906128c9565b610ddf565b005b3480156105bc57600080fd5b506105d760048036038101906105d29190612627565b610e04565b6040516105e49190612531565b60405180910390f35b610607600480360381019061060291906125e7565b610e6d565b005b34801561061557600080fd5b50610630600480360381019061062b919061294c565b610f1e565b60405161063d9190612486565b60405180910390f35b34801561065257600080fd5b5061066d60048036038101906106689190612767565b610fb2565b005b60007f780e9d63000000000000000000000000000000000000000000000000000000007bffffffffffffffffffffffffffffffffffffffffffffffffffffffff1916827bffffffffffffffffffffffffffffffffffffffffffffffffffffffff191614806106e257506106e182611038565b5b9050919050565b6060600080546106f8906129bb565b80601f0160208091040260200160405190810160405280929190818152602001828054610724906129bb565b80156107715780601f1061074657610100808354040283529160200191610771565b820191906000526020600020905b81548152906001019060200180831161075457829003601f168201915b5050505050905090565b80600d5481600b5461078d9190612a1b565b106107cd576040517f08c379a00000000000000000000000000000000000000000000000000000000081526004016107c490612a9b565b60405180910390fd5b600c60003373ffffffffffffffffffffffffffffffffffffffff1673ffffffffffffffffffffffffffffffffffffffff16815260200190815260200160002060009054906101000a900460ff16610859576040517f08c379a000000000000000000000000000000000000000000000000000000000815260040161085090612b07565b60405180910390fd5b610863838361111a565b505050565b60006108738261115b565b5061087d826111e3565b9050919050565b6108968282610891611220565b611228565b5050565b6000600880549050905090565b600073ffffffffffffffffffffffffffffffffffffffff168273ffffffffffffffffffffffffffffffffffffffff16036109195760006040517f64a0ae920000000000000000000000000000000000000000000000000000000081526004016109109190612663565b60405180910390fd5b600061092d8383610928611220565b61123a565b90508373ffffffffffffffffffffffffffffffffffffffff168173ffffffffffffffffffffffffffffffffffffffff16146109a3578382826040517f64283d7b00000000000000000000000000000000000000000000000000000000815260040161099a93929190612b27565b60405180910390fd5b50505050565b6109b1611357565b80600c60008473ffffffffffffffffffffffffffffffffffffffff1673ffffffffffffffffffffffffffffffffffffffff16815260200190815260200160002060006101000a81548160ff0219169083151502179055505050565b6000610a1783610c37565b8210610a5c5782826040517fa57d13dc000000000000000000000000000000000000000000000000000000008152600401610a53929190612b5e565b60405180910390fd5b600660008473ffffffffffffffffffffffffffffffffffffffff1673ffffffffffffffffffffffffffffffffffffffff168152602001908152602001600020600083815260200190815260200160002054905092915050565b600c6020528060005260406000206000915054906101000a900460ff1681565b610add611357565b3373ffffffffffffffffffffffffffffffffffffffff166108fc479081150290604051600060405180830381858888f19350505050158015610b23573d6000803e3d6000fd5b50565b610b4183838360405180602001604052806000815250610ddf565b505050565b610b4e611357565b80600d5481600b54610b609190612a1b565b10610ba0576040517f08c379a0000000000000000000000000000000000000000000000000000000008152600401610b9790612a9b565b60405180910390fd5b610baa838361111a565b505050565b6000610bb961089a565b8210610bff576000826040517fa57d13dc000000000000000000000000000000000000000000000000000000008152600401610bf6929190612b5e565b60405180910390fd5b60088281548110610c1357610c12612b87565b5b90600052602060002001549050919050565b6000610c308261115b565b9050919050565b60008073ffffffffffffffffffffffffffffffffffffffff168273ffffffffffffffffffffffffffffffffffffffff1603610caa5760006040517f89c62b64000000000000000000000000000000000000000000000000000000008152600401610ca19190612663565b60405180910390fd5b600360008373ffffffffffffffffffffffffffffffffffffffff1673ffffffffffffffffffffffffffffffffffffffff168152602001908152602001600020549050919050565b610cf9611357565b610d0360006113de565b565b600b5481565b565b6000600a60009054906101000a900473ffffffffffffffffffffffffffffffffffffffff16905090565b606060018054610d46906129bb565b80601f0160208091040260200160405190810160405280929190818152602001828054610d72906129bb565b8015610dbf5780601f10610d9457610100808354040283529160200191610dbf565b820191906000526020600020905b815481529060010190602001808311610da257829003601f168201915b5050505050905090565b610ddb610dd4611220565b83836114a4565b5050565b610dea8484846108a7565b610dfe610df5611220565b85858585611613565b50505050565b6060610e0f8261115b565b506000610e1a6117c4565b90506000815111610e3a5760405180602001604052806000815250610e65565b80610e44846117db565b604051602001610e55929190612bf2565b6040516020818303038152906040525b915050919050565b80600d5481600b54610e7f9190612a1b565b10610ebf576040517f08c379a0000000000000000000000000000000000000000000000000000000008152600401610eb690612a9b565b60405180910390fd5b600e548234610ece9190612c16565b1015610f0f576040517f08c379a0000000000000000000000000000000000000000000000000000000008152600401610f0690612ca4565b60405180910390fd5b610f19338361111a565b505050565b6000600560008473ffffffffffffffffffffffffffffffffffffffff1673ffffffffffffffffffffffffffffffffffffffff16815260200190815260200160002060008373ffffffffffffffffffffffffffffffffffffffff1673ffffffffffffffffffffffffffffffffffffffff16815260200190815260200160002060009054906101000a900460ff16905092915050565b610fba611357565b600073ffffffffffffffffffffffffffffffffffffffff168173ffffffffffffffffffffffffffffffffffffffff160361102c5760006040517f1e4fbdf70000000000000000000000000000000000000000000000000000000081526004016110239190612663565b60405180910390fd5b611035816113de565b50565b60007f80ac58cd000000000000000000000000000000000000000000000000000000007bffffffffffffffffffffffffffffffffffffffffffffffffffffffff1916827bffffffffffffffffffffffffffffffffffffffffffffffffffffffff1916148061110357507f5b5e139f000000000000000000000000000000000000000000000000000000007bffffffffffffffffffffffffffffffffffffffffffffffffffffffff1916827bffffffffffffffffffffffffffffffffffffffffffffffffffffffff1916145b806111135750611112826118a9565b5b9050919050565b60005b818110156111565761113183600b54611913565b600b600081548092919061114490612cc4565b9190505550808060010191505061111d565b505050565b60008061116783611931565b9050600073ffffffffffffffffffffffffffffffffffffffff168173ffffffffffffffffffffffffffffffffffffffff16036111da57826040517f7e2732890000000000000000000000000000000000000000000000000000000081526004016111d1919061268d565b60405180910390fd5b80915050919050565b60006004600083815260200190815260200160002060009054906101000a900473ffffffffffffffffffffffffffffffffffffffff169050919050565b600033905090565b611235838383600161196e565b505050565b600080611248858585611b33565b9050600073ffffffffffffffffffffffffffffffffffffffff168173ffffffffffffffffffffffffffffffffffffffff160361128c5761128784611d4d565b6112cb565b8473ffffffffffffffffffffffffffffffffffffffff168173ffffffffffffffffffffffffffffffffffffffff16146112ca576112c98185611d96565b5b5b600073ffffffffffffffffffffffffffffffffffffffff168573ffffffffffffffffffffffffffffffffffffffff160361130d5761130884611e81565b61134c565b8473ffffffffffffffffffffffffffffffffffffffff168173ffffffffffffffffffffffffffffffffffffffff161461134b5761134a8585611f52565b5b5b809150509392505050565b61135f611220565b73ffffffffffffffffffffffffffffffffffffffff1661137d610d0d565b73ffffffffffffffffffffffffffffffffffffffff16146113dc576113a0611220565b6040517f118cdaa70000000000000000000000000000000000000000000000000000000081526004016113d39190612663565b60405180910390fd5b565b6000600a60009054906101000a900473ffffffffffffffffffffffffffffffffffffffff16905081600a60006101000a81548173ffffffffffffffffffffffffffffffffffffffff021916908373ffffffffffffffffffffffffffffffffffffffff1602179055508173ffffffffffffffffffffffffffffffffffffffff168173ffffffffffffffffffffffffffffffffffffffff167f8be0079c531659141344cd1fd0a4f28419497f9722a3daafe3b4186f6b6457e060405160405180910390a35050565b600073ffffffffffffffffffffffffffffffffffffffff168273ffffffffffffffffffffffffffffffffffffffff160361151557816040517f5b08ba1800000000000000000000000000000000000000000000000000000000815260040161150c9190612663565b60405180910390fd5b80600560008573ffffffffffffffffffffffffffffffffffffffff1673ffffffffffffffffffffffffffffffffffffffff16815260200190815260200160002060008473ffffffffffffffffffffffffffffffffffffffff1673ffffffffffffffffffffffffffffffffffffffff16815260200190815260200160002060006101000a81548160ff0219169083151502179055508173ffffffffffffffffffffffffffffffffffffffff168373ffffffffffffffffffffffffffffffffffffffff167f17307eab39ab6107e8899845ad3d59bd9653f200f220920489ca2b5937696c31836040516116069190612486565b60405180910390a3505050565b60008373ffffffffffffffffffffffffffffffffffffffff163b11156117bd578273ffffffffffffffffffffffffffffffffffffffff1663150b7a02868685856040518563ffffffff1660e01b81526004016116729493929190612d61565b6020604051808303816000875af19250505080156116ae57506040513d601f19601f820116820180604052508101906116ab9190612dc2565b60015b611732573d80600081146116de576040519150601f19603f3d011682016040523d82523d6000602084013e6116e3565b606091505b50600081510361172a57836040517f64a0ae920000000000000000000000000000000000000000000000000000000081526004016117219190612663565b60405180910390fd5b805181602001fd5b63150b7a0260e01b7bffffffffffffffffffffffffffffffffffffffffffffffffffffffff1916817bffffffffffffffffffffffffffffffffffffffffffffffffffffffff1916146117bb57836040517f64a0ae920000000000000000000000000000000000000000000000000000000081526004016117b29190612663565b60405180910390fd5b505b5050505050565b606060405180602001604052806000815250905090565b6060600060016117ea84611fdd565b01905060008167ffffffffffffffff8111156118095761180861279e565b5b6040519080825280601f01601f19166020018201604052801561183b5781602001600182028036833780820191505090505b509050600082602001820190505b60011561189e578080600190039150507f3031323334353637383961626364656600000000000000000000000000000000600a86061a8153600a858161189257611891612def565b5b04945060008503611849575b819350505050919050565b60007f01ffc9a7000000000000000000000000000000000000000000000000000000007bffffffffffffffffffffffffffffffffffffffffffffffffffffffff1916827bffffffffffffffffffffffffffffffffffffffffffffffffffffffff1916149050919050565b61192d828260405180602001604052806000815250612130565b5050565b60006002600083815260200190815260200160002060009054906101000a900473ffffffffffffffffffffffffffffffffffffffff169050919050565b80806119a75750600073ffffffffffffffffffffffffffffffffffffffff168273ffffffffffffffffffffffffffffffffffffffff1614155b15611adb5760006119b78461115b565b9050600073ffffffffffffffffffffffffffffffffffffffff168373ffffffffffffffffffffffffffffffffffffffff1614158015611a2257508273ffffffffffffffffffffffffffffffffffffffff168173ffffffffffffffffffffffffffffffffffffffff1614155b8015611a355750611a338184610f1e565b155b15611a7757826040517fa9fbf51f000000000000000000000000000000000000000000000000000000008152600401611a6e9190612663565b60405180910390fd5b8115611ad957838573ffffffffffffffffffffffffffffffffffffffff168273ffffffffffffffffffffffffffffffffffffffff167f8c5be1e5ebec7d5bd14f71427d1e84f3dd0314c0f7b2291e5b200ac8c7c3b92560405160405180910390a45b505b836004600085815260200190815260200160002060006101000a81548173ffffffffffffffffffffffffffffffffffffffff021916908373ffffffffffffffffffffffffffffffffffffffff16021790555050505050565b600080611b3f84611931565b9050600073ffffffffffffffffffffffffffffffffffffffff168373ffffffffffffffffffffffffffffffffffffffff1614611b8157611b80818486612154565b5b600073ffffffffffffffffffffffffffffffffffffffff168173ffffffffffffffffffffffffffffffffffffffff1614611c1257611bc360008560008061196e565b6001600360008373ffffffffffffffffffffffffffffffffffffffff1673ffffffffffffffffffffffffffffffffffffffff168152602001908152602001600020600082825403925050819055505b600073ffffffffffffffffffffffffffffffffffffffff168573ffffffffffffffffffffffffffffffffffffffff1614611c95576001600360008773ffffffffffffffffffffffffffffffffffffffff1673ffffffffffffffffffffffffffffffffffffffff168152602001908152602001600020600082825401925050819055505b846002600086815260200190815260200160002060006101000a81548173ffffffffffffffffffffffffffffffffffffffff021916908373ffffffffffffffffffffffffffffffffffffffff160217905550838573ffffffffffffffffffffffffffffffffffffffff168273ffffffffffffffffffffffffffffffffffffffff167fddf252ad1be2c89b69c2b068fc378daa952ba7f163c4a11628f55a4df523b3ef60405160405180910390a4809150509392505050565b6008805490506009600083815260200190815260200160002081905550600881908060018154018082558091505060019003906000526020600020016000909190919091505550565b6000611da183610c37565b90506000600760008481526020019081526020016000205490506000600660008673ffffffffffffffffffffffffffffffffffffffff1673ffffffffffffffffffffffffffffffffffffffff1681526020019081526020016000209050828214611e4d5760008160008581526020019081526020016000205490508082600085815260200190815260200160002081905550826007600083815260200190815260200160002081905550505b6007600085815260200190815260200160002060009055806000848152602001908152602001600020600090555050505050565b60006001600880549050611e959190612e1e565b9050600060096000848152602001908152602001600020549050600060088381548110611ec557611ec4612b87565b5b906000526020600020015490508060088381548110611ee757611ee6612b87565b5b906000526020600020018190555081600960008381526020019081526020016000208190555060096000858152602001908152602001600020600090556008805480611f3657611f35612e52565b5b6001900381819060005260206000200160009055905550505050565b60006001611f5f84610c37565b611f699190612e1e565b905081600660008573ffffffffffffffffffffffffffffffffffffffff1673ffffffffffffffffffffffffffffffffffffffff168152602001908152602001600020600083815260200190815260200160002081905550806007600084815260200190815260200160002081905550505050565b600080600090507a184f03e93ff9f4daa797ed6e38ed64bf6a1f010000000000000000831061203b577a184f03e93ff9f4daa797ed6e38ed64bf6a1f010000000000000000838161203157612030612def565b5b0492506040810190505b6d04ee2d6d415b85acef81000000008310612078576d04ee2d6d415b85acef8100000000838161206e5761206d612def565b5b0492506020810190505b662386f26fc1000083106120a757662386f26fc10000838161209d5761209c612def565b5b0492506010810190505b6305f5e10083106120d0576305f5e10083816120c6576120c5612def565b5b0492506008810190505b61271083106120f55761271083816120eb576120ea612def565b5b0492506004810190505b60648310612118576064838161210e5761210d612def565b5b0492506002810190505b600a8310612127576001810190505b80915050919050565b61213a8383612218565b61214f612145611220565b6000858585611613565b505050565b61215f838383612311565b61221357600073ffffffffffffffffffffffffffffffffffffffff168373ffffffffffffffffffffffffffffffffffffffff16036121d457806040517f7e2732890000000000000000000000000000000000000000000000000000000081526004016121cb919061268d565b60405180910390fd5b81816040517f177e802f00000000000000000000000000000000000000000000000000000000815260040161220a929190612b5e565b60405180910390fd5b505050565b600073ffffffffffffffffffffffffffffffffffffffff168273ffffffffffffffffffffffffffffffffffffffff160361228a5760006040517f64a0ae920000000000000000000000000000000000000000000000000000000081526004016122819190612663565b60405180910390fd5b60006122988383600061123a565b9050600073ffffffffffffffffffffffffffffffffffffffff168173ffffffffffffffffffffffffffffffffffffffff161461230c5760006040517f73c6ac6e0000000000000000000000000000000000000000000000000000000081526004016123039190612663565b60405180910390fd5b505050565b60008073ffffffffffffffffffffffffffffffffffffffff168373ffffffffffffffffffffffffffffffffffffffff16141580156123c957508273ffffffffffffffffffffffffffffffffffffffff168473ffffffffffffffffffffffffffffffffffffffff16148061238a57506123898484610f1e565b5b806123c857508273ffffffffffffffffffffffffffffffffffffffff166123b0836111e3565b73ffffffffffffffffffffffffffffffffffffffff16145b5b90509392505050565b6000604051905090565b600080fd5b600080fd5b60007fffffffff0000000000000000000000000000000000000000000000000000000082169050919050565b61241b816123e6565b811461242657600080fd5b50565b60008135905061243881612412565b92915050565b600060208284031215612454576124536123dc565b5b600061246284828501612429565b91505092915050565b60008115159050919050565b6124808161246b565b82525050565b600060208201905061249b6000830184612477565b92915050565b600081519050919050565b600082825260208201905092915050565b60005b838110156124db5780820151818401526020810190506124c0565b60008484015250505050565b6000601f19601f8301169050919050565b6000612503826124a1565b61250d81856124ac565b935061251d8185602086016124bd565b612526816124e7565b840191505092915050565b6000602082019050818103600083015261254b81846124f8565b905092915050565b600073ffffffffffffffffffffffffffffffffffffffff82169050919050565b600061257e82612553565b9050919050565b61258e81612573565b811461259957600080fd5b50565b6000813590506125ab81612585565b92915050565b6000819050919050565b6125c4816125b1565b81146125cf57600080fd5b50565b6000813590506125e1816125bb565b92915050565b600080604083850312156125fe576125fd6123dc565b5b600061260c8582860161259c565b925050602061261d858286016125d2565b9150509250929050565b60006020828403121561263d5761263c6123dc565b5b600061264b848285016125d2565b91505092915050565b61265d81612573565b82525050565b60006020820190506126786000830184612654565b92915050565b612687816125b1565b82525050565b60006020820190506126a2600083018461267e565b92915050565b6000806000606084860312156126c1576126c06123dc565b5b60006126cf8682870161259c565b93505060206126e08682870161259c565b92505060406126f1868287016125d2565b9150509250925092565b6127048161246b565b811461270f57600080fd5b50565b600081359050612721816126fb565b92915050565b6000806040838503121561273e5761273d6123dc565b5b600061274c8582860161259c565b925050602061275d85828601612712565b9150509250929050565b60006020828403121561277d5761277c6123dc565b5b600061278b8482850161259c565b91505092915050565b600080fd5b600080fd5b7f4e487b7100000000000000000000000000000000000000000000000000000000600052604160045260246000fd5b6127d6826124e7565b810181811067ffffffffffffffff821117156127f5576127f461279e565b5b80604052505050565b60006128086123d2565b905061281482826127cd565b919050565b600067ffffffffffffffff8211156128345761283361279e565b5b61283d826124e7565b9050602081019050919050565b82818337600083830152505050565b600061286c61286784612819565b6127fe565b90508281526020810184848401111561288857612887612799565b5b61289384828561284a565b509392505050565b600082601f8301126128b0576128af612794565b5b81356128c0848260208601612859565b91505092915050565b600080600080608085870312156128e3576128e26123dc565b5b60006128f18782880161259c565b94505060206129028782880161259c565b9350506040612913878288016125d2565b925050606085013567ffffffffffffffff811115612934576129336123e1565b5b6129408782880161289b565b91505092959194509250565b60008060408385031215612963576129626123dc565b5b60006129718582860161259c565b92505060206129828582860161259c565b9150509250929050565b7f4e487b7100000000000000000000000000000000000000000000000000000000600052602260045260246000fd5b600060028204905060018216806129d357607f821691505b6020821081036129e6576129e561298c565b5b50919050565b7f4e487b7100000000000000000000000000000000000000000000000000000000600052601160045260246000fd5b6000612a26826125b1565b9150612a31836125b1565b9250828201905080821115612a4957612a486129ec565b5b92915050565b7f4f7574206f662053746f636b0000000000000000000000000000000000000000600082015250565b6000612a85600c836124ac565b9150612a9082612a4f565b602082019050919050565b60006020820190508181036000830152612ab481612a78565b9050919050565b7f4e6f7420616e20617070726f766564206d696e74657200000000000000000000600082015250565b6000612af16016836124ac565b9150612afc82612abb565b602082019050919050565b60006020820190508181036000830152612b2081612ae4565b9050919050565b6000606082019050612b3c6000830186612654565b612b49602083018561267e565b612b566040830184612654565b949350505050565b6000604082019050612b736000830185612654565b612b80602083018461267e565b9392505050565b7f4e487b7100000000000000000000000000000000000000000000000000000000600052603260045260246000fd5b600081905092915050565b6000612bcc826124a1565b612bd68185612bb6565b9350612be68185602086016124bd565b80840191505092915050565b6000612bfe8285612bc1565b9150612c0a8284612bc1565b91508190509392505050565b6000612c21826125b1565b9150612c2c836125b1565b9250828202612c3a816125b1565b91508282048414831517612c5157612c506129ec565b5b5092915050565b7f496e73756666696369656e742046756e64000000000000000000000000000000600082015250565b6000612c8e6011836124ac565b9150612c9982612c58565b602082019050919050565b60006020820190508181036000830152612cbd81612c81565b9050919050565b6000612ccf826125b1565b91507fffffffffffffffffffffffffffffffffffffffffffffffffffffffffffffffff8203612d0157612d006129ec565b5b600182019050919050565b600081519050919050565b600082825260208201905092915050565b6000612d3382612d0c565b612d3d8185612d17565b9350612d4d8185602086016124bd565b612d56816124e7565b840191505092915050565b6000608082019050612d766000830187612654565b612d836020830186612654565b612d90604083018561267e565b8181036060830152612da28184612d28565b905095945050505050565b600081519050612dbc81612412565b92915050565b600060208284031215612dd857612dd76123dc565b5b6000612de684828501612dad565b91505092915050565b7f4e487b7100000000000000000000000000000000000000000000000000000000600052601260045260246000fd5b6000612e29826125b1565b9150612e34836125b1565b9250828203905081811115612e4c57612e4b6129ec565b5b92915050565b7f4e487b7100000000000000000000000000000000000000000000000000000000600052603160045260246000fdfea2646970667358221220cd644510c238bafc3b1407d33879d0e342533615b35e55c9a269fcec87ec5adf64736f6c634300081b0033",
  "linkReferences": {},
  "deployedLinkReferences": {}
}