{
  "_format": "hh-sol-artifact-1",
  "contractName": "Game",
  "sourceName": "contracts/Game.sol",
  "abi": [
    {
      "inputs": [],
      "stateMutability": "nonpayable",
      "type": "constructor"
    },
    {
      "inputs": [
        {
          "internalType": "address",
          "name": "owner",
          "type": "address"
        }
      ],
      "name": "OwnableInvalidOwner",
      "type": "error"
    },
    {
      "inputs": [
        {
          "internalType": "address",
          "name": "account",
          "type": "address"
        }
      ],
      "name": "OwnableUnauthorizedAccount",
      "type": "error"
    },
    {
      "anonymous": false,
      "inputs": [
        {
          "indexed": true,
          "internalType": "address",
          "name": "nftContract",
          "type": "address"
        },
        {
          "indexed": false,
          "internalType": "bool",
          "name": "isAllowed",
          "type": "bool"
        }
      ],
      "name": "AllowedNFTContract",
      "type": "event"
    },
    {
      "anonymous": false,
      "inputs": [
        {
          "indexed": false,
          "internalType": "int256",
          "name": "dotdelta",
          "type": "int256"
        },
        {
          "indexed": true,
          "internalType": "uint256",
          "name": "playerid",
          "type": "uint256"
        }
      ],
      "name": "DotChanged",
      "type": "event"
    },
    {
      "anonymous": false,
      "inputs": [
        {
          "indexed": false,
          "internalType": "uint256",
          "name": "dot",
          "type": "uint256"
        },
        {
          "indexed": false,
          "internalType": "uint256",
          "name": "level",
          "type": "uint256"
        }
      ],
      "name": "DotLocked",
      "type": "event"
    },
    {
      "anonymous": false,
      "inputs": [
        {
          "indexed": false,
          "internalType": "uint256",
          "name": "ending",
          "type": "uint256"
        }
      ],
      "name": "GameEnded",
      "type": "event"
    },
    {
      "anonymous": false,
      "inputs": [
        {
          "indexed": true,
          "internalType": "address",
          "name": "nftContract",
          "type": "address"
        },
        {
          "indexed": true,
          "internalType": "uint256",
          "name": "tokenId",
          "type": "uint256"
        },
        {
          "indexed": true,
          "internalType": "address",
          "name": "owner",
          "type": "address"
        },
        {
          "indexed": false,
          "internalType": "uint256",
          "name": "playerid",
          "type": "uint256"
        }
      ],
      "name": "NFTRegistered",
      "type": "event"
    },
    {
      "anonymous": false,
      "inputs": [
        {
          "indexed": true,
          "internalType": "address",
          "name": "previousOwner",
          "type": "address"
        },
        {
          "indexed": true,
          "internalType": "address",
          "name": "newOwner",
          "type": "address"
        }
      ],
      "name": "OwnershipTransferred",
      "type": "event"
    },
    {
      "anonymous": false,
      "inputs": [
        {
          "indexed": false,
          "internalType": "uint256",
          "name": "attackerplayerid",
          "type": "uint256"
        },
        {
          "indexed": false,
          "internalType": "uint256",
          "name": "victimplayerid",
          "type": "uint256"
        },
        {
          "indexed": false,
          "internalType": "uint256",
          "name": "dotdelta",
          "type": "uint256"
        }
      ],
      "name": "PlayerAttacked",
      "type": "event"
    },
    {
      "anonymous": false,
      "inputs": [
        {
          "indexed": false,
          "internalType": "uint256",
          "name": "maze",
          "type": "uint256"
        },
        {
          "indexed": false,
          "internalType": "uint256",
          "name": "x",
          "type": "uint256"
        },
        {
          "indexed": false,
          "internalType": "uint256",
          "name": "y",
          "type": "uint256"
        },
        {
          "indexed": false,
          "internalType": "uint256",
          "name": "playerid",
          "type": "uint256"
        }
      ],
      "name": "PlayerMoved",
      "type": "event"
    },
    {
      "anonymous": false,
      "inputs": [
        {
          "indexed": false,
          "internalType": "uint256",
          "name": "attackerplayerid",
          "type": "uint256"
        },
        {
          "indexed": false,
          "internalType": "uint256",
          "name": "victimplayerid",
          "type": "uint256"
        }
      ],
      "name": "PlayerRobbed",
      "type": "event"
    },
    {
      "anonymous": false,
      "inputs": [
        {
          "indexed": false,
          "internalType": "enum PlayerStatus",
          "name": "status",
          "type": "uint8"
        },
        {
          "indexed": false,
          "internalType": "uint256",
          "name": "playerid",
          "type": "uint256"
        }
      ],
      "name": "PlayerStatusChanged",
      "type": "event"
    },
    {
      "inputs": [
        {
          "internalType": "uint256",
          "name": "",
          "type": "uint256"
        }
      ],
      "name": "DAILY_MOVES_FOR_LEVELS",
      "outputs": [
        {
          "internalType": "uint256",
          "name": "",
          "type": "uint256"
        }
      ],
      "stateMutability": "view",
      "type": "function"
    },
    {
      "inputs": [
        {
          "internalType": "uint256",
          "name": "",
          "type": "uint256"
        }
      ],
      "name": "DOTS_REQUIRED_FOR_LEVELS",
      "outputs": [
        {
          "internalType": "uint256",
          "name": "",
          "type": "uint256"
        }
      ],
      "stateMutability": "view",
      "type": "function"
    },
    {
      "inputs": [],
      "name": "GAME_ENDED",
      "outputs": [
        {
          "internalType": "enum Ending",
          "name": "",
          "type": "uint8"
        }
      ],
      "stateMutability": "view",
      "type": "function"
    },
    {
      "inputs": [
        {
          "internalType": "uint256",
          "name": "playerid",
          "type": "uint256"
        },
        {
          "internalType": "uint256",
          "name": "shieldsecond",
          "type": "uint256"
        }
      ],
      "name": "_addShieldTime",
      "outputs": [],
      "stateMutability": "nonpayable",
      "type": "function"
    },
    {
      "inputs": [
        {
          "internalType": "address",
          "name": "",
          "type": "address"
        }
      ],
      "name": "allowedNFTContracts",
      "outputs": [
        {
          "internalType": "bool",
          "name": "",
          "type": "bool"
        }
      ],
      "stateMutability": "view",
      "type": "function"
    },
    {
      "inputs": [
        {
          "internalType": "address",
          "name": "",
          "type": "address"
        }
      ],
      "name": "allowedOperators",
      "outputs": [
        {
          "internalType": "bool",
          "name": "",
          "type": "bool"
        }
      ],
      "stateMutability": "view",
      "type": "function"
    },
    {
      "inputs": [
        {
          "internalType": "uint256",
          "name": "playerid",
          "type": "uint256"
        },
        {
          "internalType": "uint256",
          "name": "shieldhours",
          "type": "uint256"
        }
      ],
      "name": "buyShield",
      "outputs": [],
      "stateMutability": "payable",
      "type": "function"
    },
    {
      "inputs": [
        {
          "internalType": "address",
          "name": "nftContract",
          "type": "address"
        },
        {
          "internalType": "uint256",
          "name": "tokenId",
          "type": "uint256"
        }
      ],
      "name": "checkPlayerId",
      "outputs": [
        {
          "internalType": "uint256",
          "name": "",
          "type": "uint256"
        }
      ],
      "stateMutability": "view",
      "type": "function"
    },
    {
      "inputs": [],
      "name": "endingThreshold",
      "outputs": [
        {
          "internalType": "uint256",
          "name": "",
          "type": "uint256"
        }
      ],
      "stateMutability": "view",
      "type": "function"
    },
    {
      "inputs": [
        {
          "internalType": "address",
          "name": "nftContract",
          "type": "address"
        },
        {
          "internalType": "uint256",
          "name": "tokenId",
          "type": "uint256"
        },
        {
          "internalType": "uint8",
          "name": "maze",
          "type": "uint8"
        },
        {
          "internalType": "uint8",
          "name": "x",
          "type": "uint8"
        },
        {
          "internalType": "uint8",
          "name": "y",
          "type": "uint8"
        }
      ],
      "name": "enterGame",
      "outputs": [],
      "stateMutability": "nonpayable",
      "type": "function"
    },
    {
      "inputs": [
        {
          "internalType": "uint256",
          "name": "playerid",
          "type": "uint256"
        },
        {
          "internalType": "uint256",
          "name": "destination_playerid",
          "type": "uint256"
        }
      ],
      "name": "forfeit",
      "outputs": [],
      "stateMutability": "nonpayable",
      "type": "function"
    },
    {
      "inputs": [
        {
          "internalType": "enum Game.ConfigKey",
          "name": "key",
          "type": "uint8"
        }
      ],
      "name": "getConfigUint",
      "outputs": [
        {
          "internalType": "uint256",
          "name": "",
          "type": "uint256"
        }
      ],
      "stateMutability": "view",
      "type": "function"
    },
    {
      "inputs": [],
      "name": "level3DotsLocked",
      "outputs": [
        {
          "internalType": "uint256",
          "name": "",
          "type": "uint256"
        }
      ],
      "stateMutability": "view",
      "type": "function"
    },
    {
      "inputs": [],
      "name": "level4DotsLocked",
      "outputs": [
        {
          "internalType": "uint256",
          "name": "",
          "type": "uint256"
        }
      ],
      "stateMutability": "view",
      "type": "function"
    },
    {
      "inputs": [
        {
          "internalType": "uint256",
          "name": "playerid",
          "type": "uint256"
        }
      ],
      "name": "lockIn",
      "outputs": [],
      "stateMutability": "nonpayable",
      "type": "function"
    },
    {
      "inputs": [],
      "name": "mazeContract",
      "outputs": [
        {
          "internalType": "contract Maze",
          "name": "",
          "type": "address"
        }
      ],
      "stateMutability": "view",
      "type": "function"
    },
    {
      "inputs": [
        {
          "internalType": "uint256",
          "name": "playerid",
          "type": "uint256"
        },
        {
          "internalType": "uint8",
          "name": "maze",
          "type": "uint8"
        },
        {
          "internalType": "uint8",
          "name": "x",
          "type": "uint8"
        },
        {
          "internalType": "uint8",
          "name": "y",
          "type": "uint8"
        }
      ],
      "name": "movePlayerTo",
      "outputs": [],
      "stateMutability": "payable",
      "type": "function"
    },
    {
      "inputs": [],
      "name": "next_player_id",
      "outputs": [
        {
          "internalType": "uint256",
          "name": "",
          "type": "uint256"
        }
      ],
      "stateMutability": "view",
      "type": "function"
    },
    {
      "inputs": [
        {
          "internalType": "address",
          "name": "",
          "type": "address"
        },
        {
          "internalType": "uint256",
          "name": "",
          "type": "uint256"
        }
      ],
      "name": "nft_to_playerid",
      "outputs": [
        {
          "internalType": "uint256",
          "name": "",
          "type": "uint256"
        }
      ],
      "stateMutability": "view",
      "type": "function"
    },
    {
      "inputs": [],
      "name": "owner",
      "outputs": [
        {
          "internalType": "address",
          "name": "",
          "type": "address"
        }
      ],
      "stateMutability": "view",
      "type": "function"
    },
    {
      "inputs": [
        {
          "internalType": "uint256",
          "name": "",
          "type": "uint256"
        }
      ],
      "name": "players",
      "outputs": [
        {
          "components": [
            {
              "internalType": "uint8",
              "name": "x",
              "type": "uint8"
            },
            {
              "internalType": "uint8",
              "name": "y",
              "type": "uint8"
            },
            {
              "internalType": "uint8",
              "name": "maze",
              "type": "uint8"
            }
          ],
          "internalType": "struct PlayerPosition",
          "name": "playerposition",
          "type": "tuple"
        },
        {
          "internalType": "uint256",
          "name": "dots",
          "type": "uint256"
        },
        {
          "internalType": "uint256",
          "name": "level",
          "type": "uint256"
        },
        {
          "internalType": "uint256",
          "name": "nextMoveTime",
          "type": "uint256"
        },
        {
          "internalType": "uint256",
          "name": "nextSwitchMazeTime",
          "type": "uint256"
        },
        {
          "internalType": "uint256",
          "name": "shieldExpireTime",
          "type": "uint256"
        },
        {
          "internalType": "uint256",
          "name": "protectionExpireTime",
          "type": "uint256"
        },
        {
          "internalType": "address",
          "name": "nftContract",
          "type": "address"
        },
        {
          "internalType": "uint256",
          "name": "tokenId",
          "type": "uint256"
        },
        {
          "components": [
            {
              "internalType": "uint256",
              "name": "day",
              "type": "uint256"
            },
            {
              "internalType": "uint256",
              "name": "move",
              "type": "uint256"
            }
          ],
          "internalType": "struct DailyMove",
          "name": "moveInfo",
          "type": "tuple"
        },
        {
          "internalType": "enum PlayerStatus",
          "name": "status",
          "type": "uint8"
        }
      ],
      "stateMutability": "view",
      "type": "function"
    },
    {
      "inputs": [],
      "name": "renounceOwnership",
      "outputs": [],
      "stateMutability": "nonpayable",
      "type": "function"
    },
    {
      "inputs": [],
      "name": "rewardContract",
      "outputs": [
        {
          "internalType": "contract Reward",
          "name": "",
          "type": "address"
        }
      ],
      "stateMutability": "view",
      "type": "function"
    },
    {
      "inputs": [
        {
          "internalType": "uint256",
          "name": "attacker_playerid",
          "type": "uint256"
        },
        {
          "internalType": "uint256",
          "name": "victim_playerid",
          "type": "uint256"
        }
      ],
      "name": "rob",
      "outputs": [],
      "stateMutability": "nonpayable",
      "type": "function"
    },
    {
      "inputs": [
        {
          "internalType": "address",
          "name": "nftContract",
          "type": "address"
        },
        {
          "internalType": "bool",
          "name": "isAllowed",
          "type": "bool"
        }
      ],
      "name": "setAllowedNFTContract",
      "outputs": [],
      "stateMutability": "nonpayable",
      "type": "function"
    },
    {
      "inputs": [
        {
          "internalType": "enum Game.ConfigKey",
          "name": "key",
          "type": "uint8"
        },
        {
          "internalType": "uint256",
          "name": "value",
          "type": "uint256"
        }
      ],
      "name": "setConfigUint",
      "outputs": [],
      "stateMutability": "nonpayable",
      "type": "function"
    },
    {
      "inputs": [
        {
          "internalType": "uint256",
          "name": "level",
          "type": "uint256"
        },
        {
          "internalType": "uint256",
          "name": "value",
          "type": "uint256"
        }
      ],
      "name": "setDailyMovesForLevel",
      "outputs": [],
      "stateMutability": "nonpayable",
      "type": "function"
    },
    {
      "inputs": [
        {
          "internalType": "uint256",
          "name": "level",
          "type": "uint256"
        },
        {
          "internalType": "uint256",
          "name": "value",
          "type": "uint256"
        }
      ],
      "name": "setDotsRequiredForLevel",
      "outputs": [],
      "stateMutability": "nonpayable",
      "type": "function"
    },
    {
      "inputs": [
        {
          "internalType": "address",
          "name": "_contract",
          "type": "address"
        }
      ],
      "name": "setMazeContract",
      "outputs": [],
      "stateMutability": "nonpayable",
      "type": "function"
    },
    {
      "inputs": [
        {
          "internalType": "address",
          "name": "_operator",
          "type": "address"
        },
        {
          "internalType": "bool",
          "name": "allowed",
          "type": "bool"
        }
      ],
      "name": "setOperator",
      "outputs": [],
      "stateMutability": "nonpayable",
      "type": "function"
    },
    {
      "inputs": [
        {
          "internalType": "address",
          "name": "_contract",
          "type": "address"
        }
      ],
      "name": "setRewardContract",
      "outputs": [],
      "stateMutability": "nonpayable",
      "type": "function"
    },
    {
      "inputs": [
        {
          "internalType": "address",
          "name": "newOwner",
          "type": "address"
        }
      ],
      "name": "transferOwnership",
      "outputs": [],
      "stateMutability": "nonpayable",
      "type": "function"
    },
    {
      "inputs": [],
      "name": "withdraw",
      "outputs": [],
      "stateMutability": "nonpayable",
      "type": "function"
    }
  ],
  "bytecode": "0x60806040526001600655611389600a556000600b60006101000a81548160ff02191690836003811115610035576100346105c1565b5b02179055506040518060c00160405280600061ffff168152602001600061ffff168152602001602861ffff16815260200160c861ffff1681526020016101f461ffff16815260200161138961ffff16815250600d9060066100979291906104ff565b506040518060c00160405280600060ff168152602001600a60ff168152602001600f60ff168152602001601460ff168152602001601960ff168152602001601e60ff16815250600e9060066100ed929190610552565b503480156100fa57600080fd5b5033600073ffffffffffffffffffffffffffffffffffffffff168173ffffffffffffffffffffffffffffffffffffffff160361016e5760006040517f1e4fbdf70000000000000000000000000000000000000000000000000000000081526004016101659190610631565b60405180910390fd5b61017d8161043b60201b60201c565b50603c600c600080600a811115610197576101966105c1565b5b600a8111156101a9576101a86105c1565b5b815260200190815260200160002081905550600a600c60006001600a8111156101d5576101d46105c1565b5b600a8111156101e7576101e66105c1565b5b81526020019081526020016000208190555061a8c0600c60006002600a811115610214576102136105c1565b5b600a811115610226576102256105c1565b5b81526020019081526020016000208190555062015180600c60006003600a811115610254576102536105c1565b5b600a811115610266576102656105c1565b5b81526020019081526020016000208190555062093a80600c60006004600a811115610294576102936105c1565b5b600a8111156102a6576102a56105c1565b5b81526020019081526020016000208190555066038d7ea4c68000600c60006005600a8111156102d8576102d76105c1565b5b600a8111156102ea576102e96105c1565b5b815260200190815260200160002081905550652d79883d2000600c60006006600a81111561031b5761031a6105c1565b5b600a81111561032d5761032c6105c1565b5b8152602001908152602001600020819055506003600c60006007600a811115610359576103586105c1565b5b600a81111561036b5761036a6105c1565b5b8152602001908152602001600020819055506003600c60006008600a811115610397576103966105c1565b5b600a8111156103a9576103a86105c1565b5b815260200190815260200160002081905550600a600c60006009600a8111156103d5576103d46105c1565b5b600a8111156103e7576103e66105c1565b5b815260200190815260200160002081905550600a600c6000600a80811115610412576104116105c1565b5b600a811115610424576104236105c1565b5b81526020019081526020016000208190555061064c565b60008060009054906101000a900473ffffffffffffffffffffffffffffffffffffffff169050816000806101000a81548173ffffffffffffffffffffffffffffffffffffffff021916908373ffffffffffffffffffffffffffffffffffffffff1602179055508173ffffffffffffffffffffffffffffffffffffffff168173ffffffffffffffffffffffffffffffffffffffff167f8be0079c531659141344cd1fd0a4f28419497f9722a3daafe3b4186f6b6457e060405160405180910390a35050565b828054828255906000526020600020908101928215610541579160200282015b82811115610540578251829061ffff1690559160200191906001019061051f565b5b50905061054e91906105a4565b5090565b828054828255906000526020600020908101928215610593579160200282015b82811115610592578251829060ff16905591602001919060010190610572565b5b5090506105a091906105a4565b5090565b5b808211156105bd5760008160009055506001016105a5565b5090565b7f4e487b7100000000000000000000000000000000000000000000000000000000600052602160045260246000fd5b600073ffffffffffffffffffffffffffffffffffffffff82169050919050565b600061061b826105f0565b9050919050565b61062b81610610565b82525050565b60006020820190506106466000830184610622565b92915050565b615c3c8061065b6000396000f3fe6080604052600436106101ee5760003560e01c8063949506f91161010d578063cb392393116100a0578063deef2a0e1161006f578063deef2a0e146106d3578063f10dcc6b14610710578063f2fde38b1461072c578063f44ca09114610755578063f71d96cb14610771576101ee565b8063cb39239314610619578063ce01f1a414610642578063cec3344a1461066d578063cf5a0d46146106aa576101ee565b8063a3e20305116100dc578063a3e203051461054b578063a6674f8814610574578063bba01e49146105b1578063c0f6ae97146105dc576101ee565b8063949506f91461048f5780639c96fb20146104ba5780639fd6865e146104e55780639fed85ef14610522576101ee565b806351508f0a11610185578063715018a611610154578063715018a6146103e757806378dccede146103fe57806380df50a81461043b5780638da5cb5b14610464576101ee565b806351508f0a14610341578063558a72971461036a5780636579ee29146103935780636ea69d62146103bc576101ee565b806329ad77f9116101c157806329ad77f9146102ad5780633a1cafa8146102d65780633a86197d146102ff5780633ccfd60b1461032a576101ee565b8063020e3396146101f35780630d6014271461021c5780631c9a88231461024557806327d3732a14610270575b600080fd5b3480156101ff57600080fd5b5061021a6004803603810190610215919061441a565b6107b8565b005b34801561022857600080fd5b50610243600480360381019061023e919061441a565b6112bf565b005b34801561025157600080fd5b5061025a611655565b6040516102679190614469565b60405180910390f35b34801561027c57600080fd5b5061029760048036038101906102929190614484565b61165b565b6040516102a49190614469565b60405180910390f35b3480156102b957600080fd5b506102d460048036038101906102cf9190614548565b61167f565b005b3480156102e257600080fd5b506102fd60048036038101906102f891906145c3565b611dbf565b005b34801561030b57600080fd5b50610314611e0b565b6040516103219190614469565b60405180910390f35b34801561033657600080fd5b5061033f611e11565b005b34801561034d57600080fd5b50610368600480360381019061036391906145c3565b611e62565b005b34801561037657600080fd5b50610391600480360381019061038c9190614628565b611eae565b005b34801561039f57600080fd5b506103ba60048036038101906103b59190614484565b611f11565b005b3480156103c857600080fd5b506103d1612455565b6040516103de91906146c7565b60405180910390f35b3480156103f357600080fd5b506103fc61247b565b005b34801561040a57600080fd5b50610425600480360381019061042091906146e2565b61248f565b6040516104329190614469565b60405180910390f35b34801561044757600080fd5b50610462600480360381019061045d9190614628565b6124ea565b005b34801561047057600080fd5b5061047961259b565b6040516104869190614731565b60405180910390f35b34801561049b57600080fd5b506104a46125c4565b6040516104b1919061476d565b60405180910390f35b3480156104c657600080fd5b506104cf6125ea565b6040516104dc91906147ff565b60405180910390f35b3480156104f157600080fd5b5061050c60048036038101906105079190614484565b6125fd565b6040516105199190614469565b60405180910390f35b34801561052e57600080fd5b506105496004803603810190610544919061483f565b612621565b005b34801561055757600080fd5b50610572600480360381019061056d919061441a565b612669565b005b34801561058057600080fd5b5061059b600480360381019061059691906145c3565b612698565b6040516105a8919061488e565b60405180910390f35b3480156105bd57600080fd5b506105c66126b8565b6040516105d39190614469565b60405180910390f35b3480156105e857600080fd5b5061060360048036038101906105fe91906145c3565b6126be565b604051610610919061488e565b60405180910390f35b34801561062557600080fd5b50610640600480360381019061063b919061441a565b6126de565b005b34801561064e57600080fd5b5061065761270d565b6040516106649190614469565b60405180910390f35b34801561067957600080fd5b50610694600480360381019061068f91906146e2565b612713565b6040516106a19190614469565b60405180910390f35b3480156106b657600080fd5b506106d160048036038101906106cc919061441a565b612738565b005b3480156106df57600080fd5b506106fa60048036038101906106f591906148a9565b612a6f565b6040516107079190614469565b60405180910390f35b61072a6004803603810190610725919061441a565b612ab0565b005b34801561073857600080fd5b50610753600480360381019061074e91906145c3565b612c92565b005b61076f600480360381019061076a91906148d6565b612d18565b005b34801561077d57600080fd5b5061079860048036038101906107939190614484565b61364f565b6040516107af9b9a99989796959493929190614a14565b60405180910390f35b8160006007600083815260200190815260200160002060070160009054906101000a900473ffffffffffffffffffffffffffffffffffffffff1690506000600760008481526020019081526020016000206008015490503373ffffffffffffffffffffffffffffffffffffffff168273ffffffffffffffffffffffffffffffffffffffff16636352211e836040518263ffffffff1660e01b815260040161085f9190614469565b602060405180830381865afa15801561087c573d6000803e3d6000fd5b505050506040513d601f19601f820116820180604052508101906108a09190614ad6565b73ffffffffffffffffffffffffffffffffffffffff16146108f6576040517f08c379a00000000000000000000000000000000000000000000000000000000081526004016108ed90614b60565b60405180910390fd5b6000600381111561090a57610909614788565b5b600b60009054906101000a900460ff16600381111561092c5761092b614788565b5b1461096c576040517f08c379a000000000000000000000000000000000000000000000000000000000815260040161096390614bcc565b60405180910390fd5b6000600760008781526020019081526020016000209050600060076000878152602001908152602001600020905060008160000160000160009054906101000a900460ff16905060008260000160000160019054906101000a900460ff16905060008360000160000160029054906101000a900460ff16905060008560000160000160009054906101000a900460ff16905060008660000160000160019054906101000a900460ff16905060008660000160000160029054906101000a900460ff169050600487600101541015610a4257600080fd5b600460009054906101000a900473ffffffffffffffffffffffffffffffffffffffff1673ffffffffffffffffffffffffffffffffffffffff16637fef46f58787876040518463ffffffff1660e01b8152600401610aa193929190614bfb565b602060405180830381865afa158015610abe573d6000803e3d6000fd5b505050506040513d601f19601f82011682018060405250810190610ae29190614c47565b610b21576040517f08c379a0000000000000000000000000000000000000000000000000000000008152600401610b1890614cc0565b60405180910390fd5b8060ff168460ff16148015610b3e5750610b3d86868585613755565b5b610b7d576040517f08c379a0000000000000000000000000000000000000000000000000000000008152600401610b7490614d2c565b60405180910390fd5b866005015442118015610b935750866006015442115b610bd2576040517f08c379a0000000000000000000000000000000000000000000000000000000008152600401610bc990614d98565b60405180910390fd5b600c60006002600a811115610bea57610be9614788565b5b600a811115610bfc57610bfb614788565b5b81526020019081526020016000205442610c169190614de7565b8760060181905550600060646063600c60006009600a811115610c3c57610c3b614788565b5b600a811115610c4e57610c4d614788565b5b8152602001908152602001600020548a60010154610c6c9190614e1b565b610c769190614de7565b610c809190614e8c565b90506000600460009054906101000a900473ffffffffffffffffffffffffffffffffffffffff1673ffffffffffffffffffffffffffffffffffffffff1663d2e80879878a60018b610cd19190614ebd565b6040518463ffffffff1660e01b8152600401610cef93929190614bfb565b602060405180830381865afa158015610d0c573d6000803e3d6000fd5b505050506040513d601f19601f82011682018060405250810190610d309190614f07565b1115610dff57610d498d82610d4490614f3e565b613773565b610dfe600460009054906101000a900473ffffffffffffffffffffffffffffffffffffffff1673ffffffffffffffffffffffffffffffffffffffff1663d2e80879878a60018b610d999190614ebd565b6040518463ffffffff1660e01b8152600401610db793929190614bfb565b602060405180830381865afa158015610dd4573d6000803e3d6000fd5b505050506040513d601f19601f82011682018060405250810190610df89190614f07565b82613773565b5b6000600460009054906101000a900473ffffffffffffffffffffffffffffffffffffffff1673ffffffffffffffffffffffffffffffffffffffff1663d2e80879878a60018b610e4e9190614f86565b6040518463ffffffff1660e01b8152600401610e6c93929190614bfb565b602060405180830381865afa158015610e89573d6000803e3d6000fd5b505050506040513d601f19601f82011682018060405250810190610ead9190614f07565b1115610f7c57610ec68d82610ec190614f3e565b613773565b610f7b600460009054906101000a900473ffffffffffffffffffffffffffffffffffffffff1673ffffffffffffffffffffffffffffffffffffffff1663d2e80879878a60018b610f169190614f86565b6040518463ffffffff1660e01b8152600401610f3493929190614bfb565b602060405180830381865afa158015610f51573d6000803e3d6000fd5b505050506040513d601f19601f82011682018060405250810190610f759190614f07565b82613773565b5b6000600460009054906101000a900473ffffffffffffffffffffffffffffffffffffffff1673ffffffffffffffffffffffffffffffffffffffff1663d2e808798760018b610fca9190614ebd565b8a6040518463ffffffff1660e01b8152600401610fe993929190614bfb565b602060405180830381865afa158015611006573d6000803e3d6000fd5b505050506040513d601f19601f8201168201806040525081019061102a9190614f07565b11156110f9576110438d8261103e90614f3e565b613773565b6110f8600460009054906101000a900473ffffffffffffffffffffffffffffffffffffffff1673ffffffffffffffffffffffffffffffffffffffff1663d2e808798760018b6110929190614ebd565b8a6040518463ffffffff1660e01b81526004016110b193929190614bfb565b602060405180830381865afa1580156110ce573d6000803e3d6000fd5b505050506040513d601f19601f820116820180604052508101906110f29190614f07565b82613773565b5b6000600460009054906101000a900473ffffffffffffffffffffffffffffffffffffffff1673ffffffffffffffffffffffffffffffffffffffff1663d2e808798760018b6111479190614f86565b8a6040518463ffffffff1660e01b815260040161116693929190614bfb565b602060405180830381865afa158015611183573d6000803e3d6000fd5b505050506040513d601f19601f820116820180604052508101906111a79190614f07565b1115611276576111c08d826111bb90614f3e565b613773565b611275600460009054906101000a900473ffffffffffffffffffffffffffffffffffffffff1673ffffffffffffffffffffffffffffffffffffffff1663d2e808798760018b61120f9190614f86565b8a6040518463ffffffff1660e01b815260040161122e93929190614bfb565b602060405180830381865afa15801561124b573d6000803e3d6000fd5b505050506040513d601f19601f8201168201806040525081019061126f9190614f07565b82613773565b5b7f039acdbcd12dc628ff78fef26945113fc3d9ca7dcca364e7d7807178768266ad8e8e6040516112a7929190614fbb565b60405180910390a15050505050505050505050505050565b8160006007600083815260200190815260200160002060070160009054906101000a900473ffffffffffffffffffffffffffffffffffffffff1690506000600760008481526020019081526020016000206008015490503373ffffffffffffffffffffffffffffffffffffffff168273ffffffffffffffffffffffffffffffffffffffff16636352211e836040518263ffffffff1660e01b81526004016113669190614469565b602060405180830381865afa158015611383573d6000803e3d6000fd5b505050506040513d601f19601f820116820180604052508101906113a79190614ad6565b73ffffffffffffffffffffffffffffffffffffffff16146113fd576040517f08c379a00000000000000000000000000000000000000000000000000000000081526004016113f490614b60565b60405180910390fd5b6000600381111561141157611410614788565b5b600b60009054906101000a900460ff16600381111561143357611432614788565b5b14611473576040517f08c379a000000000000000000000000000000000000000000000000000000000815260040161146a90614bcc565b60405180910390fd5b83850361147f57600080fd5b6001600381111561149357611492614788565b5b60076000878152602001908152602001600020600b0160009054906101000a900460ff1660038111156114c9576114c8614788565b5b14611509576040517f08c379a000000000000000000000000000000000000000000000000000000000815260040161150090615030565b60405180910390fd5b6001600381111561151d5761151c614788565b5b60076000868152602001908152602001600020600b0160009054906101000a900460ff16600381111561155357611552614788565b5b14611593576040517f08c379a000000000000000000000000000000000000000000000000000000000815260040161158a90615030565b60405180910390fd5b600060076000878152602001908152602001600020600101549050600360076000888152602001908152602001600020600b0160006101000a81548160ff021916908360038111156115e8576115e7614788565b5b021790555061160086826115fb90614f3e565b613773565b61160a8582613773565b611613866138cc565b7f225f3b692ac11cdafcafb064a6e0d96cb25948e1d431d5f5e2dfd3dea6389606600387604051611645929190615050565b60405180910390a1505050505050565b60085481565b600d818154811061166b57600080fd5b906000526020600020016000915090505481565b60008590506000600381111561169857611697614788565b5b600b60009054906101000a900460ff1660038111156116ba576116b9614788565b5b146116fa576040517f08c379a00000000000000000000000000000000000000000000000000000000081526004016116f190614bcc565b60405180910390fd5b600160008773ffffffffffffffffffffffffffffffffffffffff1673ffffffffffffffffffffffffffffffffffffffff16815260200190815260200160002060009054906101000a900460ff16611786576040517f08c379a000000000000000000000000000000000000000000000000000000000815260040161177d906150c5565b60405180910390fd5b3373ffffffffffffffffffffffffffffffffffffffff168173ffffffffffffffffffffffffffffffffffffffff16636352211e876040518263ffffffff1660e01b81526004016117d69190614469565b602060405180830381865afa1580156117f3573d6000803e3d6000fd5b505050506040513d601f19601f820116820180604052508101906118179190614ad6565b73ffffffffffffffffffffffffffffffffffffffff161461186d576040517f08c379a000000000000000000000000000000000000000000000000000000000815260040161186490615131565b60405180910390fd5b6000600560008873ffffffffffffffffffffffffffffffffffffffff1673ffffffffffffffffffffffffffffffffffffffff16815260200190815260200160002060008781526020019081526020016000205414611900576040517f08c379a00000000000000000000000000000000000000000000000000000000081526004016118f79061519d565b60405180910390fd5b6000600460009054906101000a900473ffffffffffffffffffffffffffffffffffffffff1673ffffffffffffffffffffffffffffffffffffffff1663d2e808798686866040518463ffffffff1660e01b815260040161196193929190614bfb565b602060405180830381865afa15801561197e573d6000803e3d6000fd5b505050506040513d601f19601f820116820180604052508101906119a29190614f07565b146119ac57600080fd5b600654600560008873ffffffffffffffffffffffffffffffffffffffff1673ffffffffffffffffffffffffffffffffffffffff16815260200190815260200160002060008781526020019081526020016000208190555060405180610160016040528060405180606001604052808660ff1681526020018560ff1681526020018760ff1681525081526020016000815260200160018152602001600c600080600a811115611a5d57611a5c614788565b5b600a811115611a6f57611a6e614788565b5b81526020019081526020016000205442611a899190614de7565b8152602001600c60006004600a811115611aa657611aa5614788565b5b600a811115611ab857611ab7614788565b5b81526020019081526020016000205442611ad29190614de7565b815260200160008152602001600081526020018773ffffffffffffffffffffffffffffffffffffffff1681526020018681526020016040518060400160405280600081526020016000815250815260200160016003811115611b3757611b36614788565b5b81525060076000600654815260200190815260200160002060008201518160000160008201518160000160006101000a81548160ff021916908360ff16021790555060208201518160000160016101000a81548160ff021916908360ff16021790555060408201518160000160026101000a81548160ff021916908360ff16021790555050506020820151816001015560408201518160020155606082015181600301556080820151816004015560a0820151816005015560c0820151816006015560e08201518160070160006101000a81548173ffffffffffffffffffffffffffffffffffffffff021916908373ffffffffffffffffffffffffffffffffffffffff1602179055506101008201518160080155610120820151816009016000820151816000015560208201518160010155505061014082015181600b0160006101000a81548160ff02191690836003811115611c9757611c96614788565b5b02179055509050503373ffffffffffffffffffffffffffffffffffffffff16858773ffffffffffffffffffffffffffffffffffffffff167fa9894c605a4e71658774ce8b7875aec503c277b93e274f8788c1fce5f896bc74600654604051611cff9190614469565b60405180910390a47f225f3b692ac11cdafcafb064a6e0d96cb25948e1d431d5f5e2dfd3dea63896066001600654604051611d3b929190615050565b60405180910390a1611d538484846006546001613abc565b7f6eaf6cd27015002a7e738b270d088d51e2be41e4a8729c7276157c1801c3d03f848484600654604051611d8a94939291906151ee565b60405180910390a1611d9d600654613cc3565b600160066000828254611db09190614de7565b92505081905550505050505050565b611dc7613e03565b80600460006101000a81548173ffffffffffffffffffffffffffffffffffffffff021916908373ffffffffffffffffffffffffffffffffffffffff16021790555050565b600a5481565b611e19613e03565b3373ffffffffffffffffffffffffffffffffffffffff166108fc479081150290604051600060405180830381858888f19350505050158015611e5f573d6000803e3d6000fd5b50565b611e6a613e03565b80600360006101000a81548173ffffffffffffffffffffffffffffffffffffffff021916908373ffffffffffffffffffffffffffffffffffffffff16021790555050565b611eb6613e03565b80600260008473ffffffffffffffffffffffffffffffffffffffff1673ffffffffffffffffffffffffffffffffffffffff16815260200190815260200160002060006101000a81548160ff0219169083151502179055505050565b8060006007600083815260200190815260200160002060070160009054906101000a900473ffffffffffffffffffffffffffffffffffffffff1690506000600760008481526020019081526020016000206008015490503373ffffffffffffffffffffffffffffffffffffffff168273ffffffffffffffffffffffffffffffffffffffff16636352211e836040518263ffffffff1660e01b8152600401611fb89190614469565b602060405180830381865afa158015611fd5573d6000803e3d6000fd5b505050506040513d601f19601f82011682018060405250810190611ff99190614ad6565b73ffffffffffffffffffffffffffffffffffffffff161461204f576040517f08c379a000000000000000000000000000000000000000000000000000000000815260040161204690614b60565b60405180910390fd5b6000600381111561206357612062614788565b5b600b60009054906101000a900460ff16600381111561208557612084614788565b5b146120c5576040517f08c379a00000000000000000000000000000000000000000000000000000000081526004016120bc90614bcc565b60405180910390fd5b600160038111156120d9576120d8614788565b5b60076000868152602001908152602001600020600b0160009054906101000a900460ff16600381111561210f5761210e614788565b5b1461214f576040517f08c379a00000000000000000000000000000000000000000000000000000000081526004016121469061527f565b60405180910390fd5b600c60006007600a81111561216757612166614788565b5b600a81111561217957612178614788565b5b815260200190815260200160002054600760008681526020019081526020016000206002015410156121e0576040517f08c379a00000000000000000000000000000000000000000000000000000000081526004016121d7906152eb565b60405180910390fd5b600260076000868152602001908152602001600020600b0160006101000a81548160ff0219169083600381111561221a57612219614788565b5b02179055506000600760008681526020019081526020016000206001015490506000600760008781526020019081526020016000206002015490506003810361230f57816008600082825461226f9190614de7565b92505081905550600360009054906101000a900473ffffffffffffffffffffffffffffffffffffffff1673ffffffffffffffffffffffffffffffffffffffff16636f9fd2fc6122bd88613e8a565b60036040518363ffffffff1660e01b81526004016122dc929190615346565b600060405180830381600087803b1580156122f657600080fd5b505af115801561230a573d6000803e3d6000fd5b505050505b600481036123c95781600960008282546123299190614de7565b92505081905550600360009054906101000a900473ffffffffffffffffffffffffffffffffffffffff1673ffffffffffffffffffffffffffffffffffffffff16636f9fd2fc61237788613e8a565b60046040518363ffffffff1660e01b81526004016123969291906153aa565b600060405180830381600087803b1580156123b057600080fd5b505af11580156123c4573d6000803e3d6000fd5b505050505b7f225f3b692ac11cdafcafb064a6e0d96cb25948e1d431d5f5e2dfd3dea63896066002876040516123fb929190615050565b60405180910390a17f96471c5c697a4607b045eea2a27fa36868cf52b83096e1d665e58535386dfc7f8282604051612434929190614fbb565b60405180910390a1612445866138cc565b61244d613f64565b505050505050565b600360009054906101000a900473ffffffffffffffffffffffffffffffffffffffff1681565b612483613e03565b61248d6000614046565b565b6000600560008473ffffffffffffffffffffffffffffffffffffffff1673ffffffffffffffffffffffffffffffffffffffff168152602001908152602001600020600083815260200190815260200160002054905092915050565b6124f2613e03565b80600160008473ffffffffffffffffffffffffffffffffffffffff1673ffffffffffffffffffffffffffffffffffffffff16815260200190815260200160002060006101000a81548160ff0219169083151502179055508173ffffffffffffffffffffffffffffffffffffffff167fab7ee07d6fcd55d3521af17f0fc9a09487385d36c421d23bdd1eac42e532043c8260405161258f919061488e565b60405180910390a25050565b60008060009054906101000a900473ffffffffffffffffffffffffffffffffffffffff16905090565b600460009054906101000a900473ffffffffffffffffffffffffffffffffffffffff1681565b600b60009054906101000a900460ff1681565b600e818154811061260d57600080fd5b906000526020600020016000915090505481565b612629613e03565b80600c600084600a81111561264157612640614788565b5b600a81111561265357612652614788565b5b8152602001908152602001600020819055505050565b612671613e03565b80600d8381548110612686576126856153d3565b5b90600052602060002001819055505050565b60026020528060005260406000206000915054906101000a900460ff1681565b60065481565b60016020528060005260406000206000915054906101000a900460ff1681565b6126e6613e03565b80600e83815481106126fb576126fa6153d3565b5b90600052602060002001819055505050565b60095481565b6005602052816000526040600020602052806000526040600020600091509150505481565b600260003373ffffffffffffffffffffffffffffffffffffffff1673ffffffffffffffffffffffffffffffffffffffff16815260200190815260200160002060009054906101000a900460ff16806127c2575061279361259b565b73ffffffffffffffffffffffffffffffffffffffff163373ffffffffffffffffffffffffffffffffffffffff16145b612801576040517f08c379a00000000000000000000000000000000000000000000000000000000081526004016127f89061544e565b60405180910390fd5b6000600381111561281557612814614788565b5b600b60009054906101000a900460ff16600381111561283757612836614788565b5b14612877576040517f08c379a000000000000000000000000000000000000000000000000000000000815260040161286e90614bcc565b60405180910390fd5b600c60006003600a81111561288f5761288e614788565b5b600a8111156128a1576128a0614788565b5b815260200190815260200160002054426128bb9190614de7565b8160076000858152602001908152602001600020600501546128dd9190614de7565b111561291e576040517f08c379a0000000000000000000000000000000000000000000000000000000008152600401612915906154e0565b60405180910390fd5b600c60006003600a81111561293657612935614788565b5b600a81111561294857612947614788565b5b815260200190815260200160002054811115612999576040517f08c379a000000000000000000000000000000000000000000000000000000000815260040161299090614d2c565b60405180910390fd5b600c60006008600a8111156129b1576129b0614788565b5b600a8111156129c3576129c2614788565b5b815260200190815260200160002054600760008481526020019081526020016000206002015410156129f457600080fd5b4260076000848152602001908152602001600020600501541115612a445780600760008481526020019081526020016000206005016000828254612a389190614de7565b92505081905550612a6b565b8042612a509190614de7565b60076000848152602001908152602001600020600501819055505b5050565b6000600c600083600a811115612a8857612a87614788565b5b600a811115612a9a57612a99614788565b5b8152602001908152602001600020549050919050565b8160006007600083815260200190815260200160002060070160009054906101000a900473ffffffffffffffffffffffffffffffffffffffff1690506000600760008481526020019081526020016000206008015490503373ffffffffffffffffffffffffffffffffffffffff168273ffffffffffffffffffffffffffffffffffffffff16636352211e836040518263ffffffff1660e01b8152600401612b579190614469565b602060405180830381865afa158015612b74573d6000803e3d6000fd5b505050506040513d601f19601f82011682018060405250810190612b989190614ad6565b73ffffffffffffffffffffffffffffffffffffffff1614612bee576040517f08c379a0000000000000000000000000000000000000000000000000000000008152600401612be590614b60565b60405180910390fd5b83600c60006006600a811115612c0757612c06614788565b5b600a811115612c1957612c18614788565b5b815260200190815260200160002054612c329190614e1b565b341015612c74576040517f08c379a0000000000000000000000000000000000000000000000000000000008152600401612c6b9061554c565b60405180910390fd5b612c8b85610e1086612c869190614e1b565b612738565b5050505050565b612c9a613e03565b600073ffffffffffffffffffffffffffffffffffffffff168173ffffffffffffffffffffffffffffffffffffffff1603612d0c5760006040517f1e4fbdf7000000000000000000000000000000000000000000000000000000008152600401612d039190614731565b60405180910390fd5b612d1581614046565b50565b8360006007600083815260200190815260200160002060070160009054906101000a900473ffffffffffffffffffffffffffffffffffffffff1690506000600760008481526020019081526020016000206008015490503373ffffffffffffffffffffffffffffffffffffffff168273ffffffffffffffffffffffffffffffffffffffff16636352211e836040518263ffffffff1660e01b8152600401612dbf9190614469565b602060405180830381865afa158015612ddc573d6000803e3d6000fd5b505050506040513d601f19601f82011682018060405250810190612e009190614ad6565b73ffffffffffffffffffffffffffffffffffffffff1614612e56576040517f08c379a0000000000000000000000000000000000000000000000000000000008152600401612e4d90614b60565b60405180910390fd5b60006003811115612e6a57612e69614788565b5b600b60009054906101000a900460ff166003811115612e8c57612e8b614788565b5b14612ecc576040517f08c379a0000000000000000000000000000000000000000000000000000000008152600401612ec390614bcc565b60405180910390fd5b42600760008981526020019081526020016000206003015410612f24576040517f08c379a0000000000000000000000000000000000000000000000000000000008152600401612f1b906155b8565b60405180910390fd5b60006007600089815260200190815260200160002060000160000160009054906101000a900460ff1690506000600760008a815260200190815260200160002060000160000160019054906101000a900460ff1690508760ff16600760008b815260200190815260200160002060000160000160029054906101000a900460ff1660ff16146131f8576000600460009054906101000a900473ffffffffffffffffffffffffffffffffffffffff1673ffffffffffffffffffffffffffffffffffffffff1663d2e808798a8a8a6040518463ffffffff1660e01b815260040161300e93929190614bfb565b602060405180830381865afa15801561302b573d6000803e3d6000fd5b505050506040513d601f19601f8201168201806040525081019061304f9190614f07565b1461308f576040517f08c379a00000000000000000000000000000000000000000000000000000000081526004016130869061564a565b60405180910390fd5b600760008a8152602001908152602001600020600401544211806130eb5750600c60006005600a8111156130c6576130c5614788565b5b600a8111156130d8576130d7614788565b5b8152602001908152602001600020543410155b61312a576040517f08c379a0000000000000000000000000000000000000000000000000000000008152600401613121906156dc565b60405180910390fd5b600c600080600a81111561314157613140614788565b5b600a81111561315357613152614788565b5b8152602001908152602001600020544261316d9190614de7565b600760008b815260200190815260200160002060030181905550600c60006004600a81111561319f5761319e614788565b5b600a8111156131b1576131b0614788565b5b815260200190815260200160002054426131cb9190614de7565b600760008b8152602001908152602001600020600401819055506131f38888888c6001613abc565b61361f565b6000600460009054906101000a900473ffffffffffffffffffffffffffffffffffffffff1673ffffffffffffffffffffffffffffffffffffffff1663d2e808798a8a8a6040518463ffffffff1660e01b815260040161325993929190614bfb565b602060405180830381865afa158015613276573d6000803e3d6000fd5b505050506040513d601f19601f8201168201806040525081019061329a9190614f07565b036132b2576132ad8888888c6000613abc565b6135c0565b6000600460009054906101000a900473ffffffffffffffffffffffffffffffffffffffff1673ffffffffffffffffffffffffffffffffffffffff1663d2e808798a8a8a6040518463ffffffff1660e01b815260040161331393929190614bfb565b602060405180830381865afa158015613330573d6000803e3d6000fd5b505050506040513d601f19601f820116820180604052508101906133549190614f07565b9050600060646063600c60006009600a81111561337457613373614788565b5b600a81111561338657613385614788565b5b81526020019081526020016000205460076000868152602001908152602001600020600101546133b69190614e1b565b6133c09190614de7565b6133ca9190614e8c565b90506007600083815260200190815260200160002060020154600760008d815260200190815260200160002060020154101561343b576040517f08c379a000000000000000000000000000000000000000000000000000000000815260040161343290615748565b60405180910390fd5b60076000838152602001908152602001600020600501544211613493576040517f08c379a000000000000000000000000000000000000000000000000000000000815260040161348a906157b4565b60405180910390fd5b600760008381526020019081526020016000206006015442116134eb576040517f08c379a00000000000000000000000000000000000000000000000000000000081526004016134e290615820565b60405180910390fd5b600c60006002600a81111561350357613502614788565b5b600a81111561351557613514614788565b5b8152602001908152602001600020544261352f9190614de7565b60076000848152602001908152602001600020600601819055506135538b82613773565b613566828261356190614f3e565b613773565b6135748a8a8a8e6000613abc565b6135828a8585856001613abc565b7f8e94011834e20398e9c758cc1be311eab76fd80b1e439bd2c59fc4ed3195a8b08b83836040516135b593929190615840565b60405180910390a150505b600c60006001600a8111156135d8576135d7614788565b5b600a8111156135ea576135e9614788565b5b815260200190815260200160002054426136049190614de7565b600760008b8152602001908152602001600020600301819055505b6000600760008b81526020019081526020016000206006018190555061364489613cc3565b505050505050505050565b6007602052806000526040600020600091509050806000016040518060600160405290816000820160009054906101000a900460ff1660ff1660ff1681526020016000820160019054906101000a900460ff1660ff1660ff1681526020016000820160029054906101000a900460ff1660ff1660ff1681525050908060010154908060020154908060030154908060040154908060050154908060060154908060070160009054906101000a900473ffffffffffffffffffffffffffffffffffffffff169080600801549080600901604051806040016040529081600082015481526020016001820154815250509080600b0160009054906101000a900460ff1690508b565b600060016137658686868661410a565b60ff16149050949350505050565b6000600760008481526020019081526020016000206001015490506000821215806137a75750816137a390614f3e565b8110155b6137e6576040517f08c379a00000000000000000000000000000000000000000000000000000000081526004016137dd906158c3565b60405180910390fd5b6000821315806138215750807fffffffffffffffffffffffffffffffffffffffffffffffffffffffffffffffff61381d91906158e3565b8211155b613860576040517f08c379a000000000000000000000000000000000000000000000000000000000815260040161385790615963565b60405180910390fd5b818161386c9190615983565b600760008581526020019081526020016000206001018190555061388f83614181565b827f3c4a2e2bac8926425dd3e4e1487869f1a441950df5336e151eada44d5550a11e836040516138bf91906159d6565b60405180910390a2505050565b600460009054906101000a900473ffffffffffffffffffffffffffffffffffffffff1673ffffffffffffffffffffffffffffffffffffffff1663d2e808796007600084815260200190815260200160002060000160000160029054906101000a900460ff166007600085815260200190815260200160002060000160000160009054906101000a900460ff166007600086815260200190815260200160002060000160000160019054906101000a900460ff166040518463ffffffff1660e01b815260040161399d93929190614bfb565b602060405180830381865afa1580156139ba573d6000803e3d6000fd5b505050506040513d601f19601f820116820180604052508101906139de9190614f07565b50600060ff9050806007600084815260200190815260200160002060000160000160006101000a81548160ff021916908360ff160217905550806007600084815260200190815260200160002060000160000160016101000a81548160ff021916908360ff160217905550806007600084815260200190815260200160002060000160000160026101000a81548160ff021916908360ff1602179055507f6eaf6cd27015002a7e738b270d088d51e2be41e4a8729c7276157c1801c3d03f81828385604051613ab094939291906151ee565b60405180910390a15050565b6000600460009054906101000a900473ffffffffffffffffffffffffffffffffffffffff1673ffffffffffffffffffffffffffffffffffffffff1663cffd91268787876007600089815260200190815260200160002060000160000160029054906101000a900460ff16600760008a815260200190815260200160002060000160000160009054906101000a900460ff16600760008b815260200190815260200160002060000160000160019054906101000a900460ff168a8a6040518963ffffffff1660e01b8152600401613b999897969594939291906159f1565b6020604051808303816000875af1158015613bb8573d6000803e3d6000fd5b505050506040513d601f19601f82011682018060405250810190613bdc9190614f07565b9050846007600085815260200190815260200160002060000160000160006101000a81548160ff021916908360ff160217905550836007600085815260200190815260200160002060000160000160016101000a81548160ff021916908360ff160217905550856007600085815260200190815260200160002060000160000160026101000a81548160ff021916908360ff160217905550613c7e8382613773565b7f6eaf6cd27015002a7e738b270d088d51e2be41e4a8729c7276157c1801c3d03f86868686604051613cb394939291906151ee565b60405180910390a1505050505050565b60006201518042613cd49190614e8c565b905060076000838152602001908152602001600020600901600001548103613dc1576000600e600760008581526020019081526020016000206002015481548110613d2257613d216153d3565b5b9060005260206000200154905080600760008581526020019081526020016000206009016001015410613d8a576040517f08c379a0000000000000000000000000000000000000000000000000000000008152600401613d8190615abb565b60405180910390fd5b6001600760008581526020019081526020016000206009016001016000828254613db49190614de7565b9250508190555050613dff565b806007600084815260200190815260200160002060090160000181905550600160076000848152602001908152602001600020600901600101819055505b5050565b613e0b6143d7565b73ffffffffffffffffffffffffffffffffffffffff16613e2961259b565b73ffffffffffffffffffffffffffffffffffffffff1614613e8857613e4c6143d7565b6040517f118cdaa7000000000000000000000000000000000000000000000000000000008152600401613e7f9190614731565b60405180910390fd5b565b6000806007600084815260200190815260200160002060070160009054906101000a900473ffffffffffffffffffffffffffffffffffffffff1690506000600760008581526020019081526020016000206008015490508173ffffffffffffffffffffffffffffffffffffffff16636352211e826040518263ffffffff1660e01b8152600401613f1a9190614469565b602060405180830381865afa158015613f37573d6000803e3d6000fd5b505050506040513d601f19601f82011682018060405250810190613f5b9190614ad6565b92505050919050565b600a546008541115613fd4576001600b60006101000a81548160ff02191690836003811115613f9657613f95614788565b5b02179055507fce24807f7e4b60b4e641462f13029fa5e5f79075bbc3f8e5cd43ecd19661d7606001604051613fcb9190615b16565b60405180910390a15b600a546009541115614044576002600b60006101000a81548160ff0219169083600381111561400657614005614788565b5b02179055507fce24807f7e4b60b4e641462f13029fa5e5f79075bbc3f8e5cd43ecd19661d760600260405161403b9190615b6c565b60405180910390a15b565b60008060009054906101000a900473ffffffffffffffffffffffffffffffffffffffff169050816000806101000a81548173ffffffffffffffffffffffffffffffffffffffff021916908373ffffffffffffffffffffffffffffffffffffffff1602179055508173ffffffffffffffffffffffffffffffffffffffff168173ffffffffffffffffffffffffffffffffffffffff167f8be0079c531659141344cd1fd0a4f28419497f9722a3daafe3b4186f6b6457e060405160405180910390a35050565b6000808360ff168660ff161161412b5785846141269190614ebd565b614138565b83866141379190614ebd565b5b905060008360ff168660ff161161415a5785846141559190614ebd565b614167565b83866141669190614ebd565b5b905080826141759190614f86565b92505050949350505050565b600060076000838152602001908152602001600020600101549050600d6005815481106141b1576141b06153d3565b5b906000526020600020015481106142de57600560076000848152602001908152602001600020600201819055506003600b60006101000a81548160ff0219169083600381111561420457614203614788565b5b0217905550600360009054906101000a900473ffffffffffffffffffffffffffffffffffffffff1673ffffffffffffffffffffffffffffffffffffffff16636f9fd2fc61425084613e8a565b60056040518363ffffffff1660e01b815260040161426f929190615bc2565b600060405180830381600087803b15801561428957600080fd5b505af115801561429d573d6000803e3d6000fd5b505050507fce24807f7e4b60b4e641462f13029fa5e5f79075bbc3f8e5cd43ecd19661d76060036040516142d19190615beb565b60405180910390a16143d3565b600d6004815481106142f3576142f26153d3565b5b9060005260206000200154811061432557600460076000848152602001908152602001600020600201819055506143d2565b600d60038154811061433a576143396153d3565b5b9060005260206000200154811061436c57600360076000848152602001908152602001600020600201819055506143d1565b600d600281548110614381576143806153d3565b5b906000526020600020015481106143b357600260076000848152602001908152602001600020600201819055506143d0565b600160076000848152602001908152602001600020600201819055505b5b5b5b5050565b600033905090565b600080fd5b6000819050919050565b6143f7816143e4565b811461440257600080fd5b50565b600081359050614414816143ee565b92915050565b60008060408385031215614431576144306143df565b5b600061443f85828601614405565b925050602061445085828601614405565b9150509250929050565b614463816143e4565b82525050565b600060208201905061447e600083018461445a565b92915050565b60006020828403121561449a576144996143df565b5b60006144a884828501614405565b91505092915050565b600073ffffffffffffffffffffffffffffffffffffffff82169050919050565b60006144dc826144b1565b9050919050565b6144ec816144d1565b81146144f757600080fd5b50565b600081359050614509816144e3565b92915050565b600060ff82169050919050565b6145258161450f565b811461453057600080fd5b50565b6000813590506145428161451c565b92915050565b600080600080600060a08688031215614564576145636143df565b5b6000614572888289016144fa565b955050602061458388828901614405565b945050604061459488828901614533565b93505060606145a588828901614533565b92505060806145b688828901614533565b9150509295509295909350565b6000602082840312156145d9576145d86143df565b5b60006145e7848285016144fa565b91505092915050565b60008115159050919050565b614605816145f0565b811461461057600080fd5b50565b600081359050614622816145fc565b92915050565b6000806040838503121561463f5761463e6143df565b5b600061464d858286016144fa565b925050602061465e85828601614613565b9150509250929050565b6000819050919050565b600061468d614688614683846144b1565b614668565b6144b1565b9050919050565b600061469f82614672565b9050919050565b60006146b182614694565b9050919050565b6146c1816146a6565b82525050565b60006020820190506146dc60008301846146b8565b92915050565b600080604083850312156146f9576146f86143df565b5b6000614707858286016144fa565b925050602061471885828601614405565b9150509250929050565b61472b816144d1565b82525050565b60006020820190506147466000830184614722565b92915050565b600061475782614694565b9050919050565b6147678161474c565b82525050565b6000602082019050614782600083018461475e565b92915050565b7f4e487b7100000000000000000000000000000000000000000000000000000000600052602160045260246000fd5b600481106147c8576147c7614788565b5b50565b60008190506147d9826147b7565b919050565b60006147e9826147cb565b9050919050565b6147f9816147de565b82525050565b600060208201905061481460008301846147f0565b92915050565b600b811061482757600080fd5b50565b6000813590506148398161481a565b92915050565b60008060408385031215614856576148556143df565b5b60006148648582860161482a565b925050602061487585828601614405565b9150509250929050565b614888816145f0565b82525050565b60006020820190506148a3600083018461487f565b92915050565b6000602082840312156148bf576148be6143df565b5b60006148cd8482850161482a565b91505092915050565b600080600080608085870312156148f0576148ef6143df565b5b60006148fe87828801614405565b945050602061490f87828801614533565b935050604061492087828801614533565b925050606061493187828801614533565b91505092959194509250565b6149468161450f565b82525050565b606082016000820151614962600085018261493d565b506020820151614975602085018261493d565b506040820151614988604085018261493d565b50505050565b614997816143e4565b82525050565b6040820160008201516149b3600085018261498e565b5060208201516149c6602085018261498e565b50505050565b600481106149dd576149dc614788565b5b50565b60008190506149ee826149cc565b919050565b60006149fe826149e0565b9050919050565b614a0e816149f3565b82525050565b60006101c082019050614a2a600083018e61494c565b614a37606083018d61445a565b614a44608083018c61445a565b614a5160a083018b61445a565b614a5e60c083018a61445a565b614a6b60e083018961445a565b614a7961010083018861445a565b614a87610120830187614722565b614a9561014083018661445a565b614aa361016083018561499d565b614ab16101a0830184614a05565b9c9b505050505050505050505050565b600081519050614ad0816144e3565b92915050565b600060208284031215614aec57614aeb6143df565b5b6000614afa84828501614ac1565b91505092915050565b600082825260208201905092915050565b7f4e6f74206f776e65720000000000000000000000000000000000000000000000600082015250565b6000614b4a600983614b03565b9150614b5582614b14565b602082019050919050565b60006020820190508181036000830152614b7981614b3d565b9050919050565b7f47616d6520456e64656400000000000000000000000000000000000000000000600082015250565b6000614bb6600a83614b03565b9150614bc182614b80565b602082019050919050565b60006020820190508181036000830152614be581614ba9565b9050919050565b614bf58161450f565b82525050565b6000606082019050614c106000830186614bec565b614c1d6020830185614bec565b614c2a6040830184614bec565b949350505050565b600081519050614c41816145fc565b92915050565b600060208284031215614c5d57614c5c6143df565b5b6000614c6b84828501614c32565b91505092915050565b7f4e6f7420537572726f756e646564000000000000000000000000000000000000600082015250565b6000614caa600e83614b03565b9150614cb582614c74565b602082019050919050565b60006020820190508181036000830152614cd981614c9d565b9050919050565b7f4e6f000000000000000000000000000000000000000000000000000000000000600082015250565b6000614d16600283614b03565b9150614d2182614ce0565b602082019050919050565b60006020820190508181036000830152614d4581614d09565b9050919050565b7f43616e27742041747461636b0000000000000000000000000000000000000000600082015250565b6000614d82600c83614b03565b9150614d8d82614d4c565b602082019050919050565b60006020820190508181036000830152614db181614d75565b9050919050565b7f4e487b7100000000000000000000000000000000000000000000000000000000600052601160045260246000fd5b6000614df2826143e4565b9150614dfd836143e4565b9250828201905080821115614e1557614e14614db8565b5b92915050565b6000614e26826143e4565b9150614e31836143e4565b9250828202614e3f816143e4565b91508282048414831517614e5657614e55614db8565b5b5092915050565b7f4e487b7100000000000000000000000000000000000000000000000000000000600052601260045260246000fd5b6000614e97826143e4565b9150614ea2836143e4565b925082614eb257614eb1614e5d565b5b828204905092915050565b6000614ec88261450f565b9150614ed38361450f565b9250828203905060ff811115614eec57614eeb614db8565b5b92915050565b600081519050614f01816143ee565b92915050565b600060208284031215614f1d57614f1c6143df565b5b6000614f2b84828501614ef2565b91505092915050565b6000819050919050565b6000614f4982614f34565b91507f80000000000000000000000000000000000000000000000000000000000000008203614f7b57614f7a614db8565b5b816000039050919050565b6000614f918261450f565b9150614f9c8361450f565b9250828201905060ff811115614fb557614fb4614db8565b5b92915050565b6000604082019050614fd0600083018561445a565b614fdd602083018461445a565b9392505050565b7f4e6f742041637469766500000000000000000000000000000000000000000000600082015250565b600061501a600a83614b03565b915061502582614fe4565b602082019050919050565b600060208201905081810360008301526150498161500d565b9050919050565b60006040820190506150656000830185614a05565b615072602083018461445a565b9392505050565b7f4e6f7420496e7669746564000000000000000000000000000000000000000000600082015250565b60006150af600b83614b03565b91506150ba82615079565b602082019050919050565b600060208201905081810360008301526150de816150a2565b9050919050565b7f4e6f74204f776e65720000000000000000000000000000000000000000000000600082015250565b600061511b600983614b03565b9150615126826150e5565b602082019050919050565b6000602082019050818103600083015261514a8161510e565b9050919050565b7f5265676973746572656400000000000000000000000000000000000000000000600082015250565b6000615187600a83614b03565b915061519282615151565b602082019050919050565b600060208201905081810360008301526151b68161517a565b9050919050565b60006151d86151d36151ce8461450f565b614668565b6143e4565b9050919050565b6151e8816151bd565b82525050565b600060808201905061520360008301876151df565b61521060208301866151df565b61521d60408301856151df565b61522a606083018461445a565b95945050505050565b7f4e65656420746f20626520616e2061637469766520706c617965720000000000600082015250565b6000615269601b83614b03565b915061527482615233565b602082019050919050565b600060208201905081810360008301526152988161525c565b9050919050565b7f4d696e206c6f636b2d696e206c6576656c206e6f742072656163686564000000600082015250565b60006152d5601d83614b03565b91506152e08261529f565b602082019050919050565b60006020820190508181036000830152615304816152c8565b9050919050565b6000819050919050565b600061533061532b6153268461530b565b614668565b6143e4565b9050919050565b61534081615315565b82525050565b600060408201905061535b6000830185614722565b6153686020830184615337565b9392505050565b6000819050919050565b600061539461538f61538a8461536f565b614668565b6143e4565b9050919050565b6153a481615379565b82525050565b60006040820190506153bf6000830185614722565b6153cc602083018461539b565b9392505050565b7f4e487b7100000000000000000000000000000000000000000000000000000000600052603260045260246000fd5b7f4e6f7420616c6c6f776564000000000000000000000000000000000000000000600082015250565b6000615438600b83614b03565b915061544382615402565b602082019050919050565b600060208201905081810360008301526154678161542b565b9050919050565b7f596f752063616e206f6e6c7920626520736869656c64656420666f722061206d60008201527f617820706572696f64206f662074696d65000000000000000000000000000000602082015250565b60006154ca603183614b03565b91506154d58261546e565b604082019050919050565b600060208201905081810360008301526154f9816154bd565b9050919050565b7f4e6f7420656e6f75676820455448000000000000000000000000000000000000600082015250565b6000615536600e83614b03565b915061554182615500565b602082019050919050565b6000602082019050818103600083015261556581615529565b9050919050565b7f506c65617365207761697420756e74696c206e6578744d6f766554696d650000600082015250565b60006155a2601e83614b03565b91506155ad8261556c565b602082019050919050565b600060208201905081810360008301526155d181615595565b9050919050565b7f596f752063616e2074726176656c20746f2061206f636375706965642067726960008201527f64207768656e20796f7520737769746368206d617a6500000000000000000000602082015250565b6000615634603683614b03565b915061563f826155d8565b604082019050919050565b6000602082019050818103600083015261566381615627565b9050919050565b7f4e65656420746f20706179207468652070656e616c74792069662077616e742060008201527f746f20737769746368206d617a65206265666f72652074696d65206973207570602082015250565b60006156c6604083614b03565b91506156d18261566a565b604082019050919050565b600060208201905081810360008301526156f5816156b9565b9050919050565b7f43616e27742061747461636b206869676865722072616e6b6564000000000000600082015250565b6000615732601a83614b03565b915061573d826156fc565b602082019050919050565b6000602082019050818103600083015261576181615725565b9050919050565b7f536869656c646564000000000000000000000000000000000000000000000000600082015250565b600061579e600883614b03565b91506157a982615768565b602082019050919050565b600060208201905081810360008301526157cd81615791565b9050919050565b7f50726f7465637465640000000000000000000000000000000000000000000000600082015250565b600061580a600983614b03565b9150615815826157d4565b602082019050919050565b60006020820190508181036000830152615839816157fd565b9050919050565b6000606082019050615855600083018661445a565b615862602083018561445a565b61586f604083018461445a565b949350505050565b7f556e646572666c6f77206572726f720000000000000000000000000000000000600082015250565b60006158ad600f83614b03565b91506158b882615877565b602082019050919050565b600060208201905081810360008301526158dc816158a0565b9050919050565b60006158ee826143e4565b91506158f9836143e4565b925082820390508181111561591157615910614db8565b5b92915050565b7f4f766572666c6f77206572726f72000000000000000000000000000000000000600082015250565b600061594d600e83614b03565b915061595882615917565b602082019050919050565b6000602082019050818103600083015261597c81615940565b9050919050565b600061598e82614f34565b915061599983614f34565b9250828201905082811215600083121683821260008412151617156159c1576159c0614db8565b5b92915050565b6159d081614f34565b82525050565b60006020820190506159eb60008301846159c7565b92915050565b600061010082019050615a07600083018b614bec565b615a14602083018a614bec565b615a216040830189614bec565b615a2e6060830188614bec565b615a3b6080830187614bec565b615a4860a0830186614bec565b615a5560c083018561445a565b615a6260e083018461487f565b9998505050505050505050565b7f6d6178206d6f766520657863656564656420666f7220746f6461790000000000600082015250565b6000615aa5601b83614b03565b9150615ab082615a6f565b602082019050919050565b60006020820190508181036000830152615ad481615a98565b9050919050565b6000819050919050565b6000615b00615afb615af684615adb565b614668565b6143e4565b9050919050565b615b1081615ae5565b82525050565b6000602082019050615b2b6000830184615b07565b92915050565b6000819050919050565b6000615b56615b51615b4c84615b31565b614668565b6143e4565b9050919050565b615b6681615b3b565b82525050565b6000602082019050615b816000830184615b5d565b92915050565b6000819050919050565b6000615bac615ba7615ba284615b87565b614668565b6143e4565b9050919050565b615bbc81615b91565b82525050565b6000604082019050615bd76000830185614722565b615be46020830184615bb3565b9392505050565b6000602082019050615c006000830184615337565b9291505056fea2646970667358221220981df3f0fa9273b41d00e3fe62c80804b3ca7d77a94d86e20f56b2562da34c0564736f6c634300081b0033",
  "linkReferences": {},
  "deployedLinkReferences": {}
}