{
  "_format": "hh-sol-artifact-1",
  "contractName": "Maze",
  "sourceName": "contracts/Maze.sol",
  "abi": [
    {
      "inputs": [],
      "stateMutability": "nonpayable",
      "type": "constructor"
    },
    {
      "inputs": [
        {
          "internalType": "address",
          "name": "owner",
          "type": "address"
        }
      ],
      "name": "OwnableInvalidOwner",
      "type": "error"
    },
    {
      "inputs": [
        {
          "internalType": "address",
          "name": "account",
          "type": "address"
        }
      ],
      "name": "OwnableUnauthorizedAccount",
      "type": "error"
    },
    {
      "anonymous": false,
      "inputs": [
        {
          "indexed": false,
          "internalType": "uint8",
          "name": "maze",
          "type": "uint8"
        },
        {
          "indexed": false,
          "internalType": "bool",
          "name": "unlocked",
          "type": "bool"
        }
      ],
      "name": "MazeStatusChanged",
      "type": "event"
    },
    {
      "anonymous": false,
      "inputs": [
        {
          "indexed": true,
          "internalType": "address",
          "name": "previousOwner",
          "type": "address"
        },
        {
          "indexed": true,
          "internalType": "address",
          "name": "newOwner",
          "type": "address"
        }
      ],
      "name": "OwnershipTransferred",
      "type": "event"
    },
    {
      "inputs": [],
      "name": "GRID_SIZE",
      "outputs": [
        {
          "internalType": "uint8",
          "name": "",
          "type": "uint8"
        }
      ],
      "stateMutability": "view",
      "type": "function"
    },
    {
      "inputs": [
        {
          "internalType": "uint256",
          "name": "",
          "type": "uint256"
        }
      ],
      "name": "MAZE_UNLOCK_DOTS_REQUIRED",
      "outputs": [
        {
          "internalType": "uint256",
          "name": "",
          "type": "uint256"
        }
      ],
      "stateMutability": "view",
      "type": "function"
    },
    {
      "inputs": [],
      "name": "TOTAL_MAZES",
      "outputs": [
        {
          "internalType": "uint8",
          "name": "",
          "type": "uint8"
        }
      ],
      "stateMutability": "view",
      "type": "function"
    },
    {
      "inputs": [
        {
          "internalType": "uint8",
          "name": "maze",
          "type": "uint8"
        },
        {
          "internalType": "uint256",
          "name": "playerid",
          "type": "uint256"
        }
      ],
      "name": "_isMazeUnlocked",
      "outputs": [
        {
          "internalType": "bool",
          "name": "",
          "type": "bool"
        }
      ],
      "stateMutability": "view",
      "type": "function"
    },
    {
      "inputs": [
        {
          "internalType": "uint8",
          "name": "x_victim",
          "type": "uint8"
        },
        {
          "internalType": "uint8",
          "name": "y_victim",
          "type": "uint8"
        },
        {
          "internalType": "uint8",
          "name": "maze_victim",
          "type": "uint8"
        }
      ],
      "name": "_isSurrounded",
      "outputs": [
        {
          "internalType": "bool",
          "name": "",
          "type": "bool"
        }
      ],
      "stateMutability": "view",
      "type": "function"
    },
    {
      "inputs": [
        {
          "internalType": "uint8",
          "name": "maze",
          "type": "uint8"
        },
        {
          "internalType": "uint8",
          "name": "x",
          "type": "uint8"
        },
        {
          "internalType": "uint8",
          "name": "y",
          "type": "uint8"
        },
        {
          "internalType": "uint8",
          "name": "oldx",
          "type": "uint8"
        },
        {
          "internalType": "uint8",
          "name": "oldy",
          "type": "uint8"
        },
        {
          "internalType": "uint256",
          "name": "playerid",
          "type": "uint256"
        }
      ],
      "name": "_movePlayerInMaze",
      "outputs": [
        {
          "internalType": "uint256",
          "name": "",
          "type": "uint256"
        }
      ],
      "stateMutability": "nonpayable",
      "type": "function"
    },
    {
      "inputs": [
        {
          "internalType": "uint8",
          "name": "mazeId",
          "type": "uint8"
        }
      ],
      "name": "_setObstaclesForMaze",
      "outputs": [],
      "stateMutability": "nonpayable",
      "type": "function"
    },
    {
      "inputs": [
        {
          "internalType": "address",
          "name": "",
          "type": "address"
        }
      ],
      "name": "allowedOperators",
      "outputs": [
        {
          "internalType": "bool",
          "name": "",
          "type": "bool"
        }
      ],
      "stateMutability": "view",
      "type": "function"
    },
    {
      "inputs": [],
      "name": "gameEquipContract",
      "outputs": [
        {
          "internalType": "contract GameEquip",
          "name": "",
          "type": "address"
        }
      ],
      "stateMutability": "view",
      "type": "function"
    },
    {
      "inputs": [
        {
          "internalType": "uint8",
          "name": "",
          "type": "uint8"
        },
        {
          "internalType": "uint8",
          "name": "",
          "type": "uint8"
        },
        {
          "internalType": "uint8",
          "name": "",
          "type": "uint8"
        }
      ],
      "name": "hasplayer",
      "outputs": [
        {
          "internalType": "uint256",
          "name": "",
          "type": "uint256"
        }
      ],
      "stateMutability": "view",
      "type": "function"
    },
    {
      "inputs": [
        {
          "internalType": "uint8",
          "name": "",
          "type": "uint8"
        }
      ],
      "name": "maze_dots_consumed",
      "outputs": [
        {
          "internalType": "uint256",
          "name": "",
          "type": "uint256"
        }
      ],
      "stateMutability": "view",
      "type": "function"
    },
    {
      "inputs": [
        {
          "internalType": "uint8",
          "name": "",
          "type": "uint8"
        }
      ],
      "name": "maze_unlocked",
      "outputs": [
        {
          "internalType": "bool",
          "name": "",
          "type": "bool"
        }
      ],
      "stateMutability": "view",
      "type": "function"
    },
    {
      "inputs": [
        {
          "internalType": "uint8",
          "name": "",
          "type": "uint8"
        },
        {
          "internalType": "uint8",
          "name": "",
          "type": "uint8"
        },
        {
          "internalType": "uint8",
          "name": "",
          "type": "uint8"
        }
      ],
      "name": "mazes",
      "outputs": [
        {
          "internalType": "enum Maze.CellState",
          "name": "",
          "type": "uint8"
        }
      ],
      "stateMutability": "view",
      "type": "function"
    },
    {
      "inputs": [],
      "name": "owner",
      "outputs": [
        {
          "internalType": "address",
          "name": "",
          "type": "address"
        }
      ],
      "stateMutability": "view",
      "type": "function"
    },
    {
      "inputs": [],
      "name": "renounceOwnership",
      "outputs": [],
      "stateMutability": "nonpayable",
      "type": "function"
    },
    {
      "inputs": [
        {
          "internalType": "address",
          "name": "_contractAddress",
          "type": "address"
        }
      ],
      "name": "setGameEquipContract",
      "outputs": [],
      "stateMutability": "nonpayable",
      "type": "function"
    },
    {
      "inputs": [
        {
          "internalType": "uint256",
          "name": "level",
          "type": "uint256"
        },
        {
          "internalType": "uint256",
          "name": "value",
          "type": "uint256"
        }
      ],
      "name": "setMazeUnlockDotsRequired",
      "outputs": [],
      "stateMutability": "nonpayable",
      "type": "function"
    },
    {
      "inputs": [
        {
          "internalType": "address",
          "name": "_operator",
          "type": "address"
        },
        {
          "internalType": "bool",
          "name": "allowed",
          "type": "bool"
        }
      ],
      "name": "setOperator",
      "outputs": [],
      "stateMutability": "nonpayable",
      "type": "function"
    },
    {
      "inputs": [],
      "name": "total_dots_consumed",
      "outputs": [
        {
          "internalType": "uint256",
          "name": "",
          "type": "uint256"
        }
      ],
      "stateMutability": "view",
      "type": "function"
    },
    {
      "inputs": [
        {
          "internalType": "address",
          "name": "newOwner",
          "type": "address"
        }
      ],
      "name": "transferOwnership",
      "outputs": [],
      "stateMutability": "nonpayable",
      "type": "function"
    },
    {
      "inputs": [
        {
          "internalType": "uint8",
          "name": "maze",
          "type": "uint8"
        },
        {
          "internalType": "bool",
          "name": "unlocked",
          "type": "bool"
        }
      ],
      "name": "unlockMaze",
      "outputs": [],
      "stateMutability": "nonpayable",
      "type": "function"
    }
  ],
  "bytecode": "0x60806040526000600555604051806101200160405280600061ffff168152602001600061ffff168152602001600061ffff168152602001600061ffff168152602001600061ffff168152602001600461ffff16815260200161157c61ffff16815260200161196461ffff168152602001611d4c61ffff168152506007906009610089929190610950565b5034801561009657600080fd5b5033600073ffffffffffffffffffffffffffffffffffffffff168173ffffffffffffffffffffffffffffffffffffffff160361010a5760006040517f1e4fbdf70000000000000000000000000000000000000000000000000000000081526004016101019190610a01565b60405180910390fd5b6101198161014e60201b60201c565b5060005b600a60ff168160ff1610156101485761013b8161021260201b60201c565b808060010191505061011d565b50610b99565b60008060009054906101000a900473ffffffffffffffffffffffffffffffffffffffff169050816000806101000a81548173ffffffffffffffffffffffffffffffffffffffff021916908373ffffffffffffffffffffffffffffffffffffffff1602179055508173ffffffffffffffffffffffffffffffffffffffff168173ffffffffffffffffffffffffffffffffffffffff167f8be0079c531659141344cd1fd0a4f28419497f9722a3daafe3b4186f6b6457e060405160405180910390a35050565b600660003373ffffffffffffffffffffffffffffffffffffffff1673ffffffffffffffffffffffffffffffffffffffff16815260200190815260200160002060009054906101000a900460ff16806102a2575061027361092760201b60201c565b73ffffffffffffffffffffffffffffffffffffffff163373ffffffffffffffffffffffffffffffffffffffff16145b6102e1576040517f08c379a00000000000000000000000000000000000000000000000000000000081526004016102d890610a79565b60405180910390fd5b60006003826102f09190610ad5565b60ff1603610406576000600a90505b60168160ff161015610404576002600160008460ff1660ff16815260200190815260200160002060008360ff1660ff16815260200190815260200160002060008360ff1660ff16815260200190815260200160002060006101000a81548160ff0219169083600281111561037657610375610b06565b5b02179055506002600160008460ff1660ff168152602001908152602001600020600083601f6103a59190610b64565b60ff1660ff16815260200190815260200160002060008360ff1660ff16815260200190815260200160002060006101000a81548160ff021916908360028111156103f2576103f1610b06565b5b021790555080806001019150506102ff565b505b60016003826104159190610ad5565b60ff160361087b576000600c90505b60148160ff161015610519576002600160008460ff1660ff1681526020019081526020016000206000600a60ff16815260200190815260200160002060008360ff1660ff16815260200190815260200160002060006101000a81548160ff0219169083600281111561049957610498610b06565b5b02179055506002600160008460ff1660ff1681526020019081526020016000206000601560ff16815260200190815260200160002060008360ff1660ff16815260200190815260200160002060006101000a81548160ff0219169083600281111561050757610506610b06565b5b02179055508080600101915050610424565b506002600160008360ff1660ff1681526020019081526020016000206000600b60ff1681526020019081526020016000206000600c60ff16815260200190815260200160002060006101000a81548160ff0219169083600281111561058157610580610b06565b5b02179055506002600160008360ff1660ff1681526020019081526020016000206000600c60ff1681526020019081526020016000206000600c60ff16815260200190815260200160002060006101000a81548160ff021916908360028111156105ed576105ec610b06565b5b02179055506002600160008360ff1660ff1681526020019081526020016000206000601360ff1681526020019081526020016000206000600c60ff16815260200190815260200160002060006101000a81548160ff0219169083600281111561065957610658610b06565b5b02179055506002600160008360ff1660ff1681526020019081526020016000206000601460ff1681526020019081526020016000206000600c60ff16815260200190815260200160002060006101000a81548160ff021916908360028111156106c5576106c4610b06565b5b02179055506002600160008360ff1660ff1681526020019081526020016000206000600b60ff1681526020019081526020016000206000601360ff16815260200190815260200160002060006101000a81548160ff0219169083600281111561073157610730610b06565b5b02179055506002600160008360ff1660ff1681526020019081526020016000206000600c60ff1681526020019081526020016000206000601360ff16815260200190815260200160002060006101000a81548160ff0219169083600281111561079d5761079c610b06565b5b02179055506002600160008360ff1660ff1681526020019081526020016000206000601360ff1681526020019081526020016000206000601360ff16815260200190815260200160002060006101000a81548160ff0219169083600281111561080957610808610b06565b5b02179055506002600160008360ff1660ff1681526020019081526020016000206000601460ff1681526020019081526020016000206000601360ff16815260200190815260200160002060006101000a81548160ff0219169083600281111561087557610874610b06565b5b02179055505b600260038261088a9190610ad5565b60ff1603610924576000600490505b601c8160ff161015610922576002600160008460ff1660ff16815260200190815260200160002060008360ff1660ff16815260200190815260200160002060008360ff1660ff16815260200190815260200160002060006101000a81548160ff021916908360028111156109105761090f610b06565b5b02179055508080600101915050610899565b505b50565b60008060009054906101000a900473ffffffffffffffffffffffffffffffffffffffff16905090565b828054828255906000526020600020908101928215610992579160200282015b82811115610991578251829061ffff16905591602001919060010190610970565b5b50905061099f91906109a3565b5090565b5b808211156109bc5760008160009055506001016109a4565b5090565b600073ffffffffffffffffffffffffffffffffffffffff82169050919050565b60006109eb826109c0565b9050919050565b6109fb816109e0565b82525050565b6000602082019050610a1660008301846109f2565b92915050565b600082825260208201905092915050565b7f4e6f7420616c6c6f776564000000000000000000000000000000000000000000600082015250565b6000610a63600b83610a1c565b9150610a6e82610a2d565b602082019050919050565b60006020820190508181036000830152610a9281610a56565b9050919050565b600060ff82169050919050565b7f4e487b7100000000000000000000000000000000000000000000000000000000600052601260045260246000fd5b6000610ae082610a99565b9150610aeb83610a99565b925082610afb57610afa610aa6565b5b828206905092915050565b7f4e487b7100000000000000000000000000000000000000000000000000000000600052602160045260246000fd5b7f4e487b7100000000000000000000000000000000000000000000000000000000600052601160045260246000fd5b6000610b6f82610a99565b9150610b7a83610a99565b9250828203905060ff811115610b9357610b92610b35565b5b92915050565b61240480610ba86000396000f3fe608060405234801561001057600080fd5b50600436106101375760003560e01c80638da5cb5b116100b8578063d2e808791161007c578063d2e8087914610350578063d71007eb14610380578063e0b5efed1461039c578063ee342b3c146103b8578063f2c7218e146103e8578063f2fde38b1461041857610137565b80638da5cb5b146102845780638fd7b384146102a25780639c4c7b5f146102c0578063a6674f88146102f0578063badeb8711461032057610137565b80636a2124ae116100ff5780636a2124ae146101f0578063715018a61461020e578063776e12b7146102185780637fc4eda8146102365780637fef46f51461025457610137565b80631031a5e81461013c57806331e86c511461015857806333480c8e14610188578063392cec20146101a4578063558a7297146101d4575b600080fd5b61015660048036038101906101519190611b2b565b610434565b005b610172600480360381019061016d9190611b6b565b61056b565b60405161017f9190611c35565b60405180910390f35b6101a2600480360381019061019d9190611cae565b6105a7565b005b6101be60048036038101906101b99190611d11565b6105f3565b6040516101cb9190611d4d565b60405180910390f35b6101ee60048036038101906101e99190611d68565b610617565b005b6101f861067a565b6040516102059190611e07565b60405180910390f35b6102166106a0565b005b6102206106b4565b60405161022d9190611e31565b60405180910390f35b61023e6106b9565b60405161024b9190611e31565b60405180910390f35b61026e60048036038101906102699190611b6b565b6106be565b60405161027b9190611e5b565b60405180910390f35b61028c610ae1565b6040516102999190611e85565b60405180910390f35b6102aa610b0a565b6040516102b79190611d4d565b60405180910390f35b6102da60048036038101906102d59190611ea0565b610b10565b6040516102e79190611d4d565b60405180910390f35b61030a60048036038101906103059190611cae565b611025565b6040516103179190611e5b565b60405180910390f35b61033a60048036038101906103359190611f2d565b611045565b6040516103479190611e5b565b60405180910390f35b61036a60048036038101906103659190611b6b565b611065565b6040516103779190611d4d565b60405180910390f35b61039a60048036038101906103959190611f2d565b611097565b005b6103b660048036038101906103b19190611f5a565b6117a6565b005b6103d260048036038101906103cd9190611f9a565b6117d5565b6040516103df9190611e5b565b60405180910390f35b61040260048036038101906103fd9190611f2d565b6118c4565b60405161040f9190611d4d565b60405180910390f35b610432600480360381019061042d9190611cae565b6118dc565b005b600660003373ffffffffffffffffffffffffffffffffffffffff1673ffffffffffffffffffffffffffffffffffffffff16815260200190815260200160002060009054906101000a900460ff16806104be575061048f610ae1565b73ffffffffffffffffffffffffffffffffffffffff163373ffffffffffffffffffffffffffffffffffffffff16145b6104fd576040517f08c379a00000000000000000000000000000000000000000000000000000000081526004016104f490612037565b60405180910390fd5b80600360008460ff1660ff16815260200190815260200160002060006101000a81548160ff0219169083151502179055507fb3e5933b0271934a09ff33b8f2b18a5d1a4dba80332f7d160830649c9d731274828260405161055f929190612057565b60405180910390a15050565b6001602052826000526040600020602052816000526040600020602052806000526040600020600092509250509054906101000a900460ff1681565b6105af611962565b80600860006101000a81548173ffffffffffffffffffffffffffffffffffffffff021916908373ffffffffffffffffffffffffffffffffffffffff16021790555050565b6007818154811061060357600080fd5b906000526020600020016000915090505481565b61061f611962565b80600660008473ffffffffffffffffffffffffffffffffffffffff1673ffffffffffffffffffffffffffffffffffffffff16815260200190815260200160002060006101000a81548160ff0219169083151502179055505050565b600860009054906101000a900473ffffffffffffffffffffffffffffffffffffffff1681565b6106a8611962565b6106b260006119e9565b565b600a81565b602081565b60008060008460ff16148061072657506000600260008560ff1660ff16815260200190815260200160002060008760ff1660ff168152602001908152602001600020600060018761070f91906120af565b60ff1660ff16815260200190815260200160002054115b806107b4575060028081111561073f5761073e611bbe565b5b600160008560ff1660ff16815260200190815260200160002060008760ff1660ff168152602001908152602001600020600060018761077e91906120af565b60ff1660ff16815260200190815260200160002060009054906101000a900460ff1660028111156107b2576107b1611bbe565b5b145b90506000600160206107c691906120af565b60ff168560ff16148061082c57506000600260008660ff1660ff16815260200190815260200160002060008860ff1660ff168152602001908152602001600020600060018861081591906120e4565b60ff1660ff16815260200190815260200160002054115b806108ba575060028081111561084557610844611bbe565b5b600160008660ff1660ff16815260200190815260200160002060008860ff1660ff168152602001908152602001600020600060018861088491906120e4565b60ff1660ff16815260200190815260200160002060009054906101000a900460ff1660028111156108b8576108b7611bbe565b5b145b90506000808760ff16148061092257506000600260008760ff1660ff168152602001908152602001600020600060018a6108f491906120af565b60ff1660ff16815260200190815260200160002060008860ff1660ff16815260200190815260200160002054115b806109b0575060028081111561093b5761093a611bbe565b5b600160008760ff1660ff168152602001908152602001600020600060018a61096391906120af565b60ff1660ff16815260200190815260200160002060008860ff1660ff16815260200190815260200160002060009054906101000a900460ff1660028111156109ae576109ad611bbe565b5b145b90506000600160206109c291906120af565b60ff168860ff161480610a2857506000600260008860ff1660ff168152602001908152602001600020600060018b6109fa91906120e4565b60ff1660ff16815260200190815260200160002060008960ff1660ff16815260200190815260200160002054115b80610ab65750600280811115610a4157610a40611bbe565b5b600160008860ff1660ff168152602001908152602001600020600060018b610a6991906120e4565b60ff1660ff16815260200190815260200160002060008960ff1660ff16815260200190815260200160002060009054906101000a900460ff166002811115610ab457610ab3611bbe565b5b145b9050838015610ac25750825b8015610acb5750815b8015610ad45750805b9450505050509392505050565b60008060009054906101000a900473ffffffffffffffffffffffffffffffffffffffff16905090565b60055481565b6000600660003373ffffffffffffffffffffffffffffffffffffffff1673ffffffffffffffffffffffffffffffffffffffff16815260200190815260200160002060009054906101000a900460ff1680610b9c5750610b6d610ae1565b73ffffffffffffffffffffffffffffffffffffffff163373ffffffffffffffffffffffffffffffffffffffff16145b610bdb576040517f08c379a0000000000000000000000000000000000000000000000000000000008152600401610bd290612037565b60405180910390fd5b600280811115610bee57610bed611bbe565b5b600160008960ff1660ff16815260200190815260200160002060008860ff1660ff16815260200190815260200160002060008760ff1660ff16815260200190815260200160002060009054906101000a900460ff166002811115610c5557610c54611bbe565b5b03610c95576040517f08c379a0000000000000000000000000000000000000000000000000000000008152600401610c8c90612165565b60405180910390fd5b60008660ff1610158015610caf5750602060ff168660ff16105b8015610cbf575060008560ff1610155b8015610cd15750602060ff168560ff16105b610d10576040517f08c379a0000000000000000000000000000000000000000000000000000000008152600401610d07906121d1565b60405180910390fd5b600a60ff168760ff1610610d59576040517f08c379a0000000000000000000000000000000000000000000000000000000008152600401610d509061223d565b60405180910390fd5b610d6387836117d5565b610da2576040517f08c379a0000000000000000000000000000000000000000000000000000000008152600401610d99906122a9565b60405180910390fd5b6000600260008960ff1660ff16815260200190815260200160002060008660ff1660ff16815260200190815260200160002060008560ff1660ff1681526020019081526020016000208190555081600260008960ff1660ff16815260200190815260200160002060008860ff1660ff16815260200190815260200160002060008760ff1660ff1681526020019081526020016000208190555060006002811115610e4f57610e4e611bbe565b5b600160008960ff1660ff16815260200190815260200160002060008860ff1660ff16815260200190815260200160002060008760ff1660ff16815260200190815260200160002060009054906101000a900460ff166002811115610eb657610eb5611bbe565b5b036110165760018060008960ff1660ff16815260200190815260200160002060008860ff1660ff16815260200190815260200160002060008760ff1660ff16815260200190815260200160002060006101000a81548160ff02191690836002811115610f2557610f24611bbe565b5b02179055506001600460008960ff1660ff1681526020019081526020016000206000828254610f5491906122c9565b92505081905550600160056000828254610f6e91906122c9565b925050819055506000600590505b6001600a610f8a91906120af565b60ff168160ff16101561100c57600360008960ff1660ff16815260200190815260200160002060009054906101000a900460ff16158015610fee575060078160ff1681548110610fdd57610fdc6122fd565b5b906000526020600020015460055410155b15610fff57610ffe816001610434565b5b8080600101915050610f7c565b506001905061101b565b600090505b9695505050505050565b60066020528060005260406000206000915054906101000a900460ff1681565b60036020528060005260406000206000915054906101000a900460ff1681565b600260205282600052604060002060205281600052604060002060205280600052604060002060009250925050505481565b600660003373ffffffffffffffffffffffffffffffffffffffff1673ffffffffffffffffffffffffffffffffffffffff16815260200190815260200160002060009054906101000a900460ff168061112157506110f2610ae1565b73ffffffffffffffffffffffffffffffffffffffff163373ffffffffffffffffffffffffffffffffffffffff16145b611160576040517f08c379a000000000000000000000000000000000000000000000000000000000815260040161115790612037565b60405180910390fd5b600060038261116f919061235b565b60ff1603611285576000600a90505b60168160ff161015611283576002600160008460ff1660ff16815260200190815260200160002060008360ff1660ff16815260200190815260200160002060008360ff1660ff16815260200190815260200160002060006101000a81548160ff021916908360028111156111f5576111f4611bbe565b5b02179055506002600160008460ff1660ff168152602001908152602001600020600083601f61122491906120af565b60ff1660ff16815260200190815260200160002060008360ff1660ff16815260200190815260200160002060006101000a81548160ff0219169083600281111561127157611270611bbe565b5b0217905550808060010191505061117e565b505b6001600382611294919061235b565b60ff16036116fa576000600c90505b60148160ff161015611398576002600160008460ff1660ff1681526020019081526020016000206000600a60ff16815260200190815260200160002060008360ff1660ff16815260200190815260200160002060006101000a81548160ff0219169083600281111561131857611317611bbe565b5b02179055506002600160008460ff1660ff1681526020019081526020016000206000601560ff16815260200190815260200160002060008360ff1660ff16815260200190815260200160002060006101000a81548160ff0219169083600281111561138657611385611bbe565b5b021790555080806001019150506112a3565b506002600160008360ff1660ff1681526020019081526020016000206000600b60ff1681526020019081526020016000206000600c60ff16815260200190815260200160002060006101000a81548160ff02191690836002811115611400576113ff611bbe565b5b02179055506002600160008360ff1660ff1681526020019081526020016000206000600c60ff1681526020019081526020016000206000600c60ff16815260200190815260200160002060006101000a81548160ff0219169083600281111561146c5761146b611bbe565b5b02179055506002600160008360ff1660ff1681526020019081526020016000206000601360ff1681526020019081526020016000206000600c60ff16815260200190815260200160002060006101000a81548160ff021916908360028111156114d8576114d7611bbe565b5b02179055506002600160008360ff1660ff1681526020019081526020016000206000601460ff1681526020019081526020016000206000600c60ff16815260200190815260200160002060006101000a81548160ff0219169083600281111561154457611543611bbe565b5b02179055506002600160008360ff1660ff1681526020019081526020016000206000600b60ff1681526020019081526020016000206000601360ff16815260200190815260200160002060006101000a81548160ff021916908360028111156115b0576115af611bbe565b5b02179055506002600160008360ff1660ff1681526020019081526020016000206000600c60ff1681526020019081526020016000206000601360ff16815260200190815260200160002060006101000a81548160ff0219169083600281111561161c5761161b611bbe565b5b02179055506002600160008360ff1660ff1681526020019081526020016000206000601360ff1681526020019081526020016000206000601360ff16815260200190815260200160002060006101000a81548160ff0219169083600281111561168857611687611bbe565b5b02179055506002600160008360ff1660ff1681526020019081526020016000206000601460ff1681526020019081526020016000206000601360ff16815260200190815260200160002060006101000a81548160ff021916908360028111156116f4576116f3611bbe565b5b02179055505b6002600382611709919061235b565b60ff16036117a3576000600490505b601c8160ff1610156117a1576002600160008460ff1660ff16815260200190815260200160002060008360ff1660ff16815260200190815260200160002060008360ff1660ff16815260200190815260200160002060006101000a81548160ff0219169083600281111561178f5761178e611bbe565b5b02179055508080600101915050611718565b505b50565b6117ae611962565b80600783815481106117c3576117c26122fd565b5b90600052602060002001819055505050565b60006001600a6117e591906120af565b60ff168360ff160361189457600860009054906101000a900473ffffffffffffffffffffffffffffffffffffffff1673ffffffffffffffffffffffffffffffffffffffff1663244aae7a836040518263ffffffff1660e01b815260040161184c9190611d4d565b602060405180830381865afa158015611869573d6000803e3d6000fd5b505050506040513d601f19601f8201168201806040525081019061188d91906123a1565b90506118be565b600360008460ff1660ff16815260200190815260200160002060009054906101000a900460ff1690505b92915050565b60046020528060005260406000206000915090505481565b6118e4611962565b600073ffffffffffffffffffffffffffffffffffffffff168173ffffffffffffffffffffffffffffffffffffffff16036119565760006040517f1e4fbdf700000000000000000000000000000000000000000000000000000000815260040161194d9190611e85565b60405180910390fd5b61195f816119e9565b50565b61196a611aad565b73ffffffffffffffffffffffffffffffffffffffff16611988610ae1565b73ffffffffffffffffffffffffffffffffffffffff16146119e7576119ab611aad565b6040517f118cdaa70000000000000000000000000000000000000000000000000000000081526004016119de9190611e85565b60405180910390fd5b565b60008060009054906101000a900473ffffffffffffffffffffffffffffffffffffffff169050816000806101000a81548173ffffffffffffffffffffffffffffffffffffffff021916908373ffffffffffffffffffffffffffffffffffffffff1602179055508173ffffffffffffffffffffffffffffffffffffffff168173ffffffffffffffffffffffffffffffffffffffff167f8be0079c531659141344cd1fd0a4f28419497f9722a3daafe3b4186f6b6457e060405160405180910390a35050565b600033905090565b600080fd5b600060ff82169050919050565b611ad081611aba565b8114611adb57600080fd5b50565b600081359050611aed81611ac7565b92915050565b60008115159050919050565b611b0881611af3565b8114611b1357600080fd5b50565b600081359050611b2581611aff565b92915050565b60008060408385031215611b4257611b41611ab5565b5b6000611b5085828601611ade565b9250506020611b6185828601611b16565b9150509250929050565b600080600060608486031215611b8457611b83611ab5565b5b6000611b9286828701611ade565b9350506020611ba386828701611ade565b9250506040611bb486828701611ade565b9150509250925092565b7f4e487b7100000000000000000000000000000000000000000000000000000000600052602160045260246000fd5b60038110611bfe57611bfd611bbe565b5b50565b6000819050611c0f82611bed565b919050565b6000611c1f82611c01565b9050919050565b611c2f81611c14565b82525050565b6000602082019050611c4a6000830184611c26565b92915050565b600073ffffffffffffffffffffffffffffffffffffffff82169050919050565b6000611c7b82611c50565b9050919050565b611c8b81611c70565b8114611c9657600080fd5b50565b600081359050611ca881611c82565b92915050565b600060208284031215611cc457611cc3611ab5565b5b6000611cd284828501611c99565b91505092915050565b6000819050919050565b611cee81611cdb565b8114611cf957600080fd5b50565b600081359050611d0b81611ce5565b92915050565b600060208284031215611d2757611d26611ab5565b5b6000611d3584828501611cfc565b91505092915050565b611d4781611cdb565b82525050565b6000602082019050611d626000830184611d3e565b92915050565b60008060408385031215611d7f57611d7e611ab5565b5b6000611d8d85828601611c99565b9250506020611d9e85828601611b16565b9150509250929050565b6000819050919050565b6000611dcd611dc8611dc384611c50565b611da8565b611c50565b9050919050565b6000611ddf82611db2565b9050919050565b6000611df182611dd4565b9050919050565b611e0181611de6565b82525050565b6000602082019050611e1c6000830184611df8565b92915050565b611e2b81611aba565b82525050565b6000602082019050611e466000830184611e22565b92915050565b611e5581611af3565b82525050565b6000602082019050611e706000830184611e4c565b92915050565b611e7f81611c70565b82525050565b6000602082019050611e9a6000830184611e76565b92915050565b60008060008060008060c08789031215611ebd57611ebc611ab5565b5b6000611ecb89828a01611ade565b9650506020611edc89828a01611ade565b9550506040611eed89828a01611ade565b9450506060611efe89828a01611ade565b9350506080611f0f89828a01611ade565b92505060a0611f2089828a01611cfc565b9150509295509295509295565b600060208284031215611f4357611f42611ab5565b5b6000611f5184828501611ade565b91505092915050565b60008060408385031215611f7157611f70611ab5565b5b6000611f7f85828601611cfc565b9250506020611f9085828601611cfc565b9150509250929050565b60008060408385031215611fb157611fb0611ab5565b5b6000611fbf85828601611ade565b9250506020611fd085828601611cfc565b9150509250929050565b600082825260208201905092915050565b7f4e6f7420616c6c6f776564000000000000000000000000000000000000000000600082015250565b6000612021600b83611fda565b915061202c82611feb565b602082019050919050565b6000602082019050818103600083015261205081612014565b9050919050565b600060408201905061206c6000830185611e22565b6120796020830184611e4c565b9392505050565b7f4e487b7100000000000000000000000000000000000000000000000000000000600052601160045260246000fd5b60006120ba82611aba565b91506120c583611aba565b9250828203905060ff8111156120de576120dd612080565b5b92915050565b60006120ef82611aba565b91506120fa83611aba565b9250828201905060ff81111561211357612112612080565b5b92915050565b7f4f62737461636c65000000000000000000000000000000000000000000000000600082015250565b600061214f600883611fda565b915061215a82612119565b602082019050919050565b6000602082019050818103600083015261217e81612142565b9050919050565b7f426f756e64617279000000000000000000000000000000000000000000000000600082015250565b60006121bb600883611fda565b91506121c682612185565b602082019050919050565b600060208201905081810360008301526121ea816121ae565b9050919050565b7f696e76616c6964206d617a650000000000000000000000000000000000000000600082015250565b6000612227600c83611fda565b9150612232826121f1565b602082019050919050565b600060208201905081810360008301526122568161221a565b9050919050565b7f6d617a65206e6f7420756e6c6f636b6564000000000000000000000000000000600082015250565b6000612293601183611fda565b915061229e8261225d565b602082019050919050565b600060208201905081810360008301526122c281612286565b9050919050565b60006122d482611cdb565b91506122df83611cdb565b92508282019050808211156122f7576122f6612080565b5b92915050565b7f4e487b7100000000000000000000000000000000000000000000000000000000600052603260045260246000fd5b7f4e487b7100000000000000000000000000000000000000000000000000000000600052601260045260246000fd5b600061236682611aba565b915061237183611aba565b9250826123815761238061232c565b5b828206905092915050565b60008151905061239b81611aff565b92915050565b6000602082840312156123b7576123b6611ab5565b5b60006123c58482850161238c565b9150509291505056fea26469706673582212206213e03ba7a71a325c6df199b2b987d82c4e70ec35657319ef0338f39fdfb4c164736f6c634300081b0033",
  "linkReferences": {},
  "deployedLinkReferences": {}
}