{
  "_format": "hh-sol-artifact-1",
  "contractName": "Game",
  "sourceName": "contracts/Game.sol",
  "abi": [
    {
      "inputs": [],
      "stateMutability": "nonpayable",
      "type": "constructor"
    },
    {
      "inputs": [
        {
          "internalType": "address",
          "name": "owner",
          "type": "address"
        }
      ],
      "name": "OwnableInvalidOwner",
      "type": "error"
    },
    {
      "inputs": [
        {
          "internalType": "address",
          "name": "account",
          "type": "address"
        }
      ],
      "name": "OwnableUnauthorizedAccount",
      "type": "error"
    },
    {
      "anonymous": false,
      "inputs": [
        {
          "indexed": true,
          "internalType": "address",
          "name": "nftContract",
          "type": "address"
        },
        {
          "indexed": false,
          "internalType": "bool",
          "name": "isAllowed",
          "type": "bool"
        }
      ],
      "name": "AllowedNFTContract",
      "type": "event"
    },
    {
      "anonymous": false,
      "inputs": [
        {
          "indexed": false,
          "internalType": "int256",
          "name": "dotdelta",
          "type": "int256"
        },
        {
          "indexed": true,
          "internalType": "uint256",
          "name": "playerid",
          "type": "uint256"
        }
      ],
      "name": "DotChanged",
      "type": "event"
    },
    {
      "anonymous": false,
      "inputs": [
        {
          "indexed": false,
          "internalType": "uint256",
          "name": "dot",
          "type": "uint256"
        },
        {
          "indexed": false,
          "internalType": "uint256",
          "name": "level",
          "type": "uint256"
        }
      ],
      "name": "DotLocked",
      "type": "event"
    },
    {
      "anonymous": false,
      "inputs": [
        {
          "indexed": false,
          "internalType": "uint256",
          "name": "ending",
          "type": "uint256"
        }
      ],
      "name": "GameEnded",
      "type": "event"
    },
    {
      "anonymous": false,
      "inputs": [
        {
          "indexed": true,
          "internalType": "address",
          "name": "nftContract",
          "type": "address"
        },
        {
          "indexed": true,
          "internalType": "uint256",
          "name": "tokenId",
          "type": "uint256"
        },
        {
          "indexed": true,
          "internalType": "address",
          "name": "owner",
          "type": "address"
        },
        {
          "indexed": false,
          "internalType": "uint256",
          "name": "playerid",
          "type": "uint256"
        }
      ],
      "name": "NFTRegistered",
      "type": "event"
    },
    {
      "anonymous": false,
      "inputs": [
        {
          "indexed": true,
          "internalType": "address",
          "name": "previousOwner",
          "type": "address"
        },
        {
          "indexed": true,
          "internalType": "address",
          "name": "newOwner",
          "type": "address"
        }
      ],
      "name": "OwnershipTransferred",
      "type": "event"
    },
    {
      "anonymous": false,
      "inputs": [
        {
          "indexed": false,
          "internalType": "uint256",
          "name": "attackerplayerid",
          "type": "uint256"
        },
        {
          "indexed": false,
          "internalType": "uint256",
          "name": "victimplayerid",
          "type": "uint256"
        },
        {
          "indexed": false,
          "internalType": "uint256",
          "name": "dotdelta",
          "type": "uint256"
        }
      ],
      "name": "PlayerAttacked",
      "type": "event"
    },
    {
      "anonymous": false,
      "inputs": [
        {
          "indexed": false,
          "internalType": "uint256",
          "name": "maze",
          "type": "uint256"
        },
        {
          "indexed": false,
          "internalType": "uint256",
          "name": "x",
          "type": "uint256"
        },
        {
          "indexed": false,
          "internalType": "uint256",
          "name": "y",
          "type": "uint256"
        },
        {
          "indexed": false,
          "internalType": "uint256",
          "name": "playerid",
          "type": "uint256"
        }
      ],
      "name": "PlayerMoved",
      "type": "event"
    },
    {
      "anonymous": false,
      "inputs": [
        {
          "indexed": false,
          "internalType": "uint256",
          "name": "attackerplayerid",
          "type": "uint256"
        },
        {
          "indexed": false,
          "internalType": "uint256",
          "name": "victimplayerid",
          "type": "uint256"
        }
      ],
      "name": "PlayerRobbed",
      "type": "event"
    },
    {
      "anonymous": false,
      "inputs": [
        {
          "indexed": false,
          "internalType": "enum PlayerStatus",
          "name": "status",
          "type": "uint8"
        },
        {
          "indexed": false,
          "internalType": "uint256",
          "name": "playerid",
          "type": "uint256"
        }
      ],
      "name": "PlayerStatusChanged",
      "type": "event"
    },
    {
      "inputs": [
        {
          "internalType": "uint256",
          "name": "",
          "type": "uint256"
        }
      ],
      "name": "DAILY_MOVES_FOR_LEVELS",
      "outputs": [
        {
          "internalType": "uint256",
          "name": "",
          "type": "uint256"
        }
      ],
      "stateMutability": "view",
      "type": "function"
    },
    {
      "inputs": [
        {
          "internalType": "uint256",
          "name": "",
          "type": "uint256"
        }
      ],
      "name": "DOTS_REQUIRED_FOR_LEVELS",
      "outputs": [
        {
          "internalType": "uint256",
          "name": "",
          "type": "uint256"
        }
      ],
      "stateMutability": "view",
      "type": "function"
    },
    {
      "inputs": [],
      "name": "GAME_ENDED",
      "outputs": [
        {
          "internalType": "enum Ending",
          "name": "",
          "type": "uint8"
        }
      ],
      "stateMutability": "view",
      "type": "function"
    },
    {
      "inputs": [
        {
          "internalType": "uint256",
          "name": "playerid",
          "type": "uint256"
        },
        {
          "internalType": "uint256",
          "name": "shieldsecond",
          "type": "uint256"
        }
      ],
      "name": "_addShieldTime",
      "outputs": [],
      "stateMutability": "nonpayable",
      "type": "function"
    },
    {
      "inputs": [
        {
          "internalType": "uint256",
          "name": "playerid",
          "type": "uint256"
        }
      ],
      "name": "_getPlayerIdAddress",
      "outputs": [
        {
          "internalType": "address",
          "name": "",
          "type": "address"
        }
      ],
      "stateMutability": "view",
      "type": "function"
    },
    {
      "inputs": [
        {
          "internalType": "address",
          "name": "",
          "type": "address"
        }
      ],
      "name": "allowedNFTContracts",
      "outputs": [
        {
          "internalType": "bool",
          "name": "",
          "type": "bool"
        }
      ],
      "stateMutability": "view",
      "type": "function"
    },
    {
      "inputs": [
        {
          "internalType": "address",
          "name": "",
          "type": "address"
        }
      ],
      "name": "allowedOperators",
      "outputs": [
        {
          "internalType": "bool",
          "name": "",
          "type": "bool"
        }
      ],
      "stateMutability": "view",
      "type": "function"
    },
    {
      "inputs": [
        {
          "internalType": "uint256",
          "name": "playerid",
          "type": "uint256"
        },
        {
          "internalType": "uint256",
          "name": "shieldhours",
          "type": "uint256"
        }
      ],
      "name": "buyShield",
      "outputs": [],
      "stateMutability": "payable",
      "type": "function"
    },
    {
      "inputs": [
        {
          "internalType": "address",
          "name": "nftContract",
          "type": "address"
        },
        {
          "internalType": "uint256",
          "name": "tokenId",
          "type": "uint256"
        }
      ],
      "name": "checkPlayerId",
      "outputs": [
        {
          "internalType": "uint256",
          "name": "",
          "type": "uint256"
        }
      ],
      "stateMutability": "view",
      "type": "function"
    },
    {
      "inputs": [],
      "name": "eliminationModeOn",
      "outputs": [
        {
          "internalType": "bool",
          "name": "",
          "type": "bool"
        }
      ],
      "stateMutability": "view",
      "type": "function"
    },
    {
      "inputs": [
        {
          "internalType": "address",
          "name": "nftContract",
          "type": "address"
        },
        {
          "internalType": "uint256",
          "name": "tokenId",
          "type": "uint256"
        },
        {
          "internalType": "uint8",
          "name": "maze",
          "type": "uint8"
        },
        {
          "internalType": "uint8",
          "name": "x",
          "type": "uint8"
        },
        {
          "internalType": "uint8",
          "name": "y",
          "type": "uint8"
        }
      ],
      "name": "enterGame",
      "outputs": [],
      "stateMutability": "nonpayable",
      "type": "function"
    },
    {
      "inputs": [
        {
          "internalType": "uint256",
          "name": "playerid",
          "type": "uint256"
        },
        {
          "internalType": "uint256",
          "name": "destination_playerid",
          "type": "uint256"
        }
      ],
      "name": "forfeit",
      "outputs": [],
      "stateMutability": "nonpayable",
      "type": "function"
    },
    {
      "inputs": [
        {
          "internalType": "enum Game.ConfigKey",
          "name": "key",
          "type": "uint8"
        }
      ],
      "name": "getConfigUint",
      "outputs": [
        {
          "internalType": "uint256",
          "name": "",
          "type": "uint256"
        }
      ],
      "stateMutability": "view",
      "type": "function"
    },
    {
      "inputs": [],
      "name": "level3DotsLocked",
      "outputs": [
        {
          "internalType": "uint256",
          "name": "",
          "type": "uint256"
        }
      ],
      "stateMutability": "view",
      "type": "function"
    },
    {
      "inputs": [],
      "name": "level4DotsLocked",
      "outputs": [
        {
          "internalType": "uint256",
          "name": "",
          "type": "uint256"
        }
      ],
      "stateMutability": "view",
      "type": "function"
    },
    {
      "inputs": [
        {
          "internalType": "uint256",
          "name": "playerid",
          "type": "uint256"
        }
      ],
      "name": "lockIn",
      "outputs": [],
      "stateMutability": "nonpayable",
      "type": "function"
    },
    {
      "inputs": [],
      "name": "mazeContract",
      "outputs": [
        {
          "internalType": "contract Maze",
          "name": "",
          "type": "address"
        }
      ],
      "stateMutability": "view",
      "type": "function"
    },
    {
      "inputs": [
        {
          "internalType": "uint256",
          "name": "playerid",
          "type": "uint256"
        },
        {
          "internalType": "uint8",
          "name": "maze",
          "type": "uint8"
        },
        {
          "internalType": "uint8",
          "name": "x",
          "type": "uint8"
        },
        {
          "internalType": "uint8",
          "name": "y",
          "type": "uint8"
        }
      ],
      "name": "movePlayerTo",
      "outputs": [],
      "stateMutability": "payable",
      "type": "function"
    },
    {
      "inputs": [],
      "name": "next_player_id",
      "outputs": [
        {
          "internalType": "uint256",
          "name": "",
          "type": "uint256"
        }
      ],
      "stateMutability": "view",
      "type": "function"
    },
    {
      "inputs": [
        {
          "internalType": "address",
          "name": "",
          "type": "address"
        },
        {
          "internalType": "uint256",
          "name": "",
          "type": "uint256"
        }
      ],
      "name": "nft_to_playerid",
      "outputs": [
        {
          "internalType": "uint256",
          "name": "",
          "type": "uint256"
        }
      ],
      "stateMutability": "view",
      "type": "function"
    },
    {
      "inputs": [],
      "name": "owner",
      "outputs": [
        {
          "internalType": "address",
          "name": "",
          "type": "address"
        }
      ],
      "stateMutability": "view",
      "type": "function"
    },
    {
      "inputs": [
        {
          "internalType": "uint256",
          "name": "playerid",
          "type": "uint256"
        },
        {
          "internalType": "address",
          "name": "addr",
          "type": "address"
        }
      ],
      "name": "ownsNft",
      "outputs": [
        {
          "internalType": "bool",
          "name": "",
          "type": "bool"
        }
      ],
      "stateMutability": "view",
      "type": "function"
    },
    {
      "inputs": [
        {
          "internalType": "uint256",
          "name": "playerid",
          "type": "uint256"
        }
      ],
      "name": "playerActive",
      "outputs": [
        {
          "internalType": "bool",
          "name": "",
          "type": "bool"
        }
      ],
      "stateMutability": "view",
      "type": "function"
    },
    {
      "inputs": [
        {
          "internalType": "uint256",
          "name": "",
          "type": "uint256"
        }
      ],
      "name": "players",
      "outputs": [
        {
          "components": [
            {
              "internalType": "uint8",
              "name": "x",
              "type": "uint8"
            },
            {
              "internalType": "uint8",
              "name": "y",
              "type": "uint8"
            },
            {
              "internalType": "uint8",
              "name": "maze",
              "type": "uint8"
            }
          ],
          "internalType": "struct PlayerPosition",
          "name": "playerposition",
          "type": "tuple"
        },
        {
          "internalType": "uint256",
          "name": "dots",
          "type": "uint256"
        },
        {
          "internalType": "uint256",
          "name": "level",
          "type": "uint256"
        },
        {
          "internalType": "uint256",
          "name": "nextMoveTime",
          "type": "uint256"
        },
        {
          "internalType": "uint256",
          "name": "nextSwitchMazeTime",
          "type": "uint256"
        },
        {
          "internalType": "uint256",
          "name": "shieldExpireTime",
          "type": "uint256"
        },
        {
          "internalType": "uint256",
          "name": "protectionExpireTime",
          "type": "uint256"
        },
        {
          "internalType": "uint256",
          "name": "vulnerableTime",
          "type": "uint256"
        },
        {
          "internalType": "address",
          "name": "nftContract",
          "type": "address"
        },
        {
          "internalType": "uint256",
          "name": "tokenId",
          "type": "uint256"
        },
        {
          "components": [
            {
              "internalType": "uint256",
              "name": "day",
              "type": "uint256"
            },
            {
              "internalType": "uint256",
              "name": "move",
              "type": "uint256"
            }
          ],
          "internalType": "struct DailyMove",
          "name": "moveInfo",
          "type": "tuple"
        },
        {
          "internalType": "enum PlayerStatus",
          "name": "status",
          "type": "uint8"
        }
      ],
      "stateMutability": "view",
      "type": "function"
    },
    {
      "inputs": [],
      "name": "renounceOwnership",
      "outputs": [],
      "stateMutability": "nonpayable",
      "type": "function"
    },
    {
      "inputs": [],
      "name": "rewardContract",
      "outputs": [
        {
          "internalType": "contract Reward",
          "name": "",
          "type": "address"
        }
      ],
      "stateMutability": "view",
      "type": "function"
    },
    {
      "inputs": [
        {
          "internalType": "uint256",
          "name": "attacker_playerid",
          "type": "uint256"
        },
        {
          "internalType": "uint256",
          "name": "victim_playerid",
          "type": "uint256"
        }
      ],
      "name": "rob",
      "outputs": [],
      "stateMutability": "nonpayable",
      "type": "function"
    },
    {
      "inputs": [
        {
          "internalType": "address",
          "name": "nftContract",
          "type": "address"
        },
        {
          "internalType": "bool",
          "name": "isAllowed",
          "type": "bool"
        }
      ],
      "name": "setAllowedNFTContract",
      "outputs": [],
      "stateMutability": "nonpayable",
      "type": "function"
    },
    {
      "inputs": [
        {
          "internalType": "enum Game.ConfigKey",
          "name": "key",
          "type": "uint8"
        },
        {
          "internalType": "uint256",
          "name": "value",
          "type": "uint256"
        }
      ],
      "name": "setConfigUint",
      "outputs": [],
      "stateMutability": "nonpayable",
      "type": "function"
    },
    {
      "inputs": [
        {
          "internalType": "uint256",
          "name": "level",
          "type": "uint256"
        },
        {
          "internalType": "uint256",
          "name": "value",
          "type": "uint256"
        }
      ],
      "name": "setDailyMovesForLevel",
      "outputs": [],
      "stateMutability": "nonpayable",
      "type": "function"
    },
    {
      "inputs": [
        {
          "internalType": "uint256",
          "name": "level",
          "type": "uint256"
        },
        {
          "internalType": "uint256",
          "name": "value",
          "type": "uint256"
        }
      ],
      "name": "setDotsRequiredForLevel",
      "outputs": [],
      "stateMutability": "nonpayable",
      "type": "function"
    },
    {
      "inputs": [
        {
          "internalType": "address",
          "name": "_contract",
          "type": "address"
        }
      ],
      "name": "setMazeContract",
      "outputs": [],
      "stateMutability": "nonpayable",
      "type": "function"
    },
    {
      "inputs": [
        {
          "internalType": "address",
          "name": "_operator",
          "type": "address"
        },
        {
          "internalType": "bool",
          "name": "allowed",
          "type": "bool"
        }
      ],
      "name": "setOperator",
      "outputs": [],
      "stateMutability": "nonpayable",
      "type": "function"
    },
    {
      "inputs": [
        {
          "internalType": "address",
          "name": "_contract",
          "type": "address"
        }
      ],
      "name": "setRewardContract",
      "outputs": [],
      "stateMutability": "nonpayable",
      "type": "function"
    },
    {
      "inputs": [],
      "name": "toggleGame",
      "outputs": [],
      "stateMutability": "nonpayable",
      "type": "function"
    },
    {
      "inputs": [
        {
          "internalType": "address",
          "name": "newOwner",
          "type": "address"
        }
      ],
      "name": "transferOwnership",
      "outputs": [],
      "stateMutability": "nonpayable",
      "type": "function"
    },
    {
      "inputs": [],
      "name": "withdraw",
      "outputs": [],
      "stateMutability": "nonpayable",
      "type": "function"
    }
  ],
  "bytecode": "0x608060405260016006556000600a60006101000a81548160ff0219169083600481111561002f5761002e610614565b5b02179055506040518060c00160405280600061ffff168152602001600061ffff168152602001601561ffff168152602001605a61ffff16815260200160bd61ffff16815260200161076361ffff16815250600c906006610090929190610552565b506040518060c00160405280600060ff168152602001600a60ff168152602001600f60ff168152602001601460ff168152602001601960ff168152602001601e60ff16815250600d9060066100e69291906105a5565b506000600e60006101000a81548160ff02191690831515021790555034801561010e57600080fd5b5033600073ffffffffffffffffffffffffffffffffffffffff168173ffffffffffffffffffffffffffffffffffffffff16036101825760006040517f1e4fbdf70000000000000000000000000000000000000000000000000000000081526004016101799190610684565b60405180910390fd5b6101918161048e60201b60201c565b50603c600b600080600b8111156101ab576101aa610614565b5b600b8111156101bd576101bc610614565b5b815260200190815260200160002081905550600a600b60006001600b8111156101e9576101e8610614565b5b600b8111156101fb576101fa610614565b5b81526020019081526020016000208190555061a8c0600b60006002600b81111561022857610227610614565b5b600b81111561023a57610239610614565b5b81526020019081526020016000208190555062015180600b60006003600b81111561026857610267610614565b5b600b81111561027a57610279610614565b5b8152602001908152602001600020819055506203f480600b60006004600b8111156102a8576102a7610614565b5b600b8111156102ba576102b9610614565b5b81526020019081526020016000208190555066038d7ea4c68000600b60006005600b8111156102ec576102eb610614565b5b600b8111156102fe576102fd610614565b5b815260200190815260200160002081905550652d79883d2000600b60006006600b81111561032f5761032e610614565b5b600b81111561034157610340610614565b5b8152602001908152602001600020819055506003600b60006007600b81111561036d5761036c610614565b5b600b81111561037f5761037e610614565b5b8152602001908152602001600020819055506003600b60006008600b8111156103ab576103aa610614565b5b600b8111156103bd576103bc610614565b5b815260200190815260200160002081905550600a600b60006009600b8111156103e9576103e8610614565b5b600b8111156103fb576103fa610614565b5b815260200190815260200160002081905550600a600b6000600a600b81111561042757610426610614565b5b600b81111561043957610438610614565b5b815260200190815260200160002081905550610258600b6000600b8081111561046557610464610614565b5b600b81111561047757610476610614565b5b81526020019081526020016000208190555061069f565b60008060009054906101000a900473ffffffffffffffffffffffffffffffffffffffff169050816000806101000a81548173ffffffffffffffffffffffffffffffffffffffff021916908373ffffffffffffffffffffffffffffffffffffffff1602179055508173ffffffffffffffffffffffffffffffffffffffff168173ffffffffffffffffffffffffffffffffffffffff167f8be0079c531659141344cd1fd0a4f28419497f9722a3daafe3b4186f6b6457e060405160405180910390a35050565b828054828255906000526020600020908101928215610594579160200282015b82811115610593578251829061ffff16905591602001919060010190610572565b5b5090506105a191906105f7565b5090565b8280548282559060005260206000209081019282156105e6579160200282015b828111156105e5578251829060ff169055916020019190600101906105c5565b5b5090506105f391906105f7565b5090565b5b808211156106105760008160009055506001016105f8565b5090565b7f4e487b7100000000000000000000000000000000000000000000000000000000600052602160045260246000fd5b600073ffffffffffffffffffffffffffffffffffffffff82169050919050565b600061066e82610643565b9050919050565b61067e81610663565b82525050565b60006020820190506106996000830184610675565b92915050565b615e37806106ae6000396000f3fe60806040526004361061021a5760003560e01c80638da5cb5b11610123578063cb392393116100ab578063deef2a0e1161006f578063deef2a0e146107cd578063f10dcc6b1461080a578063f2fde38b14610826578063f44ca0911461084f578063f71d96cb1461086b5761021a565b8063cb392393146106d6578063ce01f1a4146106ff578063cec3344a1461072a578063cf5a0d4614610767578063d8691bff146107905761021a565b80639fed85ef116100f25780639fed85ef146105df578063a3e2030514610608578063a6674f8814610631578063bba01e491461066e578063c0f6ae97146106995761021a565b80638da5cb5b14610521578063949506f91461054c5780639c96fb20146105775780639fd6865e146105a25761021a565b80636579ee29116101a65780637159292c116101755780637159292c1461042a57806378dccede146104675780637b33d0de146104a45780637fd60e42146104e157806380df50a8146104f85761021a565b80636579ee29146103945780636ea69d62146103bd57806370d3133e146103e8578063715018a6146104135761021a565b806329ad77f9116101ed57806329ad77f9146102d95780633a1cafa8146103025780633ccfd60b1461032b57806351508f0a14610342578063558a72971461036b5761021a565b8063020e33961461021f5780630d601427146102485780631c9a88231461027157806327d3732a1461029c575b600080fd5b34801561022b57600080fd5b506102466004803603810190610241919061465c565b6108b3565b005b34801561025457600080fd5b5061026f600480360381019061026a919061465c565b61129a565b005b34801561027d57600080fd5b506102866114cb565b60405161029391906146ab565b60405180910390f35b3480156102a857600080fd5b506102c360048036038101906102be91906146c6565b6114d1565b6040516102d091906146ab565b60405180910390f35b3480156102e557600080fd5b5061030060048036038101906102fb919061478a565b6114f5565b005b34801561030e57600080fd5b5061032960048036038101906103249190614805565b611c21565b005b34801561033757600080fd5b50610340611c6d565b005b34801561034e57600080fd5b5061036960048036038101906103649190614805565b611cbe565b005b34801561037757600080fd5b50610392600480360381019061038d919061486a565b611d0a565b005b3480156103a057600080fd5b506103bb60048036038101906103b691906146c6565b611d6d565b005b3480156103c957600080fd5b506103d2612193565b6040516103df9190614909565b60405180910390f35b3480156103f457600080fd5b506103fd6121b9565b60405161040a9190614933565b60405180910390f35b34801561041f57600080fd5b506104286121cc565b005b34801561043657600080fd5b50610451600480360381019061044c919061494e565b6121e0565b60405161045e9190614933565b60405180910390f35b34801561047357600080fd5b5061048e6004803603810190610489919061498e565b6122de565b60405161049b91906146ab565b60405180910390f35b3480156104b057600080fd5b506104cb60048036038101906104c691906146c6565b612339565b6040516104d891906149dd565b60405180910390f35b3480156104ed57600080fd5b506104f6612413565b005b34801561050457600080fd5b5061051f600480360381019061051a919061486a565b6124ef565b005b34801561052d57600080fd5b506105366125a0565b60405161054391906149dd565b60405180910390f35b34801561055857600080fd5b506105616125c9565b60405161056e9190614a19565b60405180910390f35b34801561058357600080fd5b5061058c6125ef565b6040516105999190614aab565b60405180910390f35b3480156105ae57600080fd5b506105c960048036038101906105c491906146c6565b612602565b6040516105d691906146ab565b60405180910390f35b3480156105eb57600080fd5b5061060660048036038101906106019190614aeb565b612626565b005b34801561061457600080fd5b5061062f600480360381019061062a919061465c565b61272f565b005b34801561063d57600080fd5b5061065860048036038101906106539190614805565b61275e565b6040516106659190614933565b60405180910390f35b34801561067a57600080fd5b5061068361277e565b60405161069091906146ab565b60405180910390f35b3480156106a557600080fd5b506106c060048036038101906106bb9190614805565b612784565b6040516106cd9190614933565b60405180910390f35b3480156106e257600080fd5b506106fd60048036038101906106f8919061465c565b6127a4565b005b34801561070b57600080fd5b506107146127d3565b60405161072191906146ab565b60405180910390f35b34801561073657600080fd5b50610751600480360381019061074c919061498e565b6127d9565b60405161075e91906146ab565b60405180910390f35b34801561077357600080fd5b5061078e6004803603810190610789919061465c565b6127fe565b005b34801561079c57600080fd5b506107b760048036038101906107b291906146c6565b612b35565b6040516107c49190614933565b60405180910390f35b3480156107d957600080fd5b506107f460048036038101906107ef9190614b2b565b612b89565b60405161080191906146ab565b60405180910390f35b610824600480360381019061081f919061465c565b612bca565b005b34801561083257600080fd5b5061084d60048036038101906108489190614805565b612c7e565b005b61086960048036038101906108649190614b58565b612d04565b005b34801561087757600080fd5b50610892600480360381019061088d91906146c6565b613650565b6040516108aa9c9b9a99989796959493929190614c96565b60405180910390f35b600060048111156108c7576108c6614a34565b5b600a60009054906101000a900460ff1660048111156108e9576108e8614a34565b5b14610929576040517f08c379a000000000000000000000000000000000000000000000000000000000815260040161092090614daf565b60405180910390fd5b61093382336121e0565b61093c57600080fd5b6000600760008481526020019081526020016000209050600060076000848152602001908152602001600020905060008160000160000160009054906101000a900460ff16905060008260000160000160019054906101000a900460ff16905060008360000160000160029054906101000a900460ff16905060008560000160000160009054906101000a900460ff16905060008660000160000160019054906101000a900460ff16905060008660000160000160029054906101000a900460ff169050600487600101541015610a1257600080fd5b600460009054906101000a900473ffffffffffffffffffffffffffffffffffffffff1673ffffffffffffffffffffffffffffffffffffffff16637fef46f58787876040518463ffffffff1660e01b8152600401610a7193929190614dde565b602060405180830381865afa158015610a8e573d6000803e3d6000fd5b505050506040513d601f19601f82011682018060405250810190610ab29190614e2a565b610af1576040517f08c379a0000000000000000000000000000000000000000000000000000000008152600401610ae890614ea3565b60405180910390fd5b8060ff168460ff16148015610b0e5750610b0d8686858561375c565b5b610b4d576040517f08c379a0000000000000000000000000000000000000000000000000000000008152600401610b4490614ea3565b60405180910390fd5b866005015442118015610b635750866006015442115b80610b715750866007015442105b610bb0576040517f08c379a0000000000000000000000000000000000000000000000000000000008152600401610ba790614f0f565b60405180910390fd5b600b60006002600b811115610bc857610bc7614a34565b5b600b811115610bda57610bd9614a34565b5b81526020019081526020016000205442610bf49190614f5e565b8760060181905550600060646063600b60006009600b811115610c1a57610c19614a34565b5b600b811115610c2c57610c2b614a34565b5b8152602001908152602001600020548a60010154610c4a9190614f92565b610c549190614f5e565b610c5e9190615003565b90506000600460009054906101000a900473ffffffffffffffffffffffffffffffffffffffff1673ffffffffffffffffffffffffffffffffffffffff1663d2e80879878a60018b610caf9190615034565b6040518463ffffffff1660e01b8152600401610ccd93929190614dde565b602060405180830381865afa158015610cea573d6000803e3d6000fd5b505050506040513d601f19601f82011682018060405250810190610d0e919061507e565b1115610ddd57610d278a82610d22906150b5565b61377a565b610ddc600460009054906101000a900473ffffffffffffffffffffffffffffffffffffffff1673ffffffffffffffffffffffffffffffffffffffff1663d2e80879878a60018b610d779190615034565b6040518463ffffffff1660e01b8152600401610d9593929190614dde565b602060405180830381865afa158015610db2573d6000803e3d6000fd5b505050506040513d601f19601f82011682018060405250810190610dd6919061507e565b8261377a565b5b6000600460009054906101000a900473ffffffffffffffffffffffffffffffffffffffff1673ffffffffffffffffffffffffffffffffffffffff1663d2e80879878a60018b610e2c91906150fd565b6040518463ffffffff1660e01b8152600401610e4a93929190614dde565b602060405180830381865afa158015610e67573d6000803e3d6000fd5b505050506040513d601f19601f82011682018060405250810190610e8b919061507e565b1115610f5a57610ea48a82610e9f906150b5565b61377a565b610f59600460009054906101000a900473ffffffffffffffffffffffffffffffffffffffff1673ffffffffffffffffffffffffffffffffffffffff1663d2e80879878a60018b610ef491906150fd565b6040518463ffffffff1660e01b8152600401610f1293929190614dde565b602060405180830381865afa158015610f2f573d6000803e3d6000fd5b505050506040513d601f19601f82011682018060405250810190610f53919061507e565b8261377a565b5b6000600460009054906101000a900473ffffffffffffffffffffffffffffffffffffffff1673ffffffffffffffffffffffffffffffffffffffff1663d2e808798760018b610fa89190615034565b8a6040518463ffffffff1660e01b8152600401610fc793929190614dde565b602060405180830381865afa158015610fe4573d6000803e3d6000fd5b505050506040513d601f19601f82011682018060405250810190611008919061507e565b11156110d7576110218a8261101c906150b5565b61377a565b6110d6600460009054906101000a900473ffffffffffffffffffffffffffffffffffffffff1673ffffffffffffffffffffffffffffffffffffffff1663d2e808798760018b6110709190615034565b8a6040518463ffffffff1660e01b815260040161108f93929190614dde565b602060405180830381865afa1580156110ac573d6000803e3d6000fd5b505050506040513d601f19601f820116820180604052508101906110d0919061507e565b8261377a565b5b6000600460009054906101000a900473ffffffffffffffffffffffffffffffffffffffff1673ffffffffffffffffffffffffffffffffffffffff1663d2e808798760018b61112591906150fd565b8a6040518463ffffffff1660e01b815260040161114493929190614dde565b602060405180830381865afa158015611161573d6000803e3d6000fd5b505050506040513d601f19601f82011682018060405250810190611185919061507e565b11156112545761119e8a82611199906150b5565b61377a565b611253600460009054906101000a900473ffffffffffffffffffffffffffffffffffffffff1673ffffffffffffffffffffffffffffffffffffffff1663d2e808798760018b6111ed91906150fd565b8a6040518463ffffffff1660e01b815260040161120c93929190614dde565b602060405180830381865afa158015611229573d6000803e3d6000fd5b505050506040513d601f19601f8201168201806040525081019061124d919061507e565b8261377a565b5b7f039acdbcd12dc628ff78fef26945113fc3d9ca7dcca364e7d7807178768266ad8b8b604051611285929190615132565b60405180910390a15050505050505050505050565b6112a482336121e0565b6112ad57600080fd5b600060048111156112c1576112c0614a34565b5b600a60009054906101000a900460ff1660048111156112e3576112e2614a34565b5b14611323576040517f08c379a000000000000000000000000000000000000000000000000000000000815260040161131a906151a7565b60405180910390fd5b80820361132f57600080fd5b6001600481111561134357611342614a34565b5b60076000848152602001908152602001600020600c0160009054906101000a900460ff16600481111561137957611378614a34565b5b1480156113cd57506001600481111561139557611394614a34565b5b60076000838152602001908152602001600020600c0160009054906101000a900460ff1660048111156113cb576113ca614a34565b5b145b61140c576040517f08c379a000000000000000000000000000000000000000000000000000000000815260040161140390615213565b60405180910390fd5b600060076000848152602001908152602001600020600101549050600360076000858152602001908152602001600020600c0160006101000a81548160ff0219169083600481111561146157611460614a34565b5b02179055506114798382611474906150b5565b61377a565b611483828261377a565b61148c836138db565b7f225f3b692ac11cdafcafb064a6e0d96cb25948e1d431d5f5e2dfd3dea63896066003846040516114be929190615233565b60405180910390a1505050565b60085481565b600c81815481106114e157600080fd5b906000526020600020016000915090505481565b60008590506000600481111561150e5761150d614a34565b5b600a60009054906101000a900460ff1660048111156115305761152f614a34565b5b14801561154a5750600e60009054906101000a900460ff16155b611589576040517f08c379a000000000000000000000000000000000000000000000000000000000815260040161158090614ea3565b60405180910390fd5b600160008773ffffffffffffffffffffffffffffffffffffffff1673ffffffffffffffffffffffffffffffffffffffff16815260200190815260200160002060009054906101000a900460ff16611615576040517f08c379a000000000000000000000000000000000000000000000000000000000815260040161160c906152a8565b60405180910390fd5b3373ffffffffffffffffffffffffffffffffffffffff168173ffffffffffffffffffffffffffffffffffffffff16636352211e876040518263ffffffff1660e01b815260040161166591906146ab565b602060405180830381865afa158015611682573d6000803e3d6000fd5b505050506040513d601f19601f820116820180604052508101906116a691906152dd565b73ffffffffffffffffffffffffffffffffffffffff16146116fc576040517f08c379a00000000000000000000000000000000000000000000000000000000081526004016116f390615356565b60405180910390fd5b6000600560008873ffffffffffffffffffffffffffffffffffffffff1673ffffffffffffffffffffffffffffffffffffffff1681526020019081526020016000206000878152602001908152602001600020541461178f576040517f08c379a0000000000000000000000000000000000000000000000000000000008152600401611786906153c2565b60405180910390fd5b6000600460009054906101000a900473ffffffffffffffffffffffffffffffffffffffff1673ffffffffffffffffffffffffffffffffffffffff1663d2e808798686866040518463ffffffff1660e01b81526004016117f093929190614dde565b602060405180830381865afa15801561180d573d6000803e3d6000fd5b505050506040513d601f19601f82011682018060405250810190611831919061507e565b1461183b57600080fd5b600654600560008873ffffffffffffffffffffffffffffffffffffffff1673ffffffffffffffffffffffffffffffffffffffff16815260200190815260200160002060008781526020019081526020016000208190555060405180610180016040528060405180606001604052808660ff1681526020018560ff1681526020018760ff1681525081526020016000815260200160018152602001600b600080600b8111156118ec576118eb614a34565b5b600b8111156118fe576118fd614a34565b5b815260200190815260200160002054426119189190614f5e565b8152602001600b60006004600b81111561193557611934614a34565b5b600b81111561194757611946614a34565b5b815260200190815260200160002054426119619190614f5e565b81526020016000815260200160008152602001600081526020018773ffffffffffffffffffffffffffffffffffffffff16815260200186815260200160405180604001604052806000815260200160008152508152602001600160048111156119cd576119cc614a34565b5b81525060076000600654815260200190815260200160002060008201518160000160008201518160000160006101000a81548160ff021916908360ff16021790555060208201518160000160016101000a81548160ff021916908360ff16021790555060408201518160000160026101000a81548160ff021916908360ff16021790555050506020820151816001015560408201518160020155606082015181600301556080820151816004015560a0820151816005015560c0820151816006015560e082015181600701556101008201518160080160006101000a81548173ffffffffffffffffffffffffffffffffffffffff021916908373ffffffffffffffffffffffffffffffffffffffff160217905550610120820151816009015561014082015181600a016000820151816000015560208201518160010155505061016082015181600c0160006101000a81548160ff02191690836004811115611b3857611b37614a34565b5b02179055509050503373ffffffffffffffffffffffffffffffffffffffff16858773ffffffffffffffffffffffffffffffffffffffff167fa9894c605a4e71658774ce8b7875aec503c277b93e274f8788c1fce5f896bc74600654604051611ba091906146ab565b60405180910390a47f225f3b692ac11cdafcafb064a6e0d96cb25948e1d431d5f5e2dfd3dea63896066001600654604051611bdc929190615233565b60405180910390a1611bf48484846006546001613abe565b611bff600654613cc5565b600160066000828254611c129190614f5e565b92505081905550505050505050565b611c29613e05565b80600460006101000a81548173ffffffffffffffffffffffffffffffffffffffff021916908373ffffffffffffffffffffffffffffffffffffffff16021790555050565b611c75613e05565b3373ffffffffffffffffffffffffffffffffffffffff166108fc479081150290604051600060405180830381858888f19350505050158015611cbb573d6000803e3d6000fd5b50565b611cc6613e05565b80600360006101000a81548173ffffffffffffffffffffffffffffffffffffffff021916908373ffffffffffffffffffffffffffffffffffffffff16021790555050565b611d12613e05565b80600260008473ffffffffffffffffffffffffffffffffffffffff1673ffffffffffffffffffffffffffffffffffffffff16815260200190815260200160002060006101000a81548160ff0219169083151502179055505050565b611d7781336121e0565b611d8057600080fd5b60006004811115611d9457611d93614a34565b5b600a60009054906101000a900460ff166004811115611db657611db5614a34565b5b14611dc057600080fd5b60016004811115611dd457611dd3614a34565b5b60076000838152602001908152602001600020600c0160009054906101000a900460ff166004811115611e0a57611e09614a34565b5b14611e4a576040517f08c379a0000000000000000000000000000000000000000000000000000000008152600401611e419061542e565b60405180910390fd5b600b60006007600b811115611e6257611e61614a34565b5b600b811115611e7457611e73614a34565b5b81526020019081526020016000205460076000838152602001908152602001600020600201541015611edb576040517f08c379a0000000000000000000000000000000000000000000000000000000008152600401611ed29061549a565b60405180910390fd5b600260076000838152602001908152602001600020600c0160006101000a81548160ff02191690836004811115611f1557611f14614a34565b5b021790555060006007600083815260200190815260200160002060010154905060006007600084815260200190815260200160002060020154905060038103612050578160086000828254611f6a9190614f5e565b92505081905550600360009054906101000a900473ffffffffffffffffffffffffffffffffffffffff1673ffffffffffffffffffffffffffffffffffffffff1663c6fca20b600360076000878152602001908152602001600020600901546007600088815260200190815260200160002060080160009054906101000a900473ffffffffffffffffffffffffffffffffffffffff166040518463ffffffff1660e01b815260040161201d939291906154f5565b600060405180830381600087803b15801561203757600080fd5b505af115801561204b573d6000803e3d6000fd5b505050505b6004810361210a57816009600082825461206a9190614f5e565b92505081905550600360009054906101000a900473ffffffffffffffffffffffffffffffffffffffff1673ffffffffffffffffffffffffffffffffffffffff16636f9fd2fc6120b885612339565b60046040518363ffffffff1660e01b81526004016120d7929190615567565b600060405180830381600087803b1580156120f157600080fd5b505af1158015612105573d6000803e3d6000fd5b505050505b7f225f3b692ac11cdafcafb064a6e0d96cb25948e1d431d5f5e2dfd3dea638960660028460405161213c929190615233565b60405180910390a17f96471c5c697a4607b045eea2a27fa36868cf52b83096e1d665e58535386dfc7f8282604051612175929190615132565b60405180910390a1612186836138db565b61218e613e8c565b505050565b600360009054906101000a900473ffffffffffffffffffffffffffffffffffffffff1681565b600e60009054906101000a900460ff1681565b6121d4613e05565b6121de600061400c565b565b60008173ffffffffffffffffffffffffffffffffffffffff166007600085815260200190815260200160002060080160009054906101000a900473ffffffffffffffffffffffffffffffffffffffff1673ffffffffffffffffffffffffffffffffffffffff16636352211e60076000878152602001908152602001600020600901546040518263ffffffff1660e01b815260040161227e91906146ab565b602060405180830381865afa15801561229b573d6000803e3d6000fd5b505050506040513d601f19601f820116820180604052508101906122bf91906152dd565b73ffffffffffffffffffffffffffffffffffffffff1614905092915050565b6000600560008473ffffffffffffffffffffffffffffffffffffffff1673ffffffffffffffffffffffffffffffffffffffff168152602001908152602001600020600083815260200190815260200160002054905092915050565b6000806007600084815260200190815260200160002060080160009054906101000a900473ffffffffffffffffffffffffffffffffffffffff1690506000600760008581526020019081526020016000206009015490508173ffffffffffffffffffffffffffffffffffffffff16636352211e826040518263ffffffff1660e01b81526004016123c991906146ab565b602060405180830381865afa1580156123e6573d6000803e3d6000fd5b505050506040513d601f19601f8201168201806040525081019061240a91906152dd565b92505050919050565b61241b613e05565b6000600481111561242f5761242e614a34565b5b600a60009054906101000a900460ff16600481111561245157612450614a34565b5b03612486576004600a60006101000a81548160ff0219169083600481111561247c5761247b614a34565b5b02179055506124ed565b60048081111561249957612498614a34565b5b600a60009054906101000a900460ff1660048111156124bb576124ba614a34565b5b036124ec576000600a60006101000a81548160ff021916908360048111156124e6576124e5614a34565b5b02179055505b5b565b6124f7613e05565b80600160008473ffffffffffffffffffffffffffffffffffffffff1673ffffffffffffffffffffffffffffffffffffffff16815260200190815260200160002060006101000a81548160ff0219169083151502179055508173ffffffffffffffffffffffffffffffffffffffff167fab7ee07d6fcd55d3521af17f0fc9a09487385d36c421d23bdd1eac42e532043c826040516125949190614933565b60405180910390a25050565b60008060009054906101000a900473ffffffffffffffffffffffffffffffffffffffff16905090565b600460009054906101000a900473ffffffffffffffffffffffffffffffffffffffff1681565b600a60009054906101000a900460ff1681565b600d818154811061261257600080fd5b906000526020600020016000915090505481565b600260003373ffffffffffffffffffffffffffffffffffffffff1673ffffffffffffffffffffffffffffffffffffffff16815260200190815260200160002060009054906101000a900460ff16806126b057506126816125a0565b73ffffffffffffffffffffffffffffffffffffffff163373ffffffffffffffffffffffffffffffffffffffff16145b6126ef576040517f08c379a00000000000000000000000000000000000000000000000000000000081526004016126e6906155dc565b60405180910390fd5b80600b600084600b81111561270757612706614a34565b5b600b81111561271957612718614a34565b5b8152602001908152602001600020819055505050565b612737613e05565b80600c838154811061274c5761274b6155fc565b5b90600052602060002001819055505050565b60026020528060005260406000206000915054906101000a900460ff1681565b60065481565b60016020528060005260406000206000915054906101000a900460ff1681565b6127ac613e05565b80600d83815481106127c1576127c06155fc565b5b90600052602060002001819055505050565b60095481565b6005602052816000526040600020602052806000526040600020600091509150505481565b600260003373ffffffffffffffffffffffffffffffffffffffff1673ffffffffffffffffffffffffffffffffffffffff16815260200190815260200160002060009054906101000a900460ff168061288857506128596125a0565b73ffffffffffffffffffffffffffffffffffffffff163373ffffffffffffffffffffffffffffffffffffffff16145b6128c7576040517f08c379a00000000000000000000000000000000000000000000000000000000081526004016128be906155dc565b60405180910390fd5b600060048111156128db576128da614a34565b5b600a60009054906101000a900460ff1660048111156128fd576128fc614a34565b5b1461293d576040517f08c379a000000000000000000000000000000000000000000000000000000000815260040161293490614daf565b60405180910390fd5b600b60006003600b81111561295557612954614a34565b5b600b81111561296757612966614a34565b5b815260200190815260200160002054426129819190614f5e565b8160076000858152602001908152602001600020600501546129a39190614f5e565b11156129e4576040517f08c379a00000000000000000000000000000000000000000000000000000000081526004016129db9061569d565b60405180910390fd5b600b60006003600b8111156129fc576129fb614a34565b5b600b811115612a0e57612a0d614a34565b5b815260200190815260200160002054811115612a5f576040517f08c379a0000000000000000000000000000000000000000000000000000000008152600401612a5690614ea3565b60405180910390fd5b600b60006008600b811115612a7757612a76614a34565b5b600b811115612a8957612a88614a34565b5b81526020019081526020016000205460076000848152602001908152602001600020600201541015612aba57600080fd5b4260076000848152602001908152602001600020600501541115612b0a5780600760008481526020019081526020016000206005016000828254612afe9190614f5e565b92505081905550612b31565b8042612b169190614f5e565b60076000848152602001908152602001600020600501819055505b5050565b600060016004811115612b4b57612b4a614a34565b5b60076000848152602001908152602001600020600c0160009054906101000a900460ff166004811115612b8157612b80614a34565b5b149050919050565b6000600b600083600b811115612ba257612ba1614a34565b5b600b811115612bb457612bb3614a34565b5b8152602001908152602001600020549050919050565b80600b60006006600b811115612be357612be2614a34565b5b600b811115612bf557612bf4614a34565b5b815260200190815260200160002054612c0e9190614f92565b341015612c50576040517f08c379a0000000000000000000000000000000000000000000000000000000008152600401612c4790615709565b60405180910390fd5b612c5a82336121e0565b612c6357600080fd5b612c7a82610e1083612c759190614f92565b6127fe565b5050565b612c86613e05565b600073ffffffffffffffffffffffffffffffffffffffff168173ffffffffffffffffffffffffffffffffffffffff1603612cf85760006040517f1e4fbdf7000000000000000000000000000000000000000000000000000000008152600401612cef91906149dd565b60405180910390fd5b612d018161400c565b50565b60006004811115612d1857612d17614a34565b5b600a60009054906101000a900460ff166004811115612d3a57612d39614a34565b5b14612d7a576040517f08c379a0000000000000000000000000000000000000000000000000000000008152600401612d7190614daf565b60405180910390fd5b42600760008681526020019081526020016000206003015410612dd2576040517f08c379a0000000000000000000000000000000000000000000000000000000008152600401612dc990615775565b60405180910390fd5b612ddc84336121e0565b612de557600080fd5b60016004811115612df957612df8614a34565b5b60076000868152602001908152602001600020600c0160009054906101000a900460ff166004811115612e2f57612e2e614a34565b5b14612e6f576040517f08c379a0000000000000000000000000000000000000000000000000000000008152600401612e669061542e565b60405180910390fd5b60006007600086815260200190815260200160002060000160000160009054906101000a900460ff16905060006007600087815260200190815260200160002060000160000160019054906101000a900460ff1690508460ff166007600088815260200190815260200160002060000160000160029054906101000a900460ff1660ff1614613143576000600460009054906101000a900473ffffffffffffffffffffffffffffffffffffffff1673ffffffffffffffffffffffffffffffffffffffff1663d2e808798787876040518463ffffffff1660e01b8152600401612f5993929190614dde565b602060405180830381865afa158015612f76573d6000803e3d6000fd5b505050506040513d601f19601f82011682018060405250810190612f9a919061507e565b14612fda576040517f08c379a0000000000000000000000000000000000000000000000000000000008152600401612fd1906157e1565b60405180910390fd5b60076000878152602001908152602001600020600401544211806130365750600b60006005600b81111561301157613010614a34565b5b600b81111561302357613022614a34565b5b8152602001908152602001600020543410155b613075576040517f08c379a000000000000000000000000000000000000000000000000000000000815260040161306c9061584d565b60405180910390fd5b600b600080600b81111561308c5761308b614a34565b5b600b81111561309e5761309d614a34565b5b815260200190815260200160002054426130b89190614f5e565b6007600088815260200190815260200160002060030181905550600b60006004600b8111156130ea576130e9614a34565b5b600b8111156130fc576130fb614a34565b5b815260200190815260200160002054426131169190614f5e565b600760008881526020019081526020016000206004018190555061313e858585896001613abe565b6135c6565b6000600460009054906101000a900473ffffffffffffffffffffffffffffffffffffffff1673ffffffffffffffffffffffffffffffffffffffff1663d2e808798787876040518463ffffffff1660e01b81526004016131a493929190614dde565b602060405180830381865afa1580156131c1573d6000803e3d6000fd5b505050506040513d601f19601f820116820180604052508101906131e5919061507e565b036131fd576131f8858585896000613abe565b613567565b6000600460009054906101000a900473ffffffffffffffffffffffffffffffffffffffff1673ffffffffffffffffffffffffffffffffffffffff1663d2e808798787876040518463ffffffff1660e01b815260040161325e93929190614dde565b602060405180830381865afa15801561327b573d6000803e3d6000fd5b505050506040513d601f19601f8201168201806040525081019061329f919061507e565b9050600060646063600b60006009600b8111156132bf576132be614a34565b5b600b8111156132d1576132d0614a34565b5b81526020019081526020016000205460076000868152602001908152602001600020600101546133019190614f92565b61330b9190614f5e565b6133159190615003565b90506007600083815260200190815260200160002060020154600760008a8152602001908152602001600020600201541015613386576040517f08c379a000000000000000000000000000000000000000000000000000000000815260040161337d906158b9565b60405180910390fd5b60076000838152602001908152602001600020600501544211806133bf5750600760008381526020019081526020016000206007015442105b6133fe576040517f08c379a00000000000000000000000000000000000000000000000000000000081526004016133f590615925565b60405180910390fd5b60076000838152602001908152602001600020600601544211806134375750600760008381526020019081526020016000206007015442105b613476576040517f08c379a000000000000000000000000000000000000000000000000000000000815260040161346d90615991565b60405180910390fd5b600b60006002600b81111561348e5761348d614a34565b5b600b8111156134a05761349f614a34565b5b815260200190815260200160002054426134ba9190614f5e565b6007600084815260200190815260200160002060060181905550600060076000848152602001908152602001600020600701819055506134fa888261377a565b61350d8282613508906150b5565b61377a565b61351b8787878b6000613abe565b613529878585856001613abe565b7f8e94011834e20398e9c758cc1be311eab76fd80b1e439bd2c59fc4ed3195a8b088838360405161355c939291906159b1565b60405180910390a150505b600b60006001600b81111561357f5761357e614a34565b5b600b81111561359157613590614a34565b5b815260200190815260200160002054426135ab9190614f5e565b60076000888152602001908152602001600020600301819055505b600b6000600b808111156135dd576135dc614a34565b5b600b8111156135ef576135ee614a34565b5b815260200190815260200160002054426136099190614f5e565b60076000888152602001908152602001600020600701819055506000600760008881526020019081526020016000206006018190555061364886613cc5565b505050505050565b6007602052806000526040600020600091509050806000016040518060600160405290816000820160009054906101000a900460ff1660ff1660ff1681526020016000820160019054906101000a900460ff1660ff1660ff1681526020016000820160029054906101000a900460ff1660ff1660ff1681525050908060010154908060020154908060030154908060040154908060050154908060060154908060070154908060080160009054906101000a900473ffffffffffffffffffffffffffffffffffffffff169080600901549080600a01604051806040016040529081600082015481526020016001820154815250509080600c0160009054906101000a900460ff1690508c565b6000600161376c868686866140d0565b60ff16149050949350505050565b6000600760008481526020019081526020016000206001015490506000821215806137ae5750816137aa906150b5565b8110155b6137ed576040517f08c379a00000000000000000000000000000000000000000000000000000000081526004016137e490615a34565b60405180910390fd5b6000821315806138285750807fffffffffffffffffffffffffffffffffffffffffffffffffffffffffffffffff6138249190615a54565b8211155b613867576040517f08c379a000000000000000000000000000000000000000000000000000000000815260040161385e90615ad4565b60405180910390fd5b81816138739190615af4565b600760008581526020019081526020016000206001018190555061389683614147565b61389e61448b565b827f3c4a2e2bac8926425dd3e4e1487869f1a441950df5336e151eada44d5550a11e836040516138ce9190615b47565b60405180910390a2505050565b600460009054906101000a900473ffffffffffffffffffffffffffffffffffffffff1673ffffffffffffffffffffffffffffffffffffffff16633b3188d56007600084815260200190815260200160002060000160000160029054906101000a900460ff166007600085815260200190815260200160002060000160000160009054906101000a900460ff166007600086815260200190815260200160002060000160000160019054906101000a900460ff1660006040518563ffffffff1660e01b81526004016139af9493929190615b9d565b600060405180830381600087803b1580156139c957600080fd5b505af11580156139dd573d6000803e3d6000fd5b50505050600060ff9050806007600084815260200190815260200160002060000160000160006101000a81548160ff021916908360ff160217905550806007600084815260200190815260200160002060000160000160016101000a81548160ff021916908360ff160217905550806007600084815260200190815260200160002060000160000160026101000a81548160ff021916908360ff1602179055507f6eaf6cd27015002a7e738b270d088d51e2be41e4a8729c7276157c1801c3d03f81828385604051613ab29493929190615c13565b60405180910390a15050565b6000600460009054906101000a900473ffffffffffffffffffffffffffffffffffffffff1673ffffffffffffffffffffffffffffffffffffffff1663cffd91268787876007600089815260200190815260200160002060000160000160029054906101000a900460ff16600760008a815260200190815260200160002060000160000160009054906101000a900460ff16600760008b815260200190815260200160002060000160000160019054906101000a900460ff168a8a6040518963ffffffff1660e01b8152600401613b9b989796959493929190615c58565b6020604051808303816000875af1158015613bba573d6000803e3d6000fd5b505050506040513d601f19601f82011682018060405250810190613bde919061507e565b9050846007600085815260200190815260200160002060000160000160006101000a81548160ff021916908360ff160217905550836007600085815260200190815260200160002060000160000160016101000a81548160ff021916908360ff160217905550856007600085815260200190815260200160002060000160000160026101000a81548160ff021916908360ff160217905550613c80838261377a565b7f6eaf6cd27015002a7e738b270d088d51e2be41e4a8729c7276157c1801c3d03f86868686604051613cb59493929190615c13565b60405180910390a1505050505050565b60006201518042613cd69190615003565b905060076000838152602001908152602001600020600a01600001548103613dc3576000600d600760008581526020019081526020016000206002015481548110613d2457613d236155fc565b5b906000526020600020015490508060076000858152602001908152602001600020600a016001015410613d8c576040517f08c379a0000000000000000000000000000000000000000000000000000000008152600401613d839061549a565b60405180910390fd5b600160076000858152602001908152602001600020600a016001016000828254613db69190614f5e565b9250508190555050613e01565b8060076000848152602001908152602001600020600a0160000181905550600160076000848152602001908152602001600020600a01600101819055505b5050565b613e0d614619565b73ffffffffffffffffffffffffffffffffffffffff16613e2b6125a0565b73ffffffffffffffffffffffffffffffffffffffff1614613e8a57613e4e614619565b6040517f118cdaa7000000000000000000000000000000000000000000000000000000008152600401613e8191906149dd565b60405180910390fd5b565b60006002600460009054906101000a900473ffffffffffffffffffffffffffffffffffffffff1673ffffffffffffffffffffffffffffffffffffffff1663b298d9116040518163ffffffff1660e01b8152600401602060405180830381865afa158015613efd573d6000803e3d6000fd5b505050506040513d601f19601f82011682018060405250810190613f21919061507e565b613f2b9190615003565b9050806008541115613f9b576001600a60006101000a81548160ff02191690836004811115613f5d57613f5c614a34565b5b02179055507fce24807f7e4b60b4e641462f13029fa5e5f79075bbc3f8e5cd43ecd19661d7606001604051613f929190615d11565b60405180910390a15b806009541115614009576002600a60006101000a81548160ff02191690836004811115613fcb57613fca614a34565b5b02179055507fce24807f7e4b60b4e641462f13029fa5e5f79075bbc3f8e5cd43ecd19661d76060026040516140009190615d67565b60405180910390a15b50565b60008060009054906101000a900473ffffffffffffffffffffffffffffffffffffffff169050816000806101000a81548173ffffffffffffffffffffffffffffffffffffffff021916908373ffffffffffffffffffffffffffffffffffffffff1602179055508173ffffffffffffffffffffffffffffffffffffffff168173ffffffffffffffffffffffffffffffffffffffff167f8be0079c531659141344cd1fd0a4f28419497f9722a3daafe3b4186f6b6457e060405160405180910390a35050565b6000808360ff168660ff16116140f15785846140ec9190615034565b6140fe565b83866140fd9190615034565b5b905060008360ff168660ff161161412057858461411b9190615034565b61412d565b838661412c9190615034565b5b9050808261413b91906150fd565b92505050949350505050565b600060076000838152602001908152602001600020600101549050600c600581548110614177576141766155fc565b5b906000526020600020015481106142a457600560076000848152602001908152602001600020600201819055506003600a60006101000a81548160ff021916908360048111156141ca576141c9614a34565b5b0217905550600360009054906101000a900473ffffffffffffffffffffffffffffffffffffffff1673ffffffffffffffffffffffffffffffffffffffff16636f9fd2fc61421684612339565b60056040518363ffffffff1660e01b8152600401614235929190615dbd565b600060405180830381600087803b15801561424f57600080fd5b505af1158015614263573d6000803e3d6000fd5b505050507fce24807f7e4b60b4e641462f13029fa5e5f79075bbc3f8e5cd43ecd19661d76060036040516142979190615de6565b60405180910390a1614399565b600c6004815481106142b9576142b86155fc565b5b906000526020600020015481106142eb5760046007600084815260200190815260200160002060020181905550614398565b600c600381548110614300576142ff6155fc565b5b906000526020600020015481106143325760036007600084815260200190815260200160002060020181905550614397565b600c600281548110614347576143466155fc565b5b906000526020600020015481106143795760026007600084815260200190815260200160002060020181905550614396565b600160076000848152602001908152602001600020600201819055505b5b5b5b600e60009054906101000a900460ff1680156143b55750600081145b80156144085750600160048111156143d0576143cf614a34565b5b60076000848152602001908152602001600020600c0160009054906101000a900460ff16600481111561440657614405614a34565b5b145b1561448757600460076000848152602001908152602001600020600c0160006101000a81548160ff0219169083600481111561444757614446614a34565b5b02179055507f225f3b692ac11cdafcafb064a6e0d96cb25948e1d431d5f5e2dfd3dea638960660048360405161447e929190615233565b60405180910390a15b5050565b600460009054906101000a900473ffffffffffffffffffffffffffffffffffffffff1673ffffffffffffffffffffffffffffffffffffffff1663b298d91177ffffffffffffffffffffffffffffffffffffffffffffffff16600460009054906101000a900473ffffffffffffffffffffffffffffffffffffffff1673ffffffffffffffffffffffffffffffffffffffff16638fd7b38477ffffffffffffffffffffffffffffffffffffffffffffffff169273ffffffffffffffffffffffffffffffffffffffff169073ffffffffffffffffffffffffffffffffffffffff16149163ffffffff169063ffffffff16141615614617576001600e60006101000a81548160ff0219169083151502179055506064600b60006009600b8111156145b4576145b3614a34565b5b600b8111156145c6576145c5614a34565b5b8152602001908152602001600020819055506019600b6000600a600b8111156145f2576145f1614a34565b5b600b81111561460457614603614a34565b5b8152602001908152602001600020819055505b565b600033905090565b600080fd5b6000819050919050565b61463981614626565b811461464457600080fd5b50565b60008135905061465681614630565b92915050565b6000806040838503121561467357614672614621565b5b600061468185828601614647565b925050602061469285828601614647565b9150509250929050565b6146a581614626565b82525050565b60006020820190506146c0600083018461469c565b92915050565b6000602082840312156146dc576146db614621565b5b60006146ea84828501614647565b91505092915050565b600073ffffffffffffffffffffffffffffffffffffffff82169050919050565b600061471e826146f3565b9050919050565b61472e81614713565b811461473957600080fd5b50565b60008135905061474b81614725565b92915050565b600060ff82169050919050565b61476781614751565b811461477257600080fd5b50565b6000813590506147848161475e565b92915050565b600080600080600060a086880312156147a6576147a5614621565b5b60006147b48882890161473c565b95505060206147c588828901614647565b94505060406147d688828901614775565b93505060606147e788828901614775565b92505060806147f888828901614775565b9150509295509295909350565b60006020828403121561481b5761481a614621565b5b60006148298482850161473c565b91505092915050565b60008115159050919050565b61484781614832565b811461485257600080fd5b50565b6000813590506148648161483e565b92915050565b6000806040838503121561488157614880614621565b5b600061488f8582860161473c565b92505060206148a085828601614855565b9150509250929050565b6000819050919050565b60006148cf6148ca6148c5846146f3565b6148aa565b6146f3565b9050919050565b60006148e1826148b4565b9050919050565b60006148f3826148d6565b9050919050565b614903816148e8565b82525050565b600060208201905061491e60008301846148fa565b92915050565b61492d81614832565b82525050565b60006020820190506149486000830184614924565b92915050565b6000806040838503121561496557614964614621565b5b600061497385828601614647565b92505060206149848582860161473c565b9150509250929050565b600080604083850312156149a5576149a4614621565b5b60006149b38582860161473c565b92505060206149c485828601614647565b9150509250929050565b6149d781614713565b82525050565b60006020820190506149f260008301846149ce565b92915050565b6000614a03826148d6565b9050919050565b614a13816149f8565b82525050565b6000602082019050614a2e6000830184614a0a565b92915050565b7f4e487b7100000000000000000000000000000000000000000000000000000000600052602160045260246000fd5b60058110614a7457614a73614a34565b5b50565b6000819050614a8582614a63565b919050565b6000614a9582614a77565b9050919050565b614aa581614a8a565b82525050565b6000602082019050614ac06000830184614a9c565b92915050565b600c8110614ad357600080fd5b50565b600081359050614ae581614ac6565b92915050565b60008060408385031215614b0257614b01614621565b5b6000614b1085828601614ad6565b9250506020614b2185828601614647565b9150509250929050565b600060208284031215614b4157614b40614621565b5b6000614b4f84828501614ad6565b91505092915050565b60008060008060808587031215614b7257614b71614621565b5b6000614b8087828801614647565b9450506020614b9187828801614775565b9350506040614ba287828801614775565b9250506060614bb387828801614775565b91505092959194509250565b614bc881614751565b82525050565b606082016000820151614be46000850182614bbf565b506020820151614bf76020850182614bbf565b506040820151614c0a6040850182614bbf565b50505050565b614c1981614626565b82525050565b604082016000820151614c356000850182614c10565b506020820151614c486020850182614c10565b50505050565b60058110614c5f57614c5e614a34565b5b50565b6000819050614c7082614c4e565b919050565b6000614c8082614c62565b9050919050565b614c9081614c75565b82525050565b60006101e082019050614cac600083018f614bce565b614cb9606083018e61469c565b614cc6608083018d61469c565b614cd360a083018c61469c565b614ce060c083018b61469c565b614ced60e083018a61469c565b614cfb61010083018961469c565b614d0961012083018861469c565b614d176101408301876149ce565b614d2561016083018661469c565b614d33610180830185614c1f565b614d416101c0830184614c87565b9d9c50505050505050505050505050565b600082825260208201905092915050565b7f47616d6520456e64656400000000000000000000000000000000000000000000600082015250565b6000614d99600a83614d52565b9150614da482614d63565b602082019050919050565b60006020820190508181036000830152614dc881614d8c565b9050919050565b614dd881614751565b82525050565b6000606082019050614df36000830186614dcf565b614e006020830185614dcf565b614e0d6040830184614dcf565b949350505050565b600081519050614e248161483e565b92915050565b600060208284031215614e4057614e3f614621565b5b6000614e4e84828501614e15565b91505092915050565b7f4e6f000000000000000000000000000000000000000000000000000000000000600082015250565b6000614e8d600283614d52565b9150614e9882614e57565b602082019050919050565b60006020820190508181036000830152614ebc81614e80565b9050919050565b7f43616e27742041747461636b0000000000000000000000000000000000000000600082015250565b6000614ef9600c83614d52565b9150614f0482614ec3565b602082019050919050565b60006020820190508181036000830152614f2881614eec565b9050919050565b7f4e487b7100000000000000000000000000000000000000000000000000000000600052601160045260246000fd5b6000614f6982614626565b9150614f7483614626565b9250828201905080821115614f8c57614f8b614f2f565b5b92915050565b6000614f9d82614626565b9150614fa883614626565b9250828202614fb681614626565b91508282048414831517614fcd57614fcc614f2f565b5b5092915050565b7f4e487b7100000000000000000000000000000000000000000000000000000000600052601260045260246000fd5b600061500e82614626565b915061501983614626565b92508261502957615028614fd4565b5b828204905092915050565b600061503f82614751565b915061504a83614751565b9250828203905060ff81111561506357615062614f2f565b5b92915050565b60008151905061507881614630565b92915050565b60006020828403121561509457615093614621565b5b60006150a284828501615069565b91505092915050565b6000819050919050565b60006150c0826150ab565b91507f800000000000000000000000000000000000000000000000000000000000000082036150f2576150f1614f2f565b5b816000039050919050565b600061510882614751565b915061511383614751565b9250828201905060ff81111561512c5761512b614f2f565b5b92915050565b6000604082019050615147600083018561469c565b615154602083018461469c565b9392505050565b7f496e616374697665000000000000000000000000000000000000000000000000600082015250565b6000615191600883614d52565b915061519c8261515b565b602082019050919050565b600060208201905081810360008301526151c081615184565b9050919050565b7f4e41000000000000000000000000000000000000000000000000000000000000600082015250565b60006151fd600283614d52565b9150615208826151c7565b602082019050919050565b6000602082019050818103600083015261522c816151f0565b9050919050565b60006040820190506152486000830185614c87565b615255602083018461469c565b9392505050565b7f4e6f7420496e7669746564000000000000000000000000000000000000000000600082015250565b6000615292600b83614d52565b915061529d8261525c565b602082019050919050565b600060208201905081810360008301526152c181615285565b9050919050565b6000815190506152d781614725565b92915050565b6000602082840312156152f3576152f2614621565b5b6000615301848285016152c8565b91505092915050565b7f4e6f74204f776e65720000000000000000000000000000000000000000000000600082015250565b6000615340600983614d52565b915061534b8261530a565b602082019050919050565b6000602082019050818103600083015261536f81615333565b9050919050565b7f5265676973746572656400000000000000000000000000000000000000000000600082015250565b60006153ac600a83614d52565b91506153b782615376565b602082019050919050565b600060208201905081810360008301526153db8161539f565b9050919050565b7f4e31000000000000000000000000000000000000000000000000000000000000600082015250565b6000615418600283614d52565b9150615423826153e2565b602082019050919050565b600060208201905081810360008301526154478161540b565b9050919050565b7f4d31000000000000000000000000000000000000000000000000000000000000600082015250565b6000615484600283614d52565b915061548f8261544e565b602082019050919050565b600060208201905081810360008301526154b381615477565b9050919050565b6000819050919050565b60006154df6154da6154d5846154ba565b6148aa565b614626565b9050919050565b6154ef816154c4565b82525050565b600060608201905061550a60008301866154e6565b615517602083018561469c565b61552460408301846149ce565b949350505050565b6000819050919050565b600061555161554c6155478461552c565b6148aa565b614626565b9050919050565b61556181615536565b82525050565b600060408201905061557c60008301856149ce565b6155896020830184615558565b9392505050565b7f4e6f7420616c6c6f776564000000000000000000000000000000000000000000600082015250565b60006155c6600b83614d52565b91506155d182615590565b602082019050919050565b600060208201905081810360008301526155f5816155b9565b9050919050565b7f4e487b7100000000000000000000000000000000000000000000000000000000600052603260045260246000fd5b7f596f752063616e206f6e6c7920626520736869656c64656420666f722061206d60008201527f617820706572696f64206f662074696d65000000000000000000000000000000602082015250565b6000615687603183614d52565b91506156928261562b565b604082019050919050565b600060208201905081810360008301526156b68161567a565b9050919050565b7f4e6f7420656e6f75676820455448000000000000000000000000000000000000600082015250565b60006156f3600e83614d52565b91506156fe826156bd565b602082019050919050565b60006020820190508181036000830152615722816156e6565b9050919050565b7f5761697400000000000000000000000000000000000000000000000000000000600082015250565b600061575f600483614d52565b915061576a82615729565b602082019050919050565b6000602082019050818103600083015261578e81615752565b9050919050565b7f4f63637570696564000000000000000000000000000000000000000000000000600082015250565b60006157cb600883614d52565b91506157d682615795565b602082019050919050565b600060208201905081810360008301526157fa816157be565b9050919050565b7f50656e616c747900000000000000000000000000000000000000000000000000600082015250565b6000615837600783614d52565b915061584282615801565b602082019050919050565b600060208201905081810360008301526158668161582a565b9050919050565b7f4869676865722072616e6b656400000000000000000000000000000000000000600082015250565b60006158a3600d83614d52565b91506158ae8261586d565b602082019050919050565b600060208201905081810360008301526158d281615896565b9050919050565b7f536869656c646564000000000000000000000000000000000000000000000000600082015250565b600061590f600883614d52565b915061591a826158d9565b602082019050919050565b6000602082019050818103600083015261593e81615902565b9050919050565b7f50726f7465637465640000000000000000000000000000000000000000000000600082015250565b600061597b600983614d52565b915061598682615945565b602082019050919050565b600060208201905081810360008301526159aa8161596e565b9050919050565b60006060820190506159c6600083018661469c565b6159d3602083018561469c565b6159e0604083018461469c565b949350505050565b7f4f31000000000000000000000000000000000000000000000000000000000000600082015250565b6000615a1e600283614d52565b9150615a29826159e8565b602082019050919050565b60006020820190508181036000830152615a4d81615a11565b9050919050565b6000615a5f82614626565b9150615a6a83614626565b9250828203905081811115615a8257615a81614f2f565b5b92915050565b7f4f32000000000000000000000000000000000000000000000000000000000000600082015250565b6000615abe600283614d52565b9150615ac982615a88565b602082019050919050565b60006020820190508181036000830152615aed81615ab1565b9050919050565b6000615aff826150ab565b9150615b0a836150ab565b925082820190508281121560008312168382126000841215161715615b3257615b31614f2f565b5b92915050565b615b41816150ab565b82525050565b6000602082019050615b5c6000830184615b38565b92915050565b6000819050919050565b6000615b87615b82615b7d84615b62565b6148aa565b614626565b9050919050565b615b9781615b6c565b82525050565b6000608082019050615bb26000830187614dcf565b615bbf6020830186614dcf565b615bcc6040830185614dcf565b615bd96060830184615b8e565b95945050505050565b6000615bfd615bf8615bf384614751565b6148aa565b614626565b9050919050565b615c0d81615be2565b82525050565b6000608082019050615c286000830187615c04565b615c356020830186615c04565b615c426040830185615c04565b615c4f606083018461469c565b95945050505050565b600061010082019050615c6e600083018b614dcf565b615c7b602083018a614dcf565b615c886040830189614dcf565b615c956060830188614dcf565b615ca26080830187614dcf565b615caf60a0830186614dcf565b615cbc60c083018561469c565b615cc960e0830184614924565b9998505050505050505050565b6000819050919050565b6000615cfb615cf6615cf184615cd6565b6148aa565b614626565b9050919050565b615d0b81615ce0565b82525050565b6000602082019050615d266000830184615d02565b92915050565b6000819050919050565b6000615d51615d4c615d4784615d2c565b6148aa565b614626565b9050919050565b615d6181615d36565b82525050565b6000602082019050615d7c6000830184615d58565b92915050565b6000819050919050565b6000615da7615da2615d9d84615d82565b6148aa565b614626565b9050919050565b615db781615d8c565b82525050565b6000604082019050615dd260008301856149ce565b615ddf6020830184615dae565b9392505050565b6000602082019050615dfb60008301846154e6565b9291505056fea26469706673582212201dff16ca8cc9ce5604daa19dab05ba17d58f3e3c776e04ca0e3d7eb602139f5064736f6c634300081b0033",
  "linkReferences": {},
  "deployedLinkReferences": {}
}