{
  "_format": "hh-sol-artifact-1",
  "contractName": "GameEquip",
  "sourceName": "contracts/GameEquip.sol",
  "abi": [
    {
      "inputs": [],
      "stateMutability": "nonpayable",
      "type": "constructor"
    },
    {
      "inputs": [
        {
          "internalType": "address",
          "name": "owner",
          "type": "address"
        }
      ],
      "name": "OwnableInvalidOwner",
      "type": "error"
    },
    {
      "inputs": [
        {
          "internalType": "address",
          "name": "account",
          "type": "address"
        }
      ],
      "name": "OwnableUnauthorizedAccount",
      "type": "error"
    },
    {
      "anonymous": false,
      "inputs": [
        {
          "indexed": true,
          "internalType": "address",
          "name": "previousOwner",
          "type": "address"
        },
        {
          "indexed": true,
          "internalType": "address",
          "name": "newOwner",
          "type": "address"
        }
      ],
      "name": "OwnershipTransferred",
      "type": "event"
    },
    {
      "inputs": [
        {
          "internalType": "address",
          "name": "",
          "type": "address"
        }
      ],
      "name": "allowedOperators",
      "outputs": [
        {
          "internalType": "bool",
          "name": "",
          "type": "bool"
        }
      ],
      "stateMutability": "view",
      "type": "function"
    },
    {
      "inputs": [
        {
          "internalType": "string",
          "name": "a",
          "type": "string"
        },
        {
          "internalType": "string",
          "name": "b",
          "type": "string"
        }
      ],
      "name": "compareStrings",
      "outputs": [
        {
          "internalType": "bool",
          "name": "",
          "type": "bool"
        }
      ],
      "stateMutability": "pure",
      "type": "function"
    },
    {
      "inputs": [
        {
          "internalType": "uint256",
          "name": "playerid",
          "type": "uint256"
        },
        {
          "internalType": "uint256",
          "name": "eyesTokenId",
          "type": "uint256"
        }
      ],
      "name": "equipEyes",
      "outputs": [],
      "stateMutability": "nonpayable",
      "type": "function"
    },
    {
      "inputs": [
        {
          "internalType": "uint256",
          "name": "playerid",
          "type": "uint256"
        },
        {
          "internalType": "uint256",
          "name": "keysTokenId",
          "type": "uint256"
        }
      ],
      "name": "equipKeys",
      "outputs": [],
      "stateMutability": "nonpayable",
      "type": "function"
    },
    {
      "inputs": [
        {
          "internalType": "uint256",
          "name": "",
          "type": "uint256"
        }
      ],
      "name": "eyesInfo",
      "outputs": [
        {
          "internalType": "uint256",
          "name": "playerId",
          "type": "uint256"
        },
        {
          "internalType": "bool",
          "name": "isEquipped",
          "type": "bool"
        },
        {
          "internalType": "uint256",
          "name": "equipTime",
          "type": "uint256"
        }
      ],
      "stateMutability": "view",
      "type": "function"
    },
    {
      "inputs": [],
      "name": "eyesToken",
      "outputs": [
        {
          "internalType": "contract IERC721",
          "name": "",
          "type": "address"
        }
      ],
      "stateMutability": "view",
      "type": "function"
    },
    {
      "inputs": [],
      "name": "gameContract",
      "outputs": [
        {
          "internalType": "contract Game",
          "name": "",
          "type": "address"
        }
      ],
      "stateMutability": "view",
      "type": "function"
    },
    {
      "inputs": [],
      "name": "keysToken",
      "outputs": [
        {
          "internalType": "contract IERC721",
          "name": "",
          "type": "address"
        }
      ],
      "stateMutability": "view",
      "type": "function"
    },
    {
      "inputs": [
        {
          "internalType": "uint256",
          "name": "",
          "type": "uint256"
        }
      ],
      "name": "keysUsed",
      "outputs": [
        {
          "internalType": "bool",
          "name": "",
          "type": "bool"
        }
      ],
      "stateMutability": "view",
      "type": "function"
    },
    {
      "inputs": [
        {
          "internalType": "address",
          "name": "operator",
          "type": "address"
        },
        {
          "internalType": "address",
          "name": "from",
          "type": "address"
        },
        {
          "internalType": "uint256[]",
          "name": "ids",
          "type": "uint256[]"
        },
        {
          "internalType": "uint256[]",
          "name": "values",
          "type": "uint256[]"
        },
        {
          "internalType": "bytes",
          "name": "data",
          "type": "bytes"
        }
      ],
      "name": "onERC1155BatchReceived",
      "outputs": [
        {
          "internalType": "bytes4",
          "name": "",
          "type": "bytes4"
        }
      ],
      "stateMutability": "nonpayable",
      "type": "function"
    },
    {
      "inputs": [
        {
          "internalType": "address",
          "name": "operator",
          "type": "address"
        },
        {
          "internalType": "address",
          "name": "from",
          "type": "address"
        },
        {
          "internalType": "uint256",
          "name": "id",
          "type": "uint256"
        },
        {
          "internalType": "uint256",
          "name": "value",
          "type": "uint256"
        },
        {
          "internalType": "bytes",
          "name": "data",
          "type": "bytes"
        }
      ],
      "name": "onERC1155Received",
      "outputs": [
        {
          "internalType": "bytes4",
          "name": "",
          "type": "bytes4"
        }
      ],
      "stateMutability": "nonpayable",
      "type": "function"
    },
    {
      "inputs": [],
      "name": "otomDatabase",
      "outputs": [
        {
          "internalType": "contract IOtomsDatabase",
          "name": "",
          "type": "address"
        }
      ],
      "stateMutability": "view",
      "type": "function"
    },
    {
      "inputs": [],
      "name": "otomToken",
      "outputs": [
        {
          "internalType": "contract IERC1155",
          "name": "",
          "type": "address"
        }
      ],
      "stateMutability": "view",
      "type": "function"
    },
    {
      "inputs": [],
      "name": "owner",
      "outputs": [
        {
          "internalType": "address",
          "name": "",
          "type": "address"
        }
      ],
      "stateMutability": "view",
      "type": "function"
    },
    {
      "inputs": [
        {
          "internalType": "uint256",
          "name": "",
          "type": "uint256"
        }
      ],
      "name": "parameterSet",
      "outputs": [
        {
          "internalType": "bool",
          "name": "",
          "type": "bool"
        }
      ],
      "stateMutability": "view",
      "type": "function"
    },
    {
      "inputs": [
        {
          "internalType": "uint256",
          "name": "",
          "type": "uint256"
        }
      ],
      "name": "playerEquippedEyes",
      "outputs": [
        {
          "internalType": "bool",
          "name": "",
          "type": "bool"
        }
      ],
      "stateMutability": "view",
      "type": "function"
    },
    {
      "inputs": [
        {
          "internalType": "uint256",
          "name": "",
          "type": "uint256"
        }
      ],
      "name": "playerEquippedKeys",
      "outputs": [
        {
          "internalType": "bool",
          "name": "",
          "type": "bool"
        }
      ],
      "stateMutability": "view",
      "type": "function"
    },
    {
      "inputs": [
        {
          "internalType": "uint256",
          "name": "tokenId",
          "type": "uint256"
        }
      ],
      "name": "readShieldAmount",
      "outputs": [
        {
          "internalType": "uint256",
          "name": "",
          "type": "uint256"
        }
      ],
      "stateMutability": "view",
      "type": "function"
    },
    {
      "inputs": [],
      "name": "renounceOwnership",
      "outputs": [],
      "stateMutability": "nonpayable",
      "type": "function"
    },
    {
      "inputs": [
        {
          "internalType": "uint256",
          "name": "percentage",
          "type": "uint256"
        },
        {
          "internalType": "uint256",
          "name": "playerid",
          "type": "uint256"
        }
      ],
      "name": "setEat",
      "outputs": [],
      "stateMutability": "nonpayable",
      "type": "function"
    },
    {
      "inputs": [
        {
          "internalType": "bool",
          "name": "isopen",
          "type": "bool"
        }
      ],
      "name": "setElectionOpen",
      "outputs": [],
      "stateMutability": "nonpayable",
      "type": "function"
    },
    {
      "inputs": [
        {
          "internalType": "address",
          "name": "_contractaddr",
          "type": "address"
        }
      ],
      "name": "setEyesToken",
      "outputs": [],
      "stateMutability": "nonpayable",
      "type": "function"
    },
    {
      "inputs": [
        {
          "internalType": "address",
          "name": "_contractaddr",
          "type": "address"
        }
      ],
      "name": "setGameContract",
      "outputs": [],
      "stateMutability": "nonpayable",
      "type": "function"
    },
    {
      "inputs": [
        {
          "internalType": "address",
          "name": "_contractaddr",
          "type": "address"
        }
      ],
      "name": "setKeysToken",
      "outputs": [],
      "stateMutability": "nonpayable",
      "type": "function"
    },
    {
      "inputs": [
        {
          "internalType": "address",
          "name": "_operator",
          "type": "address"
        },
        {
          "internalType": "bool",
          "name": "allowed",
          "type": "bool"
        }
      ],
      "name": "setOperator",
      "outputs": [],
      "stateMutability": "nonpayable",
      "type": "function"
    },
    {
      "inputs": [
        {
          "internalType": "address",
          "name": "_contractaddr",
          "type": "address"
        }
      ],
      "name": "setOtomDatabase",
      "outputs": [],
      "stateMutability": "nonpayable",
      "type": "function"
    },
    {
      "inputs": [
        {
          "internalType": "address",
          "name": "_contractaddr",
          "type": "address"
        }
      ],
      "name": "setOtomToken",
      "outputs": [],
      "stateMutability": "nonpayable",
      "type": "function"
    },
    {
      "inputs": [
        {
          "internalType": "uint256",
          "name": "tokenId",
          "type": "uint256"
        },
        {
          "internalType": "uint256",
          "name": "playerid",
          "type": "uint256"
        }
      ],
      "name": "shield",
      "outputs": [
        {
          "internalType": "uint256",
          "name": "",
          "type": "uint256"
        }
      ],
      "stateMutability": "nonpayable",
      "type": "function"
    },
    {
      "inputs": [
        {
          "internalType": "bytes4",
          "name": "interfaceId",
          "type": "bytes4"
        }
      ],
      "name": "supportsInterface",
      "outputs": [
        {
          "internalType": "bool",
          "name": "",
          "type": "bool"
        }
      ],
      "stateMutability": "view",
      "type": "function"
    },
    {
      "inputs": [
        {
          "internalType": "uint256",
          "name": "",
          "type": "uint256"
        }
      ],
      "name": "topVotedCount",
      "outputs": [
        {
          "internalType": "uint256",
          "name": "",
          "type": "uint256"
        }
      ],
      "stateMutability": "view",
      "type": "function"
    },
    {
      "inputs": [
        {
          "internalType": "uint256",
          "name": "",
          "type": "uint256"
        }
      ],
      "name": "topVotedPlayer",
      "outputs": [
        {
          "internalType": "uint256",
          "name": "",
          "type": "uint256"
        }
      ],
      "stateMutability": "view",
      "type": "function"
    },
    {
      "inputs": [
        {
          "internalType": "address",
          "name": "to",
          "type": "address"
        },
        {
          "internalType": "uint256",
          "name": "tokenId",
          "type": "uint256"
        },
        {
          "internalType": "uint256",
          "name": "amount",
          "type": "uint256"
        }
      ],
      "name": "transferOutOTOM",
      "outputs": [],
      "stateMutability": "nonpayable",
      "type": "function"
    },
    {
      "inputs": [
        {
          "internalType": "address",
          "name": "newOwner",
          "type": "address"
        }
      ],
      "name": "transferOwnership",
      "outputs": [],
      "stateMutability": "nonpayable",
      "type": "function"
    },
    {
      "inputs": [
        {
          "internalType": "uint256",
          "name": "eyesTokenId",
          "type": "uint256"
        }
      ],
      "name": "unequipEyes",
      "outputs": [],
      "stateMutability": "nonpayable",
      "type": "function"
    },
    {
      "inputs": [
        {
          "internalType": "uint256",
          "name": "playerid",
          "type": "uint256"
        },
        {
          "internalType": "uint256",
          "name": "myplayerid",
          "type": "uint256"
        }
      ],
      "name": "voteForGoverner",
      "outputs": [],
      "stateMutability": "nonpayable",
      "type": "function"
    },
    {
      "inputs": [
        {
          "internalType": "uint256",
          "name": "",
          "type": "uint256"
        },
        {
          "internalType": "uint256",
          "name": "",
          "type": "uint256"
        }
      ],
      "name": "voted",
      "outputs": [
        {
          "internalType": "bool",
          "name": "",
          "type": "bool"
        }
      ],
      "stateMutability": "view",
      "type": "function"
    },
    {
      "inputs": [
        {
          "internalType": "uint256",
          "name": "",
          "type": "uint256"
        },
        {
          "internalType": "uint256",
          "name": "",
          "type": "uint256"
        }
      ],
      "name": "votes",
      "outputs": [
        {
          "internalType": "uint256",
          "name": "",
          "type": "uint256"
        }
      ],
      "stateMutability": "view",
      "type": "function"
    }
  ],
  "bytecode": "0x60806040526001601060006101000a81548160ff02191690831515021790555034801561002b57600080fd5b5033600073ffffffffffffffffffffffffffffffffffffffff168173ffffffffffffffffffffffffffffffffffffffff160361009f5760006040517f1e4fbdf7000000000000000000000000000000000000000000000000000000008152600401610096919061030d565b60405180910390fd5b6100ae8161020860201b60201c565b50732f9810789aebbb6cdc6c0332948ff3b6d11121e3600360006101000a81548173ffffffffffffffffffffffffffffffffffffffff021916908373ffffffffffffffffffffffffffffffffffffffff16021790555073953761a771d6ad9f888e41b3e7c9338a32b1a346600260006101000a81548173ffffffffffffffffffffffffffffffffffffffff021916908373ffffffffffffffffffffffffffffffffffffffff16021790555073f3851e1b7824bd920350e6fe9b890bb76d01c9f7600460006101000a81548173ffffffffffffffffffffffffffffffffffffffff021916908373ffffffffffffffffffffffffffffffffffffffff1602179055507305aa491820662b131d285757e5da4b74bd0f0e5f600560006101000a81548173ffffffffffffffffffffffffffffffffffffffff021916908373ffffffffffffffffffffffffffffffffffffffff160217905550610328565b60008060009054906101000a900473ffffffffffffffffffffffffffffffffffffffff169050816000806101000a81548173ffffffffffffffffffffffffffffffffffffffff021916908373ffffffffffffffffffffffffffffffffffffffff1602179055508173ffffffffffffffffffffffffffffffffffffffff168173ffffffffffffffffffffffffffffffffffffffff167f8be0079c531659141344cd1fd0a4f28419497f9722a3daafe3b4186f6b6457e060405160405180910390a35050565b600073ffffffffffffffffffffffffffffffffffffffff82169050919050565b60006102f7826102cc565b9050919050565b610307816102ec565b82525050565b600060208201905061032260008301846102fe565b92915050565b61446a806103376000396000f3fe608060405234801561001057600080fd5b50600436106102275760003560e01c80638b58164f11610130578063bc197c81116100b8578063d3f330091161007c578063d3f33009146106bc578063d681d3b9146106da578063e4ee53df1461070c578063f23a6e6114610728578063f2fde38b1461075857610227565b8063bc197c81146105e0578063bed34bba14610610578063c6e36a3214610640578063c7be392314610670578063d3f0bb2b1461068c57610227565b8063924eab3a116100ff578063924eab3a1461050457806397cb6ad4146105205780639e14442514610550578063a6674f8814610580578063bb290060146105b057610227565b80638b58164f146104925780638da5cb5b146104ae57806390e8582c146104cc578063924babe5146104e857610227565b806353dd09e5116101b35780635f287cf2116101825780635f287cf2146103f057806360b8760814610420578063715018a61461043c5780637ed5a9ba146104465780637f714dc61461047657610227565b806353dd09e51461037e578063558a72971461039a5780635acbf92d146103b65780635cd17d9a146103d257610227565b8063244aae7a116101fa578063244aae7a146102c65780633bb031fb146102f6578063405ebd4d1461031457806348e5dc15146103305780635127d5c81461034e57610227565b8063013a9a681461022c57806301ffc9a71461024a5780630b2063b71461027a578063136cf2a014610296575b600080fd5b610234610774565b6040516102419190612718565b60405180910390f35b610264600480360381019061025f919061279f565b61079a565b60405161027191906127e7565b60405180910390f35b610294600480360381019061028f9190612838565b610804565b005b6102b060048036038101906102ab9190612838565b610c12565b6040516102bd9190612887565b60405180910390f35b6102e060048036038101906102db91906128a2565b61110f565b6040516102ed91906127e7565b60405180910390f35b6102fe61112f565b60405161030b91906128f0565b60405180910390f35b61032e60048036038101906103299190612949565b611155565b005b6103386111a1565b6040516103459190612997565b60405180910390f35b610368600480360381019061036391906128a2565b6111c7565b60405161037591906127e7565b60405180910390f35b61039860048036038101906103939190612949565b6111e7565b005b6103b460048036038101906103af91906129de565b611233565b005b6103d060048036038101906103cb9190612838565b611296565b005b6103da611598565b6040516103e79190612997565b60405180910390f35b61040a60048036038101906104059190612838565b6115be565b60405161041791906127e7565b60405180910390f35b61043a60048036038101906104359190612a1e565b6115ed565b005b610444611612565b005b610460600480360381019061045b91906128a2565b611626565b60405161046d91906127e7565b60405180910390f35b610490600480360381019061048b91906128a2565b611646565b005b6104ac60048036038101906104a79190612949565b611845565b005b6104b6611891565b6040516104c39190612a5a565b60405180910390f35b6104e660048036038101906104e19190612a75565b6118ba565b005b61050260048036038101906104fd9190612838565b611a39565b005b61051e60048036038101906105199190612949565b611e87565b005b61053a600480360381019061053591906128a2565b611ed3565b6040516105479190612887565b60405180910390f35b61056a600480360381019061056591906128a2565b611eeb565b6040516105779190612887565b60405180910390f35b61059a60048036038101906105959190612949565b611fd5565b6040516105a791906127e7565b60405180910390f35b6105ca60048036038101906105c591906128a2565b611ff5565b6040516105d79190612887565b60405180910390f35b6105fa60048036038101906105f59190612b83565b61200d565b6040516106079190612c6e565b60405180910390f35b61062a60048036038101906106259190612dca565b612025565b60405161063791906127e7565b60405180910390f35b61065a60048036038101906106559190612838565b61207e565b6040516106679190612887565b60405180910390f35b61068a60048036038101906106859190612838565b6120a3565b005b6106a660048036038101906106a191906128a2565b6123e1565b6040516106b391906127e7565b60405180910390f35b6106c4612401565b6040516106d19190612e63565b60405180910390f35b6106f460048036038101906106ef91906128a2565b612427565b60405161070393929190612e7e565b60405180910390f35b61072660048036038101906107219190612949565b61245e565b005b610742600480360381019061073d9190612eb5565b6124aa565b60405161074f9190612c6e565b60405180910390f35b610772600480360381019061076d9190612949565b6124c0565b005b600360009054906101000a900473ffffffffffffffffffffffffffffffffffffffff1681565b60007f4e2312e0000000000000000000000000000000000000000000000000000000007bffffffffffffffffffffffffffffffffffffffffffffffffffffffff1916827bffffffffffffffffffffffffffffffffffffffffffffffffffffffff1916149050919050565b80600062015180426108169190612fad565b905081600c6000838152602001908152602001600020541461083757600080fd5b600062015180426108489190612fad565b9050600660009054906101000a900473ffffffffffffffffffffffffffffffffffffffff1673ffffffffffffffffffffffffffffffffffffffff166370d3133e6040518163ffffffff1660e01b8152600401602060405180830381865afa1580156108b7573d6000803e3d6000fd5b505050506040513d601f19601f820116820180604052508101906108db9190612ff3565b1561091b576040517f08c379a0000000000000000000000000000000000000000000000000000000008152600401610912906130a3565b60405180910390fd5b6000851015801561092d575060648511155b61093657600080fd5b600f600082815260200190815260200160002060009054906101000a900460ff1615610997576040517f08c379a000000000000000000000000000000000000000000000000000000000815260040161098e9061310f565b60405180910390fd5b600660009054906101000a900473ffffffffffffffffffffffffffffffffffffffff1673ffffffffffffffffffffffffffffffffffffffff1663d8691bff856040518263ffffffff1660e01b81526004016109f29190612887565b602060405180830381865afa158015610a0f573d6000803e3d6000fd5b505050506040513d601f19601f82011682018060405250810190610a339190612ff3565b610a72576040517f08c379a0000000000000000000000000000000000000000000000000000000008152600401610a699061317b565b60405180910390fd5b600660009054906101000a900473ffffffffffffffffffffffffffffffffffffffff1673ffffffffffffffffffffffffffffffffffffffff16637159292c85336040518363ffffffff1660e01b8152600401610acf92919061319b565b602060405180830381865afa158015610aec573d6000803e3d6000fd5b505050506040513d601f19601f82011682018060405250810190610b109190612ff3565b610b4f576040517f08c379a0000000000000000000000000000000000000000000000000000000008152600401610b4690613210565b60405180910390fd5b6001600f600083815260200190815260200160002060006101000a81548160ff021916908315150217905550600660009054906101000a900473ffffffffffffffffffffffffffffffffffffffff1673ffffffffffffffffffffffffffffffffffffffff16639fed85ef6009876040518363ffffffff1660e01b8152600401610bd99291906132a7565b600060405180830381600087803b158015610bf357600080fd5b505af1158015610c07573d6000803e3d6000fd5b505050505050505050565b60006001600360009054906101000a900473ffffffffffffffffffffffffffffffffffffffff1673ffffffffffffffffffffffffffffffffffffffff1662fdd58e33866040518363ffffffff1660e01b8152600401610c729291906132d0565b602060405180830381865afa158015610c8f573d6000803e3d6000fd5b505050506040513d601f19601f82011682018060405250810190610cb3919061330e565b1015610cf4576040517f08c379a0000000000000000000000000000000000000000000000000000000008152600401610ceb906133ad565b60405180910390fd5b600360009054906101000a900473ffffffffffffffffffffffffffffffffffffffff1673ffffffffffffffffffffffffffffffffffffffff1663e985e9c533306040518363ffffffff1660e01b8152600401610d519291906133cd565b602060405180830381865afa158015610d6e573d6000803e3d6000fd5b505050506040513d601f19601f82011682018060405250810190610d929190612ff3565b610dd1576040517f08c379a0000000000000000000000000000000000000000000000000000000008152600401610dc890613468565b60405180910390fd5b610eb8600260009054906101000a900473ffffffffffffffffffffffffffffffffffffffff1673ffffffffffffffffffffffffffffffffffffffff16637809a045856040518263ffffffff1660e01b8152600401610e2f9190612887565b600060405180830381865afa158015610e4c573d6000803e3d6000fd5b505050506040513d6000823e3d601f19601f82011682018060405250810190610e759190613cc0565b60a00151602001516040518060400160405280600981526020017f73696e676c65746f6e0000000000000000000000000000000000000000000000815250612025565b15610ef8576040517f08c379a0000000000000000000000000000000000000000000000000000000008152600401610eef90613d55565b60405180910390fd5b600660009054906101000a900473ffffffffffffffffffffffffffffffffffffffff1673ffffffffffffffffffffffffffffffffffffffff1663d8691bff836040518263ffffffff1660e01b8152600401610f539190612887565b602060405180830381865afa158015610f70573d6000803e3d6000fd5b505050506040513d601f19601f82011682018060405250810190610f949190612ff3565b610fd3576040517f08c379a0000000000000000000000000000000000000000000000000000000008152600401610fca90613dc1565b60405180910390fd5b600360009054906101000a900473ffffffffffffffffffffffffffffffffffffffff1673ffffffffffffffffffffffffffffffffffffffff1663f242432a33308660016040518563ffffffff1660e01b81526004016110359493929190613e53565b600060405180830381600087803b15801561104f57600080fd5b505af1158015611063573d6000803e3d6000fd5b50505050600660009054906101000a900473ffffffffffffffffffffffffffffffffffffffff1673ffffffffffffffffffffffffffffffffffffffff1663cf5a0d46836110af86611eeb565b6040518363ffffffff1660e01b81526004016110cc929190613eab565b600060405180830381600087803b1580156110e657600080fd5b505af11580156110fa573d6000803e3d6000fd5b5050505061110783611eeb565b905092915050565b60096020528060005260406000206000915054906101000a900460ff1681565b600260009054906101000a900473ffffffffffffffffffffffffffffffffffffffff1681565b61115d612546565b80600660006101000a81548173ffffffffffffffffffffffffffffffffffffffff021916908373ffffffffffffffffffffffffffffffffffffffff16021790555050565b600460009054906101000a900473ffffffffffffffffffffffffffffffffffffffff1681565b60076020528060005260406000206000915054906101000a900460ff1681565b6111ef612546565b80600360006101000a81548173ffffffffffffffffffffffffffffffffffffffff021916908373ffffffffffffffffffffffffffffffffffffffff16021790555050565b61123b612546565b80600160008473ffffffffffffffffffffffffffffffffffffffff1673ffffffffffffffffffffffffffffffffffffffff16815260200190815260200160002060006101000a81548160ff0219169083151502179055505050565b3373ffffffffffffffffffffffffffffffffffffffff16600560009054906101000a900473ffffffffffffffffffffffffffffffffffffffff1673ffffffffffffffffffffffffffffffffffffffff16636352211e836040518263ffffffff1660e01b81526004016113089190612887565b602060405180830381865afa158015611325573d6000803e3d6000fd5b505050506040513d601f19601f820116820180604052508101906113499190613ee9565b73ffffffffffffffffffffffffffffffffffffffff161461139f576040517f08c379a000000000000000000000000000000000000000000000000000000000815260040161139690613f62565b60405180910390fd5b600a600082815260200190815260200160002060009054906101000a900460ff1615611400576040517f08c379a00000000000000000000000000000000000000000000000000000000081526004016113f790613fce565b60405180910390fd5b6009600083815260200190815260200160002060009054906101000a900460ff1615611461576040517f08c379a00000000000000000000000000000000000000000000000000000000081526004016114589061403a565b60405180910390fd5b600660009054906101000a900473ffffffffffffffffffffffffffffffffffffffff1673ffffffffffffffffffffffffffffffffffffffff1663d8691bff836040518263ffffffff1660e01b81526004016114bc9190612887565b602060405180830381865afa1580156114d9573d6000803e3d6000fd5b505050506040513d601f19601f820116820180604052508101906114fd9190612ff3565b61153c576040517f08c379a000000000000000000000000000000000000000000000000000000000815260040161153390613dc1565b60405180910390fd5b60016009600084815260200190815260200160002060006101000a81548160ff0219169083151502179055506001600a600083815260200190815260200160002060006101000a81548160ff0219169083151502179055505050565b600560009054906101000a900473ffffffffffffffffffffffffffffffffffffffff1681565b600e6020528160005260406000206020528060005260406000206000915091509054906101000a900460ff1681565b6115f5612546565b80601060006101000a81548160ff02191690831515021790555050565b61161a612546565b61162460006125cd565b565b600f6020528060005260406000206000915054906101000a900460ff1681565b3373ffffffffffffffffffffffffffffffffffffffff16600460009054906101000a900473ffffffffffffffffffffffffffffffffffffffff1673ffffffffffffffffffffffffffffffffffffffff16636352211e836040518263ffffffff1660e01b81526004016116b89190612887565b602060405180830381865afa1580156116d5573d6000803e3d6000fd5b505050506040513d601f19601f820116820180604052508101906116f99190613ee9565b73ffffffffffffffffffffffffffffffffffffffff161461174f576040517f08c379a000000000000000000000000000000000000000000000000000000000815260040161174690613f62565b60405180910390fd5b42620151806008600084815260200190815260200160002060020154611775919061405a565b106117b5576040517f08c379a00000000000000000000000000000000000000000000000000000000081526004016117ac906140da565b60405180910390fd5b60006008600083815260200190815260200160002060010160006101000a81548160ff0219169083151502179055506000600760006008600085815260200190815260200160002060000154815260200190815260200160002060006101000a81548160ff0219169083151502179055506000600860008381526020019081526020016000206000018190555050565b61184d612546565b80600260006101000a81548173ffffffffffffffffffffffffffffffffffffffff021916908373ffffffffffffffffffffffffffffffffffffffff16021790555050565b60008060009054906101000a900473ffffffffffffffffffffffffffffffffffffffff16905090565b6118c2612546565b80600360009054906101000a900473ffffffffffffffffffffffffffffffffffffffff1673ffffffffffffffffffffffffffffffffffffffff1662fdd58e30856040518363ffffffff1660e01b815260040161191f9291906132d0565b602060405180830381865afa15801561193c573d6000803e3d6000fd5b505050506040513d601f19601f82011682018060405250810190611960919061330e565b10156119a1576040517f08c379a00000000000000000000000000000000000000000000000000000000081526004016119989061416c565b60405180910390fd5b600360009054906101000a900473ffffffffffffffffffffffffffffffffffffffff1673ffffffffffffffffffffffffffffffffffffffff1663f242432a308585856040518563ffffffff1660e01b8152600401611a02949392919061418c565b600060405180830381600087803b158015611a1c57600080fd5b505af1158015611a30573d6000803e3d6000fd5b50505050505050565b600060016201518042611a4c9190612fad565b611a56919061405a565b9050601060009054906101000a900460ff16611aa7576040517f08c379a0000000000000000000000000000000000000000000000000000000008152600401611a9e90614230565b60405180910390fd5b600e6000828152602001908152602001600020600083815260200190815260200160002060009054906101000a900460ff1615611b19576040517f08c379a0000000000000000000000000000000000000000000000000000000008152600401611b109061429c565b60405180910390fd5b600660009054906101000a900473ffffffffffffffffffffffffffffffffffffffff1673ffffffffffffffffffffffffffffffffffffffff1663d8691bff846040518263ffffffff1660e01b8152600401611b749190612887565b602060405180830381865afa158015611b91573d6000803e3d6000fd5b505050506040513d601f19601f82011682018060405250810190611bb59190612ff3565b8015611c595750600660009054906101000a900473ffffffffffffffffffffffffffffffffffffffff1673ffffffffffffffffffffffffffffffffffffffff1663d8691bff836040518263ffffffff1660e01b8152600401611c179190612887565b602060405180830381865afa158015611c34573d6000803e3d6000fd5b505050506040513d601f19601f82011682018060405250810190611c589190612ff3565b5b611c98576040517f08c379a0000000000000000000000000000000000000000000000000000000008152600401611c8f9061317b565b60405180910390fd5b600660009054906101000a900473ffffffffffffffffffffffffffffffffffffffff1673ffffffffffffffffffffffffffffffffffffffff16637159292c83336040518363ffffffff1660e01b8152600401611cf592919061319b565b602060405180830381865afa158015611d12573d6000803e3d6000fd5b505050506040513d601f19601f82011682018060405250810190611d369190612ff3565b611d75576040517f08c379a0000000000000000000000000000000000000000000000000000000008152600401611d6c90613210565b60405180910390fd5b6001600e6000838152602001908152602001600020600084815260200190815260200160002060006101000a81548160ff0219169083151502179055506001600d600083815260200190815260200160002060008581526020019081526020016000206000828254611de7919061405a565b92505081905550600b600082815260200190815260200160002054600d60008381526020019081526020016000206000858152602001908152602001600020541115611e825782600c600083815260200190815260200160002081905550600d6000828152602001908152602001600020600084815260200190815260200160002054600b6000838152602001908152602001600020819055505b505050565b611e8f612546565b80600560006101000a81548173ffffffffffffffffffffffffffffffffffffffff021916908373ffffffffffffffffffffffffffffffffffffffff16021790555050565b600c6020528060005260406000206000915090505481565b600080600260009054906101000a900473ffffffffffffffffffffffffffffffffffffffff1673ffffffffffffffffffffffffffffffffffffffff16637809a045846040518263ffffffff1660e01b8152600401611f499190612887565b600060405180830381865afa158015611f66573d6000803e3d6000fd5b505050506040513d6000823e3d601f19601f82011682018060405250810190611f8f9190613cc0565b90506000670de0b6b3a7640000610e10836101600151846101400151611fb5919061405a565b611fbf91906142bc565b611fc99190612fad565b90508092505050919050565b60016020528060005260406000206000915054906101000a900460ff1681565b600b6020528060005260406000206000915090505481565b600063bc197c8160e01b905098975050505050505050565b6000816040516020016120389190614345565b604051602081830303815290604052805190602001208360405160200161205f9190614345565b6040516020818303038152906040528051906020012014905092915050565b600d602052816000526040600020602052806000526040600020600091509150505481565b3373ffffffffffffffffffffffffffffffffffffffff16600460009054906101000a900473ffffffffffffffffffffffffffffffffffffffff1673ffffffffffffffffffffffffffffffffffffffff16636352211e836040518263ffffffff1660e01b81526004016121159190612887565b602060405180830381865afa158015612132573d6000803e3d6000fd5b505050506040513d601f19601f820116820180604052508101906121569190613ee9565b73ffffffffffffffffffffffffffffffffffffffff16146121ac576040517f08c379a00000000000000000000000000000000000000000000000000000000081526004016121a390613f62565b60405180910390fd5b6008600082815260200190815260200160002060010160009054906101000a900460ff1615612210576040517f08c379a0000000000000000000000000000000000000000000000000000000008152600401612207906143a8565b60405180910390fd5b6007600083815260200190815260200160002060009054906101000a900460ff1615612271576040517f08c379a000000000000000000000000000000000000000000000000000000000815260040161226890614414565b60405180910390fd5b600660009054906101000a900473ffffffffffffffffffffffffffffffffffffffff1673ffffffffffffffffffffffffffffffffffffffff1663d8691bff836040518263ffffffff1660e01b81526004016122cc9190612887565b602060405180830381865afa1580156122e9573d6000803e3d6000fd5b505050506040513d601f19601f8201168201806040525081019061230d9190612ff3565b61234c576040517f08c379a000000000000000000000000000000000000000000000000000000000815260040161234390613dc1565b60405180910390fd5b60016008600083815260200190815260200160002060010160006101000a81548160ff02191690831515021790555042600860008381526020019081526020016000206002018190555081600860008381526020019081526020016000206000018190555060016007600084815260200190815260200160002060006101000a81548160ff0219169083151502179055505050565b600a6020528060005260406000206000915054906101000a900460ff1681565b600660009054906101000a900473ffffffffffffffffffffffffffffffffffffffff1681565b60086020528060005260406000206000915090508060000154908060010160009054906101000a900460ff16908060020154905083565b612466612546565b80600460006101000a81548173ffffffffffffffffffffffffffffffffffffffff021916908373ffffffffffffffffffffffffffffffffffffffff16021790555050565b600063f23a6e6160e01b90509695505050505050565b6124c8612546565b600073ffffffffffffffffffffffffffffffffffffffff168173ffffffffffffffffffffffffffffffffffffffff160361253a5760006040517f1e4fbdf70000000000000000000000000000000000000000000000000000000081526004016125319190612a5a565b60405180910390fd5b612543816125cd565b50565b61254e612691565b73ffffffffffffffffffffffffffffffffffffffff1661256c611891565b73ffffffffffffffffffffffffffffffffffffffff16146125cb5761258f612691565b6040517f118cdaa70000000000000000000000000000000000000000000000000000000081526004016125c29190612a5a565b60405180910390fd5b565b60008060009054906101000a900473ffffffffffffffffffffffffffffffffffffffff169050816000806101000a81548173ffffffffffffffffffffffffffffffffffffffff021916908373ffffffffffffffffffffffffffffffffffffffff1602179055508173ffffffffffffffffffffffffffffffffffffffff168173ffffffffffffffffffffffffffffffffffffffff167f8be0079c531659141344cd1fd0a4f28419497f9722a3daafe3b4186f6b6457e060405160405180910390a35050565b600033905090565b600073ffffffffffffffffffffffffffffffffffffffff82169050919050565b6000819050919050565b60006126de6126d96126d484612699565b6126b9565b612699565b9050919050565b60006126f0826126c3565b9050919050565b6000612702826126e5565b9050919050565b612712816126f7565b82525050565b600060208201905061272d6000830184612709565b92915050565b6000604051905090565b600080fd5b600080fd5b60007fffffffff0000000000000000000000000000000000000000000000000000000082169050919050565b61277c81612747565b811461278757600080fd5b50565b60008135905061279981612773565b92915050565b6000602082840312156127b5576127b461273d565b5b60006127c38482850161278a565b91505092915050565b60008115159050919050565b6127e1816127cc565b82525050565b60006020820190506127fc60008301846127d8565b92915050565b6000819050919050565b61281581612802565b811461282057600080fd5b50565b6000813590506128328161280c565b92915050565b6000806040838503121561284f5761284e61273d565b5b600061285d85828601612823565b925050602061286e85828601612823565b9150509250929050565b61288181612802565b82525050565b600060208201905061289c6000830184612878565b92915050565b6000602082840312156128b8576128b761273d565b5b60006128c684828501612823565b91505092915050565b60006128da826126e5565b9050919050565b6128ea816128cf565b82525050565b600060208201905061290560008301846128e1565b92915050565b600061291682612699565b9050919050565b6129268161290b565b811461293157600080fd5b50565b6000813590506129438161291d565b92915050565b60006020828403121561295f5761295e61273d565b5b600061296d84828501612934565b91505092915050565b6000612981826126e5565b9050919050565b61299181612976565b82525050565b60006020820190506129ac6000830184612988565b92915050565b6129bb816127cc565b81146129c657600080fd5b50565b6000813590506129d8816129b2565b92915050565b600080604083850312156129f5576129f461273d565b5b6000612a0385828601612934565b9250506020612a14858286016129c9565b9150509250929050565b600060208284031215612a3457612a3361273d565b5b6000612a42848285016129c9565b91505092915050565b612a548161290b565b82525050565b6000602082019050612a6f6000830184612a4b565b92915050565b600080600060608486031215612a8e57612a8d61273d565b5b6000612a9c86828701612934565b9350506020612aad86828701612823565b9250506040612abe86828701612823565b9150509250925092565b600080fd5b600080fd5b600080fd5b60008083601f840112612aed57612aec612ac8565b5b8235905067ffffffffffffffff811115612b0a57612b09612acd565b5b602083019150836020820283011115612b2657612b25612ad2565b5b9250929050565b60008083601f840112612b4357612b42612ac8565b5b8235905067ffffffffffffffff811115612b6057612b5f612acd565b5b602083019150836001820283011115612b7c57612b7b612ad2565b5b9250929050565b60008060008060008060008060a0898b031215612ba357612ba261273d565b5b6000612bb18b828c01612934565b9850506020612bc28b828c01612934565b975050604089013567ffffffffffffffff811115612be357612be2612742565b5b612bef8b828c01612ad7565b9650965050606089013567ffffffffffffffff811115612c1257612c11612742565b5b612c1e8b828c01612ad7565b9450945050608089013567ffffffffffffffff811115612c4157612c40612742565b5b612c4d8b828c01612b2d565b92509250509295985092959890939650565b612c6881612747565b82525050565b6000602082019050612c836000830184612c5f565b92915050565b600080fd5b6000601f19601f8301169050919050565b7f4e487b7100000000000000000000000000000000000000000000000000000000600052604160045260246000fd5b612cd782612c8e565b810181811067ffffffffffffffff82111715612cf657612cf5612c9f565b5b80604052505050565b6000612d09612733565b9050612d158282612cce565b919050565b600067ffffffffffffffff821115612d3557612d34612c9f565b5b612d3e82612c8e565b9050602081019050919050565b82818337600083830152505050565b6000612d6d612d6884612d1a565b612cff565b905082815260208101848484011115612d8957612d88612c89565b5b612d94848285612d4b565b509392505050565b600082601f830112612db157612db0612ac8565b5b8135612dc1848260208601612d5a565b91505092915050565b60008060408385031215612de157612de061273d565b5b600083013567ffffffffffffffff811115612dff57612dfe612742565b5b612e0b85828601612d9c565b925050602083013567ffffffffffffffff811115612e2c57612e2b612742565b5b612e3885828601612d9c565b9150509250929050565b6000612e4d826126e5565b9050919050565b612e5d81612e42565b82525050565b6000602082019050612e786000830184612e54565b92915050565b6000606082019050612e936000830186612878565b612ea060208301856127d8565b612ead6040830184612878565b949350505050565b60008060008060008060a08789031215612ed257612ed161273d565b5b6000612ee089828a01612934565b9650506020612ef189828a01612934565b9550506040612f0289828a01612823565b9450506060612f1389828a01612823565b935050608087013567ffffffffffffffff811115612f3457612f33612742565b5b612f4089828a01612b2d565b92509250509295509295509295565b7f4e487b7100000000000000000000000000000000000000000000000000000000600052601260045260246000fd5b7f4e487b7100000000000000000000000000000000000000000000000000000000600052601160045260246000fd5b6000612fb882612802565b9150612fc383612802565b925082612fd357612fd2612f4f565b5b828204905092915050565b600081519050612fed816129b2565b92915050565b6000602082840312156130095761300861273d565b5b600061301784828501612fde565b91505092915050565b600082825260208201905092915050565b7f43616e277420616c74657220706172616d73207768656e20656c696d696e617460008201527f696f6e206d6f6465206973206f6e000000000000000000000000000000000000602082015250565b600061308d602e83613020565b915061309882613031565b604082019050919050565b600060208201905081810360008301526130bc81613080565b9050919050565b7f596f752063616e206f6e6c792061646a757374206f6e63652070657220646179600082015250565b60006130f9602083613020565b9150613104826130c3565b602082019050919050565b60006020820190508181036000830152613128816130ec565b9050919050565b7f496e61637469766520706c617965720000000000000000000000000000000000600082015250565b6000613165600f83613020565b91506131708261312f565b602082019050919050565b6000602082019050818103600083015261319481613158565b9050919050565b60006040820190506131b06000830185612878565b6131bd6020830184612a4b565b9392505050565b7f4e6f204e46540000000000000000000000000000000000000000000000000000600082015250565b60006131fa600683613020565b9150613205826131c4565b602082019050919050565b60006020820190508181036000830152613229816131ed565b9050919050565b7f4e487b7100000000000000000000000000000000000000000000000000000000600052602160045260246000fd5b600c81106132705761326f613230565b5b50565b60008190506132818261325f565b919050565b600061329182613273565b9050919050565b6132a181613286565b82525050565b60006040820190506132bc6000830185613298565b6132c96020830184612878565b9392505050565b60006040820190506132e56000830185612a4b565b6132f26020830184612878565b9392505050565b6000815190506133088161280c565b92915050565b6000602082840312156133245761332361273d565b5b6000613332848285016132f9565b91505092915050565b7f596f75206d757374206f776e206174206c65617374206f6e65206f662074686960008201527f732073706563696669656420746f6b656e2e0000000000000000000000000000602082015250565b6000613397603283613020565b91506133a28261333b565b604082019050919050565b600060208201905081810360008301526133c68161338a565b9050919050565b60006040820190506133e26000830185612a4b565b6133ef6020830184612a4b565b9392505050565b7f436f6e7472616374206973206e6f7420617070726f76656420746f207472616e60008201527f7366657220796f757220746f6b656e732e000000000000000000000000000000602082015250565b6000613452603183613020565b915061345d826133f6565b604082019050919050565b6000602082019050818103600083015261348181613445565b9050919050565b600080fd5b600080fd5b60005b838110156134b0578082015181840152602081019050613495565b60008484015250505050565b60006134cf6134ca84612d1a565b612cff565b9050828152602081018484840111156134eb576134ea612c89565b5b6134f6848285613492565b509392505050565b600082601f83011261351357613512612ac8565b5b81516135238482602086016134bc565b91505092915050565b6000819050919050565b61353f8161352c565b811461354a57600080fd5b50565b60008151905061355c81613536565b92915050565b60006040828403121561357857613577613488565b5b6135826040612cff565b90506000613592848285016132f9565b600083015250602082015167ffffffffffffffff8111156135b6576135b561348d565b5b6135c2848285016134fe565b60208301525092915050565b600067ffffffffffffffff8211156135e9576135e8612c9f565b5b602082029050602081019050919050565b600067ffffffffffffffff82111561361557613614612c9f565b5b602082029050602081019050919050565b6000613639613634846135fa565b612cff565b9050808382526020820190506020840283018581111561365c5761365b612ad2565b5b835b81811015613685578061367188826132f9565b84526020840193505060208101905061365e565b5050509392505050565b600082601f8301126136a4576136a3612ac8565b5b81516136b4848260208601613626565b91505092915050565b600061012082840312156136d4576136d3613488565b5b6136df610120612cff565b905060006136ef8482850161354d565b6000830152506020613703848285016132f9565b6020830152506040613717848285016132f9565b604083015250606061372b848285016132f9565b606083015250608061373f848285016132f9565b60808301525060a082015167ffffffffffffffff8111156137635761376261348d565b5b61376f8482850161368f565b60a08301525060c082015167ffffffffffffffff8111156137935761379261348d565b5b61379f8482850161368f565b60c08301525060e082015167ffffffffffffffff8111156137c3576137c261348d565b5b6137cf8482850161368f565b60e08301525061010082015167ffffffffffffffff8111156137f4576137f361348d565b5b6138008482850161368f565b6101008301525092915050565b600060a0828403121561382357613822613488565b5b61382d60a0612cff565b9050600061383d848285016132f9565b6000830152506020613851848285016132f9565b6020830152506040613865848285016132f9565b6040830152506060613879848285016132f9565b606083015250608082015167ffffffffffffffff81111561389d5761389c61348d565b5b6138a9848285016134fe565b60808301525092915050565b600061018082840312156138cc576138cb613488565b5b6138d7610180612cff565b905060006138e7848285016132f9565b60008301525060206138fb848285016132f9565b602083015250604061390f848285016132f9565b6040830152506060613923848285016132f9565b6060830152506080613937848285016132f9565b60808301525060a061394b84828501612fde565b60a08301525060c082015167ffffffffffffffff81111561396f5761396e61348d565b5b61397b848285016134fe565b60c08301525060e082015167ffffffffffffffff81111561399f5761399e61348d565b5b6139ab848285016134fe565b60e0830152506101006139c0848285016132f9565b610100830152506101206139d6848285016132f9565b6101208301525061014082015167ffffffffffffffff8111156139fc576139fb61348d565b5b613a08848285016136bd565b6101408301525061016082015167ffffffffffffffff811115613a2e57613a2d61348d565b5b613a3a8482850161380d565b6101608301525092915050565b6000613a5a613a55846135ce565b612cff565b90508083825260208201905060208402830185811115613a7d57613a7c612ad2565b5b835b81811015613ac457805167ffffffffffffffff811115613aa257613aa1612ac8565b5b808601613aaf89826138b5565b85526020850194505050602081019050613a7f565b5050509392505050565b600082601f830112613ae357613ae2612ac8565b5b8151613af3848260208601613a47565b91505092915050565b60006101a08284031215613b1357613b12613488565b5b613b1e6101a0612cff565b9050600082015167ffffffffffffffff811115613b3e57613b3d61348d565b5b613b4a848285016134fe565b600083015250602082015167ffffffffffffffff811115613b6e57613b6d61348d565b5b613b7a848285016134fe565b6020830152506040613b8e8482850161354d565b6040830152506060613ba2848285016132f9565b6060830152506080613bb6848285016132f9565b60808301525060a082015167ffffffffffffffff811115613bda57613bd961348d565b5b613be684828501613562565b60a08301525060c082015167ffffffffffffffff811115613c0a57613c0961348d565b5b613c1684828501613ace565b60c08301525060e082015167ffffffffffffffff811115613c3a57613c3961348d565b5b613c4684828501613ace565b60e083015250610100613c5b848285016132f9565b61010083015250610120613c71848285016132f9565b61012083015250610140613c87848285016132f9565b61014083015250610160613c9d848285016132f9565b61016083015250610180613cb3848285016132f9565b6101808301525092915050565b600060208284031215613cd657613cd561273d565b5b600082015167ffffffffffffffff811115613cf457613cf3612742565b5b613d0084828501613afc565b91505092915050565b7f4d757374206265204d6f6c6563756c6500000000000000000000000000000000600082015250565b6000613d3f601083613020565b9150613d4a82613d09565b602082019050919050565b60006020820190508181036000830152613d6e81613d32565b9050919050565b7f496e616374697665000000000000000000000000000000000000000000000000600082015250565b6000613dab600883613020565b9150613db682613d75565b602082019050919050565b60006020820190508181036000830152613dda81613d9e565b9050919050565b6000819050919050565b6000613e06613e01613dfc84613de1565b6126b9565b612802565b9050919050565b613e1681613deb565b82525050565b600082825260208201905092915050565b50565b6000613e3d600083613e1c565b9150613e4882613e2d565b600082019050919050565b600060a082019050613e686000830187612a4b565b613e756020830186612a4b565b613e826040830185612878565b613e8f6060830184613e0d565b8181036080830152613ea081613e30565b905095945050505050565b6000604082019050613ec06000830185612878565b613ecd6020830184612878565b9392505050565b600081519050613ee38161291d565b92915050565b600060208284031215613eff57613efe61273d565b5b6000613f0d84828501613ed4565b91505092915050565b7f4e6f74204f776e65720000000000000000000000000000000000000000000000600082015250565b6000613f4c600983613020565b9150613f5782613f16565b602082019050919050565b60006020820190508181036000830152613f7b81613f3f565b9050919050565b7f4b65797320686173206265656e20757365640000000000000000000000000000600082015250565b6000613fb8601283613020565b9150613fc382613f82565b602082019050919050565b60006020820190508181036000830152613fe781613fab565b9050919050565b7f596f7520616c72656164792065717569707065642061206b6579000000000000600082015250565b6000614024601a83613020565b915061402f82613fee565b602082019050919050565b6000602082019050818103600083015261405381614017565b9050919050565b600061406582612802565b915061407083612802565b925082820190508082111561408857614087612f7e565b5b92915050565b7f596f75206d757374207761697420612064617900000000000000000000000000600082015250565b60006140c4601383613020565b91506140cf8261408e565b602082019050919050565b600060208201905081810360008301526140f3816140b7565b9050919050565b7f496e73756666696369656e7420746f6b656e2062616c616e636520696e20636f60008201527f6e74726163740000000000000000000000000000000000000000000000000000602082015250565b6000614156602683613020565b9150614161826140fa565b604082019050919050565b6000602082019050818103600083015261418581614149565b9050919050565b600060a0820190506141a16000830187612a4b565b6141ae6020830186612a4b565b6141bb6040830185612878565b6141c86060830184612878565b81810360808301526141d981613e30565b905095945050505050565b7f656c656374696f6e206e6f74206f70656e000000000000000000000000000000600082015250565b600061421a601183613020565b9150614225826141e4565b602082019050919050565b600060208201905081810360008301526142498161420d565b9050919050565b7f766f746564000000000000000000000000000000000000000000000000000000600082015250565b6000614286600583613020565b915061429182614250565b602082019050919050565b600060208201905081810360008301526142b581614279565b9050919050565b60006142c782612802565b91506142d283612802565b92508282026142e081612802565b915082820484148315176142f7576142f6612f7e565b5b5092915050565b600081519050919050565b600081905092915050565b600061431f826142fe565b6143298185614309565b9350614339818560208601613492565b80840191505092915050565b60006143518284614314565b915081905092915050565b7f4579657320686173206265656e20757365640000000000000000000000000000600082015250565b6000614392601283613020565b915061439d8261435c565b602082019050919050565b600060208201905081810360008301526143c181614385565b9050919050565b7f596f7520616c726561647920657175697070656420616e206579650000000000600082015250565b60006143fe601b83613020565b9150614409826143c8565b602082019050919050565b6000602082019050818103600083015261442d816143f1565b905091905056fea2646970667358221220278c9dc7f7dee566a01233462509c939545098b98562574c50de9087fd7307a064736f6c634300081b0033",
  "linkReferences": {},
  "deployedLinkReferences": {}
}