{
  "_format": "hh-sol-artifact-1",
  "contractName": "Game",
  "sourceName": "contracts/Game.sol",
  "abi": [
    {
      "inputs": [],
      "stateMutability": "nonpayable",
      "type": "constructor"
    },
    {
      "inputs": [
        {
          "internalType": "address",
          "name": "owner",
          "type": "address"
        }
      ],
      "name": "OwnableInvalidOwner",
      "type": "error"
    },
    {
      "inputs": [
        {
          "internalType": "address",
          "name": "account",
          "type": "address"
        }
      ],
      "name": "OwnableUnauthorizedAccount",
      "type": "error"
    },
    {
      "anonymous": false,
      "inputs": [
        {
          "indexed": true,
          "internalType": "address",
          "name": "nftContract",
          "type": "address"
        },
        {
          "indexed": false,
          "internalType": "bool",
          "name": "isAllowed",
          "type": "bool"
        }
      ],
      "name": "AllowedNFTContract",
      "type": "event"
    },
    {
      "anonymous": false,
      "inputs": [
        {
          "indexed": false,
          "internalType": "int256",
          "name": "dotdelta",
          "type": "int256"
        },
        {
          "indexed": true,
          "internalType": "uint256",
          "name": "playerid",
          "type": "uint256"
        }
      ],
      "name": "DotChanged",
      "type": "event"
    },
    {
      "anonymous": false,
      "inputs": [
        {
          "indexed": false,
          "internalType": "uint256",
          "name": "dot",
          "type": "uint256"
        },
        {
          "indexed": false,
          "internalType": "uint256",
          "name": "level",
          "type": "uint256"
        }
      ],
      "name": "DotLocked",
      "type": "event"
    },
    {
      "anonymous": false,
      "inputs": [
        {
          "indexed": false,
          "internalType": "uint256",
          "name": "ending",
          "type": "uint256"
        }
      ],
      "name": "GameEnded",
      "type": "event"
    },
    {
      "anonymous": false,
      "inputs": [
        {
          "indexed": true,
          "internalType": "address",
          "name": "nftContract",
          "type": "address"
        },
        {
          "indexed": true,
          "internalType": "uint256",
          "name": "tokenId",
          "type": "uint256"
        },
        {
          "indexed": true,
          "internalType": "address",
          "name": "owner",
          "type": "address"
        },
        {
          "indexed": false,
          "internalType": "uint256",
          "name": "playerid",
          "type": "uint256"
        }
      ],
      "name": "NFTRegistered",
      "type": "event"
    },
    {
      "anonymous": false,
      "inputs": [
        {
          "indexed": true,
          "internalType": "address",
          "name": "previousOwner",
          "type": "address"
        },
        {
          "indexed": true,
          "internalType": "address",
          "name": "newOwner",
          "type": "address"
        }
      ],
      "name": "OwnershipTransferred",
      "type": "event"
    },
    {
      "anonymous": false,
      "inputs": [
        {
          "indexed": false,
          "internalType": "uint256",
          "name": "attackerplayerid",
          "type": "uint256"
        },
        {
          "indexed": false,
          "internalType": "uint256",
          "name": "victimplayerid",
          "type": "uint256"
        },
        {
          "indexed": false,
          "internalType": "uint256",
          "name": "dotdelta",
          "type": "uint256"
        }
      ],
      "name": "PlayerAttacked",
      "type": "event"
    },
    {
      "anonymous": false,
      "inputs": [
        {
          "indexed": false,
          "internalType": "uint256",
          "name": "maze",
          "type": "uint256"
        },
        {
          "indexed": false,
          "internalType": "uint256",
          "name": "x",
          "type": "uint256"
        },
        {
          "indexed": false,
          "internalType": "uint256",
          "name": "y",
          "type": "uint256"
        },
        {
          "indexed": false,
          "internalType": "uint256",
          "name": "playerid",
          "type": "uint256"
        }
      ],
      "name": "PlayerMoved",
      "type": "event"
    },
    {
      "anonymous": false,
      "inputs": [
        {
          "indexed": false,
          "internalType": "uint256",
          "name": "attackerplayerid",
          "type": "uint256"
        },
        {
          "indexed": false,
          "internalType": "uint256",
          "name": "victimplayerid",
          "type": "uint256"
        }
      ],
      "name": "PlayerRobbed",
      "type": "event"
    },
    {
      "anonymous": false,
      "inputs": [
        {
          "indexed": false,
          "internalType": "enum PlayerStatus",
          "name": "status",
          "type": "uint8"
        },
        {
          "indexed": false,
          "internalType": "uint256",
          "name": "playerid",
          "type": "uint256"
        }
      ],
      "name": "PlayerStatusChanged",
      "type": "event"
    },
    {
      "inputs": [
        {
          "internalType": "uint256",
          "name": "",
          "type": "uint256"
        }
      ],
      "name": "DAILY_MOVES_FOR_LEVELS",
      "outputs": [
        {
          "internalType": "uint256",
          "name": "",
          "type": "uint256"
        }
      ],
      "stateMutability": "view",
      "type": "function"
    },
    {
      "inputs": [
        {
          "internalType": "uint256",
          "name": "",
          "type": "uint256"
        }
      ],
      "name": "DOTS_REQUIRED_FOR_LEVELS",
      "outputs": [
        {
          "internalType": "uint256",
          "name": "",
          "type": "uint256"
        }
      ],
      "stateMutability": "view",
      "type": "function"
    },
    {
      "inputs": [],
      "name": "GAME_ENDED",
      "outputs": [
        {
          "internalType": "enum Ending",
          "name": "",
          "type": "uint8"
        }
      ],
      "stateMutability": "view",
      "type": "function"
    },
    {
      "inputs": [
        {
          "internalType": "uint256",
          "name": "playerid",
          "type": "uint256"
        },
        {
          "internalType": "uint256",
          "name": "shieldsecond",
          "type": "uint256"
        }
      ],
      "name": "_addShieldTime",
      "outputs": [],
      "stateMutability": "nonpayable",
      "type": "function"
    },
    {
      "inputs": [
        {
          "internalType": "address",
          "name": "",
          "type": "address"
        }
      ],
      "name": "allowedNFTContracts",
      "outputs": [
        {
          "internalType": "bool",
          "name": "",
          "type": "bool"
        }
      ],
      "stateMutability": "view",
      "type": "function"
    },
    {
      "inputs": [
        {
          "internalType": "address",
          "name": "",
          "type": "address"
        }
      ],
      "name": "allowedOperators",
      "outputs": [
        {
          "internalType": "bool",
          "name": "",
          "type": "bool"
        }
      ],
      "stateMutability": "view",
      "type": "function"
    },
    {
      "inputs": [
        {
          "internalType": "uint256",
          "name": "playerid",
          "type": "uint256"
        },
        {
          "internalType": "uint256",
          "name": "shieldhours",
          "type": "uint256"
        }
      ],
      "name": "buyShield",
      "outputs": [],
      "stateMutability": "payable",
      "type": "function"
    },
    {
      "inputs": [
        {
          "internalType": "address",
          "name": "nftContract",
          "type": "address"
        },
        {
          "internalType": "uint256",
          "name": "tokenId",
          "type": "uint256"
        }
      ],
      "name": "checkPlayerId",
      "outputs": [
        {
          "internalType": "uint256",
          "name": "",
          "type": "uint256"
        }
      ],
      "stateMutability": "view",
      "type": "function"
    },
    {
      "inputs": [],
      "name": "endingThreshold",
      "outputs": [
        {
          "internalType": "uint256",
          "name": "",
          "type": "uint256"
        }
      ],
      "stateMutability": "view",
      "type": "function"
    },
    {
      "inputs": [
        {
          "internalType": "address",
          "name": "nftContract",
          "type": "address"
        },
        {
          "internalType": "uint256",
          "name": "tokenId",
          "type": "uint256"
        },
        {
          "internalType": "uint8",
          "name": "maze",
          "type": "uint8"
        },
        {
          "internalType": "uint8",
          "name": "x",
          "type": "uint8"
        },
        {
          "internalType": "uint8",
          "name": "y",
          "type": "uint8"
        }
      ],
      "name": "enterGame",
      "outputs": [],
      "stateMutability": "nonpayable",
      "type": "function"
    },
    {
      "inputs": [
        {
          "internalType": "uint256",
          "name": "playerid",
          "type": "uint256"
        },
        {
          "internalType": "uint256",
          "name": "destination_playerid",
          "type": "uint256"
        }
      ],
      "name": "forfeit",
      "outputs": [],
      "stateMutability": "nonpayable",
      "type": "function"
    },
    {
      "inputs": [
        {
          "internalType": "enum Game.ConfigKey",
          "name": "key",
          "type": "uint8"
        }
      ],
      "name": "getConfigUint",
      "outputs": [
        {
          "internalType": "uint256",
          "name": "",
          "type": "uint256"
        }
      ],
      "stateMutability": "view",
      "type": "function"
    },
    {
      "inputs": [],
      "name": "level3DotsLocked",
      "outputs": [
        {
          "internalType": "uint256",
          "name": "",
          "type": "uint256"
        }
      ],
      "stateMutability": "view",
      "type": "function"
    },
    {
      "inputs": [],
      "name": "level4DotsLocked",
      "outputs": [
        {
          "internalType": "uint256",
          "name": "",
          "type": "uint256"
        }
      ],
      "stateMutability": "view",
      "type": "function"
    },
    {
      "inputs": [
        {
          "internalType": "uint256",
          "name": "playerid",
          "type": "uint256"
        }
      ],
      "name": "lockIn",
      "outputs": [],
      "stateMutability": "nonpayable",
      "type": "function"
    },
    {
      "inputs": [],
      "name": "mazeContract",
      "outputs": [
        {
          "internalType": "contract Maze",
          "name": "",
          "type": "address"
        }
      ],
      "stateMutability": "view",
      "type": "function"
    },
    {
      "inputs": [
        {
          "internalType": "uint256",
          "name": "playerid",
          "type": "uint256"
        },
        {
          "internalType": "uint8",
          "name": "maze",
          "type": "uint8"
        },
        {
          "internalType": "uint8",
          "name": "x",
          "type": "uint8"
        },
        {
          "internalType": "uint8",
          "name": "y",
          "type": "uint8"
        }
      ],
      "name": "movePlayerTo",
      "outputs": [],
      "stateMutability": "payable",
      "type": "function"
    },
    {
      "inputs": [],
      "name": "next_player_id",
      "outputs": [
        {
          "internalType": "uint256",
          "name": "",
          "type": "uint256"
        }
      ],
      "stateMutability": "view",
      "type": "function"
    },
    {
      "inputs": [
        {
          "internalType": "address",
          "name": "",
          "type": "address"
        },
        {
          "internalType": "uint256",
          "name": "",
          "type": "uint256"
        }
      ],
      "name": "nft_to_playerid",
      "outputs": [
        {
          "internalType": "uint256",
          "name": "",
          "type": "uint256"
        }
      ],
      "stateMutability": "view",
      "type": "function"
    },
    {
      "inputs": [],
      "name": "owner",
      "outputs": [
        {
          "internalType": "address",
          "name": "",
          "type": "address"
        }
      ],
      "stateMutability": "view",
      "type": "function"
    },
    {
      "inputs": [
        {
          "internalType": "uint256",
          "name": "",
          "type": "uint256"
        }
      ],
      "name": "players",
      "outputs": [
        {
          "components": [
            {
              "internalType": "uint8",
              "name": "x",
              "type": "uint8"
            },
            {
              "internalType": "uint8",
              "name": "y",
              "type": "uint8"
            },
            {
              "internalType": "uint8",
              "name": "maze",
              "type": "uint8"
            }
          ],
          "internalType": "struct PlayerPosition",
          "name": "playerposition",
          "type": "tuple"
        },
        {
          "internalType": "uint256",
          "name": "dots",
          "type": "uint256"
        },
        {
          "internalType": "uint256",
          "name": "level",
          "type": "uint256"
        },
        {
          "internalType": "uint256",
          "name": "nextMoveTime",
          "type": "uint256"
        },
        {
          "internalType": "uint256",
          "name": "nextSwitchMazeTime",
          "type": "uint256"
        },
        {
          "internalType": "uint256",
          "name": "shieldExpireTime",
          "type": "uint256"
        },
        {
          "internalType": "uint256",
          "name": "protectionExpireTime",
          "type": "uint256"
        },
        {
          "internalType": "address",
          "name": "nftContract",
          "type": "address"
        },
        {
          "internalType": "uint256",
          "name": "tokenId",
          "type": "uint256"
        },
        {
          "components": [
            {
              "internalType": "uint256",
              "name": "day",
              "type": "uint256"
            },
            {
              "internalType": "uint256",
              "name": "move",
              "type": "uint256"
            }
          ],
          "internalType": "struct DailyMove",
          "name": "moveInfo",
          "type": "tuple"
        },
        {
          "internalType": "enum PlayerStatus",
          "name": "status",
          "type": "uint8"
        }
      ],
      "stateMutability": "view",
      "type": "function"
    },
    {
      "inputs": [],
      "name": "renounceOwnership",
      "outputs": [],
      "stateMutability": "nonpayable",
      "type": "function"
    },
    {
      "inputs": [],
      "name": "rewardContract",
      "outputs": [
        {
          "internalType": "contract Reward",
          "name": "",
          "type": "address"
        }
      ],
      "stateMutability": "view",
      "type": "function"
    },
    {
      "inputs": [
        {
          "internalType": "uint256",
          "name": "attacker_playerid",
          "type": "uint256"
        },
        {
          "internalType": "uint256",
          "name": "victim_playerid",
          "type": "uint256"
        }
      ],
      "name": "rob",
      "outputs": [],
      "stateMutability": "nonpayable",
      "type": "function"
    },
    {
      "inputs": [
        {
          "internalType": "address",
          "name": "nftContract",
          "type": "address"
        },
        {
          "internalType": "bool",
          "name": "isAllowed",
          "type": "bool"
        }
      ],
      "name": "setAllowedNFTContract",
      "outputs": [],
      "stateMutability": "nonpayable",
      "type": "function"
    },
    {
      "inputs": [
        {
          "internalType": "enum Game.ConfigKey",
          "name": "key",
          "type": "uint8"
        },
        {
          "internalType": "uint256",
          "name": "value",
          "type": "uint256"
        }
      ],
      "name": "setConfigUint",
      "outputs": [],
      "stateMutability": "nonpayable",
      "type": "function"
    },
    {
      "inputs": [
        {
          "internalType": "uint256",
          "name": "level",
          "type": "uint256"
        },
        {
          "internalType": "uint256",
          "name": "value",
          "type": "uint256"
        }
      ],
      "name": "setDailyMovesForLevel",
      "outputs": [],
      "stateMutability": "nonpayable",
      "type": "function"
    },
    {
      "inputs": [
        {
          "internalType": "uint256",
          "name": "level",
          "type": "uint256"
        },
        {
          "internalType": "uint256",
          "name": "value",
          "type": "uint256"
        }
      ],
      "name": "setDotsRequiredForLevel",
      "outputs": [],
      "stateMutability": "nonpayable",
      "type": "function"
    },
    {
      "inputs": [
        {
          "internalType": "address",
          "name": "_contract",
          "type": "address"
        }
      ],
      "name": "setMazeContract",
      "outputs": [],
      "stateMutability": "nonpayable",
      "type": "function"
    },
    {
      "inputs": [
        {
          "internalType": "address",
          "name": "_operator",
          "type": "address"
        },
        {
          "internalType": "bool",
          "name": "allowed",
          "type": "bool"
        }
      ],
      "name": "setOperator",
      "outputs": [],
      "stateMutability": "nonpayable",
      "type": "function"
    },
    {
      "inputs": [
        {
          "internalType": "address",
          "name": "_contract",
          "type": "address"
        }
      ],
      "name": "setRewardContract",
      "outputs": [],
      "stateMutability": "nonpayable",
      "type": "function"
    },
    {
      "inputs": [
        {
          "internalType": "address",
          "name": "newOwner",
          "type": "address"
        }
      ],
      "name": "transferOwnership",
      "outputs": [],
      "stateMutability": "nonpayable",
      "type": "function"
    },
    {
      "inputs": [],
      "name": "withdraw",
      "outputs": [],
      "stateMutability": "nonpayable",
      "type": "function"
    }
  ],
  "bytecode": "0x60806040526001600655611389600a556000600b60006101000a81548160ff02191690836003811115610035576100346105c1565b5b02179055506040518060c00160405280600061ffff168152602001600061ffff168152602001602861ffff16815260200160c861ffff1681526020016101f461ffff16815260200161138961ffff16815250600d9060066100979291906104ff565b506040518060c00160405280600060ff168152602001600a60ff168152602001600f60ff168152602001601460ff168152602001601960ff168152602001601e60ff16815250600e9060066100ed929190610552565b503480156100fa57600080fd5b5033600073ffffffffffffffffffffffffffffffffffffffff168173ffffffffffffffffffffffffffffffffffffffff160361016e5760006040517f1e4fbdf70000000000000000000000000000000000000000000000000000000081526004016101659190610631565b60405180910390fd5b61017d8161043b60201b60201c565b50603c600c600080600a811115610197576101966105c1565b5b600a8111156101a9576101a86105c1565b5b815260200190815260200160002081905550600a600c60006001600a8111156101d5576101d46105c1565b5b600a8111156101e7576101e66105c1565b5b81526020019081526020016000208190555061a8c0600c60006002600a811115610214576102136105c1565b5b600a811115610226576102256105c1565b5b81526020019081526020016000208190555062015180600c60006003600a811115610254576102536105c1565b5b600a811115610266576102656105c1565b5b81526020019081526020016000208190555062093a80600c60006004600a811115610294576102936105c1565b5b600a8111156102a6576102a56105c1565b5b81526020019081526020016000208190555066038d7ea4c68000600c60006005600a8111156102d8576102d76105c1565b5b600a8111156102ea576102e96105c1565b5b815260200190815260200160002081905550652d79883d2000600c60006006600a81111561031b5761031a6105c1565b5b600a81111561032d5761032c6105c1565b5b8152602001908152602001600020819055506003600c60006007600a811115610359576103586105c1565b5b600a81111561036b5761036a6105c1565b5b8152602001908152602001600020819055506003600c60006008600a811115610397576103966105c1565b5b600a8111156103a9576103a86105c1565b5b815260200190815260200160002081905550600a600c60006009600a8111156103d5576103d46105c1565b5b600a8111156103e7576103e66105c1565b5b815260200190815260200160002081905550600a600c6000600a80811115610412576104116105c1565b5b600a811115610424576104236105c1565b5b81526020019081526020016000208190555061064c565b60008060009054906101000a900473ffffffffffffffffffffffffffffffffffffffff169050816000806101000a81548173ffffffffffffffffffffffffffffffffffffffff021916908373ffffffffffffffffffffffffffffffffffffffff1602179055508173ffffffffffffffffffffffffffffffffffffffff168173ffffffffffffffffffffffffffffffffffffffff167f8be0079c531659141344cd1fd0a4f28419497f9722a3daafe3b4186f6b6457e060405160405180910390a35050565b828054828255906000526020600020908101928215610541579160200282015b82811115610540578251829061ffff1690559160200191906001019061051f565b5b50905061054e91906105a4565b5090565b828054828255906000526020600020908101928215610593579160200282015b82811115610592578251829060ff16905591602001919060010190610572565b5b5090506105a091906105a4565b5090565b5b808211156105bd5760008160009055506001016105a5565b5090565b7f4e487b7100000000000000000000000000000000000000000000000000000000600052602160045260246000fd5b600073ffffffffffffffffffffffffffffffffffffffff82169050919050565b600061061b826105f0565b9050919050565b61062b81610610565b82525050565b60006020820190506106466000830184610622565b92915050565b615ca28061065b6000396000f3fe6080604052600436106101ee5760003560e01c8063949506f91161010d578063cb392393116100a0578063deef2a0e1161006f578063deef2a0e146106d3578063f10dcc6b14610710578063f2fde38b1461072c578063f44ca09114610755578063f71d96cb14610771576101ee565b8063cb39239314610619578063ce01f1a414610642578063cec3344a1461066d578063cf5a0d46146106aa576101ee565b8063a3e20305116100dc578063a3e203051461054b578063a6674f8814610574578063bba01e49146105b1578063c0f6ae97146105dc576101ee565b8063949506f91461048f5780639c96fb20146104ba5780639fd6865e146104e55780639fed85ef14610522576101ee565b806351508f0a11610185578063715018a611610154578063715018a6146103e757806378dccede146103fe57806380df50a81461043b5780638da5cb5b14610464576101ee565b806351508f0a14610341578063558a72971461036a5780636579ee29146103935780636ea69d62146103bc576101ee565b806329ad77f9116101c157806329ad77f9146102ad5780633a1cafa8146102d65780633a86197d146102ff5780633ccfd60b1461032a576101ee565b8063020e3396146101f35780630d6014271461021c5780631c9a88231461024557806327d3732a14610270575b600080fd5b3480156101ff57600080fd5b5061021a6004803603810190610215919061440b565b6107b8565b005b34801561022857600080fd5b50610243600480360381019061023e919061440b565b6112bf565b005b34801561025157600080fd5b5061025a611655565b604051610267919061445a565b60405180910390f35b34801561027c57600080fd5b5061029760048036038101906102929190614475565b61165b565b6040516102a4919061445a565b60405180910390f35b3480156102b957600080fd5b506102d460048036038101906102cf9190614539565b61167f565b005b3480156102e257600080fd5b506102fd60048036038101906102f891906145b4565b611dbd565b005b34801561030b57600080fd5b50610314611e09565b604051610321919061445a565b60405180910390f35b34801561033657600080fd5b5061033f611e0f565b005b34801561034d57600080fd5b50610368600480360381019061036391906145b4565b611e60565b005b34801561037657600080fd5b50610391600480360381019061038c9190614619565b611eac565b005b34801561039f57600080fd5b506103ba60048036038101906103b59190614475565b611f0f565b005b3480156103c857600080fd5b506103d1612453565b6040516103de91906146b8565b60405180910390f35b3480156103f357600080fd5b506103fc612479565b005b34801561040a57600080fd5b50610425600480360381019061042091906146d3565b61248d565b604051610432919061445a565b60405180910390f35b34801561044757600080fd5b50610462600480360381019061045d9190614619565b6124e8565b005b34801561047057600080fd5b50610479612599565b6040516104869190614722565b60405180910390f35b34801561049b57600080fd5b506104a46125c2565b6040516104b1919061475e565b60405180910390f35b3480156104c657600080fd5b506104cf6125e8565b6040516104dc91906147f0565b60405180910390f35b3480156104f157600080fd5b5061050c60048036038101906105079190614475565b6125fb565b604051610519919061445a565b60405180910390f35b34801561052e57600080fd5b5061054960048036038101906105449190614830565b61261f565b005b34801561055757600080fd5b50610572600480360381019061056d919061440b565b612667565b005b34801561058057600080fd5b5061059b600480360381019061059691906145b4565b612696565b6040516105a8919061487f565b60405180910390f35b3480156105bd57600080fd5b506105c66126b6565b6040516105d3919061445a565b60405180910390f35b3480156105e857600080fd5b5061060360048036038101906105fe91906145b4565b6126bc565b604051610610919061487f565b60405180910390f35b34801561062557600080fd5b50610640600480360381019061063b919061440b565b6126dc565b005b34801561064e57600080fd5b5061065761270b565b604051610664919061445a565b60405180910390f35b34801561067957600080fd5b50610694600480360381019061068f91906146d3565b612711565b6040516106a1919061445a565b60405180910390f35b3480156106b657600080fd5b506106d160048036038101906106cc919061440b565b612736565b005b3480156106df57600080fd5b506106fa60048036038101906106f5919061489a565b612a6d565b604051610707919061445a565b60405180910390f35b61072a6004803603810190610725919061440b565b612aae565b005b34801561073857600080fd5b50610753600480360381019061074e91906145b4565b612c83565b005b61076f600480360381019061076a91906148c7565b612d09565b005b34801561077d57600080fd5b5061079860048036038101906107939190614475565b613683565b6040516107af9b9a99989796959493929190614a05565b60405180910390f35b8160006007600083815260200190815260200160002060070160009054906101000a900473ffffffffffffffffffffffffffffffffffffffff1690506000600760008481526020019081526020016000206008015490503373ffffffffffffffffffffffffffffffffffffffff168273ffffffffffffffffffffffffffffffffffffffff16636352211e836040518263ffffffff1660e01b815260040161085f919061445a565b602060405180830381865afa15801561087c573d6000803e3d6000fd5b505050506040513d601f19601f820116820180604052508101906108a09190614ac7565b73ffffffffffffffffffffffffffffffffffffffff16146108f6576040517f08c379a00000000000000000000000000000000000000000000000000000000081526004016108ed90614b51565b60405180910390fd5b6000600381111561090a57610909614779565b5b600b60009054906101000a900460ff16600381111561092c5761092b614779565b5b1461096c576040517f08c379a000000000000000000000000000000000000000000000000000000000815260040161096390614bbd565b60405180910390fd5b6000600760008781526020019081526020016000209050600060076000878152602001908152602001600020905060008160000160000160009054906101000a900460ff16905060008260000160000160019054906101000a900460ff16905060008360000160000160029054906101000a900460ff16905060008560000160000160009054906101000a900460ff16905060008660000160000160019054906101000a900460ff16905060008660000160000160029054906101000a900460ff169050600487600101541015610a4257600080fd5b600460009054906101000a900473ffffffffffffffffffffffffffffffffffffffff1673ffffffffffffffffffffffffffffffffffffffff16637fef46f58787876040518463ffffffff1660e01b8152600401610aa193929190614bec565b602060405180830381865afa158015610abe573d6000803e3d6000fd5b505050506040513d601f19601f82011682018060405250810190610ae29190614c38565b610b21576040517f08c379a0000000000000000000000000000000000000000000000000000000008152600401610b1890614cb1565b60405180910390fd5b8060ff168460ff16148015610b3e5750610b3d86868585613789565b5b610b7d576040517f08c379a0000000000000000000000000000000000000000000000000000000008152600401610b7490614d1d565b60405180910390fd5b866005015442118015610b935750866006015442115b610bd2576040517f08c379a0000000000000000000000000000000000000000000000000000000008152600401610bc990614d89565b60405180910390fd5b600c60006002600a811115610bea57610be9614779565b5b600a811115610bfc57610bfb614779565b5b81526020019081526020016000205442610c169190614dd8565b8760060181905550600060646063600c60006009600a811115610c3c57610c3b614779565b5b600a811115610c4e57610c4d614779565b5b8152602001908152602001600020548a60010154610c6c9190614e0c565b610c769190614dd8565b610c809190614e7d565b90506000600460009054906101000a900473ffffffffffffffffffffffffffffffffffffffff1673ffffffffffffffffffffffffffffffffffffffff1663d2e80879878a60018b610cd19190614eae565b6040518463ffffffff1660e01b8152600401610cef93929190614bec565b602060405180830381865afa158015610d0c573d6000803e3d6000fd5b505050506040513d601f19601f82011682018060405250810190610d309190614ef8565b1115610dff57610d498d82610d4490614f2f565b613806565b610dfe600460009054906101000a900473ffffffffffffffffffffffffffffffffffffffff1673ffffffffffffffffffffffffffffffffffffffff1663d2e80879878a60018b610d999190614eae565b6040518463ffffffff1660e01b8152600401610db793929190614bec565b602060405180830381865afa158015610dd4573d6000803e3d6000fd5b505050506040513d601f19601f82011682018060405250810190610df89190614ef8565b82613806565b5b6000600460009054906101000a900473ffffffffffffffffffffffffffffffffffffffff1673ffffffffffffffffffffffffffffffffffffffff1663d2e80879878a60018b610e4e9190614f77565b6040518463ffffffff1660e01b8152600401610e6c93929190614bec565b602060405180830381865afa158015610e89573d6000803e3d6000fd5b505050506040513d601f19601f82011682018060405250810190610ead9190614ef8565b1115610f7c57610ec68d82610ec190614f2f565b613806565b610f7b600460009054906101000a900473ffffffffffffffffffffffffffffffffffffffff1673ffffffffffffffffffffffffffffffffffffffff1663d2e80879878a60018b610f169190614f77565b6040518463ffffffff1660e01b8152600401610f3493929190614bec565b602060405180830381865afa158015610f51573d6000803e3d6000fd5b505050506040513d601f19601f82011682018060405250810190610f759190614ef8565b82613806565b5b6000600460009054906101000a900473ffffffffffffffffffffffffffffffffffffffff1673ffffffffffffffffffffffffffffffffffffffff1663d2e808798760018b610fca9190614eae565b8a6040518463ffffffff1660e01b8152600401610fe993929190614bec565b602060405180830381865afa158015611006573d6000803e3d6000fd5b505050506040513d601f19601f8201168201806040525081019061102a9190614ef8565b11156110f9576110438d8261103e90614f2f565b613806565b6110f8600460009054906101000a900473ffffffffffffffffffffffffffffffffffffffff1673ffffffffffffffffffffffffffffffffffffffff1663d2e808798760018b6110929190614eae565b8a6040518463ffffffff1660e01b81526004016110b193929190614bec565b602060405180830381865afa1580156110ce573d6000803e3d6000fd5b505050506040513d601f19601f820116820180604052508101906110f29190614ef8565b82613806565b5b6000600460009054906101000a900473ffffffffffffffffffffffffffffffffffffffff1673ffffffffffffffffffffffffffffffffffffffff1663d2e808798760018b6111479190614f77565b8a6040518463ffffffff1660e01b815260040161116693929190614bec565b602060405180830381865afa158015611183573d6000803e3d6000fd5b505050506040513d601f19601f820116820180604052508101906111a79190614ef8565b1115611276576111c08d826111bb90614f2f565b613806565b611275600460009054906101000a900473ffffffffffffffffffffffffffffffffffffffff1673ffffffffffffffffffffffffffffffffffffffff1663d2e808798760018b61120f9190614f77565b8a6040518463ffffffff1660e01b815260040161122e93929190614bec565b602060405180830381865afa15801561124b573d6000803e3d6000fd5b505050506040513d601f19601f8201168201806040525081019061126f9190614ef8565b82613806565b5b7f039acdbcd12dc628ff78fef26945113fc3d9ca7dcca364e7d7807178768266ad8e8e6040516112a7929190614fac565b60405180910390a15050505050505050505050505050565b8160006007600083815260200190815260200160002060070160009054906101000a900473ffffffffffffffffffffffffffffffffffffffff1690506000600760008481526020019081526020016000206008015490503373ffffffffffffffffffffffffffffffffffffffff168273ffffffffffffffffffffffffffffffffffffffff16636352211e836040518263ffffffff1660e01b8152600401611366919061445a565b602060405180830381865afa158015611383573d6000803e3d6000fd5b505050506040513d601f19601f820116820180604052508101906113a79190614ac7565b73ffffffffffffffffffffffffffffffffffffffff16146113fd576040517f08c379a00000000000000000000000000000000000000000000000000000000081526004016113f490614b51565b60405180910390fd5b6000600381111561141157611410614779565b5b600b60009054906101000a900460ff16600381111561143357611432614779565b5b14611473576040517f08c379a000000000000000000000000000000000000000000000000000000000815260040161146a90614bbd565b60405180910390fd5b83850361147f57600080fd5b6001600381111561149357611492614779565b5b60076000878152602001908152602001600020600b0160009054906101000a900460ff1660038111156114c9576114c8614779565b5b14611509576040517f08c379a000000000000000000000000000000000000000000000000000000000815260040161150090615021565b60405180910390fd5b6001600381111561151d5761151c614779565b5b60076000868152602001908152602001600020600b0160009054906101000a900460ff16600381111561155357611552614779565b5b14611593576040517f08c379a000000000000000000000000000000000000000000000000000000000815260040161158a90615021565b60405180910390fd5b600060076000878152602001908152602001600020600101549050600360076000888152602001908152602001600020600b0160006101000a81548160ff021916908360038111156115e8576115e7614779565b5b021790555061160086826115fb90614f2f565b613806565b61160a8582613806565b6116138661395f565b7f225f3b692ac11cdafcafb064a6e0d96cb25948e1d431d5f5e2dfd3dea6389606600387604051611645929190615041565b60405180910390a1505050505050565b60085481565b600d818154811061166b57600080fd5b906000526020600020016000915090505481565b60008590506000600381111561169857611697614779565b5b600b60009054906101000a900460ff1660038111156116ba576116b9614779565b5b146116fa576040517f08c379a00000000000000000000000000000000000000000000000000000000081526004016116f190614bbd565b60405180910390fd5b600160008773ffffffffffffffffffffffffffffffffffffffff1673ffffffffffffffffffffffffffffffffffffffff16815260200190815260200160002060009054906101000a900460ff16611786576040517f08c379a000000000000000000000000000000000000000000000000000000000815260040161177d906150b6565b60405180910390fd5b3373ffffffffffffffffffffffffffffffffffffffff168173ffffffffffffffffffffffffffffffffffffffff16636352211e876040518263ffffffff1660e01b81526004016117d6919061445a565b602060405180830381865afa1580156117f3573d6000803e3d6000fd5b505050506040513d601f19601f820116820180604052508101906118179190614ac7565b73ffffffffffffffffffffffffffffffffffffffff161461186d576040517f08c379a000000000000000000000000000000000000000000000000000000000815260040161186490615122565b60405180910390fd5b6000600560008873ffffffffffffffffffffffffffffffffffffffff1673ffffffffffffffffffffffffffffffffffffffff16815260200190815260200160002060008781526020019081526020016000205414611900576040517f08c379a00000000000000000000000000000000000000000000000000000000081526004016118f79061518e565b60405180910390fd5b6000600460009054906101000a900473ffffffffffffffffffffffffffffffffffffffff1673ffffffffffffffffffffffffffffffffffffffff1663d2e808798686866040518463ffffffff1660e01b815260040161196193929190614bec565b602060405180830381865afa15801561197e573d6000803e3d6000fd5b505050506040513d601f19601f820116820180604052508101906119a29190614ef8565b146119ac57600080fd5b600654600560008873ffffffffffffffffffffffffffffffffffffffff1673ffffffffffffffffffffffffffffffffffffffff16815260200190815260200160002060008781526020019081526020016000208190555060405180610160016040528060405180606001604052808660ff1681526020018560ff1681526020018760ff1681525081526020016000815260200160018152602001600c600080600a811115611a5d57611a5c614779565b5b600a811115611a6f57611a6e614779565b5b81526020019081526020016000205442611a899190614dd8565b8152602001600c60006004600a811115611aa657611aa5614779565b5b600a811115611ab857611ab7614779565b5b81526020019081526020016000205442611ad29190614dd8565b815260200160008152602001600081526020018773ffffffffffffffffffffffffffffffffffffffff1681526020018681526020016040518060400160405280600081526020016000815250815260200160016003811115611b3757611b36614779565b5b81525060076000600654815260200190815260200160002060008201518160000160008201518160000160006101000a81548160ff021916908360ff16021790555060208201518160000160016101000a81548160ff021916908360ff16021790555060408201518160000160026101000a81548160ff021916908360ff16021790555050506020820151816001015560408201518160020155606082015181600301556080820151816004015560a0820151816005015560c0820151816006015560e08201518160070160006101000a81548173ffffffffffffffffffffffffffffffffffffffff021916908373ffffffffffffffffffffffffffffffffffffffff1602179055506101008201518160080155610120820151816009016000820151816000015560208201518160010155505061014082015181600b0160006101000a81548160ff02191690836003811115611c9757611c96614779565b5b02179055509050503373ffffffffffffffffffffffffffffffffffffffff16858773ffffffffffffffffffffffffffffffffffffffff167fa9894c605a4e71658774ce8b7875aec503c277b93e274f8788c1fce5f896bc74600654604051611cff919061445a565b60405180910390a47f225f3b692ac11cdafcafb064a6e0d96cb25948e1d431d5f5e2dfd3dea63896066001600654604051611d3b929190615041565b60405180910390a1611d51848484600654613b4f565b7f6eaf6cd27015002a7e738b270d088d51e2be41e4a8729c7276157c1801c3d03f848484600654604051611d8894939291906151df565b60405180910390a1611d9b600654613d2b565b600160066000828254611dae9190614dd8565b92505081905550505050505050565b611dc5613e6b565b80600460006101000a81548173ffffffffffffffffffffffffffffffffffffffff021916908373ffffffffffffffffffffffffffffffffffffffff16021790555050565b600a5481565b611e17613e6b565b3373ffffffffffffffffffffffffffffffffffffffff166108fc479081150290604051600060405180830381858888f19350505050158015611e5d573d6000803e3d6000fd5b50565b611e68613e6b565b80600360006101000a81548173ffffffffffffffffffffffffffffffffffffffff021916908373ffffffffffffffffffffffffffffffffffffffff16021790555050565b611eb4613e6b565b80600260008473ffffffffffffffffffffffffffffffffffffffff1673ffffffffffffffffffffffffffffffffffffffff16815260200190815260200160002060006101000a81548160ff0219169083151502179055505050565b8060006007600083815260200190815260200160002060070160009054906101000a900473ffffffffffffffffffffffffffffffffffffffff1690506000600760008481526020019081526020016000206008015490503373ffffffffffffffffffffffffffffffffffffffff168273ffffffffffffffffffffffffffffffffffffffff16636352211e836040518263ffffffff1660e01b8152600401611fb6919061445a565b602060405180830381865afa158015611fd3573d6000803e3d6000fd5b505050506040513d601f19601f82011682018060405250810190611ff79190614ac7565b73ffffffffffffffffffffffffffffffffffffffff161461204d576040517f08c379a000000000000000000000000000000000000000000000000000000000815260040161204490614b51565b60405180910390fd5b6000600381111561206157612060614779565b5b600b60009054906101000a900460ff16600381111561208357612082614779565b5b146120c3576040517f08c379a00000000000000000000000000000000000000000000000000000000081526004016120ba90614bbd565b60405180910390fd5b600160038111156120d7576120d6614779565b5b60076000868152602001908152602001600020600b0160009054906101000a900460ff16600381111561210d5761210c614779565b5b1461214d576040517f08c379a000000000000000000000000000000000000000000000000000000000815260040161214490615270565b60405180910390fd5b600c60006007600a81111561216557612164614779565b5b600a81111561217757612176614779565b5b815260200190815260200160002054600760008681526020019081526020016000206002015410156121de576040517f08c379a00000000000000000000000000000000000000000000000000000000081526004016121d5906152dc565b60405180910390fd5b600260076000868152602001908152602001600020600b0160006101000a81548160ff0219169083600381111561221857612217614779565b5b02179055506000600760008681526020019081526020016000206001015490506000600760008781526020019081526020016000206002015490506003810361230d57816008600082825461226d9190614dd8565b92505081905550600360009054906101000a900473ffffffffffffffffffffffffffffffffffffffff1673ffffffffffffffffffffffffffffffffffffffff16636f9fd2fc6122bb88613ef2565b60036040518363ffffffff1660e01b81526004016122da929190615337565b600060405180830381600087803b1580156122f457600080fd5b505af1158015612308573d6000803e3d6000fd5b505050505b600481036123c75781600960008282546123279190614dd8565b92505081905550600360009054906101000a900473ffffffffffffffffffffffffffffffffffffffff1673ffffffffffffffffffffffffffffffffffffffff16636f9fd2fc61237588613ef2565b60046040518363ffffffff1660e01b815260040161239492919061539b565b600060405180830381600087803b1580156123ae57600080fd5b505af11580156123c2573d6000803e3d6000fd5b505050505b7f225f3b692ac11cdafcafb064a6e0d96cb25948e1d431d5f5e2dfd3dea63896066002876040516123f9929190615041565b60405180910390a17f96471c5c697a4607b045eea2a27fa36868cf52b83096e1d665e58535386dfc7f8282604051612432929190614fac565b60405180910390a16124438661395f565b61244b613fcc565b505050505050565b600360009054906101000a900473ffffffffffffffffffffffffffffffffffffffff1681565b612481613e6b565b61248b60006140ae565b565b6000600560008473ffffffffffffffffffffffffffffffffffffffff1673ffffffffffffffffffffffffffffffffffffffff168152602001908152602001600020600083815260200190815260200160002054905092915050565b6124f0613e6b565b80600160008473ffffffffffffffffffffffffffffffffffffffff1673ffffffffffffffffffffffffffffffffffffffff16815260200190815260200160002060006101000a81548160ff0219169083151502179055508173ffffffffffffffffffffffffffffffffffffffff167fab7ee07d6fcd55d3521af17f0fc9a09487385d36c421d23bdd1eac42e532043c8260405161258d919061487f565b60405180910390a25050565b60008060009054906101000a900473ffffffffffffffffffffffffffffffffffffffff16905090565b600460009054906101000a900473ffffffffffffffffffffffffffffffffffffffff1681565b600b60009054906101000a900460ff1681565b600e818154811061260b57600080fd5b906000526020600020016000915090505481565b612627613e6b565b80600c600084600a81111561263f5761263e614779565b5b600a81111561265157612650614779565b5b8152602001908152602001600020819055505050565b61266f613e6b565b80600d8381548110612684576126836153c4565b5b90600052602060002001819055505050565b60026020528060005260406000206000915054906101000a900460ff1681565b60065481565b60016020528060005260406000206000915054906101000a900460ff1681565b6126e4613e6b565b80600e83815481106126f9576126f86153c4565b5b90600052602060002001819055505050565b60095481565b6005602052816000526040600020602052806000526040600020600091509150505481565b600260003373ffffffffffffffffffffffffffffffffffffffff1673ffffffffffffffffffffffffffffffffffffffff16815260200190815260200160002060009054906101000a900460ff16806127c05750612791612599565b73ffffffffffffffffffffffffffffffffffffffff163373ffffffffffffffffffffffffffffffffffffffff16145b6127ff576040517f08c379a00000000000000000000000000000000000000000000000000000000081526004016127f69061543f565b60405180910390fd5b6000600381111561281357612812614779565b5b600b60009054906101000a900460ff16600381111561283557612834614779565b5b14612875576040517f08c379a000000000000000000000000000000000000000000000000000000000815260040161286c90614bbd565b60405180910390fd5b600c60006003600a81111561288d5761288c614779565b5b600a81111561289f5761289e614779565b5b815260200190815260200160002054426128b99190614dd8565b8160076000858152602001908152602001600020600501546128db9190614dd8565b111561291c576040517f08c379a0000000000000000000000000000000000000000000000000000000008152600401612913906154d1565b60405180910390fd5b600c60006003600a81111561293457612933614779565b5b600a81111561294657612945614779565b5b815260200190815260200160002054811115612997576040517f08c379a000000000000000000000000000000000000000000000000000000000815260040161298e90614d1d565b60405180910390fd5b600c60006008600a8111156129af576129ae614779565b5b600a8111156129c1576129c0614779565b5b815260200190815260200160002054600760008481526020019081526020016000206002015410156129f257600080fd5b4260076000848152602001908152602001600020600501541115612a425780600760008481526020019081526020016000206005016000828254612a369190614dd8565b92505081905550612a69565b8042612a4e9190614dd8565b60076000848152602001908152602001600020600501819055505b5050565b6000600c600083600a811115612a8657612a85614779565b5b600a811115612a9857612a97614779565b5b8152602001908152602001600020549050919050565b8160006007600083815260200190815260200160002060070160009054906101000a900473ffffffffffffffffffffffffffffffffffffffff1690506000600760008481526020019081526020016000206008015490503373ffffffffffffffffffffffffffffffffffffffff168273ffffffffffffffffffffffffffffffffffffffff16636352211e836040518263ffffffff1660e01b8152600401612b55919061445a565b602060405180830381865afa158015612b72573d6000803e3d6000fd5b505050506040513d601f19601f82011682018060405250810190612b969190614ac7565b73ffffffffffffffffffffffffffffffffffffffff1614612bec576040517f08c379a0000000000000000000000000000000000000000000000000000000008152600401612be390614b51565b60405180910390fd5b83600c60006006600a811115612c0557612c04614779565b5b600a811115612c1757612c16614779565b5b815260200190815260200160002054612c309190614e0c565b341015612c72576040517f08c379a0000000000000000000000000000000000000000000000000000000008152600401612c699061553d565b60405180910390fd5b612c7c8585612736565b5050505050565b612c8b613e6b565b600073ffffffffffffffffffffffffffffffffffffffff168173ffffffffffffffffffffffffffffffffffffffff1603612cfd5760006040517f1e4fbdf7000000000000000000000000000000000000000000000000000000008152600401612cf49190614722565b60405180910390fd5b612d06816140ae565b50565b8360006007600083815260200190815260200160002060070160009054906101000a900473ffffffffffffffffffffffffffffffffffffffff1690506000600760008481526020019081526020016000206008015490503373ffffffffffffffffffffffffffffffffffffffff168273ffffffffffffffffffffffffffffffffffffffff16636352211e836040518263ffffffff1660e01b8152600401612db0919061445a565b602060405180830381865afa158015612dcd573d6000803e3d6000fd5b505050506040513d601f19601f82011682018060405250810190612df19190614ac7565b73ffffffffffffffffffffffffffffffffffffffff1614612e47576040517f08c379a0000000000000000000000000000000000000000000000000000000008152600401612e3e90614b51565b60405180910390fd5b60006003811115612e5b57612e5a614779565b5b600b60009054906101000a900460ff166003811115612e7d57612e7c614779565b5b14612ebd576040517f08c379a0000000000000000000000000000000000000000000000000000000008152600401612eb490614bbd565b60405180910390fd5b42600760008981526020019081526020016000206003015410612f15576040517f08c379a0000000000000000000000000000000000000000000000000000000008152600401612f0c906155a9565b60405180910390fd5b60006007600089815260200190815260200160002060000160000160009054906101000a900460ff1690506000600760008a815260200190815260200160002060000160000160019054906101000a900460ff1690508760ff16600760008b815260200190815260200160002060000160000160029054906101000a900460ff1660ff16146131e7576000600460009054906101000a900473ffffffffffffffffffffffffffffffffffffffff1673ffffffffffffffffffffffffffffffffffffffff1663d2e808798a8a8a6040518463ffffffff1660e01b8152600401612fff93929190614bec565b602060405180830381865afa15801561301c573d6000803e3d6000fd5b505050506040513d601f19601f820116820180604052508101906130409190614ef8565b14613080576040517f08c379a00000000000000000000000000000000000000000000000000000000081526004016130779061563b565b60405180910390fd5b600760008a8152602001908152602001600020600401544211806130dc5750600c60006005600a8111156130b7576130b6614779565b5b600a8111156130c9576130c8614779565b5b8152602001908152602001600020543410155b61311b576040517f08c379a0000000000000000000000000000000000000000000000000000000008152600401613112906156cd565b60405180910390fd5b600c600080600a81111561313257613131614779565b5b600a81111561314457613143614779565b5b8152602001908152602001600020544261315e9190614dd8565b600760008b815260200190815260200160002060030181905550600c60006004600a8111156131905761318f614779565b5b600a8111156131a2576131a1614779565b5b815260200190815260200160002054426131bc9190614dd8565b600760008b8152602001908152602001600020600401819055506131e28888888c613b4f565b613653565b6131f382828989613789565b613232576040517f08c379a00000000000000000000000000000000000000000000000000000000081526004016132299061575f565b60405180910390fd5b6000600460009054906101000a900473ffffffffffffffffffffffffffffffffffffffff1673ffffffffffffffffffffffffffffffffffffffff1663d2e808798a8a8a6040518463ffffffff1660e01b815260040161329393929190614bec565b602060405180830381865afa1580156132b0573d6000803e3d6000fd5b505050506040513d601f19601f820116820180604052508101906132d49190614ef8565b036132ea576132e58888888c613b4f565b6135f4565b6000600460009054906101000a900473ffffffffffffffffffffffffffffffffffffffff1673ffffffffffffffffffffffffffffffffffffffff1663d2e808798a8a8a6040518463ffffffff1660e01b815260040161334b93929190614bec565b602060405180830381865afa158015613368573d6000803e3d6000fd5b505050506040513d601f19601f8201168201806040525081019061338c9190614ef8565b9050600060646063600c60006009600a8111156133ac576133ab614779565b5b600a8111156133be576133bd614779565b5b81526020019081526020016000205460076000868152602001908152602001600020600101546133ee9190614e0c565b6133f89190614dd8565b6134029190614e7d565b90506007600083815260200190815260200160002060020154600760008d8152602001908152602001600020600201541015613473576040517f08c379a000000000000000000000000000000000000000000000000000000000815260040161346a906157cb565b60405180910390fd5b600760008381526020019081526020016000206005015442116134cb576040517f08c379a00000000000000000000000000000000000000000000000000000000081526004016134c290615837565b60405180910390fd5b60076000838152602001908152602001600020600601544211613523576040517f08c379a000000000000000000000000000000000000000000000000000000000815260040161351a906158a3565b60405180910390fd5b600c60006002600a81111561353b5761353a614779565b5b600a81111561354d5761354c614779565b5b815260200190815260200160002054426135679190614dd8565b600760008481526020019081526020016000206006018190555061358b8b82613806565b61359e828261359990614f2f565b613806565b6135aa8a8a8a8e613b4f565b6135b68a858585613b4f565b7f8e94011834e20398e9c758cc1be311eab76fd80b1e439bd2c59fc4ed3195a8b08b83836040516135e9939291906158c3565b60405180910390a150505b600c60006001600a81111561360c5761360b614779565b5b600a81111561361e5761361d614779565b5b815260200190815260200160002054426136389190614dd8565b600760008b8152602001908152602001600020600301819055505b6000600760008b81526020019081526020016000206006018190555061367889613d2b565b505050505050505050565b6007602052806000526040600020600091509050806000016040518060600160405290816000820160009054906101000a900460ff1660ff1660ff1681526020016000820160019054906101000a900460ff1660ff1660ff1681526020016000820160029054906101000a900460ff1660ff1660ff1681525050908060010154908060020154908060030154908060040154908060050154908060060154908060070160009054906101000a900473ffffffffffffffffffffffffffffffffffffffff169080600801549080600901604051806040016040529081600082015481526020016001820154815250509080600b0160009054906101000a900460ff1690508b565b6000808360ff168660ff16116137aa5785846137a59190614eae565b6137b7565b83866137b69190614eae565b5b905060008360ff168660ff16116137d95785846137d49190614eae565b6137e6565b83866137e59190614eae565b5b9050600181836137f69190614f77565b60ff161492505050949350505050565b60006007600084815260200190815260200160002060010154905060008212158061383a57508161383690614f2f565b8110155b613879576040517f08c379a000000000000000000000000000000000000000000000000000000000815260040161387090615946565b60405180910390fd5b6000821315806138b45750807fffffffffffffffffffffffffffffffffffffffffffffffffffffffffffffffff6138b09190615966565b8211155b6138f3576040517f08c379a00000000000000000000000000000000000000000000000000000000081526004016138ea906159e6565b60405180910390fd5b81816138ff9190615a06565b600760008581526020019081526020016000206001018190555061392283614172565b827f3c4a2e2bac8926425dd3e4e1487869f1a441950df5336e151eada44d5550a11e836040516139529190615a59565b60405180910390a2505050565b600460009054906101000a900473ffffffffffffffffffffffffffffffffffffffff1673ffffffffffffffffffffffffffffffffffffffff1663d2e808796007600084815260200190815260200160002060000160000160029054906101000a900460ff166007600085815260200190815260200160002060000160000160009054906101000a900460ff166007600086815260200190815260200160002060000160000160019054906101000a900460ff166040518463ffffffff1660e01b8152600401613a3093929190614bec565b602060405180830381865afa158015613a4d573d6000803e3d6000fd5b505050506040513d601f19601f82011682018060405250810190613a719190614ef8565b50600060ff9050806007600084815260200190815260200160002060000160000160006101000a81548160ff021916908360ff160217905550806007600084815260200190815260200160002060000160000160016101000a81548160ff021916908360ff160217905550806007600084815260200190815260200160002060000160000160026101000a81548160ff021916908360ff1602179055507f6eaf6cd27015002a7e738b270d088d51e2be41e4a8729c7276157c1801c3d03f81828385604051613b4394939291906151df565b60405180910390a15050565b6000600460009054906101000a900473ffffffffffffffffffffffffffffffffffffffff1673ffffffffffffffffffffffffffffffffffffffff16639c4c7b5f8686866007600088815260200190815260200160002060000160000160009054906101000a900460ff166007600089815260200190815260200160002060000160000160019054906101000a900460ff16886040518763ffffffff1660e01b8152600401613c0296959493929190615a74565b6020604051808303816000875af1158015613c21573d6000803e3d6000fd5b505050506040513d601f19601f82011682018060405250810190613c459190614ef8565b9050836007600084815260200190815260200160002060000160000160006101000a81548160ff021916908360ff160217905550826007600084815260200190815260200160002060000160000160016101000a81548160ff021916908360ff160217905550846007600084815260200190815260200160002060000160000160026101000a81548160ff021916908360ff160217905550613ce78282613806565b7f6eaf6cd27015002a7e738b270d088d51e2be41e4a8729c7276157c1801c3d03f85858585604051613d1c94939291906151df565b60405180910390a15050505050565b60006201518042613d3c9190614e7d565b905060076000838152602001908152602001600020600901600001548103613e29576000600e600760008581526020019081526020016000206002015481548110613d8a57613d896153c4565b5b9060005260206000200154905080600760008581526020019081526020016000206009016001015410613df2576040517f08c379a0000000000000000000000000000000000000000000000000000000008152600401613de990615b21565b60405180910390fd5b6001600760008581526020019081526020016000206009016001016000828254613e1c9190614dd8565b9250508190555050613e67565b806007600084815260200190815260200160002060090160000181905550600160076000848152602001908152602001600020600901600101819055505b5050565b613e736143c8565b73ffffffffffffffffffffffffffffffffffffffff16613e91612599565b73ffffffffffffffffffffffffffffffffffffffff1614613ef057613eb46143c8565b6040517f118cdaa7000000000000000000000000000000000000000000000000000000008152600401613ee79190614722565b60405180910390fd5b565b6000806007600084815260200190815260200160002060070160009054906101000a900473ffffffffffffffffffffffffffffffffffffffff1690506000600760008581526020019081526020016000206008015490508173ffffffffffffffffffffffffffffffffffffffff16636352211e826040518263ffffffff1660e01b8152600401613f82919061445a565b602060405180830381865afa158015613f9f573d6000803e3d6000fd5b505050506040513d601f19601f82011682018060405250810190613fc39190614ac7565b92505050919050565b600a54600854111561403c576001600b60006101000a81548160ff02191690836003811115613ffe57613ffd614779565b5b02179055507fce24807f7e4b60b4e641462f13029fa5e5f79075bbc3f8e5cd43ecd19661d76060016040516140339190615b7c565b60405180910390a15b600a5460095411156140ac576002600b60006101000a81548160ff0219169083600381111561406e5761406d614779565b5b02179055507fce24807f7e4b60b4e641462f13029fa5e5f79075bbc3f8e5cd43ecd19661d76060026040516140a39190615bd2565b60405180910390a15b565b60008060009054906101000a900473ffffffffffffffffffffffffffffffffffffffff169050816000806101000a81548173ffffffffffffffffffffffffffffffffffffffff021916908373ffffffffffffffffffffffffffffffffffffffff1602179055508173ffffffffffffffffffffffffffffffffffffffff168173ffffffffffffffffffffffffffffffffffffffff167f8be0079c531659141344cd1fd0a4f28419497f9722a3daafe3b4186f6b6457e060405160405180910390a35050565b600060076000838152602001908152602001600020600101549050600d6005815481106141a2576141a16153c4565b5b906000526020600020015481106142cf57600560076000848152602001908152602001600020600201819055506003600b60006101000a81548160ff021916908360038111156141f5576141f4614779565b5b0217905550600360009054906101000a900473ffffffffffffffffffffffffffffffffffffffff1673ffffffffffffffffffffffffffffffffffffffff16636f9fd2fc61424184613ef2565b60056040518363ffffffff1660e01b8152600401614260929190615c28565b600060405180830381600087803b15801561427a57600080fd5b505af115801561428e573d6000803e3d6000fd5b505050507fce24807f7e4b60b4e641462f13029fa5e5f79075bbc3f8e5cd43ecd19661d76060036040516142c29190615c51565b60405180910390a16143c4565b600d6004815481106142e4576142e36153c4565b5b9060005260206000200154811061431657600460076000848152602001908152602001600020600201819055506143c3565b600d60038154811061432b5761432a6153c4565b5b9060005260206000200154811061435d57600360076000848152602001908152602001600020600201819055506143c2565b600d600281548110614372576143716153c4565b5b906000526020600020015481106143a457600260076000848152602001908152602001600020600201819055506143c1565b600160076000848152602001908152602001600020600201819055505b5b5b5b5050565b600033905090565b600080fd5b6000819050919050565b6143e8816143d5565b81146143f357600080fd5b50565b600081359050614405816143df565b92915050565b60008060408385031215614422576144216143d0565b5b6000614430858286016143f6565b9250506020614441858286016143f6565b9150509250929050565b614454816143d5565b82525050565b600060208201905061446f600083018461444b565b92915050565b60006020828403121561448b5761448a6143d0565b5b6000614499848285016143f6565b91505092915050565b600073ffffffffffffffffffffffffffffffffffffffff82169050919050565b60006144cd826144a2565b9050919050565b6144dd816144c2565b81146144e857600080fd5b50565b6000813590506144fa816144d4565b92915050565b600060ff82169050919050565b61451681614500565b811461452157600080fd5b50565b6000813590506145338161450d565b92915050565b600080600080600060a08688031215614555576145546143d0565b5b6000614563888289016144eb565b9550506020614574888289016143f6565b945050604061458588828901614524565b935050606061459688828901614524565b92505060806145a788828901614524565b9150509295509295909350565b6000602082840312156145ca576145c96143d0565b5b60006145d8848285016144eb565b91505092915050565b60008115159050919050565b6145f6816145e1565b811461460157600080fd5b50565b600081359050614613816145ed565b92915050565b600080604083850312156146305761462f6143d0565b5b600061463e858286016144eb565b925050602061464f85828601614604565b9150509250929050565b6000819050919050565b600061467e614679614674846144a2565b614659565b6144a2565b9050919050565b600061469082614663565b9050919050565b60006146a282614685565b9050919050565b6146b281614697565b82525050565b60006020820190506146cd60008301846146a9565b92915050565b600080604083850312156146ea576146e96143d0565b5b60006146f8858286016144eb565b9250506020614709858286016143f6565b9150509250929050565b61471c816144c2565b82525050565b60006020820190506147376000830184614713565b92915050565b600061474882614685565b9050919050565b6147588161473d565b82525050565b6000602082019050614773600083018461474f565b92915050565b7f4e487b7100000000000000000000000000000000000000000000000000000000600052602160045260246000fd5b600481106147b9576147b8614779565b5b50565b60008190506147ca826147a8565b919050565b60006147da826147bc565b9050919050565b6147ea816147cf565b82525050565b600060208201905061480560008301846147e1565b92915050565b600b811061481857600080fd5b50565b60008135905061482a8161480b565b92915050565b60008060408385031215614847576148466143d0565b5b60006148558582860161481b565b9250506020614866858286016143f6565b9150509250929050565b614879816145e1565b82525050565b60006020820190506148946000830184614870565b92915050565b6000602082840312156148b0576148af6143d0565b5b60006148be8482850161481b565b91505092915050565b600080600080608085870312156148e1576148e06143d0565b5b60006148ef878288016143f6565b945050602061490087828801614524565b935050604061491187828801614524565b925050606061492287828801614524565b91505092959194509250565b61493781614500565b82525050565b606082016000820151614953600085018261492e565b506020820151614966602085018261492e565b506040820151614979604085018261492e565b50505050565b614988816143d5565b82525050565b6040820160008201516149a4600085018261497f565b5060208201516149b7602085018261497f565b50505050565b600481106149ce576149cd614779565b5b50565b60008190506149df826149bd565b919050565b60006149ef826149d1565b9050919050565b6149ff816149e4565b82525050565b60006101c082019050614a1b600083018e61493d565b614a28606083018d61444b565b614a35608083018c61444b565b614a4260a083018b61444b565b614a4f60c083018a61444b565b614a5c60e083018961444b565b614a6a61010083018861444b565b614a78610120830187614713565b614a8661014083018661444b565b614a9461016083018561498e565b614aa26101a08301846149f6565b9c9b505050505050505050505050565b600081519050614ac1816144d4565b92915050565b600060208284031215614add57614adc6143d0565b5b6000614aeb84828501614ab2565b91505092915050565b600082825260208201905092915050565b7f4e6f74206f776e65720000000000000000000000000000000000000000000000600082015250565b6000614b3b600983614af4565b9150614b4682614b05565b602082019050919050565b60006020820190508181036000830152614b6a81614b2e565b9050919050565b7f47616d6520456e64656400000000000000000000000000000000000000000000600082015250565b6000614ba7600a83614af4565b9150614bb282614b71565b602082019050919050565b60006020820190508181036000830152614bd681614b9a565b9050919050565b614be681614500565b82525050565b6000606082019050614c016000830186614bdd565b614c0e6020830185614bdd565b614c1b6040830184614bdd565b949350505050565b600081519050614c32816145ed565b92915050565b600060208284031215614c4e57614c4d6143d0565b5b6000614c5c84828501614c23565b91505092915050565b7f4e6f7420537572726f756e646564000000000000000000000000000000000000600082015250565b6000614c9b600e83614af4565b9150614ca682614c65565b602082019050919050565b60006020820190508181036000830152614cca81614c8e565b9050919050565b7f4e6f000000000000000000000000000000000000000000000000000000000000600082015250565b6000614d07600283614af4565b9150614d1282614cd1565b602082019050919050565b60006020820190508181036000830152614d3681614cfa565b9050919050565b7f43616e27742041747461636b0000000000000000000000000000000000000000600082015250565b6000614d73600c83614af4565b9150614d7e82614d3d565b602082019050919050565b60006020820190508181036000830152614da281614d66565b9050919050565b7f4e487b7100000000000000000000000000000000000000000000000000000000600052601160045260246000fd5b6000614de3826143d5565b9150614dee836143d5565b9250828201905080821115614e0657614e05614da9565b5b92915050565b6000614e17826143d5565b9150614e22836143d5565b9250828202614e30816143d5565b91508282048414831517614e4757614e46614da9565b5b5092915050565b7f4e487b7100000000000000000000000000000000000000000000000000000000600052601260045260246000fd5b6000614e88826143d5565b9150614e93836143d5565b925082614ea357614ea2614e4e565b5b828204905092915050565b6000614eb982614500565b9150614ec483614500565b9250828203905060ff811115614edd57614edc614da9565b5b92915050565b600081519050614ef2816143df565b92915050565b600060208284031215614f0e57614f0d6143d0565b5b6000614f1c84828501614ee3565b91505092915050565b6000819050919050565b6000614f3a82614f25565b91507f80000000000000000000000000000000000000000000000000000000000000008203614f6c57614f6b614da9565b5b816000039050919050565b6000614f8282614500565b9150614f8d83614500565b9250828201905060ff811115614fa657614fa5614da9565b5b92915050565b6000604082019050614fc1600083018561444b565b614fce602083018461444b565b9392505050565b7f4e6f742041637469766500000000000000000000000000000000000000000000600082015250565b600061500b600a83614af4565b915061501682614fd5565b602082019050919050565b6000602082019050818103600083015261503a81614ffe565b9050919050565b600060408201905061505660008301856149f6565b615063602083018461444b565b9392505050565b7f4e6f7420496e7669746564000000000000000000000000000000000000000000600082015250565b60006150a0600b83614af4565b91506150ab8261506a565b602082019050919050565b600060208201905081810360008301526150cf81615093565b9050919050565b7f4e6f74204f776e65720000000000000000000000000000000000000000000000600082015250565b600061510c600983614af4565b9150615117826150d6565b602082019050919050565b6000602082019050818103600083015261513b816150ff565b9050919050565b7f5265676973746572656400000000000000000000000000000000000000000000600082015250565b6000615178600a83614af4565b915061518382615142565b602082019050919050565b600060208201905081810360008301526151a78161516b565b9050919050565b60006151c96151c46151bf84614500565b614659565b6143d5565b9050919050565b6151d9816151ae565b82525050565b60006080820190506151f460008301876151d0565b61520160208301866151d0565b61520e60408301856151d0565b61521b606083018461444b565b95945050505050565b7f4e65656420746f20626520616e2061637469766520706c617965720000000000600082015250565b600061525a601b83614af4565b915061526582615224565b602082019050919050565b600060208201905081810360008301526152898161524d565b9050919050565b7f4d696e206c6f636b2d696e206c6576656c206e6f742072656163686564000000600082015250565b60006152c6601d83614af4565b91506152d182615290565b602082019050919050565b600060208201905081810360008301526152f5816152b9565b9050919050565b6000819050919050565b600061532161531c615317846152fc565b614659565b6143d5565b9050919050565b61533181615306565b82525050565b600060408201905061534c6000830185614713565b6153596020830184615328565b9392505050565b6000819050919050565b600061538561538061537b84615360565b614659565b6143d5565b9050919050565b6153958161536a565b82525050565b60006040820190506153b06000830185614713565b6153bd602083018461538c565b9392505050565b7f4e487b7100000000000000000000000000000000000000000000000000000000600052603260045260246000fd5b7f4e6f7420616c6c6f776564000000000000000000000000000000000000000000600082015250565b6000615429600b83614af4565b9150615434826153f3565b602082019050919050565b600060208201905081810360008301526154588161541c565b9050919050565b7f596f752063616e206f6e6c7920626520736869656c64656420666f722061206d60008201527f617820706572696f64206f662074696d65000000000000000000000000000000602082015250565b60006154bb603183614af4565b91506154c68261545f565b604082019050919050565b600060208201905081810360008301526154ea816154ae565b9050919050565b7f4e6f7420656e6f75676820455448000000000000000000000000000000000000600082015250565b6000615527600e83614af4565b9150615532826154f1565b602082019050919050565b600060208201905081810360008301526155568161551a565b9050919050565b7f506c65617365207761697420756e74696c206e6578744d6f766554696d650000600082015250565b6000615593601e83614af4565b915061559e8261555d565b602082019050919050565b600060208201905081810360008301526155c281615586565b9050919050565b7f596f752063616e2074726176656c20746f2061206f636375706965642067726960008201527f64207768656e20796f7520737769746368206d617a6500000000000000000000602082015250565b6000615625603683614af4565b9150615630826155c9565b604082019050919050565b6000602082019050818103600083015261565481615618565b9050919050565b7f4e65656420746f20706179207468652070656e616c74792069662077616e742060008201527f746f20737769746368206d617a65206265666f72652074696d65206973207570602082015250565b60006156b7604083614af4565b91506156c28261565b565b604082019050919050565b600060208201905081810360008301526156e6816156aa565b9050919050565b7f596f752063616e206f6e6c79206d6f766520746f2061646a6163656e7420737160008201527f7561726573000000000000000000000000000000000000000000000000000000602082015250565b6000615749602583614af4565b9150615754826156ed565b604082019050919050565b600060208201905081810360008301526157788161573c565b9050919050565b7f43616e27742061747461636b206869676865722072616e6b6564000000000000600082015250565b60006157b5601a83614af4565b91506157c08261577f565b602082019050919050565b600060208201905081810360008301526157e4816157a8565b9050919050565b7f536869656c646564000000000000000000000000000000000000000000000000600082015250565b6000615821600883614af4565b915061582c826157eb565b602082019050919050565b6000602082019050818103600083015261585081615814565b9050919050565b7f50726f7465637465640000000000000000000000000000000000000000000000600082015250565b600061588d600983614af4565b915061589882615857565b602082019050919050565b600060208201905081810360008301526158bc81615880565b9050919050565b60006060820190506158d8600083018661444b565b6158e5602083018561444b565b6158f2604083018461444b565b949350505050565b7f556e646572666c6f77206572726f720000000000000000000000000000000000600082015250565b6000615930600f83614af4565b915061593b826158fa565b602082019050919050565b6000602082019050818103600083015261595f81615923565b9050919050565b6000615971826143d5565b915061597c836143d5565b925082820390508181111561599457615993614da9565b5b92915050565b7f4f766572666c6f77206572726f72000000000000000000000000000000000000600082015250565b60006159d0600e83614af4565b91506159db8261599a565b602082019050919050565b600060208201905081810360008301526159ff816159c3565b9050919050565b6000615a1182614f25565b9150615a1c83614f25565b925082820190508281121560008312168382126000841215161715615a4457615a43614da9565b5b92915050565b615a5381614f25565b82525050565b6000602082019050615a6e6000830184615a4a565b92915050565b600060c082019050615a896000830189614bdd565b615a966020830188614bdd565b615aa36040830187614bdd565b615ab06060830186614bdd565b615abd6080830185614bdd565b615aca60a083018461444b565b979650505050505050565b7f6d6178206d6f766520657863656564656420666f7220746f6461790000000000600082015250565b6000615b0b601b83614af4565b9150615b1682615ad5565b602082019050919050565b60006020820190508181036000830152615b3a81615afe565b9050919050565b6000819050919050565b6000615b66615b61615b5c84615b41565b614659565b6143d5565b9050919050565b615b7681615b4b565b82525050565b6000602082019050615b916000830184615b6d565b92915050565b6000819050919050565b6000615bbc615bb7615bb284615b97565b614659565b6143d5565b9050919050565b615bcc81615ba1565b82525050565b6000602082019050615be76000830184615bc3565b92915050565b6000819050919050565b6000615c12615c0d615c0884615bed565b614659565b6143d5565b9050919050565b615c2281615bf7565b82525050565b6000604082019050615c3d6000830185614713565b615c4a6020830184615c19565b9392505050565b6000602082019050615c666000830184615328565b9291505056fea2646970667358221220f36b6a8c5ea2dae1040663e9a28840c786fcd1b7f90dad01a373bf3116cf419164736f6c634300081b0033",
  "linkReferences": {},
  "deployedLinkReferences": {}
}